{
  "_format": "hh-sol-artifact-1",
  "contractName": "CertificateNFT",
  "sourceName": "contracts/CertificateNFT.sol",
  "abi": [
    {
      "inputs": [],
      "stateMutability": "nonpayable",
      "type": "constructor"
    },
    {
      "inputs": [],
      "name": "AccessControlBadConfirmation",
      "type": "error"
    },
    {
      "inputs": [
        {
          "internalType": "address",
          "name": "account",
          "type": "address"
        },
        {
          "internalType": "bytes32",
          "name": "neededRole",
          "type": "bytes32"
        }
      ],
      "name": "AccessControlUnauthorizedAccount",
      "type": "error"
    },
    {
      "inputs": [],
      "name": "AlreadyExists",
      "type": "error"
    },
    {
      "inputs": [],
      "name": "BatchLimit",
      "type": "error"
    },
    {
      "inputs": [
        {
          "internalType": "address",
          "name": "sender",
          "type": "address"
        },
        {
          "internalType": "uint256",
          "name": "tokenId",
          "type": "uint256"
        },
        {
          "internalType": "address",
          "name": "owner",
          "type": "address"
        }
      ],
      "name": "ERC721IncorrectOwner",
      "type": "error"
    },
    {
      "inputs": [
        {
          "internalType": "address",
          "name": "operator",
          "type": "address"
        },
        {
          "internalType": "uint256",
          "name": "tokenId",
          "type": "uint256"
        }
      ],
      "name": "ERC721InsufficientApproval",
      "type": "error"
    },
    {
      "inputs": [
        {
          "internalType": "address",
          "name": "approver",
          "type": "address"
        }
      ],
      "name": "ERC721InvalidApprover",
      "type": "error"
    },
    {
      "inputs": [
        {
          "internalType": "address",
          "name": "operator",
          "type": "address"
        }
      ],
      "name": "ERC721InvalidOperator",
      "type": "error"
    },
    {
      "inputs": [
        {
          "internalType": "address",
          "name": "owner",
          "type": "address"
        }
      ],
      "name": "ERC721InvalidOwner",
      "type": "error"
    },
    {
      "inputs": [
        {
          "internalType": "address",
          "name": "receiver",
          "type": "address"
        }
      ],
      "name": "ERC721InvalidReceiver",
      "type": "error"
    },
    {
      "inputs": [
        {
          "internalType": "address",
          "name": "sender",
          "type": "address"
        }
      ],
      "name": "ERC721InvalidSender",
      "type": "error"
    },
    {
      "inputs": [
        {
          "internalType": "uint256",
          "name": "tokenId",
          "type": "uint256"
        }
      ],
      "name": "ERC721NonexistentToken",
      "type": "error"
    },
    {
      "inputs": [],
      "name": "EnforcedPause",
      "type": "error"
    },
    {
      "inputs": [],
      "name": "ExpectedPause",
      "type": "error"
    },
    {
      "inputs": [],
      "name": "InvalidInput",
      "type": "error"
    },
    {
      "inputs": [],
      "name": "LengthMismatch",
      "type": "error"
    },
    {
      "inputs": [],
      "name": "NotFound",
      "type": "error"
    },
    {
      "inputs": [],
      "name": "Revoked",
      "type": "error"
    },
    {
      "inputs": [],
      "name": "Unauthorized",
      "type": "error"
    },
    {
      "anonymous": false,
      "inputs": [
        {
          "indexed": true,
          "internalType": "uint256",
          "name": "id",
          "type": "uint256"
        },
        {
          "indexed": false,
          "internalType": "string",
          "name": "title",
          "type": "string"
        },
        {
          "indexed": false,
          "internalType": "string",
          "name": "category",
          "type": "string"
        }
      ],
      "name": "AchievementCertDetails",
      "type": "event"
    },
    {
      "anonymous": false,
      "inputs": [
        {
          "indexed": true,
          "internalType": "address",
          "name": "owner",
          "type": "address"
        },
        {
          "indexed": true,
          "internalType": "address",
          "name": "approved",
          "type": "address"
        },
        {
          "indexed": true,
          "internalType": "uint256",
          "name": "tokenId",
          "type": "uint256"
        }
      ],
      "name": "Approval",
      "type": "event"
    },
    {
      "anonymous": false,
      "inputs": [
        {
          "indexed": true,
          "internalType": "address",
          "name": "owner",
          "type": "address"
        },
        {
          "indexed": true,
          "internalType": "address",
          "name": "operator",
          "type": "address"
        },
        {
          "indexed": false,
          "internalType": "bool",
          "name": "approved",
          "type": "bool"
        }
      ],
      "name": "ApprovalForAll",
      "type": "event"
    },
    {
      "anonymous": false,
      "inputs": [
        {
          "indexed": false,
          "internalType": "uint256",
          "name": "_fromTokenId",
          "type": "uint256"
        },
        {
          "indexed": false,
          "internalType": "uint256",
          "name": "_toTokenId",
          "type": "uint256"
        }
      ],
      "name": "BatchMetadataUpdate",
      "type": "event"
    },
    {
      "anonymous": false,
      "inputs": [
        {
          "indexed": true,
          "internalType": "uint256",
          "name": "tokenId",
          "type": "uint256"
        },
        {
          "indexed": false,
          "internalType": "address",
          "name": "admin",
          "type": "address"
        }
      ],
      "name": "CertRevoked",
      "type": "event"
    },
    {
      "anonymous": false,
      "inputs": [
        {
          "indexed": true,
          "internalType": "uint256",
          "name": "tokenId",
          "type": "uint256"
        },
        {
          "indexed": false,
          "internalType": "address",
          "name": "verifier",
          "type": "address"
        },
        {
          "indexed": false,
          "internalType": "bool",
          "name": "isValid",
          "type": "bool"
        }
      ],
      "name": "CertVerified",
      "type": "event"
    },
    {
      "anonymous": false,
      "inputs": [
        {
          "indexed": true,
          "internalType": "uint256",
          "name": "tokenId",
          "type": "uint256"
        },
        {
          "indexed": true,
          "internalType": "address",
          "name": "student",
          "type": "address"
        },
        {
          "indexed": false,
          "internalType": "string",
          "name": "ipfsHash",
          "type": "string"
        },
        {
          "indexed": false,
          "internalType": "enum CertificateNFT.CertificateType",
          "name": "certType",
          "type": "uint8"
        },
        {
          "indexed": false,
          "internalType": "uint256",
          "name": "timestamp",
          "type": "uint256"
        }
      ],
      "name": "CertificateIssued",
      "type": "event"
    },
    {
      "anonymous": false,
      "inputs": [
        {
          "indexed": true,
          "internalType": "uint256",
          "name": "id",
          "type": "uint256"
        },
        {
          "indexed": false,
          "internalType": "string",
          "name": "templateId",
          "type": "string"
        }
      ],
      "name": "CustomCertDetails",
      "type": "event"
    },
    {
      "anonymous": false,
      "inputs": [
        {
          "indexed": false,
          "internalType": "uint256",
          "name": "_tokenId",
          "type": "uint256"
        }
      ],
      "name": "MetadataUpdate",
      "type": "event"
    },
    {
      "anonymous": false,
      "inputs": [
        {
          "indexed": false,
          "internalType": "address",
          "name": "account",
          "type": "address"
        }
      ],
      "name": "Paused",
      "type": "event"
    },
    {
      "anonymous": false,
      "inputs": [
        {
          "indexed": true,
          "internalType": "uint256",
          "name": "id",
          "type": "uint256"
        },
        {
          "indexed": false,
          "internalType": "string",
          "name": "course",
          "type": "string"
        },
        {
          "indexed": false,
          "internalType": "string",
          "name": "grade",
          "type": "string"
        }
      ],
      "name": "RegularCertDetails",
      "type": "event"
    },
    {
      "anonymous": false,
      "inputs": [
        {
          "indexed": true,
          "internalType": "bytes32",
          "name": "role",
          "type": "bytes32"
        },
        {
          "indexed": true,
          "internalType": "bytes32",
          "name": "previousAdminRole",
          "type": "bytes32"
        },
        {
          "indexed": true,
          "internalType": "bytes32",
          "name": "newAdminRole",
          "type": "bytes32"
        }
      ],
      "name": "RoleAdminChanged",
      "type": "event"
    },
    {
      "anonymous": false,
      "inputs": [
        {
          "indexed": true,
          "internalType": "bytes32",
          "name": "role",
          "type": "bytes32"
        },
        {
          "indexed": true,
          "internalType": "address",
          "name": "account",
          "type": "address"
        },
        {
          "indexed": true,
          "internalType": "address",
          "name": "sender",
          "type": "address"
        }
      ],
      "name": "RoleGranted",
      "type": "event"
    },
    {
      "anonymous": false,
      "inputs": [
        {
          "indexed": true,
          "internalType": "bytes32",
          "name": "role",
          "type": "bytes32"
        },
        {
          "indexed": true,
          "internalType": "address",
          "name": "account",
          "type": "address"
        },
        {
          "indexed": true,
          "internalType": "address",
          "name": "sender",
          "type": "address"
        }
      ],
      "name": "RoleRevoked",
      "type": "event"
    },
    {
      "anonymous": false,
      "inputs": [
        {
          "indexed": true,
          "internalType": "uint256",
          "name": "id",
          "type": "uint256"
        },
        {
          "indexed": false,
          "internalType": "string",
          "name": "serialNo",
          "type": "string"
        },
        {
          "indexed": false,
          "internalType": "string",
          "name": "memoNo",
          "type": "string"
        },
        {
          "indexed": false,
          "internalType": "uint256",
          "name": "sgpa",
          "type": "uint256"
        }
      ],
      "name": "SemesterCertDetails",
      "type": "event"
    },
    {
      "anonymous": false,
      "inputs": [
        {
          "indexed": true,
          "internalType": "address",
          "name": "from",
          "type": "address"
        },
        {
          "indexed": true,
          "internalType": "address",
          "name": "to",
          "type": "address"
        },
        {
          "indexed": true,
          "internalType": "uint256",
          "name": "tokenId",
          "type": "uint256"
        }
      ],
      "name": "Transfer",
      "type": "event"
    },
    {
      "anonymous": false,
      "inputs": [
        {
          "indexed": false,
          "internalType": "address",
          "name": "account",
          "type": "address"
        }
      ],
      "name": "Unpaused",
      "type": "event"
    },
    {
      "inputs": [],
      "name": "ADMIN_ROLE",
      "outputs": [
        {
          "internalType": "bytes32",
          "name": "",
          "type": "bytes32"
        }
      ],
      "stateMutability": "view",
      "type": "function"
    },
    {
      "inputs": [],
      "name": "DEFAULT_ADMIN_ROLE",
      "outputs": [
        {
          "internalType": "bytes32",
          "name": "",
          "type": "bytes32"
        }
      ],
      "stateMutability": "view",
      "type": "function"
    },
    {
      "inputs": [],
      "name": "MAX_BATCH_SIZE",
      "outputs": [
        {
          "internalType": "uint256",
          "name": "",
          "type": "uint256"
        }
      ],
      "stateMutability": "view",
      "type": "function"
    },
    {
      "inputs": [],
      "name": "MINTER_ROLE",
      "outputs": [
        {
          "internalType": "bytes32",
          "name": "",
          "type": "bytes32"
        }
      ],
      "stateMutability": "view",
      "type": "function"
    },
    {
      "inputs": [],
      "name": "VERIFIER_ROLE",
      "outputs": [
        {
          "internalType": "bytes32",
          "name": "",
          "type": "bytes32"
        }
      ],
      "stateMutability": "view",
      "type": "function"
    },
    {
      "inputs": [
        {
          "internalType": "address",
          "name": "to",
          "type": "address"
        },
        {
          "internalType": "uint256",
          "name": "tokenId",
          "type": "uint256"
        }
      ],
      "name": "approve",
      "outputs": [],
      "stateMutability": "nonpayable",
      "type": "function"
    },
    {
      "inputs": [
        {
          "internalType": "address",
          "name": "owner",
          "type": "address"
        }
      ],
      "name": "balanceOf",
      "outputs": [
        {
          "internalType": "uint256",
          "name": "",
          "type": "uint256"
        }
      ],
      "stateMutability": "view",
      "type": "function"
    },
    {
      "inputs": [
        {
          "internalType": "uint256",
          "name": "",
          "type": "uint256"
        }
      ],
      "name": "certConfigs",
      "outputs": [
        {
          "internalType": "enum CertificateNFT.CertificateType",
          "name": "certType",
          "type": "uint8"
        },
        {
          "internalType": "bool",
          "name": "isRevoked",
          "type": "bool"
        },
        {
          "internalType": "address",
          "name": "issuer",
          "type": "address"
        },
        {
          "internalType": "uint256",
          "name": "issueDate",
          "type": "uint256"
        }
      ],
      "stateMutability": "view",
      "type": "function"
    },
    {
      "inputs": [
        {
          "internalType": "uint256",
          "name": "tokenId",
          "type": "uint256"
        }
      ],
      "name": "getApproved",
      "outputs": [
        {
          "internalType": "address",
          "name": "",
          "type": "address"
        }
      ],
      "stateMutability": "view",
      "type": "function"
    },
    {
      "inputs": [
        {
          "internalType": "bytes32",
          "name": "role",
          "type": "bytes32"
        }
      ],
      "name": "getRoleAdmin",
      "outputs": [
        {
          "internalType": "bytes32",
          "name": "",
          "type": "bytes32"
        }
      ],
      "stateMutability": "view",
      "type": "function"
    },
    {
      "inputs": [
        {
          "internalType": "address",
          "name": "student",
          "type": "address"
        }
      ],
      "name": "getStudentCertificates",
      "outputs": [
        {
          "internalType": "uint256[]",
          "name": "",
          "type": "uint256[]"
        }
      ],
      "stateMutability": "view",
      "type": "function"
    },
    {
      "inputs": [
        {
          "internalType": "bytes32",
          "name": "role",
          "type": "bytes32"
        },
        {
          "internalType": "address",
          "name": "account",
          "type": "address"
        }
      ],
      "name": "grantRole",
      "outputs": [],
      "stateMutability": "nonpayable",
      "type": "function"
    },
    {
      "inputs": [
        {
          "internalType": "bytes32",
          "name": "role",
          "type": "bytes32"
        },
        {
          "internalType": "address",
          "name": "account",
          "type": "address"
        }
      ],
      "name": "hasRole",
      "outputs": [
        {
          "internalType": "bool",
          "name": "",
          "type": "bool"
        }
      ],
      "stateMutability": "view",
      "type": "function"
    },
    {
      "inputs": [
        {
          "internalType": "address",
          "name": "owner",
          "type": "address"
        },
        {
          "internalType": "address",
          "name": "operator",
          "type": "address"
        }
      ],
      "name": "isApprovedForAll",
      "outputs": [
        {
          "internalType": "bool",
          "name": "",
          "type": "bool"
        }
      ],
      "stateMutability": "view",
      "type": "function"
    },
    {
      "inputs": [
        {
          "internalType": "address",
          "name": "student",
          "type": "address"
        },
        {
          "internalType": "string",
          "name": "title",
          "type": "string"
        },
        {
          "internalType": "string",
          "name": "category",
          "type": "string"
        },
        {
          "internalType": "string",
          "name": "ipfsHash",
          "type": "string"
        },
        {
          "internalType": "address[]",
          "name": "",
          "type": "address[]"
        }
      ],
      "name": "mintAchievementCertificate",
      "outputs": [
        {
          "internalType": "uint256",
          "name": "",
          "type": "uint256"
        }
      ],
      "stateMutability": "nonpayable",
      "type": "function"
    },
    {
      "inputs": [
        {
          "internalType": "address",
          "name": "student",
          "type": "address"
        },
        {
          "internalType": "string",
          "name": "courseName",
          "type": "string"
        },
        {
          "internalType": "string",
          "name": "grade",
          "type": "string"
        },
        {
          "internalType": "string",
          "name": "ipfsHash",
          "type": "string"
        }
      ],
      "name": "mintCertificate",
      "outputs": [
        {
          "internalType": "uint256",
          "name": "",
          "type": "uint256"
        }
      ],
      "stateMutability": "nonpayable",
      "type": "function"
    },
    {
      "inputs": [
        {
          "internalType": "address[]",
          "name": "students",
          "type": "address[]"
        },
        {
          "internalType": "string[]",
          "name": "courseNames",
          "type": "string[]"
        },
        {
          "internalType": "string[]",
          "name": "grades",
          "type": "string[]"
        },
        {
          "internalType": "string[]",
          "name": "ipfsHashes",
          "type": "string[]"
        }
      ],
      "name": "mintCertificatesBatch",
      "outputs": [],
      "stateMutability": "nonpayable",
      "type": "function"
    },
    {
      "inputs": [
        {
          "internalType": "address",
          "name": "student",
          "type": "address"
        },
        {
          "internalType": "string",
          "name": "templateId",
          "type": "string"
        },
        {
          "internalType": "string[]",
          "name": "",
          "type": "string[]"
        },
        {
          "internalType": "string[]",
          "name": "",
          "type": "string[]"
        },
        {
          "internalType": "string",
          "name": "ipfsHash",
          "type": "string"
        }
      ],
      "name": "mintCustomCertificate",
      "outputs": [
        {
          "internalType": "uint256",
          "name": "",
          "type": "uint256"
        }
      ],
      "stateMutability": "nonpayable",
      "type": "function"
    },
    {
      "inputs": [
        {
          "internalType": "address",
          "name": "student",
          "type": "address"
        },
        {
          "components": [
            {
              "internalType": "string",
              "name": "serialNo",
              "type": "string"
            },
            {
              "internalType": "string",
              "name": "memoNo",
              "type": "string"
            },
            {
              "internalType": "string",
              "name": "regdNo",
              "type": "string"
            },
            {
              "internalType": "string",
              "name": "branch",
              "type": "string"
            },
            {
              "internalType": "string",
              "name": "examination",
              "type": "string"
            },
            {
              "internalType": "uint256",
              "name": "sgpa",
              "type": "uint256"
            }
          ],
          "internalType": "struct CertificateNFT.SemesterParams",
          "name": "params",
          "type": "tuple"
        },
        {
          "internalType": "string",
          "name": "ipfsHash",
          "type": "string"
        }
      ],
      "name": "mintSemesterCertificate",
      "outputs": [
        {
          "internalType": "uint256",
          "name": "",
          "type": "uint256"
        }
      ],
      "stateMutability": "nonpayable",
      "type": "function"
    },
    {
      "inputs": [],
      "name": "name",
      "outputs": [
        {
          "internalType": "string",
          "name": "",
          "type": "string"
        }
      ],
      "stateMutability": "view",
      "type": "function"
    },
    {
      "inputs": [
        {
          "internalType": "uint256",
          "name": "tokenId",
          "type": "uint256"
        }
      ],
      "name": "ownerOf",
      "outputs": [
        {
          "internalType": "address",
          "name": "",
          "type": "address"
        }
      ],
      "stateMutability": "view",
      "type": "function"
    },
    {
      "inputs": [],
      "name": "pause",
      "outputs": [],
      "stateMutability": "nonpayable",
      "type": "function"
    },
    {
      "inputs": [],
      "name": "paused",
      "outputs": [
        {
          "internalType": "bool",
          "name": "",
          "type": "bool"
        }
      ],
      "stateMutability": "view",
      "type": "function"
    },
    {
      "inputs": [
        {
          "internalType": "bytes32",
          "name": "role",
          "type": "bytes32"
        },
        {
          "internalType": "address",
          "name": "callerConfirmation",
          "type": "address"
        }
      ],
      "name": "renounceRole",
      "outputs": [],
      "stateMutability": "nonpayable",
      "type": "function"
    },
    {
      "inputs": [
        {
          "internalType": "uint256",
          "name": "tokenId",
          "type": "uint256"
        }
      ],
      "name": "revokeCertificate",
      "outputs": [],
      "stateMutability": "nonpayable",
      "type": "function"
    },
    {
      "inputs": [
        {
          "internalType": "bytes32",
          "name": "role",
          "type": "bytes32"
        },
        {
          "internalType": "address",
          "name": "account",
          "type": "address"
        }
      ],
      "name": "revokeRole",
      "outputs": [],
      "stateMutability": "nonpayable",
      "type": "function"
    },
    {
      "inputs": [
        {
          "internalType": "address",
          "name": "from",
          "type": "address"
        },
        {
          "internalType": "address",
          "name": "to",
          "type": "address"
        },
        {
          "internalType": "uint256",
          "name": "tokenId",
          "type": "uint256"
        }
      ],
      "name": "safeTransferFrom",
      "outputs": [],
      "stateMutability": "nonpayable",
      "type": "function"
    },
    {
      "inputs": [
        {
          "internalType": "address",
          "name": "from",
          "type": "address"
        },
        {
          "internalType": "address",
          "name": "to",
          "type": "address"
        },
        {
          "internalType": "uint256",
          "name": "tokenId",
          "type": "uint256"
        },
        {
          "internalType": "bytes",
          "name": "data",
          "type": "bytes"
        }
      ],
      "name": "safeTransferFrom",
      "outputs": [],
      "stateMutability": "nonpayable",
      "type": "function"
    },
    {
      "inputs": [
        {
          "internalType": "address",
          "name": "operator",
          "type": "address"
        },
        {
          "internalType": "bool",
          "name": "approved",
          "type": "bool"
        }
      ],
      "name": "setApprovalForAll",
      "outputs": [],
      "stateMutability": "nonpayable",
      "type": "function"
    },
    {
      "inputs": [
        {
          "internalType": "string",
          "name": "baseURI",
          "type": "string"
        }
      ],
      "name": "setBaseURI",
      "outputs": [],
      "stateMutability": "nonpayable",
      "type": "function"
    },
    {
      "inputs": [
        {
          "internalType": "address",
          "name": "",
          "type": "address"
        },
        {
          "internalType": "uint256",
          "name": "",
          "type": "uint256"
        }
      ],
      "name": "studentCertificates",
      "outputs": [
        {
          "internalType": "uint256",
          "name": "",
          "type": "uint256"
        }
      ],
      "stateMutability": "view",
      "type": "function"
    },
    {
      "inputs": [
        {
          "internalType": "bytes4",
          "name": "interfaceId",
          "type": "bytes4"
        }
      ],
      "name": "supportsInterface",
      "outputs": [
        {
          "internalType": "bool",
          "name": "",
          "type": "bool"
        }
      ],
      "stateMutability": "view",
      "type": "function"
    },
    {
      "inputs": [],
      "name": "symbol",
      "outputs": [
        {
          "internalType": "string",
          "name": "",
          "type": "string"
        }
      ],
      "stateMutability": "view",
      "type": "function"
    },
    {
      "inputs": [
        {
          "internalType": "uint256",
          "name": "tokenId",
          "type": "uint256"
        }
      ],
      "name": "tokenURI",
      "outputs": [
        {
          "internalType": "string",
          "name": "",
          "type": "string"
        }
      ],
      "stateMutability": "view",
      "type": "function"
    },
    {
      "inputs": [
        {
          "internalType": "address",
          "name": "from",
          "type": "address"
        },
        {
          "internalType": "address",
          "name": "to",
          "type": "address"
        },
        {
          "internalType": "uint256",
          "name": "tokenId",
          "type": "uint256"
        }
      ],
      "name": "transferFrom",
      "outputs": [],
      "stateMutability": "nonpayable",
      "type": "function"
    },
    {
      "inputs": [],
      "name": "unpause",
      "outputs": [],
      "stateMutability": "nonpayable",
      "type": "function"
    },
    {
      "inputs": [
        {
          "internalType": "string",
          "name": "",
          "type": "string"
        }
      ],
      "name": "usedHashes",
      "outputs": [
        {
          "internalType": "bool",
          "name": "",
          "type": "bool"
        }
      ],
      "stateMutability": "view",
      "type": "function"
    },
    {
      "inputs": [
        {
          "internalType": "string",
          "name": "",
          "type": "string"
        }
      ],
      "name": "usedUniqueIdentifiers",
      "outputs": [
        {
          "internalType": "bool",
          "name": "",
          "type": "bool"
        }
      ],
      "stateMutability": "view",
      "type": "function"
    },
    {
      "inputs": [
        {
          "internalType": "uint256",
          "name": "tokenId",
          "type": "uint256"
        }
      ],
      "name": "verifyCertificate",
      "outputs": [
        {
          "internalType": "bool",
          "name": "isValid",
          "type": "bool"
        },
        {
          "internalType": "string",
          "name": "ipfsUri",
          "type": "string"
        },
        {
          "internalType": "enum CertificateNFT.CertificateType",
          "name": "cType",
          "type": "uint8"
        }
      ],
      "stateMutability": "view",
      "type": "function"
    },
    {
      "inputs": [
        {
          "internalType": "uint256",
          "name": "tokenId",
          "type": "uint256"
        }
      ],
      "name": "verifyCertificateByVerifier",
      "outputs": [
        {
          "internalType": "bool",
          "name": "",
          "type": "bool"
        },
        {
          "internalType": "enum CertificateNFT.CertificateType",
          "name": "",
          "type": "uint8"
        }
      ],
      "stateMutability": "nonpayable",
      "type": "function"
    }
  ],
  "bytecode": "0x60803462000346576001600160401b0390604090808201838111828210176200033057825260128152602092715669676e616e20436572746966696361746560701b848301528251838101818110838211176200033057845260068152652b24a3a720a760d11b85820152825190828211620003305760008054926001958685811c9516801562000325575b8986101462000311578190601f95868111620002be575b5089908683116001146200025a5784926200024e575b5050600019600383901b1c191690861b1781555b81519384116200023a5784548581811c911680156200022f575b888210146200021b57838111620001d3575b50869284116001146200016d5783949596509262000161575b5050600019600383901b1c191690821b1790555b60ff19600854166008556200013a336200034b565b506200014633620003cc565b5062000152336200046f565b5051612d5e90816200050e8239f35b01519050388062000111565b9190601f1984169685845280842093905b888210620001bb5750508385969710620001a1575b505050811b01905562000125565b015160001960f88460031b161c1916905538808062000193565b8087859682949686015181550195019301906200017e565b8582528782208480870160051c8201928a881062000211575b0160051c019086905b82811062000205575050620000f8565b838155018690620001f5565b92508192620001ec565b634e487b7160e01b82526022600452602482fd5b90607f1690620000e6565b634e487b7160e01b81526041600452602490fd5b015190503880620000b8565b8480528a85208994509190601f198416865b8d828210620002a757505084116200028d575b505050811b018155620000cc565b015160001960f88460031b161c191690553880806200027f565b8385015186558c979095019493840193016200026c565b9091508380528984208680850160051c8201928c861062000307575b918a91869594930160051c01915b828110620002f8575050620000a2565b8681558594508a9101620002e8565b92508192620002da565b634e487b7160e01b83526022600452602483fd5b94607f16946200008b565b634e487b7160e01b600052604160045260246000fd5b600080fd5b6001600160a01b031660008181527f6d5257204ebe7d88fd91ae87941cb2dd9d8062b64ae5a2bd2d28ec40b9fbf6df602052604081205490919060ff16620003c85781805260076020526040822081835260205260408220600160ff1982541617905533916000805160206200326c8339815191528180a4600190565b5090565b6001600160a01b031660008181527fa70365933f78520ef41d6645ba61e509916296603327302d41466c063e8e260860205260408120549091907fa49807205ce4d355092ef5a8a18f56e8913cf4a201fbe287825b095693c217759060ff166200046a5780835260076020526040832082845260205260408320600160ff198254161790556000805160206200326c833981519152339380a4600190565b505090565b6001600160a01b031660008181527fa4bfd7afe708e2e87e7f0e2ad9b4d545417e0f795f57b5c5ab5d799c565a04f460205260408120549091907f9f2df0fed2c77648de5860a4cc508cd0818c85b8b8a1ab4ceeef8d981c8956a69060ff166200046a5780835260076020526040832082845260205260408320600160ff198254161790556000805160206200326c833981519152339380a460019056fe608080604052600436101561001357600080fd5b60003560e01c90816301ffc9a714611d705750806306f5497e14611cb357806306fdde0314611c10578063081812fc14611bd2578063095ea7b314611aeb5780631692a94214611aa057806323b872dd14611a89578063248a9ca314611a5a5780632f2ff15d14611a1b57806336568abe146119d45780633f4ba83a1461196a57806342842e0e1461193c5780634615bfe1146117d357806355f804b3146116925780635c975abb1461166f5780636352211e1461163f5780636d343da1146115dd57806370a082311461158457806375b238fc1461155b5780637ac2a3001461152f5780638456cb59146114d557806391d1485414611488578063929c01fd146113de57806395d89b411461132d5780639818227414610eb25780639d952cd114610d30578063a217fddf14610d14578063a22cb46514610c6f578063a85e9a7c146108de578063b88d4fde14610873578063bd1f5f3114610834578063c3934f0e146107dc578063c87b56dd146107a5578063cfdbf25414610789578063d539139314610760578063d547741f1461071f578063e39ae76d1461030f578063e7705db6146102e6578063e985e9c5146102905763ebc63bc0146101d757600080fd5b3461028b5760208060031936011261028b576001600160a01b036101f9611e57565b16600052600c8152604060002060405190818382549182815201908192600052846000209060005b8682821061027757868661023782880383611f2b565b604051928392818401908285525180915260408401929160005b82811061026057505050500390f35b835185528695509381019392810192600101610251565b835485529093019260019283019201610221565b600080fd5b3461028b57604036600319011261028b576102a9611e57565b6102b1611e6d565b9060018060a01b03809116600052600560205260406000209116600052602052602060ff604060002054166040519015158152f35b3461028b57600036600319011261028b576020604051600080516020612ce98339815191528152f35b3461028b5760a036600319011261028b57610328611e57565b6001600160401b0360243581811161028b57610348903690600401611fde565b60443583811161028b57610360903690600401611ec5565b505060643583811161028b5761037a903690600401611ec5565b505060843583811161028b57610394903690600401611fde565b92909161039f612083565b6103a7612762565b6001600160a01b039486861690811561070d57851561070d576040519786868a3760ff89888101600d815260209b8c910301902054166106fb576103ec6009546126a8565b9788600955604051906103fe82611f10565b6000825261040c8a8461239e565b166106e2578861041b9261248e565b610426368787611f69565b90876000526006895260406000209180519182116105f557819061044a84546121ea565b601f8111610691575b508a90601f831160011461062c57600092610621575b50508160011b916000199060031b1c19161790555b600080516020612d0983398151915287604051888152a1604051936104a285611ef5565b60038552878501946000865260408101953387526060820142815289600052600b8b526040600020925197600489101561060b576104f460019360ff199a60ff8c885416911617865551151585612780565b51835461ffff1960b085901b01801990911660109290921b16178355519101556000828152600c89526040902080549091600160401b8210156105f55788977fe2b824529f30971393ca403cf982a1c34eea2dcc4e03bc330e8a4e42d532ef3a976105928a6105798682986001600080516020612c698339815191529901815561200b565b90919082549060031b91821b91600019901b1916179055565b6001604051838582378d81858101600d815203019020918254161790556105c660405192839260608452606084019161271a565b60038c8301524260408301520390a36105ea6040519283928884528884019161271a565b0390a2604051908152f35b634e487b7160e01b600052604160045260246000fd5b634e487b7160e01b600052602160045260246000fd5b015190508a80610469565b60008581528c81209350601f198516905b8d82821061067b575050908460019594939210610662575b505050811b01905561047e565b015160001960f88460031b161c191690558a8080610655565b600185968293968601518155019501930161063d565b909150836000528a600020601f840160051c8101918c85106106d8575b90601f859493920160051c01905b8181106106c95750610453565b600081558493506001016106bc565b90915081906106ae565b6040516339e3563760e11b815260006004820152602490fd5b60405163119b4fd360e11b8152600490fd5b60405163b4fa3fb360e01b8152600490fd5b3461028b57604036600319011261028b5761075e60043561073e611e6d565b908060005260076020526107596001604060002001546120cd565b612173565b005b3461028b57600036600319011261028b576020604051600080516020612c898339815191528152f35b3461028b57600036600319011261028b57602060405160328152f35b3461028b57602036600319011261028b576107d86107c4600435612b83565b604051918291602083526020830190611e32565b0390f35b3461028b57604036600319011261028b576107f5611e57565b6001600160a01b03166000908152600c602052604090208054602435919082101561028b576020916108269161200b565b90546040519160031b1c8152f35b3461028b57602060ff61085d8261084a36611fa0565b8160405193828580945193849201611e0f565b8101600d81520301902054166040519015158152f35b3461028b57608036600319011261028b5761088c611e57565b610894611e6d565b6064359190604435906001600160401b03841161028b573660238501121561028b576108cd61075e943690602481600401359101611f69565b926108d9838383612224565b6125c2565b3461028b5760a036600319011261028b576108f7611e57565b6001600160401b0360243581811161028b57610917903690600401611fde565b929060443583811161028b57610931903690600401611fde565b94909160643585811161028b5761094c903690600401611fde565b94909660843587811161028b57610967903690600401611ec5565b5050610971612083565b610979612762565b6001600160a01b03948286161561070d57861561070d5760ff604051888b82376020818a8101600d81520301902054166106fb576109b86009546126a8565b97886009556040516109c981611f10565b60008152876109d88b8761239e565b166106e2576109e8908a8661248e565b6109f336898c611f69565b9089600052600660205260406000209180519182116105f5578190610a1884546121ea565b601f8111610c1f575b50602090601f8311600114610bb357600092610ba8575b50508160011b916000199060031b1c19161790555b600080516020612d0983398151915260206040518a8152a160405192610a7284611ef5565b600284526020840193600085526040810194338652606082014281528b600052600b6020526040600020925196600488101561060b57610ac660019360ff199960ff8b885416911617865551151585612780565b51835461ffff1960b085901b01801990911660109290921b16178355519101558087166000908152600c602052604090208054600160401b8110156105f55760209b8b9a7f1603cf70c43fefc5da4ce8f81dd75514200996955d71930085df72741ac05b6f9a6105ea98610b548e6105798782996001600080516020612c698339815191529a01815561200b565b600160405184868237602081868101600d81520301902091825416179055610b8960405193849360608552606085019161271a565b958f60029084015242604084015216940390a36040519485948561273b565b015190508c80610a38565b9250836000526020600020906000935b601f1984168510610c04576001945083601f19811610610beb575b505050811b019055610a4d565b015160001960f88460031b161c191690558c8080610bde565b81810151835560209485019460019093019290910190610bc3565b909150836000526020600020601f840160051c810160208510610c68575b90849392915b601f830160051c82018110610c59575050610a21565b60008155859450600101610c43565b5080610c3d565b3461028b57604036600319011261028b57610c88611e57565b6024359081151580920361028b576001600160a01b0316908115610cfb57336000526005602052604060002082600052602052604060002060ff1981541660ff83161790556040519081527f17307eab39ab6107e8899845ad3d59bd9653f200f220920489ca2b5937696c3160203392a3005b604051630b61174360e31b815260048101839052602490fd5b3461028b57600036600319011261028b57602060405160008152f35b3461028b5760208060031936011261028b57600435600080516020612ce98339815191528060005260078352604060002033600052835260ff6040600020541615610e945750604051630b4954a160e11b81526004810182905290600082602481305afa908115610e8857600092600092610def575b5090604093610ded927fb8078f2598a937c51f8393ad55850919cf7fcde693b1401241932f3ecdfd158d868051963388521515968785820152a28451938452830190611e83565bf35b915091503d806000833e610e038183611f2b565b810160608282031261028b57815191821515830361028b57808501516001600160401b03811161028b5781019180601f8401121561028b578251610e4681611f4e565b91610e546040519384611f2b565b81835287828601011161028b576040938780610e7294019101611e0f565b015191600483101561028b579091906040610da6565b6040513d6000823e3d90fd5b6044906040519063e2517d3f60e01b82523360048301526024820152fd5b3461028b5760031960603682011261028b57610ecc611e57565b906001600160401b0390602435821061028b5760c0906024353603011261028b5760443581811161028b57610f05903690600401611fde565b9092610f0f612083565b610f17612762565b60ff6020610f2a600460243501806126cd565b91908260405193849283378101600e815203019020541680156112f9575b6106fb576001600160a01b03908082161561070d57821561070d5760ff60405184878237602081868101600d81520301902054166106fb57610f8b6009546126a8565b9384600955604051610f9c81611f10565b6000815283610fab878561239e565b166106e257610fbb90868461248e565b610fc6368588611f69565b9085600052600660205260406000209180519182116105f5578190610feb84546121ea565b601f81116112a6575b50602090601f831160011461123a5760009261122f575b50508160011b916000199060031b1c19161790555b600080516020612d098339815191526020604051868152a160405161104481611ef5565b60019182825260208201916000835260408101923384526060820142815288600052600b6020526040600020925194600486101561060b57611099879360ff199760ff89885416911617865551151585612780565b51835462010000600160b01b03191660109190911b62010000600160b01b0316178355519101558084166000908152600c602052604090208054600160401b8110156105f55760209888977fae746de94c016183e7b8107b39746d4c9e3a9f9928e763d1002147c11ca457e4976111298a6105798682988c600080516020612c698339815191529901815561200b565b604051828482378c81848101600d815203019020888882541617905561115c60405193849360608552606085019161271a565b95888d84015242604084015216940390a38561117d600460243501806126cd565b91908260405193849283378101600e8152030190208282825416179055602480350191866111b0846024356004016126cd565b91908260405193849283378101600e815203019020918254161790556111f46112186111e66024356004016024356004016126cd565b9290936024356004016126cd565b61120b60405195869560608752606087019161271a565b918483038a86015261271a565b60a4602435013560408301520390a2604051908152f35b01519050888061100b565b9250836000526020600020906000935b601f198416851061128b576001945083601f19811610611272575b505050811b019055611020565b015160001960f88460031b161c19169055888080611265565b8181015183556020948501946001909301929091019061124a565b909150836000526020600020601f840160051c810191602085106112ef575b90601f859493920160051c01905b8181106112e05750610ff4565b600081558493506001016112d3565b90915081906112c5565b5060ff602061131160248035016024356004016126cd565b91908260405193849283378101600e8152030190205416610f48565b3461028b57600036600319011261028b5760405160009060018054611351816121ea565b808452908281169081156113b65750600114611378575b6107d8836107c481870382611f2b565b92508060005260209283600020916000925b8284106113a3575050508101909101906107c481611368565b805485850187015292850192810161138a565b6107d895506107c493506020915091849260ff191682840152151560051b8201019350611368565b3461028b57608036600319011261028b576113f7611e57565b6001600160401b0360243581811161028b57611417903690600401611fde565b9160443581811161028b57611430903690600401611fde565b93909260643592831161028b576105ea611479602097611463600080516020612c49833981519152963690600401611fde565b9161146c612083565b611474612762565b612798565b9586956040519485948561273b565b3461028b57604036600319011261028b576114a1611e6d565b600435600052600760205260406000209060018060a01b0316600052602052602060ff604060002054166040519015158152f35b3461028b57600036600319011261028b576114ee612039565b6114f6612762565b600160ff1960085416176008557f62e78cea01bee320cd4e420270b5ea74000d11b0c9f74754ebdbfc544b05a2586020604051338152a1005b3461028b57602060ff6115458261084a36611fa0565b8101600e81520301902054166040519015158152f35b3461028b57600036600319011261028b576020604051600080516020612cc98339815191528152f35b3461028b57602036600319011261028b576001600160a01b036115a5611e57565b1680156115c45760005260036020526020604060002054604051908152f35b6040516322718ad960e21b815260006004820152602490fd5b3461028b57602036600319011261028b57600435600052600b6020526080604060002060018154910154604051916116188360ff8316611e83565b600881901c60ff161515602084015260101c6001600160a01b031660408301526060820152f35b3461028b57602036600319011261028b57602061165d600435612453565b6040516001600160a01b039091168152f35b3461028b57600036600319011261028b57602060ff600854166040519015158152f35b3461028b576116a036611fa0565b6116a8612039565b80516001600160401b0381116105f5576116c3600a546121ea565b601f811161176e575b50602080601f831160011461170a575081926000926116ff575b5050600019600383901b1c191660019190911b17600a55005b0151905082806116e6565b90601f19831693600a60005282600020926000905b868210611756575050836001951061173d575b505050811b01600a55005b015160001960f88460031b161c19169055828080611732565b8060018596829496860151815501950193019061171f565b600a6000527fc65a7bb8d6351c1cf70c95a316cc6a92839c986682d98bc35f958f4883f9d2a8601f830160051c810191602084106117c9575b601f0160051c01905b8181106117bd57506116cc565b600081556001016117b0565b90915081906117a7565b3461028b57608036600319011261028b576001600160401b0360043581811161028b57611804903690600401611ec5565b909160243581811161028b5761181e903690600401611ec5565b909160443581811161028b57611838903690600401611ec5565b9160643590811161028b57611851903690600401611ec5565b909661185b612083565b611863612762565b6032871161192a57868514801590611920575b8015611916575b6119015760005b87811061188d57005b600581901b820135906001600160a01b038216820361028b576118be6118fc926118b883878e6126ff565b91612798565b600080516020612c498339815191526118d8838a8c6126ff565b906118f46118e7868c8c6126ff565b906040519485948561273b565b0390a26126a8565b611884565b6040516001621398b960e31b03198152600490fd5b508682141561187d565b5086841415611876565b604051633e4d135960e21b8152600490fd5b3461028b5761075e61194d36611e90565b906040519261195b84611f10565b600084526108d9838383612224565b3461028b57600036600319011261028b57611983612039565b60085460ff8116156119c25760ff19166008557f5db9ee0a495bf2e6ff9c91a7834c1ba4fdd244a5e8aa4e537bd38aeae4b073aa6020604051338152a1005b604051638dfc202b60e01b8152600490fd5b3461028b57604036600319011261028b576119ed611e6d565b336001600160a01b03821603611a095761075e90600435612173565b60405163334bd91960e11b8152600490fd5b3461028b57604036600319011261028b5761075e600435611a3a611e6d565b90806000526007602052611a556001604060002001546120cd565b6120f3565b3461028b57602036600319011261028b5760043560005260076020526020600160406000200154604051908152f35b3461028b5761075e611a9a36611e90565b91612224565b3461028b57602036600319011261028b57611abc600435612a97565b6107d8611ae060409493945194859415158552606060208601526060850190611e32565b916040840190611e83565b3461028b57604036600319011261028b57611b04611e57565b602435611b1081612453565b33151580611bbf575b80611b92575b611b7a576001600160a01b039283169282918491167f8c5be1e5ebec7d5bd14f71427d1e84f3dd0314c0f7b2291e5b200ac8c7c3b925600080a4600090815260046020526040902080546001600160a01b0319169091179055005b60405163a9fbf51f60e01b8152336004820152602490fd5b5060018060a01b038116600052600560205260406000203360005260205260ff6040600020541615611b1f565b506001600160a01b038116331415611b19565b3461028b57602036600319011261028b57600435611bef81612453565b506000526004602052602060018060a01b0360406000205416604051908152f35b3461028b57600036600319011261028b57604051600090600054611c33816121ea565b8083526001918083169081156113b65750600114611c5b576107d8836107c481870382611f2b565b600080805260209450917f290decd9548b62a8d60345a988386fc84ba6bc95484008f6362f93160ef3e5635b828410611ca0575050508101909101906107c481611368565b8054858501870152928501928101611c87565b3461028b57602036600319011261028b57600435611ccf612039565b6000818152600260205260409020546001600160a01b031615611d5e5780600052600b60205260ff60406000205460081c16611d4c5780600052600b602052604060002061010061ff00198254161790557f8e273015173826f6ff8da4951135109e9bc12b7956edce372559ff29cc9614936020604051338152a2005b6040516344825a4b60e01b8152600490fd5b60405163c5723b5160e01b8152600490fd5b3461028b57602036600319011261028b576004359063ffffffff60e01b821680920361028b57602091637965db0b60e01b8114908115611db2575b5015158152f35b632483248360e11b811491508115611dcc575b5083611dab565b6380ac58cd60e01b811491508115611dfe575b8115611ded575b5083611dc5565b6301ffc9a760e01b14905083611de6565b635b5e139f60e01b81149150611ddf565b60005b838110611e225750506000910152565b8181015183820152602001611e12565b90602091611e4b81518092818552858086019101611e0f565b601f01601f1916010190565b600435906001600160a01b038216820361028b57565b602435906001600160a01b038216820361028b57565b90600482101561060b5752565b606090600319011261028b576001600160a01b0390600435828116810361028b5791602435908116810361028b579060443590565b9181601f8401121561028b578235916001600160401b03831161028b576020808501948460051b01011161028b57565b608081019081106001600160401b038211176105f557604052565b602081019081106001600160401b038211176105f557604052565b601f909101601f19168101906001600160401b038211908210176105f557604052565b6001600160401b0381116105f557601f01601f191660200190565b929192611f7582611f4e565b91611f836040519384611f2b565b82948184528183011161028b578281602093846000960137010152565b602060031982011261028b57600435906001600160401b03821161028b578060238301121561028b57816024611fdb93600401359101611f69565b90565b9181601f8401121561028b578235916001600160401b03831161028b576020838186019501011161028b57565b80548210156120235760005260206000200190600090565b634e487b7160e01b600052603260045260246000fd5b3360009081527fa70365933f78520ef41d6645ba61e509916296603327302d41466c063e8e26086020526040902054600080516020612cc98339815191529060ff1615610e945750565b3360009081527fa4bfd7afe708e2e87e7f0e2ad9b4d545417e0f795f57b5c5ab5d799c565a04f46020526040902054600080516020612c898339815191529060ff1615610e945750565b80600052600760205260406000203360005260205260ff6040600020541615610e945750565b906000918083526007602052604083209160018060a01b03169182845260205260ff6040842054161560001461216e5780835260076020526040832082845260205260408320600160ff198254161790557f2f8788117e7eff1d82e926ec794901d17c78024a50270940304540a733656f0d339380a4600190565b505090565b906000918083526007602052604083209160018060a01b03169182845260205260ff60408420541660001461216e578083526007602052604083208284526020526040832060ff1981541690557ff6391f5c32d9c69d2a47ea670b442974b53935d1edc7fd64eb21e047a839171b339380a4600190565b90600182811c9216801561221a575b602083101461220457565b634e487b7160e01b600052602260045260246000fd5b91607f16916121f9565b6001600160a01b039182169290918315612385576000928284528260209560028752604096848888205416968791331515806122ef575b50906002600080516020612ca983398151915292846122cf575b858352600381528b8320805460010190558683525289812080546001600160a01b0319168517905580a416928383036122ae5750505050565b6064945051926364283d7b60e01b8452600484015260248301526044820152fd5b6122d887612435565b848352600381528b83208054600019019055612275565b91939450915080612344575b1561230b5785929187913861225b565b878688612328576024915190637e27328960e01b82526004820152fd5b604491519063177e802f60e01b82523360048301526024820152fd5b503387148015612369575b806122fb57508582526004815233858984205416146122fb565b5086825260058152878220338352815260ff888320541661234f565b604051633250574960e11b815260006004820152602490fd5b6000828152600260205260408120546001600160a01b0390811693928491600080516020612ca98339815191529183612413575b1692836123fb575b84815260026020526040812080546001600160a01b0319168517905580a490565b838152600360205260408120600181540190556123da565b61241c86612435565b83855260036020526040852080546000190190556123d2565b600090815260046020526040902080546001600160a01b0319169055565b6000818152600260205260409020546001600160a01b0316908115612476575090565b60249060405190637e27328960e01b82526004820152fd5b803b61249957505050565b926124e29360018060a01b031692604051630a85bd0160e11b91828252336004830152600094856024840152604483015260806064830152818060209889936084830190611e32565b038187895af184918161257e575b50612550575050503d600014612548573d61250a81611f4e565b906125186040519283611f2b565b81528091843d92013e5b8051928361254357604051633250574960e11b815260048101849052602490fd5b019050fd5b506060612522565b919450915063ffffffff60e01b16036125665750565b60249060405190633250574960e11b82526004820152fd5b9091508681813d83116125bb575b6125968183611f2b565b810103126125b757516001600160e01b0319811681036125b75790386124f0565b8480fd5b503d61258c565b813b6125cf575b50505050565b604051630a85bd0160e11b8082523360048301526001600160a01b0392831660248301526044820194909452608060648201526020959290911693909290839061261d906084830190611e32565b039285816000958187895af1849181612668575b5061264b575050503d600014612548573d61250a81611f4e565b919450915063ffffffff60e01b16036125665750388080806125c9565b9091508681813d83116126a1575b6126808183611f2b565b810103126125b757516001600160e01b0319811681036125b7579038612631565b503d612676565b60001981146126b75760010190565b634e487b7160e01b600052601160045260246000fd5b903590601e198136030182121561028b57018035906001600160401b03821161028b5760200191813603831361028b57565b90821015612023576127169160051b8101906126cd565b9091565b908060209392818452848401376000828201840152601f01601f1916010190565b929061275490611fdb959360408652604086019161271a565b92602081850391015261271a565b60ff6008541661276e57565b60405163d93c066560e01b8152600490fd5b9061ff00825491151560081b169061ff001916179055565b916001600160a01b03808416929190831561070d57811561070d5760408051918385843760ff83858101600d81526020958691030190205416612a86576127e06009546126a8565b96876009558251906127f182611f10565b6000928383526128018a8361239e565b16612a6e5790886128119261248e565b61281c368587611f69565b87825260068452828220815190916001600160401b03821161298a57819061284484546121ea565b601f8111612a20575b508690601f83116001146129bd5785926129b2575b50508160011b916000199060031b1c19161790555b600080516020612d09833981519152838351898152a1815161289881611ef5565b8181528381019082825283810133815260608201904282528a8552600b8752858520925193600485101561299e57906128e66001939260ff199660ff88885416911617865551151585612780565b51835461ffff1960b085901b01801990911660109290921b1617835551910155868252600c8452828220805490600160401b82101561298a57916129498a61057984600080516020612c698339815191529a98966001849d9b999701815561200b565b60018351868882378581888101600d8152030190209182541617905561297b825195869560608752606087019161271a565b9284015242908301520390a390565b634e487b7160e01b84526041600452602484fd5b634e487b7160e01b86526021600452602486fd5b015190503880612862565b8486528786209250601f198416865b89828210612a0a5750509084600195949392106129f1575b505050811b019055612877565b015160001960f88460031b161c191690553880806129e4565b60018596829396860151815501950193016129cc565b909150838552868520601f840160051c810191888510612a64575b90601f859493920160051c01905b818110612a56575061284d565b868155849350600101612a49565b9091508190612a3b565b83516339e3563760e11b815260048101849052602490fd5b815163119b4fd360e11b8152600490fd5b600081815260026020526040808220546001600160a01b039492939190851615612b6d57818452600b60205280842094815195612ad387611ef5565b80549060ff8216926004841015612b595790600191848a5260ff8460081c161515938460208c015260101c16858a015201546060880152612b41575050612b1990612b83565b9251916004831015612b2d57506001929190565b634e487b7160e01b81526021600452602490fd5b939150935080935190612b5382611f10565b81529190565b634e487b7160e01b88526021600452602488fd5b935050819251612b7c81611f10565b8281529190565b612b8c81612453565b506000908152602090600682526040812091604051809383908054612bb0816121ea565b80855291600191808316908115612c265750600114612be9575b505050612bd992500383611f2b565b604051612be581611f10565b5290565b86528486209492508591905b818310612c0e575050612bd99350820101388080612bca565b85548884018501529485019487945091830191612bf5565b92505050612bd994925060ff191682840152151560051b820101388080612bca56fe9ccbd441c73167a447461688a5ae3c5486e18098f2ed1dd2c5f8e1d8be0b0303fd1cb6948a12dfc07653035746feb8336175f3e393445293a0602ec47ce275499f2df0fed2c77648de5860a4cc508cd0818c85b8b8a1ab4ceeef8d981c8956a6ddf252ad1be2c89b69c2b068fc378daa952ba7f163c4a11628f55a4df523b3efa49807205ce4d355092ef5a8a18f56e8913cf4a201fbe287825b095693c217750ce23c3e399818cfee81a7ab0880f714e53d7672b08df0fa62f2843416e1ea09f8e1a15aba9398e019f0b49df1a4fde98ee17ae345cb5f6b5e2c27f5033e8ce7a264697066735822122096ec629e55a963f201e6b0e91000880b5ecf1b0a260c9f5f1a191cf91bcdc32364736f6c634300081400332f8788117e7eff1d82e926ec794901d17c78024a50270940304540a733656f0d",
  "linkReferences": {},
  "deployedLinkReferences": {}
}