{"contracts/VignanRegistry.sol":{"VignanRegistry":{"abi":[{"inputs":[],"stateMutability":"nonpayable","type":"constructor"},{"inputs":[],"name":"AccessControlBadConfirmation","type":"error"},{"inputs":[{"internalType":"address","name":"account","type":"address"},{"internalType":"bytes32","name":"neededRole","type":"bytes32"}],"name":"AccessControlUnauthorizedAccount","type":"error"},{"inputs":[],"name":"EnforcedPause","type":"error"},{"inputs":[],"name":"ExpectedPause","type":"error"},{"anonymous":false,"inputs":[{"indexed":true,"internalType":"uint256","name":"courseId","type":"uint256"},{"indexed":false,"internalType":"string","name":"courseCode","type":"string"},{"indexed":false,"internalType":"string","name":"courseName","type":"string"},{"indexed":false,"internalType":"uint256","name":"credits","type":"uint256"},{"indexed":false,"internalType":"uint256","name":"timestamp","type":"uint256"}],"name":"CourseCreated","type":"event"},{"anonymous":false,"inputs":[{"indexed":true,"internalType":"uint256","name":"courseId","type":"uint256"},{"indexed":false,"internalType":"string","name":"courseName","type":"string"},{"indexed":false,"internalType":"uint256","name":"credits","type":"uint256"},{"indexed":false,"internalType":"uint256","name":"timestamp","type":"uint256"}],"name":"CourseUpdated","type":"event"},{"anonymous":false,"inputs":[{"indexed":false,"internalType":"address","name":"account","type":"address"}],"name":"Paused","type":"event"},{"anonymous":false,"inputs":[{"indexed":true,"internalType":"bytes32","name":"role","type":"bytes32"},{"indexed":true,"internalType":"bytes32","name":"previousAdminRole","type":"bytes32"},{"indexed":true,"internalType":"bytes32","name":"newAdminRole","type":"bytes32"}],"name":"RoleAdminChanged","type":"event"},{"anonymous":false,"inputs":[{"indexed":true,"internalType":"bytes32","name":"role","type":"bytes32"},{"indexed":true,"internalType":"address","name":"account","type":"address"},{"indexed":true,"internalType":"address","name":"sender","type":"address"}],"name":"RoleGranted","type":"event"},{"anonymous":false,"inputs":[{"indexed":true,"internalType":"bytes32","name":"role","type":"bytes32"},{"indexed":true,"internalType":"address","name":"account","type":"address"},{"indexed":true,"internalType":"address","name":"sender","type":"address"}],"name":"RoleRevoked","type":"event"},{"anonymous":false,"inputs":[{"indexed":true,"internalType":"uint256","name":"studentId","type":"uint256"},{"indexed":true,"internalType":"uint256","name":"courseId","type":"uint256"},{"indexed":false,"internalType":"uint256","name":"timestamp","type":"uint256"}],"name":"StudentEnrolled","type":"event"},{"anonymous":false,"inputs":[{"indexed":true,"internalType":"uint256","name":"studentId","type":"uint256"},{"indexed":false,"internalType":"string","name":"degree","type":"string"},{"indexed":false,"internalType":"uint256","name":"timestamp","type":"uint256"}],"name":"StudentGraduated","type":"event"},{"anonymous":false,"inputs":[{"indexed":true,"internalType":"uint256","name":"studentId","type":"uint256"},{"indexed":true,"internalType":"address","name":"studentAddress","type":"address"},{"indexed":false,"internalType":"string","name":"studentNumber","type":"string"},{"indexed":false,"internalType":"string","name":"name","type":"string"},{"indexed":false,"internalType":"uint256","name":"timestamp","type":"uint256"}],"name":"StudentRegistered","type":"event"},{"anonymous":false,"inputs":[{"indexed":true,"internalType":"uint256","name":"studentId","type":"uint256"},{"indexed":true,"internalType":"address","name":"studentAddress","type":"address"},{"indexed":false,"internalType":"string","name":"name","type":"string"},{"indexed":false,"internalType":"uint256","name":"timestamp","type":"uint256"}],"name":"StudentUpdated","type":"event"},{"anonymous":false,"inputs":[{"indexed":false,"internalType":"address","name":"account","type":"address"}],"name":"Unpaused","type":"event"},{"inputs":[],"name":"ADMIN_ROLE","outputs":[{"internalType":"bytes32","name":"","type":"bytes32"}],"stateMutability":"view","type":"function"},{"inputs":[],"name":"DEFAULT_ADMIN_ROLE","outputs":[{"internalType":"bytes32","name":"","type":"bytes32"}],"stateMutability":"view","type":"function"},{"inputs":[],"name":"REGISTRAR_ROLE","outputs":[{"internalType":"bytes32","name":"","type":"bytes32"}],"stateMutability":"view","type":"function"},{"inputs":[],"name":"VERIFIER_ROLE","outputs":[{"internalType":"bytes32","name":"","type":"bytes32"}],"stateMutability":"view","type":"function"},{"inputs":[{"internalType":"address","name":"","type":"address"}],"name":"addressToStudentId","outputs":[{"internalType":"uint256","name":"","type":"uint256"}],"stateMutability":"view","type":"function"},{"inputs":[{"internalType":"uint256","name":"","type":"uint256"}],"name":"courses","outputs":[{"internalType":"uint256","name":"courseId","type":"uint256"},{"internalType":"string","name":"courseCode","type":"string"},{"internalType":"string","name":"courseName","type":"string"},{"internalType":"string","name":"description","type":"string"},{"internalType":"uint256","name":"credits","type":"uint256"},{"internalType":"string","name":"department","type":"string"},{"internalType":"bool","name":"isActive","type":"bool"},{"internalType":"uint256","name":"createdAt","type":"uint256"},{"internalType":"address","name":"createdBy","type":"address"}],"stateMutability":"view","type":"function"},{"inputs":[{"internalType":"string","name":"courseCode","type":"string"},{"internalType":"string","name":"courseName","type":"string"},{"internalType":"string","name":"description","type":"string"},{"internalType":"uint256","name":"credits","type":"uint256"},{"internalType":"string","name":"department","type":"string"}],"name":"createCourse","outputs":[{"internalType":"uint256","name":"","type":"uint256"}],"stateMutability":"nonpayable","type":"function"},{"inputs":[{"internalType":"uint256","name":"courseId","type":"uint256"}],"name":"deactivateCourse","outputs":[],"stateMutability":"nonpayable","type":"function"},{"inputs":[{"internalType":"uint256","name":"studentId","type":"uint256"}],"name":"deactivateStudent","outputs":[],"stateMutability":"nonpayable","type":"function"},{"inputs":[{"internalType":"uint256","name":"studentId","type":"uint256"},{"internalType":"uint256","name":"courseId","type":"uint256"}],"name":"enrollStudent","outputs":[],"stateMutability":"nonpayable","type":"function"},{"inputs":[{"internalType":"uint256","name":"courseId","type":"uint256"}],"name":"getCourse","outputs":[{"components":[{"internalType":"uint256","name":"courseId","type":"uint256"},{"internalType":"string","name":"courseCode","type":"string"},{"internalType":"string","name":"courseName","type":"string"},{"internalType":"string","name":"description","type":"string"},{"internalType":"uint256","name":"credits","type":"uint256"},{"internalType":"string","name":"department","type":"string"},{"internalType":"bool","name":"isActive","type":"bool"},{"internalType":"uint256","name":"createdAt","type":"uint256"},{"internalType":"address","name":"createdBy","type":"address"}],"internalType":"struct VignanRegistry.Course","name":"","type":"tuple"}],"stateMutability":"view","type":"function"},{"inputs":[{"internalType":"bytes32","name":"role","type":"bytes32"}],"name":"getRoleAdmin","outputs":[{"internalType":"bytes32","name":"","type":"bytes32"}],"stateMutability":"view","type":"function"},{"inputs":[{"internalType":"uint256","name":"studentId","type":"uint256"}],"name":"getStudent","outputs":[{"components":[{"internalType":"uint256","name":"studentId","type":"uint256"},{"internalType":"address","name":"studentAddress","type":"address"},{"internalType":"string","name":"studentNumber","type":"string"},{"internalType":"string","name":"name","type":"string"},{"internalType":"string","name":"email","type":"string"},{"internalType":"string","name":"department","type":"string"},{"internalType":"string","name":"program","type":"string"},{"internalType":"uint256","name":"enrollmentDate","type":"uint256"},{"internalType":"uint256","name":"graduationDate","type":"uint256"},{"internalType":"bool","name":"isActive","type":"bool"},{"internalType":"bool","name":"isGraduated","type":"bool"},{"internalType":"string","name":"degree","type":"string"},{"internalType":"uint256[]","name":"enrolledCourses","type":"uint256[]"}],"internalType":"struct VignanRegistry.Student","name":"","type":"tuple"}],"stateMutability":"view","type":"function"},{"inputs":[{"internalType":"address","name":"studentAddress","type":"address"}],"name":"getStudentByAddress","outputs":[{"components":[{"internalType":"uint256","name":"studentId","type":"uint256"},{"internalType":"address","name":"studentAddress","type":"address"},{"internalType":"string","name":"studentNumber","type":"string"},{"internalType":"string","name":"name","type":"string"},{"internalType":"string","name":"email","type":"string"},{"internalType":"string","name":"department","type":"string"},{"internalType":"string","name":"program","type":"string"},{"internalType":"uint256","name":"enrollmentDate","type":"uint256"},{"internalType":"uint256","name":"graduationDate","type":"uint256"},{"internalType":"bool","name":"isActive","type":"bool"},{"internalType":"bool","name":"isGraduated","type":"bool"},{"internalType":"string","name":"degree","type":"string"},{"internalType":"uint256[]","name":"enrolledCourses","type":"uint256[]"}],"internalType":"struct VignanRegistry.Student","name":"","type":"tuple"}],"stateMutability":"view","type":"function"},{"inputs":[],"name":"getTotalCourses","outputs":[{"internalType":"uint256","name":"","type":"uint256"}],"stateMutability":"view","type":"function"},{"inputs":[],"name":"getTotalStudents","outputs":[{"internalType":"uint256","name":"","type":"uint256"}],"stateMutability":"view","type":"function"},{"inputs":[{"internalType":"uint256","name":"studentId","type":"uint256"},{"internalType":"string","name":"degree","type":"string"}],"name":"graduateStudent","outputs":[],"stateMutability":"nonpayable","type":"function"},{"inputs":[{"internalType":"bytes32","name":"role","type":"bytes32"},{"internalType":"address","name":"account","type":"address"}],"name":"grantRole","outputs":[],"stateMutability":"nonpayable","type":"function"},{"inputs":[{"internalType":"bytes32","name":"role","type":"bytes32"},{"internalType":"address","name":"account","type":"address"}],"name":"hasRole","outputs":[{"internalType":"bool","name":"","type":"bool"}],"stateMutability":"view","type":"function"},{"inputs":[{"internalType":"address","name":"studentAddress","type":"address"}],"name":"isStudentRegistered","outputs":[{"internalType":"bool","name":"","type":"bool"}],"stateMutability":"view","type":"function"},{"inputs":[],"name":"pause","outputs":[],"stateMutability":"nonpayable","type":"function"},{"inputs":[],"name":"paused","outputs":[{"internalType":"bool","name":"","type":"bool"}],"stateMutability":"view","type":"function"},{"inputs":[{"internalType":"address","name":"studentAddress","type":"address"},{"internalType":"string","name":"studentNumber","type":"string"},{"internalType":"string","name":"name","type":"string"},{"internalType":"string","name":"email","type":"string"},{"internalType":"string","name":"department","type":"string"},{"internalType":"string","name":"program","type":"string"}],"name":"registerStudent","outputs":[{"internalType":"uint256","name":"","type":"uint256"}],"stateMutability":"nonpayable","type":"function"},{"inputs":[{"internalType":"address","name":"","type":"address"}],"name":"registeredStudents","outputs":[{"internalType":"bool","name":"","type":"bool"}],"stateMutability":"view","type":"function"},{"inputs":[{"internalType":"bytes32","name":"role","type":"bytes32"},{"internalType":"address","name":"callerConfirmation","type":"address"}],"name":"renounceRole","outputs":[],"stateMutability":"nonpayable","type":"function"},{"inputs":[{"internalType":"bytes32","name":"role","type":"bytes32"},{"internalType":"address","name":"account","type":"address"}],"name":"revokeRole","outputs":[],"stateMutability":"nonpayable","type":"function"},{"inputs":[{"internalType":"uint256","name":"","type":"uint256"}],"name":"students","outputs":[{"internalType":"uint256","name":"studentId","type":"uint256"},{"internalType":"address","name":"studentAddress","type":"address"},{"internalType":"string","name":"studentNumber","type":"string"},{"internalType":"string","name":"name","type":"string"},{"internalType":"string","name":"email","type":"string"},{"internalType":"string","name":"department","type":"string"},{"internalType":"string","name":"program","type":"string"},{"internalType":"uint256","name":"enrollmentDate","type":"uint256"},{"internalType":"uint256","name":"graduationDate","type":"uint256"},{"internalType":"bool","name":"isActive","type":"bool"},{"internalType":"bool","name":"isGraduated","type":"bool"},{"internalType":"string","name":"degree","type":"string"}],"stateMutability":"view","type":"function"},{"inputs":[{"internalType":"bytes4","name":"interfaceId","type":"bytes4"}],"name":"supportsInterface","outputs":[{"internalType":"bool","name":"","type":"bool"}],"stateMutability":"view","type":"function"},{"inputs":[],"name":"unpause","outputs":[],"stateMutability":"nonpayable","type":"function"},{"inputs":[{"internalType":"uint256","name":"courseId","type":"uint256"},{"internalType":"string","name":"courseName","type":"string"},{"internalType":"string","name":"description","type":"string"},{"internalType":"uint256","name":"credits","type":"uint256"}],"name":"updateCourse","outputs":[],"stateMutability":"nonpayable","type":"function"},{"inputs":[{"internalType":"uint256","name":"studentId","type":"uint256"},{"internalType":"string","name":"name","type":"string"},{"internalType":"string","name":"email","type":"string"},{"internalType":"string","name":"department","type":"string"},{"internalType":"string","name":"program","type":"string"}],"name":"updateStudent","outputs":[],"stateMutability":"nonpayable","type":"function"},{"inputs":[{"internalType":"string","name":"","type":"string"}],"name":"usedStudentNumbers","outputs":[{"internalType":"bool","name":"","type":"bool"}],"stateMutability":"view","type":"function"}],"evm":{"bytecode":{"linkReferences":{},"object":"608060405234620000545760ff19600154166001556200001f3362000059565b506200002b33620000d9565b5062000037336200017b565b50620000433362000218565b5060405161323c9081620002b68239f35b600080fd5b6001600160a01b031660008181527fad3228b676f7d3cd4284a5443f17f1962b36e491b30a40b2405849e597ba5fb5602052604081205490919060ff16620000d557818052816020526040822081835260205260408220600160ff198254161790553391600080516020620034f28339815191528180a4600190565b5090565b6001600160a01b031660008181527f7d7ffb7a348e1c6a02869081a26547b49160dd3df72d1d75a570eb9b698292ec60205260408120549091907fa49807205ce4d355092ef5a8a18f56e8913cf4a201fbe287825b095693c217759060ff166200017657808352826020526040832082845260205260408320600160ff19825416179055600080516020620034f2833981519152339380a4600190565b505090565b6001600160a01b031660008181527f01ddc098da42acdf4176da08ec75800bc0fb2bce2be978b2037bcb0ae696651960205260408120549091907fedcc084d3dcd65a1f7f23c65c46722faca6953d28e43150a467cf43e5c3092389060ff166200017657808352826020526040832082845260205260408320600160ff19825416179055600080516020620034f2833981519152339380a4600190565b6001600160a01b031660008181527f1da0b5176dfe03406af5a6eed66ca01dda9b45ac4da671c3fa379cb93717ef8160205260408120549091907f0ce23c3e399818cfee81a7ab0880f714e53d7672b08df0fa62f2843416e1ea099060ff166200017657808352826020526040832082845260205260408320600160ff19825416179055600080516020620034f2833981519152339380a460019056fe608080604052600436101561001357600080fd5b60003560e01c90816301ffc9a714612a375750806306ead22e146129065780630b91e28d1461276e578063148e0f061461266b578063248a9ca31461263c57806328bcb51a1461261e5780632f2ff15d146125df57806336568abe146125985780633f4ba83a1461252e5780635c975abb1461250b5780635d5aa72e14611e24578063642f916314611cef5780636ea2f53c1461087357806375b238fc14611cc65780638456cb5914611c6d57806386c3441514611c3357806391aac0651461194c57806391d14854146118ff57806392ede6d014610dce57806396f979d214610cea5780639f3da5cc14610b47578063a018cbb114610920578063a217fddf14610904578063ac85495d146108b2578063b8b2e42c14610873578063bffa52e9146102f8578063d4cba21c146102da578063d547741f14610299578063e7705db61461025e578063f3d4efa6146101fd578063f6370c9e146101ad5763f68e95531461017f57600080fd5b346101a85760003660031901126101a85760206040516000805160206131a78339815191528152f35b600080fd5b346101a85760203660031901126101a8576004356101c9612e37565b8060005260046020526101e26040600020541515612ff4565b6000908152600460205260409020600901805460ff19169055005b346101a85760203660031901126101a8576004356001600160401b0381116101a85760ff610248602061023581943690600401612c54565b8160405193828580945193849201612be0565b8101600781520301902054166040519015158152f35b346101a85760003660031901126101a85760206040517f0ce23c3e399818cfee81a7ab0880f714e53d7672b08df0fa62f2843416e1ea098152f35b346101a85760403660031901126101a8576102d86004356102b8612c28565b908060005260006020526102d3600160406000200154612e81565b612f25565b005b346101a85760003660031901126101a8576020600354604051908152f35b346101a85760a03660031901126101a8576024356001600160401b0381116101a857610328903690600401612c54565b6044356001600160401b0381116101a857610347903690600401612c54565b6064356001600160401b0381116101a857610366903690600401612c54565b916084356001600160401b0381116101a857610386903690600401612c54565b9161038f612dcf565b60043560005260046020526103aa6040600020541515612ff4565b60043560005260046020526103c960ff60096040600020015416613039565b60043560005260046020526003604060002001825160018060401b03811161066a576103f58254612a8a565b601f8111610841575b50806020601f82116001146107da576000916107cf575b508160011b916000199060031b1c19161790555b60048035600090815260208290526040902082519101916001600160401b03821161066a57819061045a8454612a8a565b601f811161079d575b50602090601f831160011461073157600092610726575b50508160011b916000199060031b1c19161790555b60043560005260046020526005604060002001835160018060401b03811161066a576104bb8254612a8a565b601f81116106f4575b506020601f821160011461068b578192939495600092610680575b50508160011b916000199060031b1c19161790555b60043560005260046020526006604060002001825160018060401b03811161066a576105208254612a8a565b601f811161062d575b506020601f82116001146105c757819293946000926105bc575b50508160011b916000199060031b1c19161790555b600435600052600460205260018060a01b0360016040600020015416907f50f59dacc19443d580036dd74415769b3af3c3bcb4753259015f4a4b137632eb6105ab60405192604084526040840190612c03565b9142602082015280600435930390a3005b015190508480610543565b601f198216908360005260206000209160005b818110610615575095836001959697106105fc575b505050811b019055610558565b015160001960f88460031b161c191690558480806105ef565b9192602060018192868b0151815501940192016105da565b61065a90836000526020600020601f840160051c81019160208510610660575b601f0160051c0190612fbf565b84610529565b909150819061064d565b634e487b7160e01b600052604160045260246000fd5b0151905085806104df565b8260005260206000209060005b601f19841681106106dc575060019394959683601f198116106106c3575b505050811b0190556104f4565b015160001960f88460031b161c191690558580806106b6565b9091602060018192858b015181550193019101610698565b61072090836000526020600020601f840160051c8101916020851061066057601f0160051c0190612fbf565b856104c4565b01519050868061047a565b9250836000526020600020906000935b601f1984168510610782576001945083601f19811610610769575b505050811b01905561048f565b015160001960f88460031b161c1916905586808061075c565b81810151835560209485019460019093019290910190610741565b6107c990856000526020600020601f850160051c8101916020861061066057601f0160051c0190612fbf565b87610463565b905084015187610415565b91508260005260206000206000925b601f1983168410610829576001935082601f19811610610810575b5050811b019055610429565b86015160001960f88460031b161c191690558780610804565b868101518255602093840193600190920191016107e9565b61086d90836000526020600020601f840160051c8101916020851061066057601f0160051c0190612fbf565b866103fe565b346101a85760203660031901126101a8576001600160a01b03610894612c3e565b166000526008602052602060ff604060002054166040519015158152f35b346101a85760203660031901126101a8576004356108ce612e37565b8060005260066020526108e7604060002054151561307d565b6000526006602052600660406000200160ff198154169055600080f35b346101a85760003660031901126101a857602060405160008152f35b346101a85760403660031901126101a8576004356001600160401b036024358181116101a857610954903690600401612c54565b9061095d612dcf565b82600052602090600482526109786040600020541515612ff4565b836000526004825261099460ff60096040600020015416613039565b836000526004825260ff60096040600020015460081c16610b06578360005260048252600a60406000206009810161010061ff00198254161790554260088201550190835190811161066a576109ea8254612a8a565b601f8111610ad6575b5082601f8211600114610a5e579181610a4894926000805160206131e78339815191529694600091610a53575b508160011b916000199060031b1c19161790555b604051928392604084526040840190612c03565b9042908301520390a2005b905084015188610a20565b601f1982169083600052846000209160005b818110610abf5750926000805160206131e783398151915296949260019282610a48989610610aa6575b5050811b019055610a34565b86015160001960f88460031b161c191690558880610a9a565b91928660018192868b015181550194019201610a70565b610b00908360005284600020601f840160051c81019186851061066057601f0160051c0190612fbf565b856109f3565b60405162461bcd60e51b815260048101839052601960248201527814dd1d59195b9d08185b1c9958591e4819dc98591d585d1959603a1b6044820152606490fd5b346101a8576020806003193601126101a857610b61612c3e565b90610b6a613104565b506001600160a01b0391821660009081526005825260409020548015610cb157829060005260048252604060002090600b60405192610ba884612ae0565b80548452600192838201541685850152610bc460028201612b3a565b6040850152610bd560038201612b3a565b6060850152610be660048201612b3a565b6080850152610bf760058201612b3a565b60a0850152610c0860068201612b3a565b60c0850152600781015460e0850152600881015461010085015260ff6009820154818116151561012087015260081c161515610140850152610c4c600a8201612b3a565b6101608501520192604051918282865491828152019560005282600020926000905b828210610c9c57610c988787610c86818c0382612b17565b61018082015260405191829182612caa565b0390f35b84548852968701969383019390830190610c6e565b60405162461bcd60e51b815260048101839052601160248201527014dd1d59195b9d081b9bdd08199bdd5b99607a1b6044820152606490fd5b346101a85760203660031901126101a857600435600052600660205260406000208054610d1960018301612b3a565b91610d2660028201612b3a565b610d3260038301612b3a565b91610db76004820154610d4760058401612b3a565b610da460ff60068601541696610d96600787015496600860018060a01b039101541697610d886040519c8d9c8d5260208d61012091829101528d0190612c03565b908b820360408d0152612c03565b9089820360608b0152612c03565b91608088015286820360a0880152612c03565b92151560c085015260e08401526101008301520390f35b346101a85760c03660031901126101a857610de7612c3e565b6024356001600160401b0381116101a857610e06903690600401612c54565b906044356001600160401b0381116101a857610e26903690600401612c54565b906064356001600160401b0381116101a857610e46903690600401612c54565b926084356001600160401b0381116101a857610e66903690600401612c54565b9260a4356001600160401b0381116101a857610e86903690600401612c54565b93610e8f612dcf565b610e97612fd6565b6001600160a01b038416156118c05782511561187b5781511561183f5760ff6040516020818651610ecb8183858b01612be0565b8101600781520301902054166117fa576001600160a01b03841660009081526008602052604090205460ff166117b857610f06600254612f9a565b948560025560405191610f1883612afc565b6000835260405197610f2989612ae0565b87895260018060a01b03871660208a01528560408a01528460608a0152608089015260a088015260c08701524260e0870152600061010087015260016101208701526000610140870152604051610f7f81612afc565b600081526101608701526101808601528360005260046020526040600020855181556001810160018060a01b0360208801511660018060a01b0319825416179055604086015180519060018060401b03821161066a578190610fe46002850154612a8a565b601f8111611783575b50602090601f831160011461171157600092611706575b50508160011b916000199060031b1c19161760028201555b60608601518051906001600160401b03821161066a5781906110416003850154612a8a565b601f81116116d1575b50602090601f831160011461165f57600092611654575b50508160011b916000199060031b1c19161760038201555b60808601518051906001600160401b03821161066a57819061109e6004850154612a8a565b601f811161161f575b50602090601f83116001146115ad576000926115a2575b50508160011b916000199060031b1c19161760048201555b60a08601518051906001600160401b03821161066a5781906110fb6005850154612a8a565b601f811161156d575b50602090601f83116001146114fb576000926114f0575b50508160011b916000199060031b1c19161760058201555b60c08601518051906001600160401b03821161066a5781906111586006850154612a8a565b601f81116114bb575b50602090601f83116001146114495760009261143e575b50508160011b916000199060031b1c19161760068201555b60e086015160078201556101008601516008820155600981016111c66101208801511515829060ff801983541691151516179055565b610140870151815461ff00191690151560081b61ff00161790556101608601518051906001600160401b03821161066a57611204600a840154612a8a565b601f8111611409575b50602090601f83116001146113935791806101809492600b94600092611388575b50508160011b916000199060031b1c191617600a8201555b0195015180519060018060401b03821161066a57600160401b821161066a57602090875483895580841061136b575b50019560005260206000209560005b8281106113575760208787817f911873dcc1fb88f7451f9dd9c6ed2cc2ad92ad8eb19fe599a5b526b91064578161132d8a61133a8b60018060a01b0387166000526005895285604060002055604051898185516112e48183858a01612be0565b8101600781520301902060ff199060018282541617905560018060a01b03881660005260088a526001604060002091825416179055604051938493606085526060850190612c03565b908382038a850152612c03565b4260408301526001600160a01b03909516940390a3604051908152f35b60019060208351930192818a015501611284565b611382908960005284846000209182019101612fbf565b88611275565b015190508a8061122e565b90600a840160005260206000209160005b601f19851681106113f15750926101809492600192600b9583601f198116106113d8575b505050811b01600a820155611246565b015160001960f88460031b161c191690558a80806113c8565b919260206001819286850151815501940192016113a4565b61143890600a85016000526020600020601f850160051c8101916020861061066057601f0160051c0190612fbf565b8861120d565b015190508880611178565b9250600684016000526020600020906000935b601f19841685106114a0576001945083601f19811610611487575b505050811b016006820155611190565b015160001960f88460031b161c19169055888080611477565b8181015183556020948501946001909301929091019061145c565b6114ea90600686016000526020600020601f850160051c8101916020861061066057601f0160051c0190612fbf565b89611161565b01519050888061111b565b9250600584016000526020600020906000935b601f1984168510611552576001945083601f19811610611539575b505050811b016005820155611133565b015160001960f88460031b161c19169055888080611529565b8181015183556020948501946001909301929091019061150e565b61159c90600586016000526020600020601f850160051c8101916020861061066057601f0160051c0190612fbf565b89611104565b0151905088806110be565b9250600484016000526020600020906000935b601f1984168510611604576001945083601f198116106115eb575b505050811b0160048201556110d6565b015160001960f88460031b161c191690558880806115db565b818101518355602094850194600190930192909101906115c0565b61164e90600486016000526020600020601f850160051c8101916020861061066057601f0160051c0190612fbf565b896110a7565b015190508880611061565b9250600384016000526020600020906000935b601f19841685106116b6576001945083601f1981161061169d575b505050811b016003820155611079565b015160001960f88460031b161c1916905588808061168d565b81810151835560209485019460019093019290910190611672565b61170090600386016000526020600020601f850160051c8101916020861061066057601f0160051c0190612fbf565b8961104a565b015190508880611004565b9250600284016000526020600020906000935b601f1984168510611768576001945083601f1981161061174f575b505050811b01600282015561101c565b015160001960f88460031b161c1916905588808061173f565b81810151835560209485019460019093019290910190611724565b6117b290600286016000526020600020601f850160051c8101916020861061066057601f0160051c0190612fbf565b89610fed565b60405162461bcd60e51b815260206004820152601a6024820152791059191c995cdcc8185b1c9958591e481c9959da5cdd195c995960321b6044820152606490fd5b60405162461bcd60e51b815260206004820152601d60248201527f53747564656e74206e756d62657220616c7265616479206578697374730000006044820152606490fd5b60405162461bcd60e51b81526020600482015260146024820152734e616d652063616e6e6f7420626520656d70747960601b6044820152606490fd5b60405162461bcd60e51b815260206004820152601e60248201527f53747564656e74206e756d6265722063616e6e6f7420626520656d70747900006044820152606490fd5b60405162461bcd60e51b8152602060048201526017602482015276496e76616c69642073747564656e74206164647265737360481b6044820152606490fd5b346101a85760403660031901126101a857611918612c28565b600435600052600060205260406000209060018060a01b0316600052602052602060ff604060002054166040519015158152f35b346101a85760803660031901126101a8576004356001600160401b036024358181116101a857611980903690600401612c54565b906044358181116101a857611999903690600401612c54565b606435906119a5612dcf565b846000526006906020938285526119c2604060002054151561307d565b866000528285526119dc60ff8460406000200154166130c1565b86600052828552600260406000200186519082821161066a576119ff8154612a8a565b91601f92838111611c05575b508088848211600114611ba157600091611b96575b508160011b916000199060031b1c19161790555b87600052838652600360406000200192805192831161066a57611a578454612a8a565b828111611b5e575b5086918311600114611ae157918060008051602061318783398151915298969492611ac7989694600092611ad6575b50508160011b916000199060031b1c19161790555b86600052825280600460406000200155604051938493606085526060850190612c03565b918301524260408301520390a2005b015190508a80611a8e565b90601f1983169184600052876000209260005b818110611b475750926001928592611ac79a98966000805160206131878339815191529c9a989610611b2e575b505050811b019055611aa3565b015160001960f88460031b161c191690558a8080611b21565b929389600181928786015181550195019301611af4565b611b879085600052886000208480870160051c8201928b8810611b8d575b0160051c0190612fbf565b89611a5f565b92508192611b7c565b90508901518b611a20565b60008481528a81209250601f198416905b8b8d838310611bf0575050509083600194939210611bd7575b5050811b019055611a34565b8b015160001960f88460031b161c191690558b80611bcb565b84015185556001909401939283019201611bb2565b611c2d9083600052896000208580850160051c8201928c8610611b8d570160051c0190612fbf565b8a611a0b565b346101a85760203660031901126101a8576001600160a01b03611c54612c3e565b1660005260056020526020604060002054604051908152f35b346101a85760003660031901126101a857611c86612e37565b611c8e612fd6565b600160ff19815416176001557f62e78cea01bee320cd4e420270b5ea74000d11b0c9f74754ebdbfc544b05a2586020604051338152a1005b346101a85760003660031901126101a85760206040516000805160206131c78339815191528152f35b346101a8576020806003193601126101a857611d09613104565b5060043560005260048152604060002060405190611d2682612ae0565b805482526001808201546001600160a01b03168484015290600b90611d4d60028201612b3a565b6040850152611d5e60038201612b3a565b6060850152611d6f60048201612b3a565b6080850152611d8060058201612b3a565b60a0850152611d9160068201612b3a565b60c0850152600781015460e0850152600881015461010085015260ff6009820154818116151561012087015260081c161515610140850152611dd5600a8201612b3a565b6101608501520192604051918282865491828152019560005282600020926000905b828210611e0f57610c988787610c86818c0382612b17565b84548852968701969383019390830190611df7565b346101a85760a03660031901126101a8576004356001600160401b0381116101a857611e54903690600401612c54565b6024356001600160401b0381116101a857611e73903690600401612c54565b906044356001600160401b0381116101a857611e93903690600401612c54565b6084356001600160401b0381116101a857611eb2903690600401612c54565b91611ebb612dcf565b611ec3612fd6565b8051156124c857835115612485576064351561244057611ee4600354612f9a565b928360035560405192611ef684612ac4565b8484528260208501528560408501526060840152606435608084015260a0830152600160c08301524260e08301523361010083015282600052600660205260406000209382518555602083015180519060018060401b03821161066a578190611f626001890154612a8a565b601f811161240b575b50602090601f83116001146123995760009261238e575b50508160011b916000199060031b1c19161760018601555b60408301518051906001600160401b03821161066a578190611fbf6002890154612a8a565b601f8111612359575b50602090601f83116001146122e7576000926122dc575b50508160011b916000199060031b1c19161760028601555b60608301518051906001600160401b03821161066a57819061201c6003890154612a8a565b601f81116122a7575b50602090601f83116001146122355760009261222a575b50508160011b916000199060031b1c19161760038601555b6080830151600486015560a08301518051959093906001600160401b03871161066a5760209686956120896005840154612a8a565b601f81116121f7575b508890601f831160011461216b57612147938361213a9794600080516020613167833981519152999794600894600092612160575b50508160011b916000199060031b1c19161760058201555b6120fe60c08401511515600683019060ff801983541691151516179055565b60e08301516007820155019061010060018060a01b039101511660018060a01b0319825416179055604051938493608085526080850190612c03565b9083820389850152612c03565b60643560408301524260608301520390a2604051908152f35b015190508d806120c7565b9060058401600052896000209160005b601f19851681106121dd5750936001846000805160206131678339815191529997946008946121479861213a9b98601f198116106121c4575b505050811b0160058201556120df565b015160001960f88460031b161c191690558d80806121b4565b8183015184558a9950600190930192918b01918b0161217b565b61222490600585016000528a600020601f850160051c8101918c861061066057601f0160051c0190612fbf565b89612092565b01519050878061203c565b9250600388016000526020600020906000935b601f198416851061228c576001945083601f19811610612273575b505050811b016003860155612054565b015160001960f88460031b161c19169055878080612263565b81810151835560209485019460019093019290910190612248565b6122d69060038a016000526020600020601f850160051c8101916020861061066057601f0160051c0190612fbf565b88612025565b015190508780611fdf565b9250600288016000526020600020906000935b601f198416851061233e576001945083601f19811610612325575b505050811b016002860155611ff7565b015160001960f88460031b161c19169055878080612315565b818101518355602094850194600190930192909101906122fa565b6123889060028a016000526020600020601f850160051c8101916020861061066057601f0160051c0190612fbf565b88611fc8565b015190508780611f82565b9250600188016000526020600020906000935b601f19841685106123f0576001945083601f198116106123d7575b505050811b016001860155611f9a565b015160001960f88460031b161c191690558780806123c7565b818101518355602094850194600190930192909101906123ac565b61243a9060018a016000526020600020601f850160051c8101916020861061066057601f0160051c0190612fbf565b88611f6b565b60405162461bcd60e51b815260206004820152601e60248201527f43726564697473206d7573742062652067726561746572207468616e203000006044820152606490fd5b60405162461bcd60e51b815260206004820152601b60248201527a436f75727365206e616d652063616e6e6f7420626520656d70747960281b6044820152606490fd5b60405162461bcd60e51b815260206004820152601b60248201527a436f7572736520636f64652063616e6e6f7420626520656d70747960281b6044820152606490fd5b346101a85760003660031901126101a857602060ff600154166040519015158152f35b346101a85760003660031901126101a857612547612e37565b60015460ff8116156125865760ff19166001557f5db9ee0a495bf2e6ff9c91a7834c1ba4fdd244a5e8aa4e537bd38aeae4b073aa6020604051338152a1005b604051638dfc202b60e01b8152600490fd5b346101a85760403660031901126101a8576125b1612c28565b336001600160a01b038216036125cd576102d890600435612f25565b60405163334bd91960e11b8152600490fd5b346101a85760403660031901126101a8576102d86004356125fe612c28565b90806000526000602052612619600160406000200154612e81565b612ea7565b346101a85760003660031901126101a8576020600254604051908152f35b346101a85760203660031901126101a85760043560005260006020526020600160406000200154604051908152f35b346101a85760403660031901126101a85760243560043561268a612dcf565b806000526020600481526126a46040600020541515612ff4565b81600052600481526126c060ff60096040600020015416613039565b82600052600681526126d8604060002054151561307d565b82600052600681526126f460ff600660406000200154166130c1565b60008281526004825260409020600b0180549190600160401b83101561066a5760018301808255831015612758577f8802b1c117afc214959b93e53532b774c80cb31cb9946a261c8a66c509bbfe02928591600052826000200155604051428152a3005b634e487b7160e01b600052603260045260246000fd5b346101a8576020806003193601126101a8576040519061278d82612ac4565b6000825260608082840152806040840152808084015260808301600090528060a084015260c083016000905260e083016000905261010080930160009052600435600052600682526040600020604051906127e782612ac4565b805482526127f760018201612b3a565b8285019081529461280a60028301612b3a565b604084019081529061281e60038401612b3a565b8486019081526004840154608086019081529561283d60058601612b3a565b9660a08701978852600686015460ff169760c08801981515895260078701549360e08901948552600160a01b600190036008819901541696868a019788526040519c8c8e9d9b8e9c8d5251908c0152516101206040819c01526101408d016128a491612c03565b9051908c601f199687828403019101526128bd91612c03565b905190848c82030160808d01526128d391612c03565b915160a08b015251918982030160c08a01526128ee91612c03565b9551151560e088015251908601525116908301520390f35b346101a85760203660031901126101a85760048035600090815260209190915260409020805460018201546001600160a01b03169161294760028201612b3a565b9061295460038201612b3a565b9061296160048201612b3a565b9161296e60058301612b3a565b61297a60068401612b3a565b90600784015494600885015493600986015495600a0161299990612b3a565b976040519a8b9a8b5260208b01526101808060408c01528a016129bb91612c03565b89810360608b01526129cc91612c03565b88810360808a01526129dd91612c03565b87810360a08901526129ee91612c03565b86810360c08801526129ff91612c03565b9260e086015261010085015260ff8116151561012085015260081c60ff161515610140840152828103610160840152610c9891612c03565b346101a85760203660031901126101a8576004359063ffffffff60e01b82168092036101a857602091637965db0b60e01b8114908115612a79575b5015158152f35b6301ffc9a760e01b14905083612a72565b90600182811c92168015612aba575b6020831014612aa457565b634e487b7160e01b600052602260045260246000fd5b91607f1691612a99565b61012081019081106001600160401b0382111761066a57604052565b6101a081019081106001600160401b0382111761066a57604052565b602081019081106001600160401b0382111761066a57604052565b601f909101601f19168101906001600160401b0382119082101761066a57604052565b9060405191826000825492612b4e84612a8a565b908184526001948581169081600014612bbd5750600114612b7a575b5050612b7892500383612b17565b565b9093915060005260209081600020936000915b818310612ba5575050612b7893508201013880612b6a565b85548884018501529485019487945091830191612b8d565b915050612b7894506020925060ff191682840152151560051b8201013880612b6a565b60005b838110612bf35750506000910152565b8181015183820152602001612be3565b90602091612c1c81518092818552858086019101612be0565b601f01601f1916010190565b602435906001600160a01b03821682036101a857565b600435906001600160a01b03821682036101a857565b81601f820112156101a8578035906001600160401b03821161066a5760405192612c88601f8401601f191660200185612b17565b828452602083830101116101a857816000926020809301838601378301015290565b9060209081835280518284015260018060a01b0382820151166040840152604081015192612ce66101a0948560608401526101c0830190612c03565b93612d48612d34612d20612d0c606087015198601f19998a888303016080890152612c03565b6080870151898783030160a0880152612c03565b60a0860151888683030160c0870152612c03565b60c0850151878583030160e0860152612c03565b612d9360e08501516101009081860152850151610120908186015285015115156101409081860152850151151561016090818601528501519161018092888683030184870152612c03565b930151948284030191015281808451928381520193019160005b828110612dbb575050505090565b835185529381019392810192600101612dad565b3360009081527f01ddc098da42acdf4176da08ec75800bc0fb2bce2be978b2037bcb0ae696651960205260409020546000805160206131a78339815191529060ff1615612e195750565b6044906040519063e2517d3f60e01b82523360048301526024820152fd5b3360009081527f7d7ffb7a348e1c6a02869081a26547b49160dd3df72d1d75a570eb9b698292ec60205260409020546000805160206131c78339815191529060ff1615612e195750565b80600052600060205260406000203360005260205260ff6040600020541615612e195750565b9060009180835282602052604083209160018060a01b03169182845260205260ff60408420541615600014612f2057808352826020526040832082845260205260408320600160ff198254161790557f2f8788117e7eff1d82e926ec794901d17c78024a50270940304540a733656f0d339380a4600190565b505090565b9060009180835282602052604083209160018060a01b03169182845260205260ff604084205416600014612f205780835282602052604083208284526020526040832060ff1981541690557ff6391f5c32d9c69d2a47ea670b442974b53935d1edc7fd64eb21e047a839171b339380a4600190565b6000198114612fa95760010190565b634e487b7160e01b600052601160045260246000fd5b818110612fca575050565b60008155600101612fbf565b60ff60015416612fe257565b60405163d93c066560e01b8152600490fd5b15612ffb57565b60405162461bcd60e51b815260206004820152601660248201527514dd1d59195b9d08191bd95cc81b9bdd08195e1a5cdd60521b6044820152606490fd5b1561304057565b60405162461bcd60e51b815260206004820152601560248201527453747564656e74206973206e6f742061637469766560581b6044820152606490fd5b1561308457565b60405162461bcd60e51b815260206004820152601560248201527410dbdd5c9cd948191bd95cc81b9bdd08195e1a5cdd605a1b6044820152606490fd5b156130c857565b60405162461bcd60e51b8152602060048201526014602482015273436f75727365206973206e6f742061637469766560601b6044820152606490fd5b6040519061311182612ae0565b8161018060009182815282602082015260609283604083015283808301528360808301528360a08301528360c08301528060e0830152806101008301528061012083015261014082015282610160820152015256fef60da87f4d85b870da91e17abc7fe1194ab1365b51aba933eb7325f910ea457b26fe23cb4aa60e21978462ce5b13d99e63580eb14d7ae6afcfe8e040304ab030edcc084d3dcd65a1f7f23c65c46722faca6953d28e43150a467cf43e5c309238a49807205ce4d355092ef5a8a18f56e8913cf4a201fbe287825b095693c21775d26d1e209668f18f2bc4f6535740073250e7155628a6a3bb93ef26dde2edd155a2646970667358221220624dab0e0d1b842637cb940dfcc3f9be810b00954c42fbf27552af0b6a4e17a364736f6c634300081400332f8788117e7eff1d82e926ec794901d17c78024a50270940304540a733656f0d","opcodes":"PUSH1 0x80 PUSH1 0x40 MSTORE CALLVALUE PUSH3 0x54 JUMPI PUSH1 0xFF NOT PUSH1 0x1 SLOAD AND PUSH1 0x1 SSTORE PUSH3 0x1F CALLER PUSH3 0x59 JUMP JUMPDEST POP PUSH3 0x2B CALLER PUSH3 0xD9 JUMP JUMPDEST POP PUSH3 0x37 CALLER PUSH3 0x17B JUMP JUMPDEST POP PUSH3 0x43 CALLER PUSH3 0x218 JUMP JUMPDEST POP PUSH1 0x40 MLOAD PUSH2 0x323C SWAP1 DUP2 PUSH3 0x2B6 DUP3 CODECOPY RETURN JUMPDEST PUSH1 0x0 DUP1 REVERT JUMPDEST PUSH1 0x1 PUSH1 0x1 PUSH1 0xA0 SHL SUB AND PUSH1 0x0 DUP2 DUP2 MSTORE PUSH32 0xAD3228B676F7D3CD4284A5443F17F1962B36E491B30A40B2405849E597BA5FB5 PUSH1 0x20 MSTORE PUSH1 0x40 DUP2 KECCAK256 SLOAD SWAP1 SWAP2 SWAP1 PUSH1 0xFF AND PUSH3 0xD5 JUMPI DUP2 DUP1 MSTORE DUP2 PUSH1 0x20 MSTORE PUSH1 0x40 DUP3 KECCAK256 DUP2 DUP4 MSTORE PUSH1 0x20 MSTORE PUSH1 0x40 DUP3 KECCAK256 PUSH1 0x1 PUSH1 0xFF NOT DUP3 SLOAD AND OR SWAP1 SSTORE CALLER SWAP2 PUSH1 0x0 DUP1 MLOAD PUSH1 0x20 PUSH3 0x34F2 DUP4 CODECOPY DUP2 MLOAD SWAP2 MSTORE DUP2 DUP1 LOG4 PUSH1 0x1 SWAP1 JUMP JUMPDEST POP SWAP1 JUMP JUMPDEST PUSH1 0x1 PUSH1 0x1 PUSH1 0xA0 SHL SUB AND PUSH1 0x0 DUP2 DUP2 MSTORE PUSH32 0x7D7FFB7A348E1C6A02869081A26547B49160DD3DF72D1D75A570EB9B698292EC PUSH1 0x20 MSTORE PUSH1 0x40 DUP2 KECCAK256 SLOAD SWAP1 SWAP2 SWAP1 PUSH32 0xA49807205CE4D355092EF5A8A18F56E8913CF4A201FBE287825B095693C21775 SWAP1 PUSH1 0xFF AND PUSH3 0x176 JUMPI DUP1 DUP4 MSTORE DUP3 PUSH1 0x20 MSTORE PUSH1 0x40 DUP4 KECCAK256 DUP3 DUP5 MSTORE PUSH1 0x20 MSTORE PUSH1 0x40 DUP4 KECCAK256 PUSH1 0x1 PUSH1 0xFF NOT DUP3 SLOAD AND OR SWAP1 SSTORE PUSH1 0x0 DUP1 MLOAD PUSH1 0x20 PUSH3 0x34F2 DUP4 CODECOPY DUP2 MLOAD SWAP2 MSTORE CALLER SWAP4 DUP1 LOG4 PUSH1 0x1 SWAP1 JUMP JUMPDEST POP POP SWAP1 JUMP JUMPDEST PUSH1 0x1 PUSH1 0x1 PUSH1 0xA0 SHL SUB AND PUSH1 0x0 DUP2 DUP2 MSTORE PUSH32 0x1DDC098DA42ACDF4176DA08EC75800BC0FB2BCE2BE978B2037BCB0AE6966519 PUSH1 0x20 MSTORE PUSH1 0x40 DUP2 KECCAK256 SLOAD SWAP1 SWAP2 SWAP1 PUSH32 0xEDCC084D3DCD65A1F7F23C65C46722FACA6953D28E43150A467CF43E5C309238 SWAP1 PUSH1 0xFF AND PUSH3 0x176 JUMPI DUP1 DUP4 MSTORE DUP3 PUSH1 0x20 MSTORE PUSH1 0x40 DUP4 KECCAK256 DUP3 DUP5 MSTORE PUSH1 0x20 MSTORE PUSH1 0x40 DUP4 KECCAK256 PUSH1 0x1 PUSH1 0xFF NOT DUP3 SLOAD AND OR SWAP1 SSTORE PUSH1 0x0 DUP1 MLOAD PUSH1 0x20 PUSH3 0x34F2 DUP4 CODECOPY DUP2 MLOAD SWAP2 MSTORE CALLER SWAP4 DUP1 LOG4 PUSH1 0x1 SWAP1 JUMP JUMPDEST PUSH1 0x1 PUSH1 0x1 PUSH1 0xA0 SHL SUB AND PUSH1 0x0 DUP2 DUP2 MSTORE PUSH32 0x1DA0B5176DFE03406AF5A6EED66CA01DDA9B45AC4DA671C3FA379CB93717EF81 PUSH1 0x20 MSTORE PUSH1 0x40 DUP2 KECCAK256 SLOAD SWAP1 SWAP2 SWAP1 PUSH32 0xCE23C3E399818CFEE81A7AB0880F714E53D7672B08DF0FA62F2843416E1EA09 SWAP1 PUSH1 0xFF AND PUSH3 0x176 JUMPI DUP1 DUP4 MSTORE DUP3 PUSH1 0x20 MSTORE PUSH1 0x40 DUP4 KECCAK256 DUP3 DUP5 MSTORE PUSH1 0x20 MSTORE PUSH1 0x40 DUP4 KECCAK256 PUSH1 0x1 PUSH1 0xFF NOT DUP3 SLOAD AND OR SWAP1 SSTORE PUSH1 0x0 DUP1 MLOAD PUSH1 0x20 PUSH3 0x34F2 DUP4 CODECOPY DUP2 MLOAD SWAP2 MSTORE CALLER SWAP4 DUP1 LOG4 PUSH1 0x1 SWAP1 JUMP INVALID PUSH1 0x80 DUP1 PUSH1 0x40 MSTORE PUSH1 0x4 CALLDATASIZE LT ISZERO PUSH2 0x13 JUMPI PUSH1 0x0 DUP1 REVERT JUMPDEST PUSH1 0x0 CALLDATALOAD PUSH1 0xE0 SHR SWAP1 DUP2 PUSH4 0x1FFC9A7 EQ PUSH2 0x2A37 JUMPI POP DUP1 PUSH4 0x6EAD22E EQ PUSH2 0x2906 JUMPI DUP1 PUSH4 0xB91E28D EQ PUSH2 0x276E JUMPI DUP1 PUSH4 0x148E0F06 EQ PUSH2 0x266B JUMPI DUP1 PUSH4 0x248A9CA3 EQ PUSH2 0x263C JUMPI DUP1 PUSH4 0x28BCB51A EQ PUSH2 0x261E JUMPI DUP1 PUSH4 0x2F2FF15D EQ PUSH2 0x25DF JUMPI DUP1 PUSH4 0x36568ABE EQ PUSH2 0x2598 JUMPI DUP1 PUSH4 0x3F4BA83A EQ PUSH2 0x252E JUMPI DUP1 PUSH4 0x5C975ABB EQ PUSH2 0x250B JUMPI DUP1 PUSH4 0x5D5AA72E EQ PUSH2 0x1E24 JUMPI DUP1 PUSH4 0x642F9163 EQ PUSH2 0x1CEF JUMPI DUP1 PUSH4 0x6EA2F53C EQ PUSH2 0x873 JUMPI DUP1 PUSH4 0x75B238FC EQ PUSH2 0x1CC6 JUMPI DUP1 PUSH4 0x8456CB59 EQ PUSH2 0x1C6D JUMPI DUP1 PUSH4 0x86C34415 EQ PUSH2 0x1C33 JUMPI DUP1 PUSH4 0x91AAC065 EQ PUSH2 0x194C JUMPI DUP1 PUSH4 0x91D14854 EQ PUSH2 0x18FF JUMPI DUP1 PUSH4 0x92EDE6D0 EQ PUSH2 0xDCE JUMPI DUP1 PUSH4 0x96F979D2 EQ PUSH2 0xCEA JUMPI DUP1 PUSH4 0x9F3DA5CC EQ PUSH2 0xB47 JUMPI DUP1 PUSH4 0xA018CBB1 EQ PUSH2 0x920 JUMPI DUP1 PUSH4 0xA217FDDF EQ PUSH2 0x904 JUMPI DUP1 PUSH4 0xAC85495D EQ PUSH2 0x8B2 JUMPI DUP1 PUSH4 0xB8B2E42C EQ PUSH2 0x873 JUMPI DUP1 PUSH4 0xBFFA52E9 EQ PUSH2 0x2F8 JUMPI DUP1 PUSH4 0xD4CBA21C EQ PUSH2 0x2DA JUMPI DUP1 PUSH4 0xD547741F EQ PUSH2 0x299 JUMPI DUP1 PUSH4 0xE7705DB6 EQ PUSH2 0x25E JUMPI DUP1 PUSH4 0xF3D4EFA6 EQ PUSH2 0x1FD JUMPI DUP1 PUSH4 0xF6370C9E EQ PUSH2 0x1AD JUMPI PUSH4 0xF68E9553 EQ PUSH2 0x17F JUMPI PUSH1 0x0 DUP1 REVERT JUMPDEST CALLVALUE PUSH2 0x1A8 JUMPI PUSH1 0x0 CALLDATASIZE PUSH1 0x3 NOT ADD SLT PUSH2 0x1A8 JUMPI PUSH1 0x20 PUSH1 0x40 MLOAD PUSH1 0x0 DUP1 MLOAD PUSH1 0x20 PUSH2 0x31A7 DUP4 CODECOPY DUP2 MLOAD SWAP2 MSTORE DUP2 MSTORE RETURN JUMPDEST PUSH1 0x0 DUP1 REVERT JUMPDEST CALLVALUE PUSH2 0x1A8 JUMPI PUSH1 0x20 CALLDATASIZE PUSH1 0x3 NOT ADD SLT PUSH2 0x1A8 JUMPI PUSH1 0x4 CALLDATALOAD PUSH2 0x1C9 PUSH2 0x2E37 JUMP JUMPDEST DUP1 PUSH1 0x0 MSTORE PUSH1 0x4 PUSH1 0x20 MSTORE PUSH2 0x1E2 PUSH1 0x40 PUSH1 0x0 KECCAK256 SLOAD ISZERO ISZERO PUSH2 0x2FF4 JUMP JUMPDEST PUSH1 0x0 SWAP1 DUP2 MSTORE PUSH1 0x4 PUSH1 0x20 MSTORE PUSH1 0x40 SWAP1 KECCAK256 PUSH1 0x9 ADD DUP1 SLOAD PUSH1 0xFF NOT AND SWAP1 SSTORE STOP JUMPDEST CALLVALUE PUSH2 0x1A8 JUMPI PUSH1 0x20 CALLDATASIZE PUSH1 0x3 NOT ADD SLT PUSH2 0x1A8 JUMPI PUSH1 0x4 CALLDATALOAD PUSH1 0x1 PUSH1 0x1 PUSH1 0x40 SHL SUB DUP2 GT PUSH2 0x1A8 JUMPI PUSH1 0xFF PUSH2 0x248 PUSH1 0x20 PUSH2 0x235 DUP2 SWAP5 CALLDATASIZE SWAP1 PUSH1 0x4 ADD PUSH2 0x2C54 JUMP JUMPDEST DUP2 PUSH1 0x40 MLOAD SWAP4 DUP3 DUP6 DUP1 SWAP5 MLOAD SWAP4 DUP5 SWAP3 ADD PUSH2 0x2BE0 JUMP JUMPDEST DUP2 ADD PUSH1 0x7 DUP2 MSTORE SUB ADD SWAP1 KECCAK256 SLOAD AND PUSH1 0x40 MLOAD SWAP1 ISZERO ISZERO DUP2 MSTORE RETURN JUMPDEST CALLVALUE PUSH2 0x1A8 JUMPI PUSH1 0x0 CALLDATASIZE PUSH1 0x3 NOT ADD SLT PUSH2 0x1A8 JUMPI PUSH1 0x20 PUSH1 0x40 MLOAD PUSH32 0xCE23C3E399818CFEE81A7AB0880F714E53D7672B08DF0FA62F2843416E1EA09 DUP2 MSTORE RETURN JUMPDEST CALLVALUE PUSH2 0x1A8 JUMPI PUSH1 0x40 CALLDATASIZE PUSH1 0x3 NOT ADD SLT PUSH2 0x1A8 JUMPI PUSH2 0x2D8 PUSH1 0x4 CALLDATALOAD PUSH2 0x2B8 PUSH2 0x2C28 JUMP JUMPDEST SWAP1 DUP1 PUSH1 0x0 MSTORE PUSH1 0x0 PUSH1 0x20 MSTORE PUSH2 0x2D3 PUSH1 0x1 PUSH1 0x40 PUSH1 0x0 KECCAK256 ADD SLOAD PUSH2 0x2E81 JUMP JUMPDEST PUSH2 0x2F25 JUMP JUMPDEST STOP JUMPDEST CALLVALUE PUSH2 0x1A8 JUMPI PUSH1 0x0 CALLDATASIZE PUSH1 0x3 NOT ADD SLT PUSH2 0x1A8 JUMPI PUSH1 0x20 PUSH1 0x3 SLOAD PUSH1 0x40 MLOAD SWAP1 DUP2 MSTORE RETURN JUMPDEST CALLVALUE PUSH2 0x1A8 JUMPI PUSH1 0xA0 CALLDATASIZE PUSH1 0x3 NOT ADD SLT PUSH2 0x1A8 JUMPI PUSH1 0x24 CALLDATALOAD PUSH1 0x1 PUSH1 0x1 PUSH1 0x40 SHL SUB DUP2 GT PUSH2 0x1A8 JUMPI PUSH2 0x328 SWAP1 CALLDATASIZE SWAP1 PUSH1 0x4 ADD PUSH2 0x2C54 JUMP JUMPDEST PUSH1 0x44 CALLDATALOAD PUSH1 0x1 PUSH1 0x1 PUSH1 0x40 SHL SUB DUP2 GT PUSH2 0x1A8 JUMPI PUSH2 0x347 SWAP1 CALLDATASIZE SWAP1 PUSH1 0x4 ADD PUSH2 0x2C54 JUMP JUMPDEST PUSH1 0x64 CALLDATALOAD PUSH1 0x1 PUSH1 0x1 PUSH1 0x40 SHL SUB DUP2 GT PUSH2 0x1A8 JUMPI PUSH2 0x366 SWAP1 CALLDATASIZE SWAP1 PUSH1 0x4 ADD PUSH2 0x2C54 JUMP JUMPDEST SWAP2 PUSH1 0x84 CALLDATALOAD PUSH1 0x1 PUSH1 0x1 PUSH1 0x40 SHL SUB DUP2 GT PUSH2 0x1A8 JUMPI PUSH2 0x386 SWAP1 CALLDATASIZE SWAP1 PUSH1 0x4 ADD PUSH2 0x2C54 JUMP JUMPDEST SWAP2 PUSH2 0x38F PUSH2 0x2DCF JUMP JUMPDEST PUSH1 0x4 CALLDATALOAD PUSH1 0x0 MSTORE PUSH1 0x4 PUSH1 0x20 MSTORE PUSH2 0x3AA PUSH1 0x40 PUSH1 0x0 KECCAK256 SLOAD ISZERO ISZERO PUSH2 0x2FF4 JUMP JUMPDEST PUSH1 0x4 CALLDATALOAD PUSH1 0x0 MSTORE PUSH1 0x4 PUSH1 0x20 MSTORE PUSH2 0x3C9 PUSH1 0xFF PUSH1 0x9 PUSH1 0x40 PUSH1 0x0 KECCAK256 ADD SLOAD AND PUSH2 0x3039 JUMP JUMPDEST PUSH1 0x4 CALLDATALOAD PUSH1 0x0 MSTORE PUSH1 0x4 PUSH1 0x20 MSTORE PUSH1 0x3 PUSH1 0x40 PUSH1 0x0 KECCAK256 ADD DUP3 MLOAD PUSH1 0x1 DUP1 PUSH1 0x40 SHL SUB DUP2 GT PUSH2 0x66A JUMPI PUSH2 0x3F5 DUP3 SLOAD PUSH2 0x2A8A JUMP JUMPDEST PUSH1 0x1F DUP2 GT PUSH2 0x841 JUMPI JUMPDEST POP DUP1 PUSH1 0x20 PUSH1 0x1F DUP3 GT PUSH1 0x1 EQ PUSH2 0x7DA JUMPI PUSH1 0x0 SWAP2 PUSH2 0x7CF JUMPI JUMPDEST POP DUP2 PUSH1 0x1 SHL SWAP2 PUSH1 0x0 NOT SWAP1 PUSH1 0x3 SHL SHR NOT AND OR SWAP1 SSTORE JUMPDEST PUSH1 0x4 DUP1 CALLDATALOAD PUSH1 0x0 SWAP1 DUP2 MSTORE PUSH1 0x20 DUP3 SWAP1 MSTORE PUSH1 0x40 SWAP1 KECCAK256 DUP3 MLOAD SWAP2 ADD SWAP2 PUSH1 0x1 PUSH1 0x1 PUSH1 0x40 SHL SUB DUP3 GT PUSH2 0x66A JUMPI DUP2 SWAP1 PUSH2 0x45A DUP5 SLOAD PUSH2 0x2A8A JUMP JUMPDEST PUSH1 0x1F DUP2 GT PUSH2 0x79D JUMPI JUMPDEST POP PUSH1 0x20 SWAP1 PUSH1 0x1F DUP4 GT PUSH1 0x1 EQ PUSH2 0x731 JUMPI PUSH1 0x0 SWAP3 PUSH2 0x726 JUMPI JUMPDEST POP POP DUP2 PUSH1 0x1 SHL SWAP2 PUSH1 0x0 NOT SWAP1 PUSH1 0x3 SHL SHR NOT AND OR SWAP1 SSTORE JUMPDEST PUSH1 0x4 CALLDATALOAD PUSH1 0x0 MSTORE PUSH1 0x4 PUSH1 0x20 MSTORE PUSH1 0x5 PUSH1 0x40 PUSH1 0x0 KECCAK256 ADD DUP4 MLOAD PUSH1 0x1 DUP1 PUSH1 0x40 SHL SUB DUP2 GT PUSH2 0x66A JUMPI PUSH2 0x4BB DUP3 SLOAD PUSH2 0x2A8A JUMP JUMPDEST PUSH1 0x1F DUP2 GT PUSH2 0x6F4 JUMPI JUMPDEST POP PUSH1 0x20 PUSH1 0x1F DUP3 GT PUSH1 0x1 EQ PUSH2 0x68B JUMPI DUP2 SWAP3 SWAP4 SWAP5 SWAP6 PUSH1 0x0 SWAP3 PUSH2 0x680 JUMPI JUMPDEST POP POP DUP2 PUSH1 0x1 SHL SWAP2 PUSH1 0x0 NOT SWAP1 PUSH1 0x3 SHL SHR NOT AND OR SWAP1 SSTORE JUMPDEST PUSH1 0x4 CALLDATALOAD PUSH1 0x0 MSTORE PUSH1 0x4 PUSH1 0x20 MSTORE PUSH1 0x6 PUSH1 0x40 PUSH1 0x0 KECCAK256 ADD DUP3 MLOAD PUSH1 0x1 DUP1 PUSH1 0x40 SHL SUB DUP2 GT PUSH2 0x66A JUMPI PUSH2 0x520 DUP3 SLOAD PUSH2 0x2A8A JUMP JUMPDEST PUSH1 0x1F DUP2 GT PUSH2 0x62D JUMPI JUMPDEST POP PUSH1 0x20 PUSH1 0x1F DUP3 GT PUSH1 0x1 EQ PUSH2 0x5C7 JUMPI DUP2 SWAP3 SWAP4 SWAP5 PUSH1 0x0 SWAP3 PUSH2 0x5BC JUMPI JUMPDEST POP POP DUP2 PUSH1 0x1 SHL SWAP2 PUSH1 0x0 NOT SWAP1 PUSH1 0x3 SHL SHR NOT AND OR SWAP1 SSTORE JUMPDEST PUSH1 0x4 CALLDATALOAD PUSH1 0x0 MSTORE PUSH1 0x4 PUSH1 0x20 MSTORE PUSH1 0x1 DUP1 PUSH1 0xA0 SHL SUB PUSH1 0x1 PUSH1 0x40 PUSH1 0x0 KECCAK256 ADD SLOAD AND SWAP1 PUSH32 0x50F59DACC19443D580036DD74415769B3AF3C3BCB4753259015F4A4B137632EB PUSH2 0x5AB PUSH1 0x40 MLOAD SWAP3 PUSH1 0x40 DUP5 MSTORE PUSH1 0x40 DUP5 ADD SWAP1 PUSH2 0x2C03 JUMP JUMPDEST SWAP2 TIMESTAMP PUSH1 0x20 DUP3 ADD MSTORE DUP1 PUSH1 0x4 CALLDATALOAD SWAP4 SUB SWAP1 LOG3 STOP JUMPDEST ADD MLOAD SWAP1 POP DUP5 DUP1 PUSH2 0x543 JUMP JUMPDEST PUSH1 0x1F NOT DUP3 AND SWAP1 DUP4 PUSH1 0x0 MSTORE PUSH1 0x20 PUSH1 0x0 KECCAK256 SWAP2 PUSH1 0x0 JUMPDEST DUP2 DUP2 LT PUSH2 0x615 JUMPI POP SWAP6 DUP4 PUSH1 0x1 SWAP6 SWAP7 SWAP8 LT PUSH2 0x5FC JUMPI JUMPDEST POP POP POP DUP2 SHL ADD SWAP1 SSTORE PUSH2 0x558 JUMP JUMPDEST ADD MLOAD PUSH1 0x0 NOT PUSH1 0xF8 DUP5 PUSH1 0x3 SHL AND SHR NOT AND SWAP1 SSTORE DUP5 DUP1 DUP1 PUSH2 0x5EF JUMP JUMPDEST SWAP2 SWAP3 PUSH1 0x20 PUSH1 0x1 DUP2 SWAP3 DUP7 DUP12 ADD MLOAD DUP2 SSTORE ADD SWAP5 ADD SWAP3 ADD PUSH2 0x5DA JUMP JUMPDEST PUSH2 0x65A SWAP1 DUP4 PUSH1 0x0 MSTORE PUSH1 0x20 PUSH1 0x0 KECCAK256 PUSH1 0x1F DUP5 ADD PUSH1 0x5 SHR DUP2 ADD SWAP2 PUSH1 0x20 DUP6 LT PUSH2 0x660 JUMPI JUMPDEST PUSH1 0x1F ADD PUSH1 0x5 SHR ADD SWAP1 PUSH2 0x2FBF JUMP JUMPDEST DUP5 PUSH2 0x529 JUMP JUMPDEST SWAP1 SWAP2 POP DUP2 SWAP1 PUSH2 0x64D JUMP JUMPDEST PUSH4 0x4E487B71 PUSH1 0xE0 SHL PUSH1 0x0 MSTORE PUSH1 0x41 PUSH1 0x4 MSTORE PUSH1 0x24 PUSH1 0x0 REVERT JUMPDEST ADD MLOAD SWAP1 POP DUP6 DUP1 PUSH2 0x4DF JUMP JUMPDEST DUP3 PUSH1 0x0 MSTORE PUSH1 0x20 PUSH1 0x0 KECCAK256 SWAP1 PUSH1 0x0 JUMPDEST PUSH1 0x1F NOT DUP5 AND DUP2 LT PUSH2 0x6DC JUMPI POP PUSH1 0x1 SWAP4 SWAP5 SWAP6 SWAP7 DUP4 PUSH1 0x1F NOT DUP2 AND LT PUSH2 0x6C3 JUMPI JUMPDEST POP POP POP DUP2 SHL ADD SWAP1 SSTORE PUSH2 0x4F4 JUMP JUMPDEST ADD MLOAD PUSH1 0x0 NOT PUSH1 0xF8 DUP5 PUSH1 0x3 SHL AND SHR NOT AND SWAP1 SSTORE DUP6 DUP1 DUP1 PUSH2 0x6B6 JUMP JUMPDEST SWAP1 SWAP2 PUSH1 0x20 PUSH1 0x1 DUP2 SWAP3 DUP6 DUP12 ADD MLOAD DUP2 SSTORE ADD SWAP4 ADD SWAP2 ADD PUSH2 0x698 JUMP JUMPDEST PUSH2 0x720 SWAP1 DUP4 PUSH1 0x0 MSTORE PUSH1 0x20 PUSH1 0x0 KECCAK256 PUSH1 0x1F DUP5 ADD PUSH1 0x5 SHR DUP2 ADD SWAP2 PUSH1 0x20 DUP6 LT PUSH2 0x660 JUMPI PUSH1 0x1F ADD PUSH1 0x5 SHR ADD SWAP1 PUSH2 0x2FBF JUMP JUMPDEST DUP6 PUSH2 0x4C4 JUMP JUMPDEST ADD MLOAD SWAP1 POP DUP7 DUP1 PUSH2 0x47A JUMP JUMPDEST SWAP3 POP DUP4 PUSH1 0x0 MSTORE PUSH1 0x20 PUSH1 0x0 KECCAK256 SWAP1 PUSH1 0x0 SWAP4 JUMPDEST PUSH1 0x1F NOT DUP5 AND DUP6 LT PUSH2 0x782 JUMPI PUSH1 0x1 SWAP5 POP DUP4 PUSH1 0x1F NOT DUP2 AND LT PUSH2 0x769 JUMPI JUMPDEST POP POP POP DUP2 SHL ADD SWAP1 SSTORE PUSH2 0x48F JUMP JUMPDEST ADD MLOAD PUSH1 0x0 NOT PUSH1 0xF8 DUP5 PUSH1 0x3 SHL AND SHR NOT AND SWAP1 SSTORE DUP7 DUP1 DUP1 PUSH2 0x75C JUMP JUMPDEST DUP2 DUP2 ADD MLOAD DUP4 SSTORE PUSH1 0x20 SWAP5 DUP6 ADD SWAP5 PUSH1 0x1 SWAP1 SWAP4 ADD SWAP3 SWAP1 SWAP2 ADD SWAP1 PUSH2 0x741 JUMP JUMPDEST PUSH2 0x7C9 SWAP1 DUP6 PUSH1 0x0 MSTORE PUSH1 0x20 PUSH1 0x0 KECCAK256 PUSH1 0x1F DUP6 ADD PUSH1 0x5 SHR DUP2 ADD SWAP2 PUSH1 0x20 DUP7 LT PUSH2 0x660 JUMPI PUSH1 0x1F ADD PUSH1 0x5 SHR ADD SWAP1 PUSH2 0x2FBF JUMP JUMPDEST DUP8 PUSH2 0x463 JUMP JUMPDEST SWAP1 POP DUP5 ADD MLOAD DUP8 PUSH2 0x415 JUMP JUMPDEST SWAP2 POP DUP3 PUSH1 0x0 MSTORE PUSH1 0x20 PUSH1 0x0 KECCAK256 PUSH1 0x0 SWAP3 JUMPDEST PUSH1 0x1F NOT DUP4 AND DUP5 LT PUSH2 0x829 JUMPI PUSH1 0x1 SWAP4 POP DUP3 PUSH1 0x1F NOT DUP2 AND LT PUSH2 0x810 JUMPI JUMPDEST POP POP DUP2 SHL ADD SWAP1 SSTORE PUSH2 0x429 JUMP JUMPDEST DUP7 ADD MLOAD PUSH1 0x0 NOT PUSH1 0xF8 DUP5 PUSH1 0x3 SHL AND SHR NOT AND SWAP1 SSTORE DUP8 DUP1 PUSH2 0x804 JUMP JUMPDEST DUP7 DUP2 ADD MLOAD DUP3 SSTORE PUSH1 0x20 SWAP4 DUP5 ADD SWAP4 PUSH1 0x1 SWAP1 SWAP3 ADD SWAP2 ADD PUSH2 0x7E9 JUMP JUMPDEST PUSH2 0x86D SWAP1 DUP4 PUSH1 0x0 MSTORE PUSH1 0x20 PUSH1 0x0 KECCAK256 PUSH1 0x1F DUP5 ADD PUSH1 0x5 SHR DUP2 ADD SWAP2 PUSH1 0x20 DUP6 LT PUSH2 0x660 JUMPI PUSH1 0x1F ADD PUSH1 0x5 SHR ADD SWAP1 PUSH2 0x2FBF JUMP JUMPDEST DUP7 PUSH2 0x3FE JUMP JUMPDEST CALLVALUE PUSH2 0x1A8 JUMPI PUSH1 0x20 CALLDATASIZE PUSH1 0x3 NOT ADD SLT PUSH2 0x1A8 JUMPI PUSH1 0x1 PUSH1 0x1 PUSH1 0xA0 SHL SUB PUSH2 0x894 PUSH2 0x2C3E JUMP JUMPDEST AND PUSH1 0x0 MSTORE PUSH1 0x8 PUSH1 0x20 MSTORE PUSH1 0x20 PUSH1 0xFF PUSH1 0x40 PUSH1 0x0 KECCAK256 SLOAD AND PUSH1 0x40 MLOAD SWAP1 ISZERO ISZERO DUP2 MSTORE RETURN JUMPDEST CALLVALUE PUSH2 0x1A8 JUMPI PUSH1 0x20 CALLDATASIZE PUSH1 0x3 NOT ADD SLT PUSH2 0x1A8 JUMPI PUSH1 0x4 CALLDATALOAD PUSH2 0x8CE PUSH2 0x2E37 JUMP JUMPDEST DUP1 PUSH1 0x0 MSTORE PUSH1 0x6 PUSH1 0x20 MSTORE PUSH2 0x8E7 PUSH1 0x40 PUSH1 0x0 KECCAK256 SLOAD ISZERO ISZERO PUSH2 0x307D JUMP JUMPDEST PUSH1 0x0 MSTORE PUSH1 0x6 PUSH1 0x20 MSTORE PUSH1 0x6 PUSH1 0x40 PUSH1 0x0 KECCAK256 ADD PUSH1 0xFF NOT DUP2 SLOAD AND SWAP1 SSTORE PUSH1 0x0 DUP1 RETURN JUMPDEST CALLVALUE PUSH2 0x1A8 JUMPI PUSH1 0x0 CALLDATASIZE PUSH1 0x3 NOT ADD SLT PUSH2 0x1A8 JUMPI PUSH1 0x20 PUSH1 0x40 MLOAD PUSH1 0x0 DUP2 MSTORE RETURN JUMPDEST CALLVALUE PUSH2 0x1A8 JUMPI PUSH1 0x40 CALLDATASIZE PUSH1 0x3 NOT ADD SLT PUSH2 0x1A8 JUMPI PUSH1 0x4 CALLDATALOAD PUSH1 0x1 PUSH1 0x1 PUSH1 0x40 SHL SUB PUSH1 0x24 CALLDATALOAD DUP2 DUP2 GT PUSH2 0x1A8 JUMPI PUSH2 0x954 SWAP1 CALLDATASIZE SWAP1 PUSH1 0x4 ADD PUSH2 0x2C54 JUMP JUMPDEST SWAP1 PUSH2 0x95D PUSH2 0x2DCF JUMP JUMPDEST DUP3 PUSH1 0x0 MSTORE PUSH1 0x20 SWAP1 PUSH1 0x4 DUP3 MSTORE PUSH2 0x978 PUSH1 0x40 PUSH1 0x0 KECCAK256 SLOAD ISZERO ISZERO PUSH2 0x2FF4 JUMP JUMPDEST DUP4 PUSH1 0x0 MSTORE PUSH1 0x4 DUP3 MSTORE PUSH2 0x994 PUSH1 0xFF PUSH1 0x9 PUSH1 0x40 PUSH1 0x0 KECCAK256 ADD SLOAD AND PUSH2 0x3039 JUMP JUMPDEST DUP4 PUSH1 0x0 MSTORE PUSH1 0x4 DUP3 MSTORE PUSH1 0xFF PUSH1 0x9 PUSH1 0x40 PUSH1 0x0 KECCAK256 ADD SLOAD PUSH1 0x8 SHR AND PUSH2 0xB06 JUMPI DUP4 PUSH1 0x0 MSTORE PUSH1 0x4 DUP3 MSTORE PUSH1 0xA PUSH1 0x40 PUSH1 0x0 KECCAK256 PUSH1 0x9 DUP2 ADD PUSH2 0x100 PUSH2 0xFF00 NOT DUP3 SLOAD AND OR SWAP1 SSTORE TIMESTAMP PUSH1 0x8 DUP3 ADD SSTORE ADD SWAP1 DUP4 MLOAD SWAP1 DUP2 GT PUSH2 0x66A JUMPI PUSH2 0x9EA DUP3 SLOAD PUSH2 0x2A8A JUMP JUMPDEST PUSH1 0x1F DUP2 GT PUSH2 0xAD6 JUMPI JUMPDEST POP DUP3 PUSH1 0x1F DUP3 GT PUSH1 0x1 EQ PUSH2 0xA5E JUMPI SWAP2 DUP2 PUSH2 0xA48 SWAP5 SWAP3 PUSH1 0x0 DUP1 MLOAD PUSH1 0x20 PUSH2 0x31E7 DUP4 CODECOPY DUP2 MLOAD SWAP2 MSTORE SWAP7 SWAP5 PUSH1 0x0 SWAP2 PUSH2 0xA53 JUMPI JUMPDEST POP DUP2 PUSH1 0x1 SHL SWAP2 PUSH1 0x0 NOT SWAP1 PUSH1 0x3 SHL SHR NOT AND OR SWAP1 SSTORE JUMPDEST PUSH1 0x40 MLOAD SWAP3 DUP4 SWAP3 PUSH1 0x40 DUP5 MSTORE PUSH1 0x40 DUP5 ADD SWAP1 PUSH2 0x2C03 JUMP JUMPDEST SWAP1 TIMESTAMP SWAP1 DUP4 ADD MSTORE SUB SWAP1 LOG2 STOP JUMPDEST SWAP1 POP DUP5 ADD MLOAD DUP9 PUSH2 0xA20 JUMP JUMPDEST PUSH1 0x1F NOT DUP3 AND SWAP1 DUP4 PUSH1 0x0 MSTORE DUP5 PUSH1 0x0 KECCAK256 SWAP2 PUSH1 0x0 JUMPDEST DUP2 DUP2 LT PUSH2 0xABF JUMPI POP SWAP3 PUSH1 0x0 DUP1 MLOAD PUSH1 0x20 PUSH2 0x31E7 DUP4 CODECOPY DUP2 MLOAD SWAP2 MSTORE SWAP7 SWAP5 SWAP3 PUSH1 0x1 SWAP3 DUP3 PUSH2 0xA48 SWAP9 SWAP7 LT PUSH2 0xAA6 JUMPI JUMPDEST POP POP DUP2 SHL ADD SWAP1 SSTORE PUSH2 0xA34 JUMP JUMPDEST DUP7 ADD MLOAD PUSH1 0x0 NOT PUSH1 0xF8 DUP5 PUSH1 0x3 SHL AND SHR NOT AND SWAP1 SSTORE DUP9 DUP1 PUSH2 0xA9A JUMP JUMPDEST SWAP2 SWAP3 DUP7 PUSH1 0x1 DUP2 SWAP3 DUP7 DUP12 ADD MLOAD DUP2 SSTORE ADD SWAP5 ADD SWAP3 ADD PUSH2 0xA70 JUMP JUMPDEST PUSH2 0xB00 SWAP1 DUP4 PUSH1 0x0 MSTORE DUP5 PUSH1 0x0 KECCAK256 PUSH1 0x1F DUP5 ADD PUSH1 0x5 SHR DUP2 ADD SWAP2 DUP7 DUP6 LT PUSH2 0x660 JUMPI PUSH1 0x1F ADD PUSH1 0x5 SHR ADD SWAP1 PUSH2 0x2FBF JUMP JUMPDEST DUP6 PUSH2 0x9F3 JUMP JUMPDEST PUSH1 0x40 MLOAD PUSH3 0x461BCD PUSH1 0xE5 SHL DUP2 MSTORE PUSH1 0x4 DUP2 ADD DUP4 SWAP1 MSTORE PUSH1 0x19 PUSH1 0x24 DUP3 ADD MSTORE PUSH25 0x14DD1D59195B9D08185B1C9958591E4819DC98591D585D1959 PUSH1 0x3A SHL PUSH1 0x44 DUP3 ADD MSTORE PUSH1 0x64 SWAP1 REVERT JUMPDEST CALLVALUE PUSH2 0x1A8 JUMPI PUSH1 0x20 DUP1 PUSH1 0x3 NOT CALLDATASIZE ADD SLT PUSH2 0x1A8 JUMPI PUSH2 0xB61 PUSH2 0x2C3E JUMP JUMPDEST SWAP1 PUSH2 0xB6A PUSH2 0x3104 JUMP JUMPDEST POP PUSH1 0x1 PUSH1 0x1 PUSH1 0xA0 SHL SUB SWAP2 DUP3 AND PUSH1 0x0 SWAP1 DUP2 MSTORE PUSH1 0x5 DUP3 MSTORE PUSH1 0x40 SWAP1 KECCAK256 SLOAD DUP1 ISZERO PUSH2 0xCB1 JUMPI DUP3 SWAP1 PUSH1 0x0 MSTORE PUSH1 0x4 DUP3 MSTORE PUSH1 0x40 PUSH1 0x0 KECCAK256 SWAP1 PUSH1 0xB PUSH1 0x40 MLOAD SWAP3 PUSH2 0xBA8 DUP5 PUSH2 0x2AE0 JUMP JUMPDEST DUP1 SLOAD DUP5 MSTORE PUSH1 0x1 SWAP3 DUP4 DUP3 ADD SLOAD AND DUP6 DUP6 ADD MSTORE PUSH2 0xBC4 PUSH1 0x2 DUP3 ADD PUSH2 0x2B3A JUMP JUMPDEST PUSH1 0x40 DUP6 ADD MSTORE PUSH2 0xBD5 PUSH1 0x3 DUP3 ADD PUSH2 0x2B3A JUMP JUMPDEST PUSH1 0x60 DUP6 ADD MSTORE PUSH2 0xBE6 PUSH1 0x4 DUP3 ADD PUSH2 0x2B3A JUMP JUMPDEST PUSH1 0x80 DUP6 ADD MSTORE PUSH2 0xBF7 PUSH1 0x5 DUP3 ADD PUSH2 0x2B3A JUMP JUMPDEST PUSH1 0xA0 DUP6 ADD MSTORE PUSH2 0xC08 PUSH1 0x6 DUP3 ADD PUSH2 0x2B3A JUMP JUMPDEST PUSH1 0xC0 DUP6 ADD MSTORE PUSH1 0x7 DUP2 ADD SLOAD PUSH1 0xE0 DUP6 ADD MSTORE PUSH1 0x8 DUP2 ADD SLOAD PUSH2 0x100 DUP6 ADD MSTORE PUSH1 0xFF PUSH1 0x9 DUP3 ADD SLOAD DUP2 DUP2 AND ISZERO ISZERO PUSH2 0x120 DUP8 ADD MSTORE PUSH1 0x8 SHR AND ISZERO ISZERO PUSH2 0x140 DUP6 ADD MSTORE PUSH2 0xC4C PUSH1 0xA DUP3 ADD PUSH2 0x2B3A JUMP JUMPDEST PUSH2 0x160 DUP6 ADD MSTORE ADD SWAP3 PUSH1 0x40 MLOAD SWAP2 DUP3 DUP3 DUP7 SLOAD SWAP2 DUP3 DUP2 MSTORE ADD SWAP6 PUSH1 0x0 MSTORE DUP3 PUSH1 0x0 KECCAK256 SWAP3 PUSH1 0x0 SWAP1 JUMPDEST DUP3 DUP3 LT PUSH2 0xC9C JUMPI PUSH2 0xC98 DUP8 DUP8 PUSH2 0xC86 DUP2 DUP13 SUB DUP3 PUSH2 0x2B17 JUMP JUMPDEST PUSH2 0x180 DUP3 ADD MSTORE PUSH1 0x40 MLOAD SWAP2 DUP3 SWAP2 DUP3 PUSH2 0x2CAA JUMP JUMPDEST SUB SWAP1 RETURN JUMPDEST DUP5 SLOAD DUP9 MSTORE SWAP7 DUP8 ADD SWAP7 SWAP4 DUP4 ADD SWAP4 SWAP1 DUP4 ADD SWAP1 PUSH2 0xC6E JUMP JUMPDEST PUSH1 0x40 MLOAD PUSH3 0x461BCD PUSH1 0xE5 SHL DUP2 MSTORE PUSH1 0x4 DUP2 ADD DUP4 SWAP1 MSTORE PUSH1 0x11 PUSH1 0x24 DUP3 ADD MSTORE PUSH17 0x14DD1D59195B9D081B9BDD08199BDD5B99 PUSH1 0x7A SHL PUSH1 0x44 DUP3 ADD MSTORE PUSH1 0x64 SWAP1 REVERT JUMPDEST CALLVALUE PUSH2 0x1A8 JUMPI PUSH1 0x20 CALLDATASIZE PUSH1 0x3 NOT ADD SLT PUSH2 0x1A8 JUMPI PUSH1 0x4 CALLDATALOAD PUSH1 0x0 MSTORE PUSH1 0x6 PUSH1 0x20 MSTORE PUSH1 0x40 PUSH1 0x0 KECCAK256 DUP1 SLOAD PUSH2 0xD19 PUSH1 0x1 DUP4 ADD PUSH2 0x2B3A JUMP JUMPDEST SWAP2 PUSH2 0xD26 PUSH1 0x2 DUP3 ADD PUSH2 0x2B3A JUMP JUMPDEST PUSH2 0xD32 PUSH1 0x3 DUP4 ADD PUSH2 0x2B3A JUMP JUMPDEST SWAP2 PUSH2 0xDB7 PUSH1 0x4 DUP3 ADD SLOAD PUSH2 0xD47 PUSH1 0x5 DUP5 ADD PUSH2 0x2B3A JUMP JUMPDEST PUSH2 0xDA4 PUSH1 0xFF PUSH1 0x6 DUP7 ADD SLOAD AND SWAP7 PUSH2 0xD96 PUSH1 0x7 DUP8 ADD SLOAD SWAP7 PUSH1 0x8 PUSH1 0x1 DUP1 PUSH1 0xA0 SHL SUB SWAP2 ADD SLOAD AND SWAP8 PUSH2 0xD88 PUSH1 0x40 MLOAD SWAP13 DUP14 SWAP13 DUP14 MSTORE PUSH1 0x20 DUP14 PUSH2 0x120 SWAP2 DUP3 SWAP2 ADD MSTORE DUP14 ADD SWAP1 PUSH2 0x2C03 JUMP JUMPDEST SWAP1 DUP12 DUP3 SUB PUSH1 0x40 DUP14 ADD MSTORE PUSH2 0x2C03 JUMP JUMPDEST SWAP1 DUP10 DUP3 SUB PUSH1 0x60 DUP12 ADD MSTORE PUSH2 0x2C03 JUMP JUMPDEST SWAP2 PUSH1 0x80 DUP9 ADD MSTORE DUP7 DUP3 SUB PUSH1 0xA0 DUP9 ADD MSTORE PUSH2 0x2C03 JUMP JUMPDEST SWAP3 ISZERO ISZERO PUSH1 0xC0 DUP6 ADD MSTORE PUSH1 0xE0 DUP5 ADD MSTORE PUSH2 0x100 DUP4 ADD MSTORE SUB SWAP1 RETURN JUMPDEST CALLVALUE PUSH2 0x1A8 JUMPI PUSH1 0xC0 CALLDATASIZE PUSH1 0x3 NOT ADD SLT PUSH2 0x1A8 JUMPI PUSH2 0xDE7 PUSH2 0x2C3E JUMP JUMPDEST PUSH1 0x24 CALLDATALOAD PUSH1 0x1 PUSH1 0x1 PUSH1 0x40 SHL SUB DUP2 GT PUSH2 0x1A8 JUMPI PUSH2 0xE06 SWAP1 CALLDATASIZE SWAP1 PUSH1 0x4 ADD PUSH2 0x2C54 JUMP JUMPDEST SWAP1 PUSH1 0x44 CALLDATALOAD PUSH1 0x1 PUSH1 0x1 PUSH1 0x40 SHL SUB DUP2 GT PUSH2 0x1A8 JUMPI PUSH2 0xE26 SWAP1 CALLDATASIZE SWAP1 PUSH1 0x4 ADD PUSH2 0x2C54 JUMP JUMPDEST SWAP1 PUSH1 0x64 CALLDATALOAD PUSH1 0x1 PUSH1 0x1 PUSH1 0x40 SHL SUB DUP2 GT PUSH2 0x1A8 JUMPI PUSH2 0xE46 SWAP1 CALLDATASIZE SWAP1 PUSH1 0x4 ADD PUSH2 0x2C54 JUMP JUMPDEST SWAP3 PUSH1 0x84 CALLDATALOAD PUSH1 0x1 PUSH1 0x1 PUSH1 0x40 SHL SUB DUP2 GT PUSH2 0x1A8 JUMPI PUSH2 0xE66 SWAP1 CALLDATASIZE SWAP1 PUSH1 0x4 ADD PUSH2 0x2C54 JUMP JUMPDEST SWAP3 PUSH1 0xA4 CALLDATALOAD PUSH1 0x1 PUSH1 0x1 PUSH1 0x40 SHL SUB DUP2 GT PUSH2 0x1A8 JUMPI PUSH2 0xE86 SWAP1 CALLDATASIZE SWAP1 PUSH1 0x4 ADD PUSH2 0x2C54 JUMP JUMPDEST SWAP4 PUSH2 0xE8F PUSH2 0x2DCF JUMP JUMPDEST PUSH2 0xE97 PUSH2 0x2FD6 JUMP JUMPDEST PUSH1 0x1 PUSH1 0x1 PUSH1 0xA0 SHL SUB DUP5 AND ISZERO PUSH2 0x18C0 JUMPI DUP3 MLOAD ISZERO PUSH2 0x187B JUMPI DUP2 MLOAD ISZERO PUSH2 0x183F JUMPI PUSH1 0xFF PUSH1 0x40 MLOAD PUSH1 0x20 DUP2 DUP7 MLOAD PUSH2 0xECB DUP2 DUP4 DUP6 DUP12 ADD PUSH2 0x2BE0 JUMP JUMPDEST DUP2 ADD PUSH1 0x7 DUP2 MSTORE SUB ADD SWAP1 KECCAK256 SLOAD AND PUSH2 0x17FA JUMPI PUSH1 0x1 PUSH1 0x1 PUSH1 0xA0 SHL SUB DUP5 AND PUSH1 0x0 SWAP1 DUP2 MSTORE PUSH1 0x8 PUSH1 0x20 MSTORE PUSH1 0x40 SWAP1 KECCAK256 SLOAD PUSH1 0xFF AND PUSH2 0x17B8 JUMPI PUSH2 0xF06 PUSH1 0x2 SLOAD PUSH2 0x2F9A JUMP JUMPDEST SWAP5 DUP6 PUSH1 0x2 SSTORE PUSH1 0x40 MLOAD SWAP2 PUSH2 0xF18 DUP4 PUSH2 0x2AFC JUMP JUMPDEST PUSH1 0x0 DUP4 MSTORE PUSH1 0x40 MLOAD SWAP8 PUSH2 0xF29 DUP10 PUSH2 0x2AE0 JUMP JUMPDEST DUP8 DUP10 MSTORE PUSH1 0x1 DUP1 PUSH1 0xA0 SHL SUB DUP8 AND PUSH1 0x20 DUP11 ADD MSTORE DUP6 PUSH1 0x40 DUP11 ADD MSTORE DUP5 PUSH1 0x60 DUP11 ADD MSTORE PUSH1 0x80 DUP10 ADD MSTORE PUSH1 0xA0 DUP9 ADD MSTORE PUSH1 0xC0 DUP8 ADD MSTORE TIMESTAMP PUSH1 0xE0 DUP8 ADD MSTORE PUSH1 0x0 PUSH2 0x100 DUP8 ADD MSTORE PUSH1 0x1 PUSH2 0x120 DUP8 ADD MSTORE PUSH1 0x0 PUSH2 0x140 DUP8 ADD MSTORE PUSH1 0x40 MLOAD PUSH2 0xF7F DUP2 PUSH2 0x2AFC JUMP JUMPDEST PUSH1 0x0 DUP2 MSTORE PUSH2 0x160 DUP8 ADD MSTORE PUSH2 0x180 DUP7 ADD MSTORE DUP4 PUSH1 0x0 MSTORE PUSH1 0x4 PUSH1 0x20 MSTORE PUSH1 0x40 PUSH1 0x0 KECCAK256 DUP6 MLOAD DUP2 SSTORE PUSH1 0x1 DUP2 ADD PUSH1 0x1 DUP1 PUSH1 0xA0 SHL SUB PUSH1 0x20 DUP9 ADD MLOAD AND PUSH1 0x1 DUP1 PUSH1 0xA0 SHL SUB NOT DUP3 SLOAD AND OR SWAP1 SSTORE PUSH1 0x40 DUP7 ADD MLOAD DUP1 MLOAD SWAP1 PUSH1 0x1 DUP1 PUSH1 0x40 SHL SUB DUP3 GT PUSH2 0x66A JUMPI DUP2 SWAP1 PUSH2 0xFE4 PUSH1 0x2 DUP6 ADD SLOAD PUSH2 0x2A8A JUMP JUMPDEST PUSH1 0x1F DUP2 GT PUSH2 0x1783 JUMPI JUMPDEST POP PUSH1 0x20 SWAP1 PUSH1 0x1F DUP4 GT PUSH1 0x1 EQ PUSH2 0x1711 JUMPI PUSH1 0x0 SWAP3 PUSH2 0x1706 JUMPI JUMPDEST POP POP DUP2 PUSH1 0x1 SHL SWAP2 PUSH1 0x0 NOT SWAP1 PUSH1 0x3 SHL SHR NOT AND OR PUSH1 0x2 DUP3 ADD SSTORE JUMPDEST PUSH1 0x60 DUP7 ADD MLOAD DUP1 MLOAD SWAP1 PUSH1 0x1 PUSH1 0x1 PUSH1 0x40 SHL SUB DUP3 GT PUSH2 0x66A JUMPI DUP2 SWAP1 PUSH2 0x1041 PUSH1 0x3 DUP6 ADD SLOAD PUSH2 0x2A8A JUMP JUMPDEST PUSH1 0x1F DUP2 GT PUSH2 0x16D1 JUMPI JUMPDEST POP PUSH1 0x20 SWAP1 PUSH1 0x1F DUP4 GT PUSH1 0x1 EQ PUSH2 0x165F JUMPI PUSH1 0x0 SWAP3 PUSH2 0x1654 JUMPI JUMPDEST POP POP DUP2 PUSH1 0x1 SHL SWAP2 PUSH1 0x0 NOT SWAP1 PUSH1 0x3 SHL SHR NOT AND OR PUSH1 0x3 DUP3 ADD SSTORE JUMPDEST PUSH1 0x80 DUP7 ADD MLOAD DUP1 MLOAD SWAP1 PUSH1 0x1 PUSH1 0x1 PUSH1 0x40 SHL SUB DUP3 GT PUSH2 0x66A JUMPI DUP2 SWAP1 PUSH2 0x109E PUSH1 0x4 DUP6 ADD SLOAD PUSH2 0x2A8A JUMP JUMPDEST PUSH1 0x1F DUP2 GT PUSH2 0x161F JUMPI JUMPDEST POP PUSH1 0x20 SWAP1 PUSH1 0x1F DUP4 GT PUSH1 0x1 EQ PUSH2 0x15AD JUMPI PUSH1 0x0 SWAP3 PUSH2 0x15A2 JUMPI JUMPDEST POP POP DUP2 PUSH1 0x1 SHL SWAP2 PUSH1 0x0 NOT SWAP1 PUSH1 0x3 SHL SHR NOT AND OR PUSH1 0x4 DUP3 ADD SSTORE JUMPDEST PUSH1 0xA0 DUP7 ADD MLOAD DUP1 MLOAD SWAP1 PUSH1 0x1 PUSH1 0x1 PUSH1 0x40 SHL SUB DUP3 GT PUSH2 0x66A JUMPI DUP2 SWAP1 PUSH2 0x10FB PUSH1 0x5 DUP6 ADD SLOAD PUSH2 0x2A8A JUMP JUMPDEST PUSH1 0x1F DUP2 GT PUSH2 0x156D JUMPI JUMPDEST POP PUSH1 0x20 SWAP1 PUSH1 0x1F DUP4 GT PUSH1 0x1 EQ PUSH2 0x14FB JUMPI PUSH1 0x0 SWAP3 PUSH2 0x14F0 JUMPI JUMPDEST POP POP DUP2 PUSH1 0x1 SHL SWAP2 PUSH1 0x0 NOT SWAP1 PUSH1 0x3 SHL SHR NOT AND OR PUSH1 0x5 DUP3 ADD SSTORE JUMPDEST PUSH1 0xC0 DUP7 ADD MLOAD DUP1 MLOAD SWAP1 PUSH1 0x1 PUSH1 0x1 PUSH1 0x40 SHL SUB DUP3 GT PUSH2 0x66A JUMPI DUP2 SWAP1 PUSH2 0x1158 PUSH1 0x6 DUP6 ADD SLOAD PUSH2 0x2A8A JUMP JUMPDEST PUSH1 0x1F DUP2 GT PUSH2 0x14BB JUMPI JUMPDEST POP PUSH1 0x20 SWAP1 PUSH1 0x1F DUP4 GT PUSH1 0x1 EQ PUSH2 0x1449 JUMPI PUSH1 0x0 SWAP3 PUSH2 0x143E JUMPI JUMPDEST POP POP DUP2 PUSH1 0x1 SHL SWAP2 PUSH1 0x0 NOT SWAP1 PUSH1 0x3 SHL SHR NOT AND OR PUSH1 0x6 DUP3 ADD SSTORE JUMPDEST PUSH1 0xE0 DUP7 ADD MLOAD PUSH1 0x7 DUP3 ADD SSTORE PUSH2 0x100 DUP7 ADD MLOAD PUSH1 0x8 DUP3 ADD SSTORE PUSH1 0x9 DUP2 ADD PUSH2 0x11C6 PUSH2 0x120 DUP9 ADD MLOAD ISZERO ISZERO DUP3 SWAP1 PUSH1 0xFF DUP1 NOT DUP4 SLOAD AND SWAP2 ISZERO ISZERO AND OR SWAP1 SSTORE JUMP JUMPDEST PUSH2 0x140 DUP8 ADD MLOAD DUP2 SLOAD PUSH2 0xFF00 NOT AND SWAP1 ISZERO ISZERO PUSH1 0x8 SHL PUSH2 0xFF00 AND OR SWAP1 SSTORE PUSH2 0x160 DUP7 ADD MLOAD DUP1 MLOAD SWAP1 PUSH1 0x1 PUSH1 0x1 PUSH1 0x40 SHL SUB DUP3 GT PUSH2 0x66A JUMPI PUSH2 0x1204 PUSH1 0xA DUP5 ADD SLOAD PUSH2 0x2A8A JUMP JUMPDEST PUSH1 0x1F DUP2 GT PUSH2 0x1409 JUMPI JUMPDEST POP PUSH1 0x20 SWAP1 PUSH1 0x1F DUP4 GT PUSH1 0x1 EQ PUSH2 0x1393 JUMPI SWAP2 DUP1 PUSH2 0x180 SWAP5 SWAP3 PUSH1 0xB SWAP5 PUSH1 0x0 SWAP3 PUSH2 0x1388 JUMPI JUMPDEST POP POP DUP2 PUSH1 0x1 SHL SWAP2 PUSH1 0x0 NOT SWAP1 PUSH1 0x3 SHL SHR NOT AND OR PUSH1 0xA DUP3 ADD SSTORE JUMPDEST ADD SWAP6 ADD MLOAD DUP1 MLOAD SWAP1 PUSH1 0x1 DUP1 PUSH1 0x40 SHL SUB DUP3 GT PUSH2 0x66A JUMPI PUSH1 0x1 PUSH1 0x40 SHL DUP3 GT PUSH2 0x66A JUMPI PUSH1 0x20 SWAP1 DUP8 SLOAD DUP4 DUP10 SSTORE DUP1 DUP5 LT PUSH2 0x136B JUMPI JUMPDEST POP ADD SWAP6 PUSH1 0x0 MSTORE PUSH1 0x20 PUSH1 0x0 KECCAK256 SWAP6 PUSH1 0x0 JUMPDEST DUP3 DUP2 LT PUSH2 0x1357 JUMPI PUSH1 0x20 DUP8 DUP8 DUP2 PUSH32 0x911873DCC1FB88F7451F9DD9C6ED2CC2AD92AD8EB19FE599A5B526B910645781 PUSH2 0x132D DUP11 PUSH2 0x133A DUP12 PUSH1 0x1 DUP1 PUSH1 0xA0 SHL SUB DUP8 AND PUSH1 0x0 MSTORE PUSH1 0x5 DUP10 MSTORE DUP6 PUSH1 0x40 PUSH1 0x0 KECCAK256 SSTORE PUSH1 0x40 MLOAD DUP10 DUP2 DUP6 MLOAD PUSH2 0x12E4 DUP2 DUP4 DUP6 DUP11 ADD PUSH2 0x2BE0 JUMP JUMPDEST DUP2 ADD PUSH1 0x7 DUP2 MSTORE SUB ADD SWAP1 KECCAK256 PUSH1 0xFF NOT SWAP1 PUSH1 0x1 DUP3 DUP3 SLOAD AND OR SWAP1 SSTORE PUSH1 0x1 DUP1 PUSH1 0xA0 SHL SUB DUP9 AND PUSH1 0x0 MSTORE PUSH1 0x8 DUP11 MSTORE PUSH1 0x1 PUSH1 0x40 PUSH1 0x0 KECCAK256 SWAP2 DUP3 SLOAD AND OR SWAP1 SSTORE PUSH1 0x40 MLOAD SWAP4 DUP5 SWAP4 PUSH1 0x60 DUP6 MSTORE PUSH1 0x60 DUP6 ADD SWAP1 PUSH2 0x2C03 JUMP JUMPDEST SWAP1 DUP4 DUP3 SUB DUP11 DUP6 ADD MSTORE PUSH2 0x2C03 JUMP JUMPDEST TIMESTAMP PUSH1 0x40 DUP4 ADD MSTORE PUSH1 0x1 PUSH1 0x1 PUSH1 0xA0 SHL SUB SWAP1 SWAP6 AND SWAP5 SUB SWAP1 LOG3 PUSH1 0x40 MLOAD SWAP1 DUP2 MSTORE RETURN JUMPDEST PUSH1 0x1 SWAP1 PUSH1 0x20 DUP4 MLOAD SWAP4 ADD SWAP3 DUP2 DUP11 ADD SSTORE ADD PUSH2 0x1284 JUMP JUMPDEST PUSH2 0x1382 SWAP1 DUP10 PUSH1 0x0 MSTORE DUP5 DUP5 PUSH1 0x0 KECCAK256 SWAP2 DUP3 ADD SWAP2 ADD PUSH2 0x2FBF JUMP JUMPDEST DUP9 PUSH2 0x1275 JUMP JUMPDEST ADD MLOAD SWAP1 POP DUP11 DUP1 PUSH2 0x122E JUMP JUMPDEST SWAP1 PUSH1 0xA DUP5 ADD PUSH1 0x0 MSTORE PUSH1 0x20 PUSH1 0x0 KECCAK256 SWAP2 PUSH1 0x0 JUMPDEST PUSH1 0x1F NOT DUP6 AND DUP2 LT PUSH2 0x13F1 JUMPI POP SWAP3 PUSH2 0x180 SWAP5 SWAP3 PUSH1 0x1 SWAP3 PUSH1 0xB SWAP6 DUP4 PUSH1 0x1F NOT DUP2 AND LT PUSH2 0x13D8 JUMPI JUMPDEST POP POP POP DUP2 SHL ADD PUSH1 0xA DUP3 ADD SSTORE PUSH2 0x1246 JUMP JUMPDEST ADD MLOAD PUSH1 0x0 NOT PUSH1 0xF8 DUP5 PUSH1 0x3 SHL AND SHR NOT AND SWAP1 SSTORE DUP11 DUP1 DUP1 PUSH2 0x13C8 JUMP JUMPDEST SWAP2 SWAP3 PUSH1 0x20 PUSH1 0x1 DUP2 SWAP3 DUP7 DUP6 ADD MLOAD DUP2 SSTORE ADD SWAP5 ADD SWAP3 ADD PUSH2 0x13A4 JUMP JUMPDEST PUSH2 0x1438 SWAP1 PUSH1 0xA DUP6 ADD PUSH1 0x0 MSTORE PUSH1 0x20 PUSH1 0x0 KECCAK256 PUSH1 0x1F DUP6 ADD PUSH1 0x5 SHR DUP2 ADD SWAP2 PUSH1 0x20 DUP7 LT PUSH2 0x660 JUMPI PUSH1 0x1F ADD PUSH1 0x5 SHR ADD SWAP1 PUSH2 0x2FBF JUMP JUMPDEST DUP9 PUSH2 0x120D JUMP JUMPDEST ADD MLOAD SWAP1 POP DUP9 DUP1 PUSH2 0x1178 JUMP JUMPDEST SWAP3 POP PUSH1 0x6 DUP5 ADD PUSH1 0x0 MSTORE PUSH1 0x20 PUSH1 0x0 KECCAK256 SWAP1 PUSH1 0x0 SWAP4 JUMPDEST PUSH1 0x1F NOT DUP5 AND DUP6 LT PUSH2 0x14A0 JUMPI PUSH1 0x1 SWAP5 POP DUP4 PUSH1 0x1F NOT DUP2 AND LT PUSH2 0x1487 JUMPI JUMPDEST POP POP POP DUP2 SHL ADD PUSH1 0x6 DUP3 ADD SSTORE PUSH2 0x1190 JUMP JUMPDEST ADD MLOAD PUSH1 0x0 NOT PUSH1 0xF8 DUP5 PUSH1 0x3 SHL AND SHR NOT AND SWAP1 SSTORE DUP9 DUP1 DUP1 PUSH2 0x1477 JUMP JUMPDEST DUP2 DUP2 ADD MLOAD DUP4 SSTORE PUSH1 0x20 SWAP5 DUP6 ADD SWAP5 PUSH1 0x1 SWAP1 SWAP4 ADD SWAP3 SWAP1 SWAP2 ADD SWAP1 PUSH2 0x145C JUMP JUMPDEST PUSH2 0x14EA SWAP1 PUSH1 0x6 DUP7 ADD PUSH1 0x0 MSTORE PUSH1 0x20 PUSH1 0x0 KECCAK256 PUSH1 0x1F DUP6 ADD PUSH1 0x5 SHR DUP2 ADD SWAP2 PUSH1 0x20 DUP7 LT PUSH2 0x660 JUMPI PUSH1 0x1F ADD PUSH1 0x5 SHR ADD SWAP1 PUSH2 0x2FBF JUMP JUMPDEST DUP10 PUSH2 0x1161 JUMP JUMPDEST ADD MLOAD SWAP1 POP DUP9 DUP1 PUSH2 0x111B JUMP JUMPDEST SWAP3 POP PUSH1 0x5 DUP5 ADD PUSH1 0x0 MSTORE PUSH1 0x20 PUSH1 0x0 KECCAK256 SWAP1 PUSH1 0x0 SWAP4 JUMPDEST PUSH1 0x1F NOT DUP5 AND DUP6 LT PUSH2 0x1552 JUMPI PUSH1 0x1 SWAP5 POP DUP4 PUSH1 0x1F NOT DUP2 AND LT PUSH2 0x1539 JUMPI JUMPDEST POP POP POP DUP2 SHL ADD PUSH1 0x5 DUP3 ADD SSTORE PUSH2 0x1133 JUMP JUMPDEST ADD MLOAD PUSH1 0x0 NOT PUSH1 0xF8 DUP5 PUSH1 0x3 SHL AND SHR NOT AND SWAP1 SSTORE DUP9 DUP1 DUP1 PUSH2 0x1529 JUMP JUMPDEST DUP2 DUP2 ADD MLOAD DUP4 SSTORE PUSH1 0x20 SWAP5 DUP6 ADD SWAP5 PUSH1 0x1 SWAP1 SWAP4 ADD SWAP3 SWAP1 SWAP2 ADD SWAP1 PUSH2 0x150E JUMP JUMPDEST PUSH2 0x159C SWAP1 PUSH1 0x5 DUP7 ADD PUSH1 0x0 MSTORE PUSH1 0x20 PUSH1 0x0 KECCAK256 PUSH1 0x1F DUP6 ADD PUSH1 0x5 SHR DUP2 ADD SWAP2 PUSH1 0x20 DUP7 LT PUSH2 0x660 JUMPI PUSH1 0x1F ADD PUSH1 0x5 SHR ADD SWAP1 PUSH2 0x2FBF JUMP JUMPDEST DUP10 PUSH2 0x1104 JUMP JUMPDEST ADD MLOAD SWAP1 POP DUP9 DUP1 PUSH2 0x10BE JUMP JUMPDEST SWAP3 POP PUSH1 0x4 DUP5 ADD PUSH1 0x0 MSTORE PUSH1 0x20 PUSH1 0x0 KECCAK256 SWAP1 PUSH1 0x0 SWAP4 JUMPDEST PUSH1 0x1F NOT DUP5 AND DUP6 LT PUSH2 0x1604 JUMPI PUSH1 0x1 SWAP5 POP DUP4 PUSH1 0x1F NOT DUP2 AND LT PUSH2 0x15EB JUMPI JUMPDEST POP POP POP DUP2 SHL ADD PUSH1 0x4 DUP3 ADD SSTORE PUSH2 0x10D6 JUMP JUMPDEST ADD MLOAD PUSH1 0x0 NOT PUSH1 0xF8 DUP5 PUSH1 0x3 SHL AND SHR NOT AND SWAP1 SSTORE DUP9 DUP1 DUP1 PUSH2 0x15DB JUMP JUMPDEST DUP2 DUP2 ADD MLOAD DUP4 SSTORE PUSH1 0x20 SWAP5 DUP6 ADD SWAP5 PUSH1 0x1 SWAP1 SWAP4 ADD SWAP3 SWAP1 SWAP2 ADD SWAP1 PUSH2 0x15C0 JUMP JUMPDEST PUSH2 0x164E SWAP1 PUSH1 0x4 DUP7 ADD PUSH1 0x0 MSTORE PUSH1 0x20 PUSH1 0x0 KECCAK256 PUSH1 0x1F DUP6 ADD PUSH1 0x5 SHR DUP2 ADD SWAP2 PUSH1 0x20 DUP7 LT PUSH2 0x660 JUMPI PUSH1 0x1F ADD PUSH1 0x5 SHR ADD SWAP1 PUSH2 0x2FBF JUMP JUMPDEST DUP10 PUSH2 0x10A7 JUMP JUMPDEST ADD MLOAD SWAP1 POP DUP9 DUP1 PUSH2 0x1061 JUMP JUMPDEST SWAP3 POP PUSH1 0x3 DUP5 ADD PUSH1 0x0 MSTORE PUSH1 0x20 PUSH1 0x0 KECCAK256 SWAP1 PUSH1 0x0 SWAP4 JUMPDEST PUSH1 0x1F NOT DUP5 AND DUP6 LT PUSH2 0x16B6 JUMPI PUSH1 0x1 SWAP5 POP DUP4 PUSH1 0x1F NOT DUP2 AND LT PUSH2 0x169D JUMPI JUMPDEST POP POP POP DUP2 SHL ADD PUSH1 0x3 DUP3 ADD SSTORE PUSH2 0x1079 JUMP JUMPDEST ADD MLOAD PUSH1 0x0 NOT PUSH1 0xF8 DUP5 PUSH1 0x3 SHL AND SHR NOT AND SWAP1 SSTORE DUP9 DUP1 DUP1 PUSH2 0x168D JUMP JUMPDEST DUP2 DUP2 ADD MLOAD DUP4 SSTORE PUSH1 0x20 SWAP5 DUP6 ADD SWAP5 PUSH1 0x1 SWAP1 SWAP4 ADD SWAP3 SWAP1 SWAP2 ADD SWAP1 PUSH2 0x1672 JUMP JUMPDEST PUSH2 0x1700 SWAP1 PUSH1 0x3 DUP7 ADD PUSH1 0x0 MSTORE PUSH1 0x20 PUSH1 0x0 KECCAK256 PUSH1 0x1F DUP6 ADD PUSH1 0x5 SHR DUP2 ADD SWAP2 PUSH1 0x20 DUP7 LT PUSH2 0x660 JUMPI PUSH1 0x1F ADD PUSH1 0x5 SHR ADD SWAP1 PUSH2 0x2FBF JUMP JUMPDEST DUP10 PUSH2 0x104A JUMP JUMPDEST ADD MLOAD SWAP1 POP DUP9 DUP1 PUSH2 0x1004 JUMP JUMPDEST SWAP3 POP PUSH1 0x2 DUP5 ADD PUSH1 0x0 MSTORE PUSH1 0x20 PUSH1 0x0 KECCAK256 SWAP1 PUSH1 0x0 SWAP4 JUMPDEST PUSH1 0x1F NOT DUP5 AND DUP6 LT PUSH2 0x1768 JUMPI PUSH1 0x1 SWAP5 POP DUP4 PUSH1 0x1F NOT DUP2 AND LT PUSH2 0x174F JUMPI JUMPDEST POP POP POP DUP2 SHL ADD PUSH1 0x2 DUP3 ADD SSTORE PUSH2 0x101C JUMP JUMPDEST ADD MLOAD PUSH1 0x0 NOT PUSH1 0xF8 DUP5 PUSH1 0x3 SHL AND SHR NOT AND SWAP1 SSTORE DUP9 DUP1 DUP1 PUSH2 0x173F JUMP JUMPDEST DUP2 DUP2 ADD MLOAD DUP4 SSTORE PUSH1 0x20 SWAP5 DUP6 ADD SWAP5 PUSH1 0x1 SWAP1 SWAP4 ADD SWAP3 SWAP1 SWAP2 ADD SWAP1 PUSH2 0x1724 JUMP JUMPDEST PUSH2 0x17B2 SWAP1 PUSH1 0x2 DUP7 ADD PUSH1 0x0 MSTORE PUSH1 0x20 PUSH1 0x0 KECCAK256 PUSH1 0x1F DUP6 ADD PUSH1 0x5 SHR DUP2 ADD SWAP2 PUSH1 0x20 DUP7 LT PUSH2 0x660 JUMPI PUSH1 0x1F ADD PUSH1 0x5 SHR ADD SWAP1 PUSH2 0x2FBF JUMP JUMPDEST DUP10 PUSH2 0xFED JUMP JUMPDEST PUSH1 0x40 MLOAD PUSH3 0x461BCD PUSH1 0xE5 SHL DUP2 MSTORE PUSH1 0x20 PUSH1 0x4 DUP3 ADD MSTORE PUSH1 0x1A PUSH1 0x24 DUP3 ADD MSTORE PUSH26 0x1059191C995CDCC8185B1C9958591E481C9959DA5CDD195C9959 PUSH1 0x32 SHL PUSH1 0x44 DUP3 ADD MSTORE PUSH1 0x64 SWAP1 REVERT JUMPDEST PUSH1 0x40 MLOAD PUSH3 0x461BCD PUSH1 0xE5 SHL DUP2 MSTORE PUSH1 0x20 PUSH1 0x4 DUP3 ADD MSTORE PUSH1 0x1D PUSH1 0x24 DUP3 ADD MSTORE PUSH32 0x53747564656E74206E756D62657220616C726561647920657869737473000000 PUSH1 0x44 DUP3 ADD MSTORE PUSH1 0x64 SWAP1 REVERT JUMPDEST PUSH1 0x40 MLOAD PUSH3 0x461BCD PUSH1 0xE5 SHL DUP2 MSTORE PUSH1 0x20 PUSH1 0x4 DUP3 ADD MSTORE PUSH1 0x14 PUSH1 0x24 DUP3 ADD MSTORE PUSH20 0x4E616D652063616E6E6F7420626520656D707479 PUSH1 0x60 SHL PUSH1 0x44 DUP3 ADD MSTORE PUSH1 0x64 SWAP1 REVERT JUMPDEST PUSH1 0x40 MLOAD PUSH3 0x461BCD PUSH1 0xE5 SHL DUP2 MSTORE PUSH1 0x20 PUSH1 0x4 DUP3 ADD MSTORE PUSH1 0x1E PUSH1 0x24 DUP3 ADD MSTORE PUSH32 0x53747564656E74206E756D6265722063616E6E6F7420626520656D7074790000 PUSH1 0x44 DUP3 ADD MSTORE PUSH1 0x64 SWAP1 REVERT JUMPDEST PUSH1 0x40 MLOAD PUSH3 0x461BCD PUSH1 0xE5 SHL DUP2 MSTORE PUSH1 0x20 PUSH1 0x4 DUP3 ADD MSTORE PUSH1 0x17 PUSH1 0x24 DUP3 ADD MSTORE PUSH23 0x496E76616C69642073747564656E742061646472657373 PUSH1 0x48 SHL PUSH1 0x44 DUP3 ADD MSTORE PUSH1 0x64 SWAP1 REVERT JUMPDEST CALLVALUE PUSH2 0x1A8 JUMPI PUSH1 0x40 CALLDATASIZE PUSH1 0x3 NOT ADD SLT PUSH2 0x1A8 JUMPI PUSH2 0x1918 PUSH2 0x2C28 JUMP JUMPDEST PUSH1 0x4 CALLDATALOAD PUSH1 0x0 MSTORE PUSH1 0x0 PUSH1 0x20 MSTORE PUSH1 0x40 PUSH1 0x0 KECCAK256 SWAP1 PUSH1 0x1 DUP1 PUSH1 0xA0 SHL SUB AND PUSH1 0x0 MSTORE PUSH1 0x20 MSTORE PUSH1 0x20 PUSH1 0xFF PUSH1 0x40 PUSH1 0x0 KECCAK256 SLOAD AND PUSH1 0x40 MLOAD SWAP1 ISZERO ISZERO DUP2 MSTORE RETURN JUMPDEST CALLVALUE PUSH2 0x1A8 JUMPI PUSH1 0x80 CALLDATASIZE PUSH1 0x3 NOT ADD SLT PUSH2 0x1A8 JUMPI PUSH1 0x4 CALLDATALOAD PUSH1 0x1 PUSH1 0x1 PUSH1 0x40 SHL SUB PUSH1 0x24 CALLDATALOAD DUP2 DUP2 GT PUSH2 0x1A8 JUMPI PUSH2 0x1980 SWAP1 CALLDATASIZE SWAP1 PUSH1 0x4 ADD PUSH2 0x2C54 JUMP JUMPDEST SWAP1 PUSH1 0x44 CALLDATALOAD DUP2 DUP2 GT PUSH2 0x1A8 JUMPI PUSH2 0x1999 SWAP1 CALLDATASIZE SWAP1 PUSH1 0x4 ADD PUSH2 0x2C54 JUMP JUMPDEST PUSH1 0x64 CALLDATALOAD SWAP1 PUSH2 0x19A5 PUSH2 0x2DCF JUMP JUMPDEST DUP5 PUSH1 0x0 MSTORE PUSH1 0x6 SWAP1 PUSH1 0x20 SWAP4 DUP3 DUP6 MSTORE PUSH2 0x19C2 PUSH1 0x40 PUSH1 0x0 KECCAK256 SLOAD ISZERO ISZERO PUSH2 0x307D JUMP JUMPDEST DUP7 PUSH1 0x0 MSTORE DUP3 DUP6 MSTORE PUSH2 0x19DC PUSH1 0xFF DUP5 PUSH1 0x40 PUSH1 0x0 KECCAK256 ADD SLOAD AND PUSH2 0x30C1 JUMP JUMPDEST DUP7 PUSH1 0x0 MSTORE DUP3 DUP6 MSTORE PUSH1 0x2 PUSH1 0x40 PUSH1 0x0 KECCAK256 ADD DUP7 MLOAD SWAP1 DUP3 DUP3 GT PUSH2 0x66A JUMPI PUSH2 0x19FF DUP2 SLOAD PUSH2 0x2A8A JUMP JUMPDEST SWAP2 PUSH1 0x1F SWAP3 DUP4 DUP2 GT PUSH2 0x1C05 JUMPI JUMPDEST POP DUP1 DUP9 DUP5 DUP3 GT PUSH1 0x1 EQ PUSH2 0x1BA1 JUMPI PUSH1 0x0 SWAP2 PUSH2 0x1B96 JUMPI JUMPDEST POP DUP2 PUSH1 0x1 SHL SWAP2 PUSH1 0x0 NOT SWAP1 PUSH1 0x3 SHL SHR NOT AND OR SWAP1 SSTORE JUMPDEST DUP8 PUSH1 0x0 MSTORE DUP4 DUP7 MSTORE PUSH1 0x3 PUSH1 0x40 PUSH1 0x0 KECCAK256 ADD SWAP3 DUP1 MLOAD SWAP3 DUP4 GT PUSH2 0x66A JUMPI PUSH2 0x1A57 DUP5 SLOAD PUSH2 0x2A8A JUMP JUMPDEST DUP3 DUP2 GT PUSH2 0x1B5E JUMPI JUMPDEST POP DUP7 SWAP2 DUP4 GT PUSH1 0x1 EQ PUSH2 0x1AE1 JUMPI SWAP2 DUP1 PUSH1 0x0 DUP1 MLOAD PUSH1 0x20 PUSH2 0x3187 DUP4 CODECOPY DUP2 MLOAD SWAP2 MSTORE SWAP9 SWAP7 SWAP5 SWAP3 PUSH2 0x1AC7 SWAP9 SWAP7 SWAP5 PUSH1 0x0 SWAP3 PUSH2 0x1AD6 JUMPI JUMPDEST POP POP DUP2 PUSH1 0x1 SHL SWAP2 PUSH1 0x0 NOT SWAP1 PUSH1 0x3 SHL SHR NOT AND OR SWAP1 SSTORE JUMPDEST DUP7 PUSH1 0x0 MSTORE DUP3 MSTORE DUP1 PUSH1 0x4 PUSH1 0x40 PUSH1 0x0 KECCAK256 ADD SSTORE PUSH1 0x40 MLOAD SWAP4 DUP5 SWAP4 PUSH1 0x60 DUP6 MSTORE PUSH1 0x60 DUP6 ADD SWAP1 PUSH2 0x2C03 JUMP JUMPDEST SWAP2 DUP4 ADD MSTORE TIMESTAMP PUSH1 0x40 DUP4 ADD MSTORE SUB SWAP1 LOG2 STOP JUMPDEST ADD MLOAD SWAP1 POP DUP11 DUP1 PUSH2 0x1A8E JUMP JUMPDEST SWAP1 PUSH1 0x1F NOT DUP4 AND SWAP2 DUP5 PUSH1 0x0 MSTORE DUP8 PUSH1 0x0 KECCAK256 SWAP3 PUSH1 0x0 JUMPDEST DUP2 DUP2 LT PUSH2 0x1B47 JUMPI POP SWAP3 PUSH1 0x1 SWAP3 DUP6 SWAP3 PUSH2 0x1AC7 SWAP11 SWAP9 SWAP7 PUSH1 0x0 DUP1 MLOAD PUSH1 0x20 PUSH2 0x3187 DUP4 CODECOPY DUP2 MLOAD SWAP2 MSTORE SWAP13 SWAP11 SWAP9 SWAP7 LT PUSH2 0x1B2E JUMPI JUMPDEST POP POP POP DUP2 SHL ADD SWAP1 SSTORE PUSH2 0x1AA3 JUMP JUMPDEST ADD MLOAD PUSH1 0x0 NOT PUSH1 0xF8 DUP5 PUSH1 0x3 SHL AND SHR NOT AND SWAP1 SSTORE DUP11 DUP1 DUP1 PUSH2 0x1B21 JUMP JUMPDEST SWAP3 SWAP4 DUP10 PUSH1 0x1 DUP2 SWAP3 DUP8 DUP7 ADD MLOAD DUP2 SSTORE ADD SWAP6 ADD SWAP4 ADD PUSH2 0x1AF4 JUMP JUMPDEST PUSH2 0x1B87 SWAP1 DUP6 PUSH1 0x0 MSTORE DUP9 PUSH1 0x0 KECCAK256 DUP5 DUP1 DUP8 ADD PUSH1 0x5 SHR DUP3 ADD SWAP3 DUP12 DUP9 LT PUSH2 0x1B8D JUMPI JUMPDEST ADD PUSH1 0x5 SHR ADD SWAP1 PUSH2 0x2FBF JUMP JUMPDEST DUP10 PUSH2 0x1A5F JUMP JUMPDEST SWAP3 POP DUP2 SWAP3 PUSH2 0x1B7C JUMP JUMPDEST SWAP1 POP DUP10 ADD MLOAD DUP12 PUSH2 0x1A20 JUMP JUMPDEST PUSH1 0x0 DUP5 DUP2 MSTORE DUP11 DUP2 KECCAK256 SWAP3 POP PUSH1 0x1F NOT DUP5 AND SWAP1 JUMPDEST DUP12 DUP14 DUP4 DUP4 LT PUSH2 0x1BF0 JUMPI POP POP POP SWAP1 DUP4 PUSH1 0x1 SWAP5 SWAP4 SWAP3 LT PUSH2 0x1BD7 JUMPI JUMPDEST POP POP DUP2 SHL ADD SWAP1 SSTORE PUSH2 0x1A34 JUMP JUMPDEST DUP12 ADD MLOAD PUSH1 0x0 NOT PUSH1 0xF8 DUP5 PUSH1 0x3 SHL AND SHR NOT AND SWAP1 SSTORE DUP12 DUP1 PUSH2 0x1BCB JUMP JUMPDEST DUP5 ADD MLOAD DUP6 SSTORE PUSH1 0x1 SWAP1 SWAP5 ADD SWAP4 SWAP3 DUP4 ADD SWAP3 ADD PUSH2 0x1BB2 JUMP JUMPDEST PUSH2 0x1C2D SWAP1 DUP4 PUSH1 0x0 MSTORE DUP10 PUSH1 0x0 KECCAK256 DUP6 DUP1 DUP6 ADD PUSH1 0x5 SHR DUP3 ADD SWAP3 DUP13 DUP7 LT PUSH2 0x1B8D JUMPI ADD PUSH1 0x5 SHR ADD SWAP1 PUSH2 0x2FBF JUMP JUMPDEST DUP11 PUSH2 0x1A0B JUMP JUMPDEST CALLVALUE PUSH2 0x1A8 JUMPI PUSH1 0x20 CALLDATASIZE PUSH1 0x3 NOT ADD SLT PUSH2 0x1A8 JUMPI PUSH1 0x1 PUSH1 0x1 PUSH1 0xA0 SHL SUB PUSH2 0x1C54 PUSH2 0x2C3E JUMP JUMPDEST AND PUSH1 0x0 MSTORE PUSH1 0x5 PUSH1 0x20 MSTORE PUSH1 0x20 PUSH1 0x40 PUSH1 0x0 KECCAK256 SLOAD PUSH1 0x40 MLOAD SWAP1 DUP2 MSTORE RETURN JUMPDEST CALLVALUE PUSH2 0x1A8 JUMPI PUSH1 0x0 CALLDATASIZE PUSH1 0x3 NOT ADD SLT PUSH2 0x1A8 JUMPI PUSH2 0x1C86 PUSH2 0x2E37 JUMP JUMPDEST PUSH2 0x1C8E PUSH2 0x2FD6 JUMP JUMPDEST PUSH1 0x1 PUSH1 0xFF NOT DUP2 SLOAD AND OR PUSH1 0x1 SSTORE PUSH32 0x62E78CEA01BEE320CD4E420270B5EA74000D11B0C9F74754EBDBFC544B05A258 PUSH1 0x20 PUSH1 0x40 MLOAD CALLER DUP2 MSTORE LOG1 STOP JUMPDEST CALLVALUE PUSH2 0x1A8 JUMPI PUSH1 0x0 CALLDATASIZE PUSH1 0x3 NOT ADD SLT PUSH2 0x1A8 JUMPI PUSH1 0x20 PUSH1 0x40 MLOAD PUSH1 0x0 DUP1 MLOAD PUSH1 0x20 PUSH2 0x31C7 DUP4 CODECOPY DUP2 MLOAD SWAP2 MSTORE DUP2 MSTORE RETURN JUMPDEST CALLVALUE PUSH2 0x1A8 JUMPI PUSH1 0x20 DUP1 PUSH1 0x3 NOT CALLDATASIZE ADD SLT PUSH2 0x1A8 JUMPI PUSH2 0x1D09 PUSH2 0x3104 JUMP JUMPDEST POP PUSH1 0x4 CALLDATALOAD PUSH1 0x0 MSTORE PUSH1 0x4 DUP2 MSTORE PUSH1 0x40 PUSH1 0x0 KECCAK256 PUSH1 0x40 MLOAD SWAP1 PUSH2 0x1D26 DUP3 PUSH2 0x2AE0 JUMP JUMPDEST DUP1 SLOAD DUP3 MSTORE PUSH1 0x1 DUP1 DUP3 ADD SLOAD PUSH1 0x1 PUSH1 0x1 PUSH1 0xA0 SHL SUB AND DUP5 DUP5 ADD MSTORE SWAP1 PUSH1 0xB SWAP1 PUSH2 0x1D4D PUSH1 0x2 DUP3 ADD PUSH2 0x2B3A JUMP JUMPDEST PUSH1 0x40 DUP6 ADD MSTORE PUSH2 0x1D5E PUSH1 0x3 DUP3 ADD PUSH2 0x2B3A JUMP JUMPDEST PUSH1 0x60 DUP6 ADD MSTORE PUSH2 0x1D6F PUSH1 0x4 DUP3 ADD PUSH2 0x2B3A JUMP JUMPDEST PUSH1 0x80 DUP6 ADD MSTORE PUSH2 0x1D80 PUSH1 0x5 DUP3 ADD PUSH2 0x2B3A JUMP JUMPDEST PUSH1 0xA0 DUP6 ADD MSTORE PUSH2 0x1D91 PUSH1 0x6 DUP3 ADD PUSH2 0x2B3A JUMP JUMPDEST PUSH1 0xC0 DUP6 ADD MSTORE PUSH1 0x7 DUP2 ADD SLOAD PUSH1 0xE0 DUP6 ADD MSTORE PUSH1 0x8 DUP2 ADD SLOAD PUSH2 0x100 DUP6 ADD MSTORE PUSH1 0xFF PUSH1 0x9 DUP3 ADD SLOAD DUP2 DUP2 AND ISZERO ISZERO PUSH2 0x120 DUP8 ADD MSTORE PUSH1 0x8 SHR AND ISZERO ISZERO PUSH2 0x140 DUP6 ADD MSTORE PUSH2 0x1DD5 PUSH1 0xA DUP3 ADD PUSH2 0x2B3A JUMP JUMPDEST PUSH2 0x160 DUP6 ADD MSTORE ADD SWAP3 PUSH1 0x40 MLOAD SWAP2 DUP3 DUP3 DUP7 SLOAD SWAP2 DUP3 DUP2 MSTORE ADD SWAP6 PUSH1 0x0 MSTORE DUP3 PUSH1 0x0 KECCAK256 SWAP3 PUSH1 0x0 SWAP1 JUMPDEST DUP3 DUP3 LT PUSH2 0x1E0F JUMPI PUSH2 0xC98 DUP8 DUP8 PUSH2 0xC86 DUP2 DUP13 SUB DUP3 PUSH2 0x2B17 JUMP JUMPDEST DUP5 SLOAD DUP9 MSTORE SWAP7 DUP8 ADD SWAP7 SWAP4 DUP4 ADD SWAP4 SWAP1 DUP4 ADD SWAP1 PUSH2 0x1DF7 JUMP JUMPDEST CALLVALUE PUSH2 0x1A8 JUMPI PUSH1 0xA0 CALLDATASIZE PUSH1 0x3 NOT ADD SLT PUSH2 0x1A8 JUMPI PUSH1 0x4 CALLDATALOAD PUSH1 0x1 PUSH1 0x1 PUSH1 0x40 SHL SUB DUP2 GT PUSH2 0x1A8 JUMPI PUSH2 0x1E54 SWAP1 CALLDATASIZE SWAP1 PUSH1 0x4 ADD PUSH2 0x2C54 JUMP JUMPDEST PUSH1 0x24 CALLDATALOAD PUSH1 0x1 PUSH1 0x1 PUSH1 0x40 SHL SUB DUP2 GT PUSH2 0x1A8 JUMPI PUSH2 0x1E73 SWAP1 CALLDATASIZE SWAP1 PUSH1 0x4 ADD PUSH2 0x2C54 JUMP JUMPDEST SWAP1 PUSH1 0x44 CALLDATALOAD PUSH1 0x1 PUSH1 0x1 PUSH1 0x40 SHL SUB DUP2 GT PUSH2 0x1A8 JUMPI PUSH2 0x1E93 SWAP1 CALLDATASIZE SWAP1 PUSH1 0x4 ADD PUSH2 0x2C54 JUMP JUMPDEST PUSH1 0x84 CALLDATALOAD PUSH1 0x1 PUSH1 0x1 PUSH1 0x40 SHL SUB DUP2 GT PUSH2 0x1A8 JUMPI PUSH2 0x1EB2 SWAP1 CALLDATASIZE SWAP1 PUSH1 0x4 ADD PUSH2 0x2C54 JUMP JUMPDEST SWAP2 PUSH2 0x1EBB PUSH2 0x2DCF JUMP JUMPDEST PUSH2 0x1EC3 PUSH2 0x2FD6 JUMP JUMPDEST DUP1 MLOAD ISZERO PUSH2 0x24C8 JUMPI DUP4 MLOAD ISZERO PUSH2 0x2485 JUMPI PUSH1 0x64 CALLDATALOAD ISZERO PUSH2 0x2440 JUMPI PUSH2 0x1EE4 PUSH1 0x3 SLOAD PUSH2 0x2F9A JUMP JUMPDEST SWAP3 DUP4 PUSH1 0x3 SSTORE PUSH1 0x40 MLOAD SWAP3 PUSH2 0x1EF6 DUP5 PUSH2 0x2AC4 JUMP JUMPDEST DUP5 DUP5 MSTORE DUP3 PUSH1 0x20 DUP6 ADD MSTORE DUP6 PUSH1 0x40 DUP6 ADD MSTORE PUSH1 0x60 DUP5 ADD MSTORE PUSH1 0x64 CALLDATALOAD PUSH1 0x80 DUP5 ADD MSTORE PUSH1 0xA0 DUP4 ADD MSTORE PUSH1 0x1 PUSH1 0xC0 DUP4 ADD MSTORE TIMESTAMP PUSH1 0xE0 DUP4 ADD MSTORE CALLER PUSH2 0x100 DUP4 ADD MSTORE DUP3 PUSH1 0x0 MSTORE PUSH1 0x6 PUSH1 0x20 MSTORE PUSH1 0x40 PUSH1 0x0 KECCAK256 SWAP4 DUP3 MLOAD DUP6 SSTORE PUSH1 0x20 DUP4 ADD MLOAD DUP1 MLOAD SWAP1 PUSH1 0x1 DUP1 PUSH1 0x40 SHL SUB DUP3 GT PUSH2 0x66A JUMPI DUP2 SWAP1 PUSH2 0x1F62 PUSH1 0x1 DUP10 ADD SLOAD PUSH2 0x2A8A JUMP JUMPDEST PUSH1 0x1F DUP2 GT PUSH2 0x240B JUMPI JUMPDEST POP PUSH1 0x20 SWAP1 PUSH1 0x1F DUP4 GT PUSH1 0x1 EQ PUSH2 0x2399 JUMPI PUSH1 0x0 SWAP3 PUSH2 0x238E JUMPI JUMPDEST POP POP DUP2 PUSH1 0x1 SHL SWAP2 PUSH1 0x0 NOT SWAP1 PUSH1 0x3 SHL SHR NOT AND OR PUSH1 0x1 DUP7 ADD SSTORE JUMPDEST PUSH1 0x40 DUP4 ADD MLOAD DUP1 MLOAD SWAP1 PUSH1 0x1 PUSH1 0x1 PUSH1 0x40 SHL SUB DUP3 GT PUSH2 0x66A JUMPI DUP2 SWAP1 PUSH2 0x1FBF PUSH1 0x2 DUP10 ADD SLOAD PUSH2 0x2A8A JUMP JUMPDEST PUSH1 0x1F DUP2 GT PUSH2 0x2359 JUMPI JUMPDEST POP PUSH1 0x20 SWAP1 PUSH1 0x1F DUP4 GT PUSH1 0x1 EQ PUSH2 0x22E7 JUMPI PUSH1 0x0 SWAP3 PUSH2 0x22DC JUMPI JUMPDEST POP POP DUP2 PUSH1 0x1 SHL SWAP2 PUSH1 0x0 NOT SWAP1 PUSH1 0x3 SHL SHR NOT AND OR PUSH1 0x2 DUP7 ADD SSTORE JUMPDEST PUSH1 0x60 DUP4 ADD MLOAD DUP1 MLOAD SWAP1 PUSH1 0x1 PUSH1 0x1 PUSH1 0x40 SHL SUB DUP3 GT PUSH2 0x66A JUMPI DUP2 SWAP1 PUSH2 0x201C PUSH1 0x3 DUP10 ADD SLOAD PUSH2 0x2A8A JUMP JUMPDEST PUSH1 0x1F DUP2 GT PUSH2 0x22A7 JUMPI JUMPDEST POP PUSH1 0x20 SWAP1 PUSH1 0x1F DUP4 GT PUSH1 0x1 EQ PUSH2 0x2235 JUMPI PUSH1 0x0 SWAP3 PUSH2 0x222A JUMPI JUMPDEST POP POP DUP2 PUSH1 0x1 SHL SWAP2 PUSH1 0x0 NOT SWAP1 PUSH1 0x3 SHL SHR NOT AND OR PUSH1 0x3 DUP7 ADD SSTORE JUMPDEST PUSH1 0x80 DUP4 ADD MLOAD PUSH1 0x4 DUP7 ADD SSTORE PUSH1 0xA0 DUP4 ADD MLOAD DUP1 MLOAD SWAP6 SWAP1 SWAP4 SWAP1 PUSH1 0x1 PUSH1 0x1 PUSH1 0x40 SHL SUB DUP8 GT PUSH2 0x66A JUMPI PUSH1 0x20 SWAP7 DUP7 SWAP6 PUSH2 0x2089 PUSH1 0x5 DUP5 ADD SLOAD PUSH2 0x2A8A JUMP JUMPDEST PUSH1 0x1F DUP2 GT PUSH2 0x21F7 JUMPI JUMPDEST POP DUP9 SWAP1 PUSH1 0x1F DUP4 GT PUSH1 0x1 EQ PUSH2 0x216B JUMPI PUSH2 0x2147 SWAP4 DUP4 PUSH2 0x213A SWAP8 SWAP5 PUSH1 0x0 DUP1 MLOAD PUSH1 0x20 PUSH2 0x3167 DUP4 CODECOPY DUP2 MLOAD SWAP2 MSTORE SWAP10 SWAP8 SWAP5 PUSH1 0x8 SWAP5 PUSH1 0x0 SWAP3 PUSH2 0x2160 JUMPI JUMPDEST POP POP DUP2 PUSH1 0x1 SHL SWAP2 PUSH1 0x0 NOT SWAP1 PUSH1 0x3 SHL SHR NOT AND OR PUSH1 0x5 DUP3 ADD SSTORE JUMPDEST PUSH2 0x20FE PUSH1 0xC0 DUP5 ADD MLOAD ISZERO ISZERO PUSH1 0x6 DUP4 ADD SWAP1 PUSH1 0xFF DUP1 NOT DUP4 SLOAD AND SWAP2 ISZERO ISZERO AND OR SWAP1 SSTORE JUMP JUMPDEST PUSH1 0xE0 DUP4 ADD MLOAD PUSH1 0x7 DUP3 ADD SSTORE ADD SWAP1 PUSH2 0x100 PUSH1 0x1 DUP1 PUSH1 0xA0 SHL SUB SWAP2 ADD MLOAD AND PUSH1 0x1 DUP1 PUSH1 0xA0 SHL SUB NOT DUP3 SLOAD AND OR SWAP1 SSTORE PUSH1 0x40 MLOAD SWAP4 DUP5 SWAP4 PUSH1 0x80 DUP6 MSTORE PUSH1 0x80 DUP6 ADD SWAP1 PUSH2 0x2C03 JUMP JUMPDEST SWAP1 DUP4 DUP3 SUB DUP10 DUP6 ADD MSTORE PUSH2 0x2C03 JUMP JUMPDEST PUSH1 0x64 CALLDATALOAD PUSH1 0x40 DUP4 ADD MSTORE TIMESTAMP PUSH1 0x60 DUP4 ADD MSTORE SUB SWAP1 LOG2 PUSH1 0x40 MLOAD SWAP1 DUP2 MSTORE RETURN JUMPDEST ADD MLOAD SWAP1 POP DUP14 DUP1 PUSH2 0x20C7 JUMP JUMPDEST SWAP1 PUSH1 0x5 DUP5 ADD PUSH1 0x0 MSTORE DUP10 PUSH1 0x0 KECCAK256 SWAP2 PUSH1 0x0 JUMPDEST PUSH1 0x1F NOT DUP6 AND DUP2 LT PUSH2 0x21DD JUMPI POP SWAP4 PUSH1 0x1 DUP5 PUSH1 0x0 DUP1 MLOAD PUSH1 0x20 PUSH2 0x3167 DUP4 CODECOPY DUP2 MLOAD SWAP2 MSTORE SWAP10 SWAP8 SWAP5 PUSH1 0x8 SWAP5 PUSH2 0x2147 SWAP9 PUSH2 0x213A SWAP12 SWAP9 PUSH1 0x1F NOT DUP2 AND LT PUSH2 0x21C4 JUMPI JUMPDEST POP POP POP DUP2 SHL ADD PUSH1 0x5 DUP3 ADD SSTORE PUSH2 0x20DF JUMP JUMPDEST ADD MLOAD PUSH1 0x0 NOT PUSH1 0xF8 DUP5 PUSH1 0x3 SHL AND SHR NOT AND SWAP1 SSTORE DUP14 DUP1 DUP1 PUSH2 0x21B4 JUMP JUMPDEST DUP2 DUP4 ADD MLOAD DUP5 SSTORE DUP11 SWAP10 POP PUSH1 0x1 SWAP1 SWAP4 ADD SWAP3 SWAP2 DUP12 ADD SWAP2 DUP12 ADD PUSH2 0x217B JUMP JUMPDEST PUSH2 0x2224 SWAP1 PUSH1 0x5 DUP6 ADD PUSH1 0x0 MSTORE DUP11 PUSH1 0x0 KECCAK256 PUSH1 0x1F DUP6 ADD PUSH1 0x5 SHR DUP2 ADD SWAP2 DUP13 DUP7 LT PUSH2 0x660 JUMPI PUSH1 0x1F ADD PUSH1 0x5 SHR ADD SWAP1 PUSH2 0x2FBF JUMP JUMPDEST DUP10 PUSH2 0x2092 JUMP JUMPDEST ADD MLOAD SWAP1 POP DUP8 DUP1 PUSH2 0x203C JUMP JUMPDEST SWAP3 POP PUSH1 0x3 DUP9 ADD PUSH1 0x0 MSTORE PUSH1 0x20 PUSH1 0x0 KECCAK256 SWAP1 PUSH1 0x0 SWAP4 JUMPDEST PUSH1 0x1F NOT DUP5 AND DUP6 LT PUSH2 0x228C JUMPI PUSH1 0x1 SWAP5 POP DUP4 PUSH1 0x1F NOT DUP2 AND LT PUSH2 0x2273 JUMPI JUMPDEST POP POP POP DUP2 SHL ADD PUSH1 0x3 DUP7 ADD SSTORE PUSH2 0x2054 JUMP JUMPDEST ADD MLOAD PUSH1 0x0 NOT PUSH1 0xF8 DUP5 PUSH1 0x3 SHL AND SHR NOT AND SWAP1 SSTORE DUP8 DUP1 DUP1 PUSH2 0x2263 JUMP JUMPDEST DUP2 DUP2 ADD MLOAD DUP4 SSTORE PUSH1 0x20 SWAP5 DUP6 ADD SWAP5 PUSH1 0x1 SWAP1 SWAP4 ADD SWAP3 SWAP1 SWAP2 ADD SWAP1 PUSH2 0x2248 JUMP JUMPDEST PUSH2 0x22D6 SWAP1 PUSH1 0x3 DUP11 ADD PUSH1 0x0 MSTORE PUSH1 0x20 PUSH1 0x0 KECCAK256 PUSH1 0x1F DUP6 ADD PUSH1 0x5 SHR DUP2 ADD SWAP2 PUSH1 0x20 DUP7 LT PUSH2 0x660 JUMPI PUSH1 0x1F ADD PUSH1 0x5 SHR ADD SWAP1 PUSH2 0x2FBF JUMP JUMPDEST DUP9 PUSH2 0x2025 JUMP JUMPDEST ADD MLOAD SWAP1 POP DUP8 DUP1 PUSH2 0x1FDF JUMP JUMPDEST SWAP3 POP PUSH1 0x2 DUP9 ADD PUSH1 0x0 MSTORE PUSH1 0x20 PUSH1 0x0 KECCAK256 SWAP1 PUSH1 0x0 SWAP4 JUMPDEST PUSH1 0x1F NOT DUP5 AND DUP6 LT PUSH2 0x233E JUMPI PUSH1 0x1 SWAP5 POP DUP4 PUSH1 0x1F NOT DUP2 AND LT PUSH2 0x2325 JUMPI JUMPDEST POP POP POP DUP2 SHL ADD PUSH1 0x2 DUP7 ADD SSTORE PUSH2 0x1FF7 JUMP JUMPDEST ADD MLOAD PUSH1 0x0 NOT PUSH1 0xF8 DUP5 PUSH1 0x3 SHL AND SHR NOT AND SWAP1 SSTORE DUP8 DUP1 DUP1 PUSH2 0x2315 JUMP JUMPDEST DUP2 DUP2 ADD MLOAD DUP4 SSTORE PUSH1 0x20 SWAP5 DUP6 ADD SWAP5 PUSH1 0x1 SWAP1 SWAP4 ADD SWAP3 SWAP1 SWAP2 ADD SWAP1 PUSH2 0x22FA JUMP JUMPDEST PUSH2 0x2388 SWAP1 PUSH1 0x2 DUP11 ADD PUSH1 0x0 MSTORE PUSH1 0x20 PUSH1 0x0 KECCAK256 PUSH1 0x1F DUP6 ADD PUSH1 0x5 SHR DUP2 ADD SWAP2 PUSH1 0x20 DUP7 LT PUSH2 0x660 JUMPI PUSH1 0x1F ADD PUSH1 0x5 SHR ADD SWAP1 PUSH2 0x2FBF JUMP JUMPDEST DUP9 PUSH2 0x1FC8 JUMP JUMPDEST ADD MLOAD SWAP1 POP DUP8 DUP1 PUSH2 0x1F82 JUMP JUMPDEST SWAP3 POP PUSH1 0x1 DUP9 ADD PUSH1 0x0 MSTORE PUSH1 0x20 PUSH1 0x0 KECCAK256 SWAP1 PUSH1 0x0 SWAP4 JUMPDEST PUSH1 0x1F NOT DUP5 AND DUP6 LT PUSH2 0x23F0 JUMPI PUSH1 0x1 SWAP5 POP DUP4 PUSH1 0x1F NOT DUP2 AND LT PUSH2 0x23D7 JUMPI JUMPDEST POP POP POP DUP2 SHL ADD PUSH1 0x1 DUP7 ADD SSTORE PUSH2 0x1F9A JUMP JUMPDEST ADD MLOAD PUSH1 0x0 NOT PUSH1 0xF8 DUP5 PUSH1 0x3 SHL AND SHR NOT AND SWAP1 SSTORE DUP8 DUP1 DUP1 PUSH2 0x23C7 JUMP JUMPDEST DUP2 DUP2 ADD MLOAD DUP4 SSTORE PUSH1 0x20 SWAP5 DUP6 ADD SWAP5 PUSH1 0x1 SWAP1 SWAP4 ADD SWAP3 SWAP1 SWAP2 ADD SWAP1 PUSH2 0x23AC JUMP JUMPDEST PUSH2 0x243A SWAP1 PUSH1 0x1 DUP11 ADD PUSH1 0x0 MSTORE PUSH1 0x20 PUSH1 0x0 KECCAK256 PUSH1 0x1F DUP6 ADD PUSH1 0x5 SHR DUP2 ADD SWAP2 PUSH1 0x20 DUP7 LT PUSH2 0x660 JUMPI PUSH1 0x1F ADD PUSH1 0x5 SHR ADD SWAP1 PUSH2 0x2FBF JUMP JUMPDEST DUP9 PUSH2 0x1F6B JUMP JUMPDEST PUSH1 0x40 MLOAD PUSH3 0x461BCD PUSH1 0xE5 SHL DUP2 MSTORE PUSH1 0x20 PUSH1 0x4 DUP3 ADD MSTORE PUSH1 0x1E PUSH1 0x24 DUP3 ADD MSTORE PUSH32 0x43726564697473206D7573742062652067726561746572207468616E20300000 PUSH1 0x44 DUP3 ADD MSTORE PUSH1 0x64 SWAP1 REVERT JUMPDEST PUSH1 0x40 MLOAD PUSH3 0x461BCD PUSH1 0xE5 SHL DUP2 MSTORE PUSH1 0x20 PUSH1 0x4 DUP3 ADD MSTORE PUSH1 0x1B PUSH1 0x24 DUP3 ADD MSTORE PUSH27 0x436F75727365206E616D652063616E6E6F7420626520656D707479 PUSH1 0x28 SHL PUSH1 0x44 DUP3 ADD MSTORE PUSH1 0x64 SWAP1 REVERT JUMPDEST PUSH1 0x40 MLOAD PUSH3 0x461BCD PUSH1 0xE5 SHL DUP2 MSTORE PUSH1 0x20 PUSH1 0x4 DUP3 ADD MSTORE PUSH1 0x1B PUSH1 0x24 DUP3 ADD MSTORE PUSH27 0x436F7572736520636F64652063616E6E6F7420626520656D707479 PUSH1 0x28 SHL PUSH1 0x44 DUP3 ADD MSTORE PUSH1 0x64 SWAP1 REVERT JUMPDEST CALLVALUE PUSH2 0x1A8 JUMPI PUSH1 0x0 CALLDATASIZE PUSH1 0x3 NOT ADD SLT PUSH2 0x1A8 JUMPI PUSH1 0x20 PUSH1 0xFF PUSH1 0x1 SLOAD AND PUSH1 0x40 MLOAD SWAP1 ISZERO ISZERO DUP2 MSTORE RETURN JUMPDEST CALLVALUE PUSH2 0x1A8 JUMPI PUSH1 0x0 CALLDATASIZE PUSH1 0x3 NOT ADD SLT PUSH2 0x1A8 JUMPI PUSH2 0x2547 PUSH2 0x2E37 JUMP JUMPDEST PUSH1 0x1 SLOAD PUSH1 0xFF DUP2 AND ISZERO PUSH2 0x2586 JUMPI PUSH1 0xFF NOT AND PUSH1 0x1 SSTORE PUSH32 0x5DB9EE0A495BF2E6FF9C91A7834C1BA4FDD244A5E8AA4E537BD38AEAE4B073AA PUSH1 0x20 PUSH1 0x40 MLOAD CALLER DUP2 MSTORE LOG1 STOP JUMPDEST PUSH1 0x40 MLOAD PUSH4 0x8DFC202B PUSH1 0xE0 SHL DUP2 MSTORE PUSH1 0x4 SWAP1 REVERT JUMPDEST CALLVALUE PUSH2 0x1A8 JUMPI PUSH1 0x40 CALLDATASIZE PUSH1 0x3 NOT ADD SLT PUSH2 0x1A8 JUMPI PUSH2 0x25B1 PUSH2 0x2C28 JUMP JUMPDEST CALLER PUSH1 0x1 PUSH1 0x1 PUSH1 0xA0 SHL SUB DUP3 AND SUB PUSH2 0x25CD JUMPI PUSH2 0x2D8 SWAP1 PUSH1 0x4 CALLDATALOAD PUSH2 0x2F25 JUMP JUMPDEST PUSH1 0x40 MLOAD PUSH4 0x334BD919 PUSH1 0xE1 SHL DUP2 MSTORE PUSH1 0x4 SWAP1 REVERT JUMPDEST CALLVALUE PUSH2 0x1A8 JUMPI PUSH1 0x40 CALLDATASIZE PUSH1 0x3 NOT ADD SLT PUSH2 0x1A8 JUMPI PUSH2 0x2D8 PUSH1 0x4 CALLDATALOAD PUSH2 0x25FE PUSH2 0x2C28 JUMP JUMPDEST SWAP1 DUP1 PUSH1 0x0 MSTORE PUSH1 0x0 PUSH1 0x20 MSTORE PUSH2 0x2619 PUSH1 0x1 PUSH1 0x40 PUSH1 0x0 KECCAK256 ADD SLOAD PUSH2 0x2E81 JUMP JUMPDEST PUSH2 0x2EA7 JUMP JUMPDEST CALLVALUE PUSH2 0x1A8 JUMPI PUSH1 0x0 CALLDATASIZE PUSH1 0x3 NOT ADD SLT PUSH2 0x1A8 JUMPI PUSH1 0x20 PUSH1 0x2 SLOAD PUSH1 0x40 MLOAD SWAP1 DUP2 MSTORE RETURN JUMPDEST CALLVALUE PUSH2 0x1A8 JUMPI PUSH1 0x20 CALLDATASIZE PUSH1 0x3 NOT ADD SLT PUSH2 0x1A8 JUMPI PUSH1 0x4 CALLDATALOAD PUSH1 0x0 MSTORE PUSH1 0x0 PUSH1 0x20 MSTORE PUSH1 0x20 PUSH1 0x1 PUSH1 0x40 PUSH1 0x0 KECCAK256 ADD SLOAD PUSH1 0x40 MLOAD SWAP1 DUP2 MSTORE RETURN JUMPDEST CALLVALUE PUSH2 0x1A8 JUMPI PUSH1 0x40 CALLDATASIZE PUSH1 0x3 NOT ADD SLT PUSH2 0x1A8 JUMPI PUSH1 0x24 CALLDATALOAD PUSH1 0x4 CALLDATALOAD PUSH2 0x268A PUSH2 0x2DCF JUMP JUMPDEST DUP1 PUSH1 0x0 MSTORE PUSH1 0x20 PUSH1 0x4 DUP2 MSTORE PUSH2 0x26A4 PUSH1 0x40 PUSH1 0x0 KECCAK256 SLOAD ISZERO ISZERO PUSH2 0x2FF4 JUMP JUMPDEST DUP2 PUSH1 0x0 MSTORE PUSH1 0x4 DUP2 MSTORE PUSH2 0x26C0 PUSH1 0xFF PUSH1 0x9 PUSH1 0x40 PUSH1 0x0 KECCAK256 ADD SLOAD AND PUSH2 0x3039 JUMP JUMPDEST DUP3 PUSH1 0x0 MSTORE PUSH1 0x6 DUP2 MSTORE PUSH2 0x26D8 PUSH1 0x40 PUSH1 0x0 KECCAK256 SLOAD ISZERO ISZERO PUSH2 0x307D JUMP JUMPDEST DUP3 PUSH1 0x0 MSTORE PUSH1 0x6 DUP2 MSTORE PUSH2 0x26F4 PUSH1 0xFF PUSH1 0x6 PUSH1 0x40 PUSH1 0x0 KECCAK256 ADD SLOAD AND PUSH2 0x30C1 JUMP JUMPDEST PUSH1 0x0 DUP3 DUP2 MSTORE PUSH1 0x4 DUP3 MSTORE PUSH1 0x40 SWAP1 KECCAK256 PUSH1 0xB ADD DUP1 SLOAD SWAP2 SWAP1 PUSH1 0x1 PUSH1 0x40 SHL DUP4 LT ISZERO PUSH2 0x66A JUMPI PUSH1 0x1 DUP4 ADD DUP1 DUP3 SSTORE DUP4 LT ISZERO PUSH2 0x2758 JUMPI PUSH32 0x8802B1C117AFC214959B93E53532B774C80CB31CB9946A261C8A66C509BBFE02 SWAP3 DUP6 SWAP2 PUSH1 0x0 MSTORE DUP3 PUSH1 0x0 KECCAK256 ADD SSTORE PUSH1 0x40 MLOAD TIMESTAMP DUP2 MSTORE LOG3 STOP JUMPDEST PUSH4 0x4E487B71 PUSH1 0xE0 SHL PUSH1 0x0 MSTORE PUSH1 0x32 PUSH1 0x4 MSTORE PUSH1 0x24 PUSH1 0x0 REVERT JUMPDEST CALLVALUE PUSH2 0x1A8 JUMPI PUSH1 0x20 DUP1 PUSH1 0x3 NOT CALLDATASIZE ADD SLT PUSH2 0x1A8 JUMPI PUSH1 0x40 MLOAD SWAP1 PUSH2 0x278D DUP3 PUSH2 0x2AC4 JUMP JUMPDEST PUSH1 0x0 DUP3 MSTORE PUSH1 0x60 DUP1 DUP3 DUP5 ADD MSTORE DUP1 PUSH1 0x40 DUP5 ADD MSTORE DUP1 DUP1 DUP5 ADD MSTORE PUSH1 0x80 DUP4 ADD PUSH1 0x0 SWAP1 MSTORE DUP1 PUSH1 0xA0 DUP5 ADD MSTORE PUSH1 0xC0 DUP4 ADD PUSH1 0x0 SWAP1 MSTORE PUSH1 0xE0 DUP4 ADD PUSH1 0x0 SWAP1 MSTORE PUSH2 0x100 DUP1 SWAP4 ADD PUSH1 0x0 SWAP1 MSTORE PUSH1 0x4 CALLDATALOAD PUSH1 0x0 MSTORE PUSH1 0x6 DUP3 MSTORE PUSH1 0x40 PUSH1 0x0 KECCAK256 PUSH1 0x40 MLOAD SWAP1 PUSH2 0x27E7 DUP3 PUSH2 0x2AC4 JUMP JUMPDEST DUP1 SLOAD DUP3 MSTORE PUSH2 0x27F7 PUSH1 0x1 DUP3 ADD PUSH2 0x2B3A JUMP JUMPDEST DUP3 DUP6 ADD SWAP1 DUP2 MSTORE SWAP5 PUSH2 0x280A PUSH1 0x2 DUP4 ADD PUSH2 0x2B3A JUMP JUMPDEST PUSH1 0x40 DUP5 ADD SWAP1 DUP2 MSTORE SWAP1 PUSH2 0x281E PUSH1 0x3 DUP5 ADD PUSH2 0x2B3A JUMP JUMPDEST DUP5 DUP7 ADD SWAP1 DUP2 MSTORE PUSH1 0x4 DUP5 ADD SLOAD PUSH1 0x80 DUP7 ADD SWAP1 DUP2 MSTORE SWAP6 PUSH2 0x283D PUSH1 0x5 DUP7 ADD PUSH2 0x2B3A JUMP JUMPDEST SWAP7 PUSH1 0xA0 DUP8 ADD SWAP8 DUP9 MSTORE PUSH1 0x6 DUP7 ADD SLOAD PUSH1 0xFF AND SWAP8 PUSH1 0xC0 DUP9 ADD SWAP9 ISZERO ISZERO DUP10 MSTORE PUSH1 0x7 DUP8 ADD SLOAD SWAP4 PUSH1 0xE0 DUP10 ADD SWAP5 DUP6 MSTORE PUSH1 0x1 PUSH1 0xA0 SHL PUSH1 0x1 SWAP1 SUB PUSH1 0x8 DUP2 SWAP10 ADD SLOAD AND SWAP7 DUP7 DUP11 ADD SWAP8 DUP9 MSTORE PUSH1 0x40 MLOAD SWAP13 DUP13 DUP15 SWAP14 SWAP12 DUP15 SWAP13 DUP14 MSTORE MLOAD SWAP1 DUP13 ADD MSTORE MLOAD PUSH2 0x120 PUSH1 0x40 DUP2 SWAP13 ADD MSTORE PUSH2 0x140 DUP14 ADD PUSH2 0x28A4 SWAP2 PUSH2 0x2C03 JUMP JUMPDEST SWAP1 MLOAD SWAP1 DUP13 PUSH1 0x1F NOT SWAP7 DUP8 DUP3 DUP5 SUB ADD SWAP2 ADD MSTORE PUSH2 0x28BD SWAP2 PUSH2 0x2C03 JUMP JUMPDEST SWAP1 MLOAD SWAP1 DUP5 DUP13 DUP3 SUB ADD PUSH1 0x80 DUP14 ADD MSTORE PUSH2 0x28D3 SWAP2 PUSH2 0x2C03 JUMP JUMPDEST SWAP2 MLOAD PUSH1 0xA0 DUP12 ADD MSTORE MLOAD SWAP2 DUP10 DUP3 SUB ADD PUSH1 0xC0 DUP11 ADD MSTORE PUSH2 0x28EE SWAP2 PUSH2 0x2C03 JUMP JUMPDEST SWAP6 MLOAD ISZERO ISZERO PUSH1 0xE0 DUP9 ADD MSTORE MLOAD SWAP1 DUP7 ADD MSTORE MLOAD AND SWAP1 DUP4 ADD MSTORE SUB SWAP1 RETURN JUMPDEST CALLVALUE PUSH2 0x1A8 JUMPI PUSH1 0x20 CALLDATASIZE PUSH1 0x3 NOT ADD SLT PUSH2 0x1A8 JUMPI PUSH1 0x4 DUP1 CALLDATALOAD PUSH1 0x0 SWAP1 DUP2 MSTORE PUSH1 0x20 SWAP2 SWAP1 SWAP2 MSTORE PUSH1 0x40 SWAP1 KECCAK256 DUP1 SLOAD PUSH1 0x1 DUP3 ADD SLOAD PUSH1 0x1 PUSH1 0x1 PUSH1 0xA0 SHL SUB AND SWAP2 PUSH2 0x2947 PUSH1 0x2 DUP3 ADD PUSH2 0x2B3A JUMP JUMPDEST SWAP1 PUSH2 0x2954 PUSH1 0x3 DUP3 ADD PUSH2 0x2B3A JUMP JUMPDEST SWAP1 PUSH2 0x2961 PUSH1 0x4 DUP3 ADD PUSH2 0x2B3A JUMP JUMPDEST SWAP2 PUSH2 0x296E PUSH1 0x5 DUP4 ADD PUSH2 0x2B3A JUMP JUMPDEST PUSH2 0x297A PUSH1 0x6 DUP5 ADD PUSH2 0x2B3A JUMP JUMPDEST SWAP1 PUSH1 0x7 DUP5 ADD SLOAD SWAP5 PUSH1 0x8 DUP6 ADD SLOAD SWAP4 PUSH1 0x9 DUP7 ADD SLOAD SWAP6 PUSH1 0xA ADD PUSH2 0x2999 SWAP1 PUSH2 0x2B3A JUMP JUMPDEST SWAP8 PUSH1 0x40 MLOAD SWAP11 DUP12 SWAP11 DUP12 MSTORE PUSH1 0x20 DUP12 ADD MSTORE PUSH2 0x180 DUP1 PUSH1 0x40 DUP13 ADD MSTORE DUP11 ADD PUSH2 0x29BB SWAP2 PUSH2 0x2C03 JUMP JUMPDEST DUP10 DUP2 SUB PUSH1 0x60 DUP12 ADD MSTORE PUSH2 0x29CC SWAP2 PUSH2 0x2C03 JUMP JUMPDEST DUP9 DUP2 SUB PUSH1 0x80 DUP11 ADD MSTORE PUSH2 0x29DD SWAP2 PUSH2 0x2C03 JUMP JUMPDEST DUP8 DUP2 SUB PUSH1 0xA0 DUP10 ADD MSTORE PUSH2 0x29EE SWAP2 PUSH2 0x2C03 JUMP JUMPDEST DUP7 DUP2 SUB PUSH1 0xC0 DUP9 ADD MSTORE PUSH2 0x29FF SWAP2 PUSH2 0x2C03 JUMP JUMPDEST SWAP3 PUSH1 0xE0 DUP7 ADD MSTORE PUSH2 0x100 DUP6 ADD MSTORE PUSH1 0xFF DUP2 AND ISZERO ISZERO PUSH2 0x120 DUP6 ADD MSTORE PUSH1 0x8 SHR PUSH1 0xFF AND ISZERO ISZERO PUSH2 0x140 DUP5 ADD MSTORE DUP3 DUP2 SUB PUSH2 0x160 DUP5 ADD MSTORE PUSH2 0xC98 SWAP2 PUSH2 0x2C03 JUMP JUMPDEST CALLVALUE PUSH2 0x1A8 JUMPI PUSH1 0x20 CALLDATASIZE PUSH1 0x3 NOT ADD SLT PUSH2 0x1A8 JUMPI PUSH1 0x4 CALLDATALOAD SWAP1 PUSH4 0xFFFFFFFF PUSH1 0xE0 SHL DUP3 AND DUP1 SWAP3 SUB PUSH2 0x1A8 JUMPI PUSH1 0x20 SWAP2 PUSH4 0x7965DB0B PUSH1 0xE0 SHL DUP2 EQ SWAP1 DUP2 ISZERO PUSH2 0x2A79 JUMPI JUMPDEST POP ISZERO ISZERO DUP2 MSTORE RETURN JUMPDEST PUSH4 0x1FFC9A7 PUSH1 0xE0 SHL EQ SWAP1 POP DUP4 PUSH2 0x2A72 JUMP JUMPDEST SWAP1 PUSH1 0x1 DUP3 DUP2 SHR SWAP3 AND DUP1 ISZERO PUSH2 0x2ABA JUMPI JUMPDEST PUSH1 0x20 DUP4 LT EQ PUSH2 0x2AA4 JUMPI JUMP JUMPDEST PUSH4 0x4E487B71 PUSH1 0xE0 SHL PUSH1 0x0 MSTORE PUSH1 0x22 PUSH1 0x4 MSTORE PUSH1 0x24 PUSH1 0x0 REVERT JUMPDEST SWAP2 PUSH1 0x7F AND SWAP2 PUSH2 0x2A99 JUMP JUMPDEST PUSH2 0x120 DUP2 ADD SWAP1 DUP2 LT PUSH1 0x1 PUSH1 0x1 PUSH1 0x40 SHL SUB DUP3 GT OR PUSH2 0x66A JUMPI PUSH1 0x40 MSTORE JUMP JUMPDEST PUSH2 0x1A0 DUP2 ADD SWAP1 DUP2 LT PUSH1 0x1 PUSH1 0x1 PUSH1 0x40 SHL SUB DUP3 GT OR PUSH2 0x66A JUMPI PUSH1 0x40 MSTORE JUMP JUMPDEST PUSH1 0x20 DUP2 ADD SWAP1 DUP2 LT PUSH1 0x1 PUSH1 0x1 PUSH1 0x40 SHL SUB DUP3 GT OR PUSH2 0x66A JUMPI PUSH1 0x40 MSTORE JUMP JUMPDEST PUSH1 0x1F SWAP1 SWAP2 ADD PUSH1 0x1F NOT AND DUP2 ADD SWAP1 PUSH1 0x1 PUSH1 0x1 PUSH1 0x40 SHL SUB DUP3 GT SWAP1 DUP3 LT OR PUSH2 0x66A JUMPI PUSH1 0x40 MSTORE JUMP JUMPDEST SWAP1 PUSH1 0x40 MLOAD SWAP2 DUP3 PUSH1 0x0 DUP3 SLOAD SWAP3 PUSH2 0x2B4E DUP5 PUSH2 0x2A8A JUMP JUMPDEST SWAP1 DUP2 DUP5 MSTORE PUSH1 0x1 SWAP5 DUP6 DUP2 AND SWAP1 DUP2 PUSH1 0x0 EQ PUSH2 0x2BBD JUMPI POP PUSH1 0x1 EQ PUSH2 0x2B7A JUMPI JUMPDEST POP POP PUSH2 0x2B78 SWAP3 POP SUB DUP4 PUSH2 0x2B17 JUMP JUMPDEST JUMP JUMPDEST SWAP1 SWAP4 SWAP2 POP PUSH1 0x0 MSTORE PUSH1 0x20 SWAP1 DUP2 PUSH1 0x0 KECCAK256 SWAP4 PUSH1 0x0 SWAP2 JUMPDEST DUP2 DUP4 LT PUSH2 0x2BA5 JUMPI POP POP PUSH2 0x2B78 SWAP4 POP DUP3 ADD ADD CODESIZE DUP1 PUSH2 0x2B6A JUMP JUMPDEST DUP6 SLOAD DUP9 DUP5 ADD DUP6 ADD MSTORE SWAP5 DUP6 ADD SWAP5 DUP8 SWAP5 POP SWAP2 DUP4 ADD SWAP2 PUSH2 0x2B8D JUMP JUMPDEST SWAP2 POP POP PUSH2 0x2B78 SWAP5 POP PUSH1 0x20 SWAP3 POP PUSH1 0xFF NOT AND DUP3 DUP5 ADD MSTORE ISZERO ISZERO PUSH1 0x5 SHL DUP3 ADD ADD CODESIZE DUP1 PUSH2 0x2B6A JUMP JUMPDEST PUSH1 0x0 JUMPDEST DUP4 DUP2 LT PUSH2 0x2BF3 JUMPI POP POP PUSH1 0x0 SWAP2 ADD MSTORE JUMP JUMPDEST DUP2 DUP2 ADD MLOAD DUP4 DUP3 ADD MSTORE PUSH1 0x20 ADD PUSH2 0x2BE3 JUMP JUMPDEST SWAP1 PUSH1 0x20 SWAP2 PUSH2 0x2C1C DUP2 MLOAD DUP1 SWAP3 DUP2 DUP6 MSTORE DUP6 DUP1 DUP7 ADD SWAP2 ADD PUSH2 0x2BE0 JUMP JUMPDEST PUSH1 0x1F ADD PUSH1 0x1F NOT AND ADD ADD SWAP1 JUMP JUMPDEST PUSH1 0x24 CALLDATALOAD SWAP1 PUSH1 0x1 PUSH1 0x1 PUSH1 0xA0 SHL SUB DUP3 AND DUP3 SUB PUSH2 0x1A8 JUMPI JUMP JUMPDEST PUSH1 0x4 CALLDATALOAD SWAP1 PUSH1 0x1 PUSH1 0x1 PUSH1 0xA0 SHL SUB DUP3 AND DUP3 SUB PUSH2 0x1A8 JUMPI JUMP JUMPDEST DUP2 PUSH1 0x1F DUP3 ADD SLT ISZERO PUSH2 0x1A8 JUMPI DUP1 CALLDATALOAD SWAP1 PUSH1 0x1 PUSH1 0x1 PUSH1 0x40 SHL SUB DUP3 GT PUSH2 0x66A JUMPI PUSH1 0x40 MLOAD SWAP3 PUSH2 0x2C88 PUSH1 0x1F DUP5 ADD PUSH1 0x1F NOT AND PUSH1 0x20 ADD DUP6 PUSH2 0x2B17 JUMP JUMPDEST DUP3 DUP5 MSTORE PUSH1 0x20 DUP4 DUP4 ADD ADD GT PUSH2 0x1A8 JUMPI DUP2 PUSH1 0x0 SWAP3 PUSH1 0x20 DUP1 SWAP4 ADD DUP4 DUP7 ADD CALLDATACOPY DUP4 ADD ADD MSTORE SWAP1 JUMP JUMPDEST SWAP1 PUSH1 0x20 SWAP1 DUP2 DUP4 MSTORE DUP1 MLOAD DUP3 DUP5 ADD MSTORE PUSH1 0x1 DUP1 PUSH1 0xA0 SHL SUB DUP3 DUP3 ADD MLOAD AND PUSH1 0x40 DUP5 ADD MSTORE PUSH1 0x40 DUP2 ADD MLOAD SWAP3 PUSH2 0x2CE6 PUSH2 0x1A0 SWAP5 DUP6 PUSH1 0x60 DUP5 ADD MSTORE PUSH2 0x1C0 DUP4 ADD SWAP1 PUSH2 0x2C03 JUMP JUMPDEST SWAP4 PUSH2 0x2D48 PUSH2 0x2D34 PUSH2 0x2D20 PUSH2 0x2D0C PUSH1 0x60 DUP8 ADD MLOAD SWAP9 PUSH1 0x1F NOT SWAP10 DUP11 DUP9 DUP4 SUB ADD PUSH1 0x80 DUP10 ADD MSTORE PUSH2 0x2C03 JUMP JUMPDEST PUSH1 0x80 DUP8 ADD MLOAD DUP10 DUP8 DUP4 SUB ADD PUSH1 0xA0 DUP9 ADD MSTORE PUSH2 0x2C03 JUMP JUMPDEST PUSH1 0xA0 DUP7 ADD MLOAD DUP9 DUP7 DUP4 SUB ADD PUSH1 0xC0 DUP8 ADD MSTORE PUSH2 0x2C03 JUMP JUMPDEST PUSH1 0xC0 DUP6 ADD MLOAD DUP8 DUP6 DUP4 SUB ADD PUSH1 0xE0 DUP7 ADD MSTORE PUSH2 0x2C03 JUMP JUMPDEST PUSH2 0x2D93 PUSH1 0xE0 DUP6 ADD MLOAD PUSH2 0x100 SWAP1 DUP2 DUP7 ADD MSTORE DUP6 ADD MLOAD PUSH2 0x120 SWAP1 DUP2 DUP7 ADD MSTORE DUP6 ADD MLOAD ISZERO ISZERO PUSH2 0x140 SWAP1 DUP2 DUP7 ADD MSTORE DUP6 ADD MLOAD ISZERO ISZERO PUSH2 0x160 SWAP1 DUP2 DUP7 ADD MSTORE DUP6 ADD MLOAD SWAP2 PUSH2 0x180 SWAP3 DUP9 DUP7 DUP4 SUB ADD DUP5 DUP8 ADD MSTORE PUSH2 0x2C03 JUMP JUMPDEST SWAP4 ADD MLOAD SWAP5 DUP3 DUP5 SUB ADD SWAP2 ADD MSTORE DUP2 DUP1 DUP5 MLOAD SWAP3 DUP4 DUP2 MSTORE ADD SWAP4 ADD SWAP2 PUSH1 0x0 JUMPDEST DUP3 DUP2 LT PUSH2 0x2DBB JUMPI POP POP POP POP SWAP1 JUMP JUMPDEST DUP4 MLOAD DUP6 MSTORE SWAP4 DUP2 ADD SWAP4 SWAP3 DUP2 ADD SWAP3 PUSH1 0x1 ADD PUSH2 0x2DAD JUMP JUMPDEST CALLER PUSH1 0x0 SWAP1 DUP2 MSTORE PUSH32 0x1DDC098DA42ACDF4176DA08EC75800BC0FB2BCE2BE978B2037BCB0AE6966519 PUSH1 0x20 MSTORE PUSH1 0x40 SWAP1 KECCAK256 SLOAD PUSH1 0x0 DUP1 MLOAD PUSH1 0x20 PUSH2 0x31A7 DUP4 CODECOPY DUP2 MLOAD SWAP2 MSTORE SWAP1 PUSH1 0xFF AND ISZERO PUSH2 0x2E19 JUMPI POP JUMP JUMPDEST PUSH1 0x44 SWAP1 PUSH1 0x40 MLOAD SWAP1 PUSH4 0xE2517D3F PUSH1 0xE0 SHL DUP3 MSTORE CALLER PUSH1 0x4 DUP4 ADD MSTORE PUSH1 0x24 DUP3 ADD MSTORE REVERT JUMPDEST CALLER PUSH1 0x0 SWAP1 DUP2 MSTORE PUSH32 0x7D7FFB7A348E1C6A02869081A26547B49160DD3DF72D1D75A570EB9B698292EC PUSH1 0x20 MSTORE PUSH1 0x40 SWAP1 KECCAK256 SLOAD PUSH1 0x0 DUP1 MLOAD PUSH1 0x20 PUSH2 0x31C7 DUP4 CODECOPY DUP2 MLOAD SWAP2 MSTORE SWAP1 PUSH1 0xFF AND ISZERO PUSH2 0x2E19 JUMPI POP JUMP JUMPDEST DUP1 PUSH1 0x0 MSTORE PUSH1 0x0 PUSH1 0x20 MSTORE PUSH1 0x40 PUSH1 0x0 KECCAK256 CALLER PUSH1 0x0 MSTORE PUSH1 0x20 MSTORE PUSH1 0xFF PUSH1 0x40 PUSH1 0x0 KECCAK256 SLOAD AND ISZERO PUSH2 0x2E19 JUMPI POP JUMP JUMPDEST SWAP1 PUSH1 0x0 SWAP2 DUP1 DUP4 MSTORE DUP3 PUSH1 0x20 MSTORE PUSH1 0x40 DUP4 KECCAK256 SWAP2 PUSH1 0x1 DUP1 PUSH1 0xA0 SHL SUB AND SWAP2 DUP3 DUP5 MSTORE PUSH1 0x20 MSTORE PUSH1 0xFF PUSH1 0x40 DUP5 KECCAK256 SLOAD AND ISZERO PUSH1 0x0 EQ PUSH2 0x2F20 JUMPI DUP1 DUP4 MSTORE DUP3 PUSH1 0x20 MSTORE PUSH1 0x40 DUP4 KECCAK256 DUP3 DUP5 MSTORE PUSH1 0x20 MSTORE PUSH1 0x40 DUP4 KECCAK256 PUSH1 0x1 PUSH1 0xFF NOT DUP3 SLOAD AND OR SWAP1 SSTORE PUSH32 0x2F8788117E7EFF1D82E926EC794901D17C78024A50270940304540A733656F0D CALLER SWAP4 DUP1 LOG4 PUSH1 0x1 SWAP1 JUMP JUMPDEST POP POP SWAP1 JUMP JUMPDEST SWAP1 PUSH1 0x0 SWAP2 DUP1 DUP4 MSTORE DUP3 PUSH1 0x20 MSTORE PUSH1 0x40 DUP4 KECCAK256 SWAP2 PUSH1 0x1 DUP1 PUSH1 0xA0 SHL SUB AND SWAP2 DUP3 DUP5 MSTORE PUSH1 0x20 MSTORE PUSH1 0xFF PUSH1 0x40 DUP5 KECCAK256 SLOAD AND PUSH1 0x0 EQ PUSH2 0x2F20 JUMPI DUP1 DUP4 MSTORE DUP3 PUSH1 0x20 MSTORE PUSH1 0x40 DUP4 KECCAK256 DUP3 DUP5 MSTORE PUSH1 0x20 MSTORE PUSH1 0x40 DUP4 KECCAK256 PUSH1 0xFF NOT DUP2 SLOAD AND SWAP1 SSTORE PUSH32 0xF6391F5C32D9C69D2A47EA670B442974B53935D1EDC7FD64EB21E047A839171B CALLER SWAP4 DUP1 LOG4 PUSH1 0x1 SWAP1 JUMP JUMPDEST PUSH1 0x0 NOT DUP2 EQ PUSH2 0x2FA9 JUMPI PUSH1 0x1 ADD SWAP1 JUMP JUMPDEST PUSH4 0x4E487B71 PUSH1 0xE0 SHL PUSH1 0x0 MSTORE PUSH1 0x11 PUSH1 0x4 MSTORE PUSH1 0x24 PUSH1 0x0 REVERT JUMPDEST DUP2 DUP2 LT PUSH2 0x2FCA JUMPI POP POP JUMP JUMPDEST PUSH1 0x0 DUP2 SSTORE PUSH1 0x1 ADD PUSH2 0x2FBF JUMP JUMPDEST PUSH1 0xFF PUSH1 0x1 SLOAD AND PUSH2 0x2FE2 JUMPI JUMP JUMPDEST PUSH1 0x40 MLOAD PUSH4 0xD93C0665 PUSH1 0xE0 SHL DUP2 MSTORE PUSH1 0x4 SWAP1 REVERT JUMPDEST ISZERO PUSH2 0x2FFB JUMPI JUMP JUMPDEST PUSH1 0x40 MLOAD PUSH3 0x461BCD PUSH1 0xE5 SHL DUP2 MSTORE PUSH1 0x20 PUSH1 0x4 DUP3 ADD MSTORE PUSH1 0x16 PUSH1 0x24 DUP3 ADD MSTORE PUSH22 0x14DD1D59195B9D08191BD95CC81B9BDD08195E1A5CDD PUSH1 0x52 SHL PUSH1 0x44 DUP3 ADD MSTORE PUSH1 0x64 SWAP1 REVERT JUMPDEST ISZERO PUSH2 0x3040 JUMPI JUMP JUMPDEST PUSH1 0x40 MLOAD PUSH3 0x461BCD PUSH1 0xE5 SHL DUP2 MSTORE PUSH1 0x20 PUSH1 0x4 DUP3 ADD MSTORE PUSH1 0x15 PUSH1 0x24 DUP3 ADD MSTORE PUSH21 0x53747564656E74206973206E6F7420616374697665 PUSH1 0x58 SHL PUSH1 0x44 DUP3 ADD MSTORE PUSH1 0x64 SWAP1 REVERT JUMPDEST ISZERO PUSH2 0x3084 JUMPI JUMP JUMPDEST PUSH1 0x40 MLOAD PUSH3 0x461BCD PUSH1 0xE5 SHL DUP2 MSTORE PUSH1 0x20 PUSH1 0x4 DUP3 ADD MSTORE PUSH1 0x15 PUSH1 0x24 DUP3 ADD MSTORE PUSH21 0x10DBDD5C9CD948191BD95CC81B9BDD08195E1A5CDD PUSH1 0x5A SHL PUSH1 0x44 DUP3 ADD MSTORE PUSH1 0x64 SWAP1 REVERT JUMPDEST ISZERO PUSH2 0x30C8 JUMPI JUMP JUMPDEST PUSH1 0x40 MLOAD PUSH3 0x461BCD PUSH1 0xE5 SHL DUP2 MSTORE PUSH1 0x20 PUSH1 0x4 DUP3 ADD MSTORE PUSH1 0x14 PUSH1 0x24 DUP3 ADD MSTORE PUSH20 0x436F75727365206973206E6F7420616374697665 PUSH1 0x60 SHL PUSH1 0x44 DUP3 ADD MSTORE PUSH1 0x64 SWAP1 REVERT JUMPDEST PUSH1 0x40 MLOAD SWAP1 PUSH2 0x3111 DUP3 PUSH2 0x2AE0 JUMP JUMPDEST DUP2 PUSH2 0x180 PUSH1 0x0 SWAP2 DUP3 DUP2 MSTORE DUP3 PUSH1 0x20 DUP3 ADD MSTORE PUSH1 0x60 SWAP3 DUP4 PUSH1 0x40 DUP4 ADD MSTORE DUP4 DUP1 DUP4 ADD MSTORE DUP4 PUSH1 0x80 DUP4 ADD MSTORE DUP4 PUSH1 0xA0 DUP4 ADD MSTORE DUP4 PUSH1 0xC0 DUP4 ADD MSTORE DUP1 PUSH1 0xE0 DUP4 ADD MSTORE DUP1 PUSH2 0x100 DUP4 ADD MSTORE DUP1 PUSH2 0x120 DUP4 ADD MSTORE PUSH2 0x140 DUP3 ADD MSTORE DUP3 PUSH2 0x160 DUP3 ADD MSTORE ADD MSTORE JUMP INVALID 0xF6 0xD 0xA8 PUSH32 0x4D85B870DA91E17ABC7FE1194AB1365B51ABA933EB7325F910EA457B26FE23CB 0x4A 0xA6 0xE 0x21 SWAP8 DUP5 PUSH3 0xCE5B13 0xD9 SWAP15 PUSH4 0x580EB14D PUSH27 0xE6AFCFE8E040304AB030EDCC084D3DCD65A1F7F23C65C46722FACA PUSH10 0x53D28E43150A467CF43E 0x5C ADDRESS SWAP3 CODESIZE LOG4 SWAP9 SMOD KECCAK256 0x5C 0xE4 0xD3 SSTORE MULMOD 0x2E CREATE2 0xA8 LOG1 DUP16 JUMP 0xE8 SWAP2 EXTCODECOPY DELEGATECALL LOG2 ADD 0xFB 0xE2 DUP8 DUP3 JUMPDEST MULMOD JUMP SWAP4 0xC2 OR PUSH22 0xD26D1E209668F18F2BC4F6535740073250E7155628A6 LOG3 0xBB SWAP4 0xEF 0x26 0xDD 0xE2 0xED 0xD1 SSTORE LOG2 PUSH5 0x6970667358 0x22 SLT KECCAK256 PUSH3 0x4DAB0E 0xD SHL DUP5 0x26 CALLDATACOPY 0xCB SWAP5 0xD 0xFC 0xC3 0xF9 0xBE DUP2 SIGNEXTEND STOP SWAP6 0x4C TIMESTAMP 0xFB CALLCODE PUSH22 0x52AF0B6A4E17A364736F6C634300081400332F878811 PUSH31 0x7EFF1D82E926EC794901D17C78024A50270940304540A733656F0D00000000 "},"methodIdentifiers":{"ADMIN_ROLE()":"75b238fc","DEFAULT_ADMIN_ROLE()":"a217fddf","REGISTRAR_ROLE()":"f68e9553","VERIFIER_ROLE()":"e7705db6","addressToStudentId(address)":"86c34415","courses(uint256)":"96f979d2","createCourse(string,string,string,uint256,string)":"5d5aa72e","deactivateCourse(uint256)":"ac85495d","deactivateStudent(uint256)":"f6370c9e","enrollStudent(uint256,uint256)":"148e0f06","getCourse(uint256)":"0b91e28d","getRoleAdmin(bytes32)":"248a9ca3","getStudent(uint256)":"642f9163","getStudentByAddress(address)":"9f3da5cc","getTotalCourses()":"d4cba21c","getTotalStudents()":"28bcb51a","graduateStudent(uint256,string)":"a018cbb1","grantRole(bytes32,address)":"2f2ff15d","hasRole(bytes32,address)":"91d14854","isStudentRegistered(address)":"b8b2e42c","pause()":"8456cb59","paused()":"5c975abb","registerStudent(address,string,string,string,string,string)":"92ede6d0","registeredStudents(address)":"6ea2f53c","renounceRole(bytes32,address)":"36568abe","revokeRole(bytes32,address)":"d547741f","students(uint256)":"06ead22e","supportsInterface(bytes4)":"01ffc9a7","unpause()":"3f4ba83a","updateCourse(uint256,string,string,uint256)":"91aac065","updateStudent(uint256,string,string,string,string)":"bffa52e9","usedStudentNumbers(string)":"f3d4efa6"}}}}}