{"contracts/CertificateNFT.sol":{"CertificateNFT":{"abi":[{"inputs":[],"stateMutability":"nonpayable","type":"constructor"},{"inputs":[],"name":"AccessControlBadConfirmation","type":"error"},{"inputs":[{"internalType":"address","name":"account","type":"address"},{"internalType":"bytes32","name":"neededRole","type":"bytes32"}],"name":"AccessControlUnauthorizedAccount","type":"error"},{"inputs":[],"name":"AlreadyExists","type":"error"},{"inputs":[],"name":"BatchLimit","type":"error"},{"inputs":[{"internalType":"address","name":"sender","type":"address"},{"internalType":"uint256","name":"tokenId","type":"uint256"},{"internalType":"address","name":"owner","type":"address"}],"name":"ERC721IncorrectOwner","type":"error"},{"inputs":[{"internalType":"address","name":"operator","type":"address"},{"internalType":"uint256","name":"tokenId","type":"uint256"}],"name":"ERC721InsufficientApproval","type":"error"},{"inputs":[{"internalType":"address","name":"approver","type":"address"}],"name":"ERC721InvalidApprover","type":"error"},{"inputs":[{"internalType":"address","name":"operator","type":"address"}],"name":"ERC721InvalidOperator","type":"error"},{"inputs":[{"internalType":"address","name":"owner","type":"address"}],"name":"ERC721InvalidOwner","type":"error"},{"inputs":[{"internalType":"address","name":"receiver","type":"address"}],"name":"ERC721InvalidReceiver","type":"error"},{"inputs":[{"internalType":"address","name":"sender","type":"address"}],"name":"ERC721InvalidSender","type":"error"},{"inputs":[{"internalType":"uint256","name":"tokenId","type":"uint256"}],"name":"ERC721NonexistentToken","type":"error"},{"inputs":[],"name":"EnforcedPause","type":"error"},{"inputs":[],"name":"ExpectedPause","type":"error"},{"inputs":[],"name":"InvalidInput","type":"error"},{"inputs":[],"name":"LengthMismatch","type":"error"},{"inputs":[],"name":"NotFound","type":"error"},{"inputs":[],"name":"Revoked","type":"error"},{"inputs":[],"name":"Unauthorized","type":"error"},{"anonymous":false,"inputs":[{"indexed":true,"internalType":"uint256","name":"id","type":"uint256"},{"indexed":false,"internalType":"string","name":"title","type":"string"},{"indexed":false,"internalType":"string","name":"category","type":"string"}],"name":"AchievementCertDetails","type":"event"},{"anonymous":false,"inputs":[{"indexed":true,"internalType":"address","name":"owner","type":"address"},{"indexed":true,"internalType":"address","name":"approved","type":"address"},{"indexed":true,"internalType":"uint256","name":"tokenId","type":"uint256"}],"name":"Approval","type":"event"},{"anonymous":false,"inputs":[{"indexed":true,"internalType":"address","name":"owner","type":"address"},{"indexed":true,"internalType":"address","name":"operator","type":"address"},{"indexed":false,"internalType":"bool","name":"approved","type":"bool"}],"name":"ApprovalForAll","type":"event"},{"anonymous":false,"inputs":[{"indexed":false,"internalType":"uint256","name":"_fromTokenId","type":"uint256"},{"indexed":false,"internalType":"uint256","name":"_toTokenId","type":"uint256"}],"name":"BatchMetadataUpdate","type":"event"},{"anonymous":false,"inputs":[{"indexed":true,"internalType":"uint256","name":"tokenId","type":"uint256"},{"indexed":false,"internalType":"address","name":"admin","type":"address"}],"name":"CertRevoked","type":"event"},{"anonymous":false,"inputs":[{"indexed":true,"internalType":"uint256","name":"tokenId","type":"uint256"},{"indexed":false,"internalType":"address","name":"verifier","type":"address"},{"indexed":false,"internalType":"bool","name":"isValid","type":"bool"}],"name":"CertVerified","type":"event"},{"anonymous":false,"inputs":[{"indexed":true,"internalType":"uint256","name":"tokenId","type":"uint256"},{"indexed":true,"internalType":"address","name":"student","type":"address"},{"indexed":false,"internalType":"string","name":"ipfsHash","type":"string"},{"indexed":false,"internalType":"enum CertificateNFT.CertificateType","name":"certType","type":"uint8"},{"indexed":false,"internalType":"uint256","name":"timestamp","type":"uint256"}],"name":"CertificateIssued","type":"event"},{"anonymous":false,"inputs":[{"indexed":true,"internalType":"uint256","name":"id","type":"uint256"},{"indexed":false,"internalType":"string","name":"templateId","type":"string"}],"name":"CustomCertDetails","type":"event"},{"anonymous":false,"inputs":[{"indexed":false,"internalType":"uint256","name":"_tokenId","type":"uint256"}],"name":"MetadataUpdate","type":"event"},{"anonymous":false,"inputs":[{"indexed":false,"internalType":"address","name":"account","type":"address"}],"name":"Paused","type":"event"},{"anonymous":false,"inputs":[{"indexed":true,"internalType":"uint256","name":"id","type":"uint256"},{"indexed":false,"internalType":"string","name":"course","type":"string"},{"indexed":false,"internalType":"string","name":"grade","type":"string"}],"name":"RegularCertDetails","type":"event"},{"anonymous":false,"inputs":[{"indexed":true,"internalType":"bytes32","name":"role","type":"bytes32"},{"indexed":true,"internalType":"bytes32","name":"previousAdminRole","type":"bytes32"},{"indexed":true,"internalType":"bytes32","name":"newAdminRole","type":"bytes32"}],"name":"RoleAdminChanged","type":"event"},{"anonymous":false,"inputs":[{"indexed":true,"internalType":"bytes32","name":"role","type":"bytes32"},{"indexed":true,"internalType":"address","name":"account","type":"address"},{"indexed":true,"internalType":"address","name":"sender","type":"address"}],"name":"RoleGranted","type":"event"},{"anonymous":false,"inputs":[{"indexed":true,"internalType":"bytes32","name":"role","type":"bytes32"},{"indexed":true,"internalType":"address","name":"account","type":"address"},{"indexed":true,"internalType":"address","name":"sender","type":"address"}],"name":"RoleRevoked","type":"event"},{"anonymous":false,"inputs":[{"indexed":true,"internalType":"uint256","name":"id","type":"uint256"},{"indexed":false,"internalType":"string","name":"serialNo","type":"string"},{"indexed":false,"internalType":"string","name":"memoNo","type":"string"},{"indexed":false,"internalType":"uint256","name":"sgpa","type":"uint256"}],"name":"SemesterCertDetails","type":"event"},{"anonymous":false,"inputs":[{"indexed":true,"internalType":"address","name":"from","type":"address"},{"indexed":true,"internalType":"address","name":"to","type":"address"},{"indexed":true,"internalType":"uint256","name":"tokenId","type":"uint256"}],"name":"Transfer","type":"event"},{"anonymous":false,"inputs":[{"indexed":false,"internalType":"address","name":"account","type":"address"}],"name":"Unpaused","type":"event"},{"inputs":[],"name":"ADMIN_ROLE","outputs":[{"internalType":"bytes32","name":"","type":"bytes32"}],"stateMutability":"view","type":"function"},{"inputs":[],"name":"DEFAULT_ADMIN_ROLE","outputs":[{"internalType":"bytes32","name":"","type":"bytes32"}],"stateMutability":"view","type":"function"},{"inputs":[],"name":"MAX_BATCH_SIZE","outputs":[{"internalType":"uint256","name":"","type":"uint256"}],"stateMutability":"view","type":"function"},{"inputs":[],"name":"MINTER_ROLE","outputs":[{"internalType":"bytes32","name":"","type":"bytes32"}],"stateMutability":"view","type":"function"},{"inputs":[],"name":"VERIFIER_ROLE","outputs":[{"internalType":"bytes32","name":"","type":"bytes32"}],"stateMutability":"view","type":"function"},{"inputs":[{"internalType":"address","name":"to","type":"address"},{"internalType":"uint256","name":"tokenId","type":"uint256"}],"name":"approve","outputs":[],"stateMutability":"nonpayable","type":"function"},{"inputs":[{"internalType":"address","name":"owner","type":"address"}],"name":"balanceOf","outputs":[{"internalType":"uint256","name":"","type":"uint256"}],"stateMutability":"view","type":"function"},{"inputs":[{"internalType":"uint256","name":"","type":"uint256"}],"name":"certConfigs","outputs":[{"internalType":"enum CertificateNFT.CertificateType","name":"certType","type":"uint8"},{"internalType":"bool","name":"isRevoked","type":"bool"},{"internalType":"address","name":"issuer","type":"address"},{"internalType":"uint256","name":"issueDate","type":"uint256"}],"stateMutability":"view","type":"function"},{"inputs":[{"internalType":"uint256","name":"tokenId","type":"uint256"}],"name":"getApproved","outputs":[{"internalType":"address","name":"","type":"address"}],"stateMutability":"view","type":"function"},{"inputs":[{"internalType":"bytes32","name":"role","type":"bytes32"}],"name":"getRoleAdmin","outputs":[{"internalType":"bytes32","name":"","type":"bytes32"}],"stateMutability":"view","type":"function"},{"inputs":[{"internalType":"address","name":"student","type":"address"}],"name":"getStudentCertificates","outputs":[{"internalType":"uint256[]","name":"","type":"uint256[]"}],"stateMutability":"view","type":"function"},{"inputs":[{"internalType":"bytes32","name":"role","type":"bytes32"},{"internalType":"address","name":"account","type":"address"}],"name":"grantRole","outputs":[],"stateMutability":"nonpayable","type":"function"},{"inputs":[{"internalType":"bytes32","name":"role","type":"bytes32"},{"internalType":"address","name":"account","type":"address"}],"name":"hasRole","outputs":[{"internalType":"bool","name":"","type":"bool"}],"stateMutability":"view","type":"function"},{"inputs":[{"internalType":"address","name":"owner","type":"address"},{"internalType":"address","name":"operator","type":"address"}],"name":"isApprovedForAll","outputs":[{"internalType":"bool","name":"","type":"bool"}],"stateMutability":"view","type":"function"},{"inputs":[{"internalType":"address","name":"student","type":"address"},{"internalType":"string","name":"title","type":"string"},{"internalType":"string","name":"category","type":"string"},{"internalType":"string","name":"ipfsHash","type":"string"},{"internalType":"address[]","name":"","type":"address[]"}],"name":"mintAchievementCertificate","outputs":[{"internalType":"uint256","name":"","type":"uint256"}],"stateMutability":"nonpayable","type":"function"},{"inputs":[{"internalType":"address","name":"student","type":"address"},{"internalType":"string","name":"courseName","type":"string"},{"internalType":"string","name":"grade","type":"string"},{"internalType":"string","name":"ipfsHash","type":"string"}],"name":"mintCertificate","outputs":[{"internalType":"uint256","name":"","type":"uint256"}],"stateMutability":"nonpayable","type":"function"},{"inputs":[{"internalType":"address[]","name":"students","type":"address[]"},{"internalType":"string[]","name":"courseNames","type":"string[]"},{"internalType":"string[]","name":"grades","type":"string[]"},{"internalType":"string[]","name":"ipfsHashes","type":"string[]"}],"name":"mintCertificatesBatch","outputs":[],"stateMutability":"nonpayable","type":"function"},{"inputs":[{"internalType":"address","name":"student","type":"address"},{"internalType":"string","name":"templateId","type":"string"},{"internalType":"string[]","name":"","type":"string[]"},{"internalType":"string[]","name":"","type":"string[]"},{"internalType":"string","name":"ipfsHash","type":"string"}],"name":"mintCustomCertificate","outputs":[{"internalType":"uint256","name":"","type":"uint256"}],"stateMutability":"nonpayable","type":"function"},{"inputs":[{"internalType":"address","name":"student","type":"address"},{"components":[{"internalType":"string","name":"serialNo","type":"string"},{"internalType":"string","name":"memoNo","type":"string"},{"internalType":"string","name":"regdNo","type":"string"},{"internalType":"string","name":"branch","type":"string"},{"internalType":"string","name":"examination","type":"string"},{"internalType":"uint256","name":"sgpa","type":"uint256"}],"internalType":"struct CertificateNFT.SemesterParams","name":"params","type":"tuple"},{"internalType":"string","name":"ipfsHash","type":"string"}],"name":"mintSemesterCertificate","outputs":[{"internalType":"uint256","name":"","type":"uint256"}],"stateMutability":"nonpayable","type":"function"},{"inputs":[],"name":"name","outputs":[{"internalType":"string","name":"","type":"string"}],"stateMutability":"view","type":"function"},{"inputs":[{"internalType":"uint256","name":"tokenId","type":"uint256"}],"name":"ownerOf","outputs":[{"internalType":"address","name":"","type":"address"}],"stateMutability":"view","type":"function"},{"inputs":[],"name":"pause","outputs":[],"stateMutability":"nonpayable","type":"function"},{"inputs":[],"name":"paused","outputs":[{"internalType":"bool","name":"","type":"bool"}],"stateMutability":"view","type":"function"},{"inputs":[{"internalType":"bytes32","name":"role","type":"bytes32"},{"internalType":"address","name":"callerConfirmation","type":"address"}],"name":"renounceRole","outputs":[],"stateMutability":"nonpayable","type":"function"},{"inputs":[{"internalType":"uint256","name":"tokenId","type":"uint256"}],"name":"revokeCertificate","outputs":[],"stateMutability":"nonpayable","type":"function"},{"inputs":[{"internalType":"bytes32","name":"role","type":"bytes32"},{"internalType":"address","name":"account","type":"address"}],"name":"revokeRole","outputs":[],"stateMutability":"nonpayable","type":"function"},{"inputs":[{"internalType":"address","name":"from","type":"address"},{"internalType":"address","name":"to","type":"address"},{"internalType":"uint256","name":"tokenId","type":"uint256"}],"name":"safeTransferFrom","outputs":[],"stateMutability":"nonpayable","type":"function"},{"inputs":[{"internalType":"address","name":"from","type":"address"},{"internalType":"address","name":"to","type":"address"},{"internalType":"uint256","name":"tokenId","type":"uint256"},{"internalType":"bytes","name":"data","type":"bytes"}],"name":"safeTransferFrom","outputs":[],"stateMutability":"nonpayable","type":"function"},{"inputs":[{"internalType":"address","name":"operator","type":"address"},{"internalType":"bool","name":"approved","type":"bool"}],"name":"setApprovalForAll","outputs":[],"stateMutability":"nonpayable","type":"function"},{"inputs":[{"internalType":"string","name":"baseURI","type":"string"}],"name":"setBaseURI","outputs":[],"stateMutability":"nonpayable","type":"function"},{"inputs":[{"internalType":"address","name":"","type":"address"},{"internalType":"uint256","name":"","type":"uint256"}],"name":"studentCertificates","outputs":[{"internalType":"uint256","name":"","type":"uint256"}],"stateMutability":"view","type":"function"},{"inputs":[{"internalType":"bytes4","name":"interfaceId","type":"bytes4"}],"name":"supportsInterface","outputs":[{"internalType":"bool","name":"","type":"bool"}],"stateMutability":"view","type":"function"},{"inputs":[],"name":"symbol","outputs":[{"internalType":"string","name":"","type":"string"}],"stateMutability":"view","type":"function"},{"inputs":[{"internalType":"uint256","name":"tokenId","type":"uint256"}],"name":"tokenURI","outputs":[{"internalType":"string","name":"","type":"string"}],"stateMutability":"view","type":"function"},{"inputs":[{"internalType":"address","name":"from","type":"address"},{"internalType":"address","name":"to","type":"address"},{"internalType":"uint256","name":"tokenId","type":"uint256"}],"name":"transferFrom","outputs":[],"stateMutability":"nonpayable","type":"function"},{"inputs":[],"name":"unpause","outputs":[],"stateMutability":"nonpayable","type":"function"},{"inputs":[{"internalType":"string","name":"","type":"string"}],"name":"usedHashes","outputs":[{"internalType":"bool","name":"","type":"bool"}],"stateMutability":"view","type":"function"},{"inputs":[{"internalType":"string","name":"","type":"string"}],"name":"usedUniqueIdentifiers","outputs":[{"internalType":"bool","name":"","type":"bool"}],"stateMutability":"view","type":"function"},{"inputs":[{"internalType":"uint256","name":"tokenId","type":"uint256"}],"name":"verifyCertificate","outputs":[{"internalType":"bool","name":"isValid","type":"bool"},{"internalType":"string","name":"ipfsUri","type":"string"},{"internalType":"enum CertificateNFT.CertificateType","name":"cType","type":"uint8"}],"stateMutability":"view","type":"function"},{"inputs":[{"internalType":"uint256","name":"tokenId","type":"uint256"}],"name":"verifyCertificateByVerifier","outputs":[{"internalType":"bool","name":"","type":"bool"},{"internalType":"enum CertificateNFT.CertificateType","name":"","type":"uint8"}],"stateMutability":"nonpayable","type":"function"}],"evm":{"bytecode":{"linkReferences":{},"object":"60803462000346576001600160401b0390604090808201838111828210176200033057825260128152602092715669676e616e20436572746966696361746560701b848301528251838101818110838211176200033057845260068152652b24a3a720a760d11b85820152825190828211620003305760008054926001958685811c9516801562000325575b8986101462000311578190601f95868111620002be575b5089908683116001146200025a5784926200024e575b5050600019600383901b1c191690861b1781555b81519384116200023a5784548581811c911680156200022f575b888210146200021b57838111620001d3575b50869284116001146200016d5783949596509262000161575b5050600019600383901b1c191690821b1790555b60ff19600854166008556200013a336200034b565b506200014633620003cc565b5062000152336200046f565b5051612d5e90816200050e8239f35b01519050388062000111565b9190601f1984169685845280842093905b888210620001bb5750508385969710620001a1575b505050811b01905562000125565b015160001960f88460031b161c1916905538808062000193565b8087859682949686015181550195019301906200017e565b8582528782208480870160051c8201928a881062000211575b0160051c019086905b82811062000205575050620000f8565b838155018690620001f5565b92508192620001ec565b634e487b7160e01b82526022600452602482fd5b90607f1690620000e6565b634e487b7160e01b81526041600452602490fd5b015190503880620000b8565b8480528a85208994509190601f198416865b8d828210620002a757505084116200028d575b505050811b018155620000cc565b015160001960f88460031b161c191690553880806200027f565b8385015186558c979095019493840193016200026c565b9091508380528984208680850160051c8201928c861062000307575b918a91869594930160051c01915b828110620002f8575050620000a2565b8681558594508a9101620002e8565b92508192620002da565b634e487b7160e01b83526022600452602483fd5b94607f16946200008b565b634e487b7160e01b600052604160045260246000fd5b600080fd5b6001600160a01b031660008181527f6d5257204ebe7d88fd91ae87941cb2dd9d8062b64ae5a2bd2d28ec40b9fbf6df602052604081205490919060ff16620003c85781805260076020526040822081835260205260408220600160ff1982541617905533916000805160206200326c8339815191528180a4600190565b5090565b6001600160a01b031660008181527fa70365933f78520ef41d6645ba61e509916296603327302d41466c063e8e260860205260408120549091907fa49807205ce4d355092ef5a8a18f56e8913cf4a201fbe287825b095693c217759060ff166200046a5780835260076020526040832082845260205260408320600160ff198254161790556000805160206200326c833981519152339380a4600190565b505090565b6001600160a01b031660008181527fa4bfd7afe708e2e87e7f0e2ad9b4d545417e0f795f57b5c5ab5d799c565a04f460205260408120549091907f9f2df0fed2c77648de5860a4cc508cd0818c85b8b8a1ab4ceeef8d981c8956a69060ff166200046a5780835260076020526040832082845260205260408320600160ff198254161790556000805160206200326c833981519152339380a460019056fe608080604052600436101561001357600080fd5b60003560e01c90816301ffc9a714611d705750806306f5497e14611cb357806306fdde0314611c10578063081812fc14611bd2578063095ea7b314611aeb5780631692a94214611aa057806323b872dd14611a89578063248a9ca314611a5a5780632f2ff15d14611a1b57806336568abe146119d45780633f4ba83a1461196a57806342842e0e1461193c5780634615bfe1146117d357806355f804b3146116925780635c975abb1461166f5780636352211e1461163f5780636d343da1146115dd57806370a082311461158457806375b238fc1461155b5780637ac2a3001461152f5780638456cb59146114d557806391d1485414611488578063929c01fd146113de57806395d89b411461132d5780639818227414610eb25780639d952cd114610d30578063a217fddf14610d14578063a22cb46514610c6f578063a85e9a7c146108de578063b88d4fde14610873578063bd1f5f3114610834578063c3934f0e146107dc578063c87b56dd146107a5578063cfdbf25414610789578063d539139314610760578063d547741f1461071f578063e39ae76d1461030f578063e7705db6146102e6578063e985e9c5146102905763ebc63bc0146101d757600080fd5b3461028b5760208060031936011261028b576001600160a01b036101f9611e57565b16600052600c8152604060002060405190818382549182815201908192600052846000209060005b8682821061027757868661023782880383611f2b565b604051928392818401908285525180915260408401929160005b82811061026057505050500390f35b835185528695509381019392810192600101610251565b835485529093019260019283019201610221565b600080fd5b3461028b57604036600319011261028b576102a9611e57565b6102b1611e6d565b9060018060a01b03809116600052600560205260406000209116600052602052602060ff604060002054166040519015158152f35b3461028b57600036600319011261028b576020604051600080516020612ce98339815191528152f35b3461028b5760a036600319011261028b57610328611e57565b6001600160401b0360243581811161028b57610348903690600401611fde565b60443583811161028b57610360903690600401611ec5565b505060643583811161028b5761037a903690600401611ec5565b505060843583811161028b57610394903690600401611fde565b92909161039f612083565b6103a7612762565b6001600160a01b039486861690811561070d57851561070d576040519786868a3760ff89888101600d815260209b8c910301902054166106fb576103ec6009546126a8565b9788600955604051906103fe82611f10565b6000825261040c8a8461239e565b166106e2578861041b9261248e565b610426368787611f69565b90876000526006895260406000209180519182116105f557819061044a84546121ea565b601f8111610691575b508a90601f831160011461062c57600092610621575b50508160011b916000199060031b1c19161790555b600080516020612d0983398151915287604051888152a1604051936104a285611ef5565b60038552878501946000865260408101953387526060820142815289600052600b8b526040600020925197600489101561060b576104f460019360ff199a60ff8c885416911617865551151585612780565b51835461ffff1960b085901b01801990911660109290921b16178355519101556000828152600c89526040902080549091600160401b8210156105f55788977fe2b824529f30971393ca403cf982a1c34eea2dcc4e03bc330e8a4e42d532ef3a976105928a6105798682986001600080516020612c698339815191529901815561200b565b90919082549060031b91821b91600019901b1916179055565b6001604051838582378d81858101600d815203019020918254161790556105c660405192839260608452606084019161271a565b60038c8301524260408301520390a36105ea6040519283928884528884019161271a565b0390a2604051908152f35b634e487b7160e01b600052604160045260246000fd5b634e487b7160e01b600052602160045260246000fd5b015190508a80610469565b60008581528c81209350601f198516905b8d82821061067b575050908460019594939210610662575b505050811b01905561047e565b015160001960f88460031b161c191690558a8080610655565b600185968293968601518155019501930161063d565b909150836000528a600020601f840160051c8101918c85106106d8575b90601f859493920160051c01905b8181106106c95750610453565b600081558493506001016106bc565b90915081906106ae565b6040516339e3563760e11b815260006004820152602490fd5b60405163119b4fd360e11b8152600490fd5b60405163b4fa3fb360e01b8152600490fd5b3461028b57604036600319011261028b5761075e60043561073e611e6d565b908060005260076020526107596001604060002001546120cd565b612173565b005b3461028b57600036600319011261028b576020604051600080516020612c898339815191528152f35b3461028b57600036600319011261028b57602060405160328152f35b3461028b57602036600319011261028b576107d86107c4600435612b83565b604051918291602083526020830190611e32565b0390f35b3461028b57604036600319011261028b576107f5611e57565b6001600160a01b03166000908152600c602052604090208054602435919082101561028b576020916108269161200b565b90546040519160031b1c8152f35b3461028b57602060ff61085d8261084a36611fa0565b8160405193828580945193849201611e0f565b8101600d81520301902054166040519015158152f35b3461028b57608036600319011261028b5761088c611e57565b610894611e6d565b6064359190604435906001600160401b03841161028b573660238501121561028b576108cd61075e943690602481600401359101611f69565b926108d9838383612224565b6125c2565b3461028b5760a036600319011261028b576108f7611e57565b6001600160401b0360243581811161028b57610917903690600401611fde565b929060443583811161028b57610931903690600401611fde565b94909160643585811161028b5761094c903690600401611fde565b94909660843587811161028b57610967903690600401611ec5565b5050610971612083565b610979612762565b6001600160a01b03948286161561070d57861561070d5760ff604051888b82376020818a8101600d81520301902054166106fb576109b86009546126a8565b97886009556040516109c981611f10565b60008152876109d88b8761239e565b166106e2576109e8908a8661248e565b6109f336898c611f69565b9089600052600660205260406000209180519182116105f5578190610a1884546121ea565b601f8111610c1f575b50602090601f8311600114610bb357600092610ba8575b50508160011b916000199060031b1c19161790555b600080516020612d0983398151915260206040518a8152a160405192610a7284611ef5565b600284526020840193600085526040810194338652606082014281528b600052600b6020526040600020925196600488101561060b57610ac660019360ff199960ff8b885416911617865551151585612780565b51835461ffff1960b085901b01801990911660109290921b16178355519101558087166000908152600c602052604090208054600160401b8110156105f55760209b8b9a7f1603cf70c43fefc5da4ce8f81dd75514200996955d71930085df72741ac05b6f9a6105ea98610b548e6105798782996001600080516020612c698339815191529a01815561200b565b600160405184868237602081868101600d81520301902091825416179055610b8960405193849360608552606085019161271a565b958f60029084015242604084015216940390a36040519485948561273b565b015190508c80610a38565b9250836000526020600020906000935b601f1984168510610c04576001945083601f19811610610beb575b505050811b019055610a4d565b015160001960f88460031b161c191690558c8080610bde565b81810151835560209485019460019093019290910190610bc3565b909150836000526020600020601f840160051c810160208510610c68575b90849392915b601f830160051c82018110610c59575050610a21565b60008155859450600101610c43565b5080610c3d565b3461028b57604036600319011261028b57610c88611e57565b6024359081151580920361028b576001600160a01b0316908115610cfb57336000526005602052604060002082600052602052604060002060ff1981541660ff83161790556040519081527f17307eab39ab6107e8899845ad3d59bd9653f200f220920489ca2b5937696c3160203392a3005b604051630b61174360e31b815260048101839052602490fd5b3461028b57600036600319011261028b57602060405160008152f35b3461028b5760208060031936011261028b57600435600080516020612ce98339815191528060005260078352604060002033600052835260ff6040600020541615610e945750604051630b4954a160e11b81526004810182905290600082602481305afa908115610e8857600092600092610def575b5090604093610ded927fb8078f2598a937c51f8393ad55850919cf7fcde693b1401241932f3ecdfd158d868051963388521515968785820152a28451938452830190611e83565bf35b915091503d806000833e610e038183611f2b565b810160608282031261028b57815191821515830361028b57808501516001600160401b03811161028b5781019180601f8401121561028b578251610e4681611f4e565b91610e546040519384611f2b565b81835287828601011161028b576040938780610e7294019101611e0f565b015191600483101561028b579091906040610da6565b6040513d6000823e3d90fd5b6044906040519063e2517d3f60e01b82523360048301526024820152fd5b3461028b5760031960603682011261028b57610ecc611e57565b906001600160401b0390602435821061028b5760c0906024353603011261028b5760443581811161028b57610f05903690600401611fde565b9092610f0f612083565b610f17612762565b60ff6020610f2a600460243501806126cd565b91908260405193849283378101600e815203019020541680156112f9575b6106fb576001600160a01b03908082161561070d57821561070d5760ff60405184878237602081868101600d81520301902054166106fb57610f8b6009546126a8565b9384600955604051610f9c81611f10565b6000815283610fab878561239e565b166106e257610fbb90868461248e565b610fc6368588611f69565b9085600052600660205260406000209180519182116105f5578190610feb84546121ea565b601f81116112a6575b50602090601f831160011461123a5760009261122f575b50508160011b916000199060031b1c19161790555b600080516020612d098339815191526020604051868152a160405161104481611ef5565b60019182825260208201916000835260408101923384526060820142815288600052600b6020526040600020925194600486101561060b57611099879360ff199760ff89885416911617865551151585612780565b51835462010000600160b01b03191660109190911b62010000600160b01b0316178355519101558084166000908152600c602052604090208054600160401b8110156105f55760209888977fae746de94c016183e7b8107b39746d4c9e3a9f9928e763d1002147c11ca457e4976111298a6105798682988c600080516020612c698339815191529901815561200b565b604051828482378c81848101600d815203019020888882541617905561115c60405193849360608552606085019161271a565b95888d84015242604084015216940390a38561117d600460243501806126cd565b91908260405193849283378101600e8152030190208282825416179055602480350191866111b0846024356004016126cd565b91908260405193849283378101600e815203019020918254161790556111f46112186111e66024356004016024356004016126cd565b9290936024356004016126cd565b61120b60405195869560608752606087019161271a565b918483038a86015261271a565b60a4602435013560408301520390a2604051908152f35b01519050888061100b565b9250836000526020600020906000935b601f198416851061128b576001945083601f19811610611272575b505050811b019055611020565b015160001960f88460031b161c19169055888080611265565b8181015183556020948501946001909301929091019061124a565b909150836000526020600020601f840160051c810191602085106112ef575b90601f859493920160051c01905b8181106112e05750610ff4565b600081558493506001016112d3565b90915081906112c5565b5060ff602061131160248035016024356004016126cd565b91908260405193849283378101600e8152030190205416610f48565b3461028b57600036600319011261028b5760405160009060018054611351816121ea565b808452908281169081156113b65750600114611378575b6107d8836107c481870382611f2b565b92508060005260209283600020916000925b8284106113a3575050508101909101906107c481611368565b805485850187015292850192810161138a565b6107d895506107c493506020915091849260ff191682840152151560051b8201019350611368565b3461028b57608036600319011261028b576113f7611e57565b6001600160401b0360243581811161028b57611417903690600401611fde565b9160443581811161028b57611430903690600401611fde565b93909260643592831161028b576105ea611479602097611463600080516020612c49833981519152963690600401611fde565b9161146c612083565b611474612762565b612798565b9586956040519485948561273b565b3461028b57604036600319011261028b576114a1611e6d565b600435600052600760205260406000209060018060a01b0316600052602052602060ff604060002054166040519015158152f35b3461028b57600036600319011261028b576114ee612039565b6114f6612762565b600160ff1960085416176008557f62e78cea01bee320cd4e420270b5ea74000d11b0c9f74754ebdbfc544b05a2586020604051338152a1005b3461028b57602060ff6115458261084a36611fa0565b8101600e81520301902054166040519015158152f35b3461028b57600036600319011261028b576020604051600080516020612cc98339815191528152f35b3461028b57602036600319011261028b576001600160a01b036115a5611e57565b1680156115c45760005260036020526020604060002054604051908152f35b6040516322718ad960e21b815260006004820152602490fd5b3461028b57602036600319011261028b57600435600052600b6020526080604060002060018154910154604051916116188360ff8316611e83565b600881901c60ff161515602084015260101c6001600160a01b031660408301526060820152f35b3461028b57602036600319011261028b57602061165d600435612453565b6040516001600160a01b039091168152f35b3461028b57600036600319011261028b57602060ff600854166040519015158152f35b3461028b576116a036611fa0565b6116a8612039565b80516001600160401b0381116105f5576116c3600a546121ea565b601f811161176e575b50602080601f831160011461170a575081926000926116ff575b5050600019600383901b1c191660019190911b17600a55005b0151905082806116e6565b90601f19831693600a60005282600020926000905b868210611756575050836001951061173d575b505050811b01600a55005b015160001960f88460031b161c19169055828080611732565b8060018596829496860151815501950193019061171f565b600a6000527fc65a7bb8d6351c1cf70c95a316cc6a92839c986682d98bc35f958f4883f9d2a8601f830160051c810191602084106117c9575b601f0160051c01905b8181106117bd57506116cc565b600081556001016117b0565b90915081906117a7565b3461028b57608036600319011261028b576001600160401b0360043581811161028b57611804903690600401611ec5565b909160243581811161028b5761181e903690600401611ec5565b909160443581811161028b57611838903690600401611ec5565b9160643590811161028b57611851903690600401611ec5565b909661185b612083565b611863612762565b6032871161192a57868514801590611920575b8015611916575b6119015760005b87811061188d57005b600581901b820135906001600160a01b038216820361028b576118be6118fc926118b883878e6126ff565b91612798565b600080516020612c498339815191526118d8838a8c6126ff565b906118f46118e7868c8c6126ff565b906040519485948561273b565b0390a26126a8565b611884565b6040516001621398b960e31b03198152600490fd5b508682141561187d565b5086841415611876565b604051633e4d135960e21b8152600490fd5b3461028b5761075e61194d36611e90565b906040519261195b84611f10565b600084526108d9838383612224565b3461028b57600036600319011261028b57611983612039565b60085460ff8116156119c25760ff19166008557f5db9ee0a495bf2e6ff9c91a7834c1ba4fdd244a5e8aa4e537bd38aeae4b073aa6020604051338152a1005b604051638dfc202b60e01b8152600490fd5b3461028b57604036600319011261028b576119ed611e6d565b336001600160a01b03821603611a095761075e90600435612173565b60405163334bd91960e11b8152600490fd5b3461028b57604036600319011261028b5761075e600435611a3a611e6d565b90806000526007602052611a556001604060002001546120cd565b6120f3565b3461028b57602036600319011261028b5760043560005260076020526020600160406000200154604051908152f35b3461028b5761075e611a9a36611e90565b91612224565b3461028b57602036600319011261028b57611abc600435612a97565b6107d8611ae060409493945194859415158552606060208601526060850190611e32565b916040840190611e83565b3461028b57604036600319011261028b57611b04611e57565b602435611b1081612453565b33151580611bbf575b80611b92575b611b7a576001600160a01b039283169282918491167f8c5be1e5ebec7d5bd14f71427d1e84f3dd0314c0f7b2291e5b200ac8c7c3b925600080a4600090815260046020526040902080546001600160a01b0319169091179055005b60405163a9fbf51f60e01b8152336004820152602490fd5b5060018060a01b038116600052600560205260406000203360005260205260ff6040600020541615611b1f565b506001600160a01b038116331415611b19565b3461028b57602036600319011261028b57600435611bef81612453565b506000526004602052602060018060a01b0360406000205416604051908152f35b3461028b57600036600319011261028b57604051600090600054611c33816121ea565b8083526001918083169081156113b65750600114611c5b576107d8836107c481870382611f2b565b600080805260209450917f290decd9548b62a8d60345a988386fc84ba6bc95484008f6362f93160ef3e5635b828410611ca0575050508101909101906107c481611368565b8054858501870152928501928101611c87565b3461028b57602036600319011261028b57600435611ccf612039565b6000818152600260205260409020546001600160a01b031615611d5e5780600052600b60205260ff60406000205460081c16611d4c5780600052600b602052604060002061010061ff00198254161790557f8e273015173826f6ff8da4951135109e9bc12b7956edce372559ff29cc9614936020604051338152a2005b6040516344825a4b60e01b8152600490fd5b60405163c5723b5160e01b8152600490fd5b3461028b57602036600319011261028b576004359063ffffffff60e01b821680920361028b57602091637965db0b60e01b8114908115611db2575b5015158152f35b632483248360e11b811491508115611dcc575b5083611dab565b6380ac58cd60e01b811491508115611dfe575b8115611ded575b5083611dc5565b6301ffc9a760e01b14905083611de6565b635b5e139f60e01b81149150611ddf565b60005b838110611e225750506000910152565b8181015183820152602001611e12565b90602091611e4b81518092818552858086019101611e0f565b601f01601f1916010190565b600435906001600160a01b038216820361028b57565b602435906001600160a01b038216820361028b57565b90600482101561060b5752565b606090600319011261028b576001600160a01b0390600435828116810361028b5791602435908116810361028b579060443590565b9181601f8401121561028b578235916001600160401b03831161028b576020808501948460051b01011161028b57565b608081019081106001600160401b038211176105f557604052565b602081019081106001600160401b038211176105f557604052565b601f909101601f19168101906001600160401b038211908210176105f557604052565b6001600160401b0381116105f557601f01601f191660200190565b929192611f7582611f4e565b91611f836040519384611f2b565b82948184528183011161028b578281602093846000960137010152565b602060031982011261028b57600435906001600160401b03821161028b578060238301121561028b57816024611fdb93600401359101611f69565b90565b9181601f8401121561028b578235916001600160401b03831161028b576020838186019501011161028b57565b80548210156120235760005260206000200190600090565b634e487b7160e01b600052603260045260246000fd5b3360009081527fa70365933f78520ef41d6645ba61e509916296603327302d41466c063e8e26086020526040902054600080516020612cc98339815191529060ff1615610e945750565b3360009081527fa4bfd7afe708e2e87e7f0e2ad9b4d545417e0f795f57b5c5ab5d799c565a04f46020526040902054600080516020612c898339815191529060ff1615610e945750565b80600052600760205260406000203360005260205260ff6040600020541615610e945750565b906000918083526007602052604083209160018060a01b03169182845260205260ff6040842054161560001461216e5780835260076020526040832082845260205260408320600160ff198254161790557f2f8788117e7eff1d82e926ec794901d17c78024a50270940304540a733656f0d339380a4600190565b505090565b906000918083526007602052604083209160018060a01b03169182845260205260ff60408420541660001461216e578083526007602052604083208284526020526040832060ff1981541690557ff6391f5c32d9c69d2a47ea670b442974b53935d1edc7fd64eb21e047a839171b339380a4600190565b90600182811c9216801561221a575b602083101461220457565b634e487b7160e01b600052602260045260246000fd5b91607f16916121f9565b6001600160a01b039182169290918315612385576000928284528260209560028752604096848888205416968791331515806122ef575b50906002600080516020612ca983398151915292846122cf575b858352600381528b8320805460010190558683525289812080546001600160a01b0319168517905580a416928383036122ae5750505050565b6064945051926364283d7b60e01b8452600484015260248301526044820152fd5b6122d887612435565b848352600381528b83208054600019019055612275565b91939450915080612344575b1561230b5785929187913861225b565b878688612328576024915190637e27328960e01b82526004820152fd5b604491519063177e802f60e01b82523360048301526024820152fd5b503387148015612369575b806122fb57508582526004815233858984205416146122fb565b5086825260058152878220338352815260ff888320541661234f565b604051633250574960e11b815260006004820152602490fd5b6000828152600260205260408120546001600160a01b0390811693928491600080516020612ca98339815191529183612413575b1692836123fb575b84815260026020526040812080546001600160a01b0319168517905580a490565b838152600360205260408120600181540190556123da565b61241c86612435565b83855260036020526040852080546000190190556123d2565b600090815260046020526040902080546001600160a01b0319169055565b6000818152600260205260409020546001600160a01b0316908115612476575090565b60249060405190637e27328960e01b82526004820152fd5b803b61249957505050565b926124e29360018060a01b031692604051630a85bd0160e11b91828252336004830152600094856024840152604483015260806064830152818060209889936084830190611e32565b038187895af184918161257e575b50612550575050503d600014612548573d61250a81611f4e565b906125186040519283611f2b565b81528091843d92013e5b8051928361254357604051633250574960e11b815260048101849052602490fd5b019050fd5b506060612522565b919450915063ffffffff60e01b16036125665750565b60249060405190633250574960e11b82526004820152fd5b9091508681813d83116125bb575b6125968183611f2b565b810103126125b757516001600160e01b0319811681036125b75790386124f0565b8480fd5b503d61258c565b813b6125cf575b50505050565b604051630a85bd0160e11b8082523360048301526001600160a01b0392831660248301526044820194909452608060648201526020959290911693909290839061261d906084830190611e32565b039285816000958187895af1849181612668575b5061264b575050503d600014612548573d61250a81611f4e565b919450915063ffffffff60e01b16036125665750388080806125c9565b9091508681813d83116126a1575b6126808183611f2b565b810103126125b757516001600160e01b0319811681036125b7579038612631565b503d612676565b60001981146126b75760010190565b634e487b7160e01b600052601160045260246000fd5b903590601e198136030182121561028b57018035906001600160401b03821161028b5760200191813603831361028b57565b90821015612023576127169160051b8101906126cd565b9091565b908060209392818452848401376000828201840152601f01601f1916010190565b929061275490611fdb959360408652604086019161271a565b92602081850391015261271a565b60ff6008541661276e57565b60405163d93c066560e01b8152600490fd5b9061ff00825491151560081b169061ff001916179055565b916001600160a01b03808416929190831561070d57811561070d5760408051918385843760ff83858101600d81526020958691030190205416612a86576127e06009546126a8565b96876009558251906127f182611f10565b6000928383526128018a8361239e565b16612a6e5790886128119261248e565b61281c368587611f69565b87825260068452828220815190916001600160401b03821161298a57819061284484546121ea565b601f8111612a20575b508690601f83116001146129bd5785926129b2575b50508160011b916000199060031b1c19161790555b600080516020612d09833981519152838351898152a1815161289881611ef5565b8181528381019082825283810133815260608201904282528a8552600b8752858520925193600485101561299e57906128e66001939260ff199660ff88885416911617865551151585612780565b51835461ffff1960b085901b01801990911660109290921b1617835551910155868252600c8452828220805490600160401b82101561298a57916129498a61057984600080516020612c698339815191529a98966001849d9b999701815561200b565b60018351868882378581888101600d8152030190209182541617905561297b825195869560608752606087019161271a565b9284015242908301520390a390565b634e487b7160e01b84526041600452602484fd5b634e487b7160e01b86526021600452602486fd5b015190503880612862565b8486528786209250601f198416865b89828210612a0a5750509084600195949392106129f1575b505050811b019055612877565b015160001960f88460031b161c191690553880806129e4565b60018596829396860151815501950193016129cc565b909150838552868520601f840160051c810191888510612a64575b90601f859493920160051c01905b818110612a56575061284d565b868155849350600101612a49565b9091508190612a3b565b83516339e3563760e11b815260048101849052602490fd5b815163119b4fd360e11b8152600490fd5b600081815260026020526040808220546001600160a01b039492939190851615612b6d57818452600b60205280842094815195612ad387611ef5565b80549060ff8216926004841015612b595790600191848a5260ff8460081c161515938460208c015260101c16858a015201546060880152612b41575050612b1990612b83565b9251916004831015612b2d57506001929190565b634e487b7160e01b81526021600452602490fd5b939150935080935190612b5382611f10565b81529190565b634e487b7160e01b88526021600452602488fd5b935050819251612b7c81611f10565b8281529190565b612b8c81612453565b506000908152602090600682526040812091604051809383908054612bb0816121ea565b80855291600191808316908115612c265750600114612be9575b505050612bd992500383611f2b565b604051612be581611f10565b5290565b86528486209492508591905b818310612c0e575050612bd99350820101388080612bca565b85548884018501529485019487945091830191612bf5565b92505050612bd994925060ff191682840152151560051b820101388080612bca56fe9ccbd441c73167a447461688a5ae3c5486e18098f2ed1dd2c5f8e1d8be0b0303fd1cb6948a12dfc07653035746feb8336175f3e393445293a0602ec47ce275499f2df0fed2c77648de5860a4cc508cd0818c85b8b8a1ab4ceeef8d981c8956a6ddf252ad1be2c89b69c2b068fc378daa952ba7f163c4a11628f55a4df523b3efa49807205ce4d355092ef5a8a18f56e8913cf4a201fbe287825b095693c217750ce23c3e399818cfee81a7ab0880f714e53d7672b08df0fa62f2843416e1ea09f8e1a15aba9398e019f0b49df1a4fde98ee17ae345cb5f6b5e2c27f5033e8ce7a264697066735822122096ec629e55a963f201e6b0e91000880b5ecf1b0a260c9f5f1a191cf91bcdc32364736f6c634300081400332f8788117e7eff1d82e926ec794901d17c78024a50270940304540a733656f0d","opcodes":"PUSH1 0x80 CALLVALUE PUSH3 0x346 JUMPI PUSH1 0x1 PUSH1 0x1 PUSH1 0x40 SHL SUB SWAP1 PUSH1 0x40 SWAP1 DUP1 DUP3 ADD DUP4 DUP2 GT DUP3 DUP3 LT OR PUSH3 0x330 JUMPI DUP3 MSTORE PUSH1 0x12 DUP2 MSTORE PUSH1 0x20 SWAP3 PUSH18 0x5669676E616E204365727469666963617465 PUSH1 0x70 SHL DUP5 DUP4 ADD MSTORE DUP3 MLOAD DUP4 DUP2 ADD DUP2 DUP2 LT DUP4 DUP3 GT OR PUSH3 0x330 JUMPI DUP5 MSTORE PUSH1 0x6 DUP2 MSTORE PUSH6 0x2B24A3A720A7 PUSH1 0xD1 SHL DUP6 DUP3 ADD MSTORE DUP3 MLOAD SWAP1 DUP3 DUP3 GT PUSH3 0x330 JUMPI PUSH1 0x0 DUP1 SLOAD SWAP3 PUSH1 0x1 SWAP6 DUP7 DUP6 DUP2 SHR SWAP6 AND DUP1 ISZERO PUSH3 0x325 JUMPI JUMPDEST DUP10 DUP7 LT EQ PUSH3 0x311 JUMPI DUP2 SWAP1 PUSH1 0x1F SWAP6 DUP7 DUP2 GT PUSH3 0x2BE JUMPI JUMPDEST POP DUP10 SWAP1 DUP7 DUP4 GT PUSH1 0x1 EQ PUSH3 0x25A JUMPI DUP5 SWAP3 PUSH3 0x24E JUMPI JUMPDEST POP POP PUSH1 0x0 NOT PUSH1 0x3 DUP4 SWAP1 SHL SHR NOT AND SWAP1 DUP7 SHL OR DUP2 SSTORE JUMPDEST DUP2 MLOAD SWAP4 DUP5 GT PUSH3 0x23A JUMPI DUP5 SLOAD DUP6 DUP2 DUP2 SHR SWAP2 AND DUP1 ISZERO PUSH3 0x22F JUMPI JUMPDEST DUP9 DUP3 LT EQ PUSH3 0x21B JUMPI DUP4 DUP2 GT PUSH3 0x1D3 JUMPI JUMPDEST POP DUP7 SWAP3 DUP5 GT PUSH1 0x1 EQ PUSH3 0x16D JUMPI DUP4 SWAP5 SWAP6 SWAP7 POP SWAP3 PUSH3 0x161 JUMPI JUMPDEST POP POP PUSH1 0x0 NOT PUSH1 0x3 DUP4 SWAP1 SHL SHR NOT AND SWAP1 DUP3 SHL OR SWAP1 SSTORE JUMPDEST PUSH1 0xFF NOT PUSH1 0x8 SLOAD AND PUSH1 0x8 SSTORE PUSH3 0x13A CALLER PUSH3 0x34B JUMP JUMPDEST POP PUSH3 0x146 CALLER PUSH3 0x3CC JUMP JUMPDEST POP PUSH3 0x152 CALLER PUSH3 0x46F JUMP JUMPDEST POP MLOAD PUSH2 0x2D5E SWAP1 DUP2 PUSH3 0x50E DUP3 CODECOPY RETURN JUMPDEST ADD MLOAD SWAP1 POP CODESIZE DUP1 PUSH3 0x111 JUMP JUMPDEST SWAP2 SWAP1 PUSH1 0x1F NOT DUP5 AND SWAP7 DUP6 DUP5 MSTORE DUP1 DUP5 KECCAK256 SWAP4 SWAP1 JUMPDEST DUP9 DUP3 LT PUSH3 0x1BB JUMPI POP POP DUP4 DUP6 SWAP7 SWAP8 LT PUSH3 0x1A1 JUMPI JUMPDEST POP POP POP DUP2 SHL ADD SWAP1 SSTORE PUSH3 0x125 JUMP JUMPDEST ADD MLOAD PUSH1 0x0 NOT PUSH1 0xF8 DUP5 PUSH1 0x3 SHL AND SHR NOT AND SWAP1 SSTORE CODESIZE DUP1 DUP1 PUSH3 0x193 JUMP JUMPDEST DUP1 DUP8 DUP6 SWAP7 DUP3 SWAP5 SWAP7 DUP7 ADD MLOAD DUP2 SSTORE ADD SWAP6 ADD SWAP4 ADD SWAP1 PUSH3 0x17E JUMP JUMPDEST DUP6 DUP3 MSTORE DUP8 DUP3 KECCAK256 DUP5 DUP1 DUP8 ADD PUSH1 0x5 SHR DUP3 ADD SWAP3 DUP11 DUP9 LT PUSH3 0x211 JUMPI JUMPDEST ADD PUSH1 0x5 SHR ADD SWAP1 DUP7 SWAP1 JUMPDEST DUP3 DUP2 LT PUSH3 0x205 JUMPI POP POP PUSH3 0xF8 JUMP JUMPDEST DUP4 DUP2 SSTORE ADD DUP7 SWAP1 PUSH3 0x1F5 JUMP JUMPDEST SWAP3 POP DUP2 SWAP3 PUSH3 0x1EC JUMP JUMPDEST PUSH4 0x4E487B71 PUSH1 0xE0 SHL DUP3 MSTORE PUSH1 0x22 PUSH1 0x4 MSTORE PUSH1 0x24 DUP3 REVERT JUMPDEST SWAP1 PUSH1 0x7F AND SWAP1 PUSH3 0xE6 JUMP JUMPDEST PUSH4 0x4E487B71 PUSH1 0xE0 SHL DUP2 MSTORE PUSH1 0x41 PUSH1 0x4 MSTORE PUSH1 0x24 SWAP1 REVERT JUMPDEST ADD MLOAD SWAP1 POP CODESIZE DUP1 PUSH3 0xB8 JUMP JUMPDEST DUP5 DUP1 MSTORE DUP11 DUP6 KECCAK256 DUP10 SWAP5 POP SWAP2 SWAP1 PUSH1 0x1F NOT DUP5 AND DUP7 JUMPDEST DUP14 DUP3 DUP3 LT PUSH3 0x2A7 JUMPI POP POP DUP5 GT PUSH3 0x28D JUMPI JUMPDEST POP POP POP DUP2 SHL ADD DUP2 SSTORE PUSH3 0xCC JUMP JUMPDEST ADD MLOAD PUSH1 0x0 NOT PUSH1 0xF8 DUP5 PUSH1 0x3 SHL AND SHR NOT AND SWAP1 SSTORE CODESIZE DUP1 DUP1 PUSH3 0x27F JUMP JUMPDEST DUP4 DUP6 ADD MLOAD DUP7 SSTORE DUP13 SWAP8 SWAP1 SWAP6 ADD SWAP5 SWAP4 DUP5 ADD SWAP4 ADD PUSH3 0x26C JUMP JUMPDEST SWAP1 SWAP2 POP DUP4 DUP1 MSTORE DUP10 DUP5 KECCAK256 DUP7 DUP1 DUP6 ADD PUSH1 0x5 SHR DUP3 ADD SWAP3 DUP13 DUP7 LT PUSH3 0x307 JUMPI JUMPDEST SWAP2 DUP11 SWAP2 DUP7 SWAP6 SWAP5 SWAP4 ADD PUSH1 0x5 SHR ADD SWAP2 JUMPDEST DUP3 DUP2 LT PUSH3 0x2F8 JUMPI POP POP PUSH3 0xA2 JUMP JUMPDEST DUP7 DUP2 SSTORE DUP6 SWAP5 POP DUP11 SWAP2 ADD PUSH3 0x2E8 JUMP JUMPDEST SWAP3 POP DUP2 SWAP3 PUSH3 0x2DA JUMP JUMPDEST PUSH4 0x4E487B71 PUSH1 0xE0 SHL DUP4 MSTORE PUSH1 0x22 PUSH1 0x4 MSTORE PUSH1 0x24 DUP4 REVERT JUMPDEST SWAP5 PUSH1 0x7F AND SWAP5 PUSH3 0x8B JUMP JUMPDEST PUSH4 0x4E487B71 PUSH1 0xE0 SHL PUSH1 0x0 MSTORE PUSH1 0x41 PUSH1 0x4 MSTORE PUSH1 0x24 PUSH1 0x0 REVERT JUMPDEST PUSH1 0x0 DUP1 REVERT JUMPDEST PUSH1 0x1 PUSH1 0x1 PUSH1 0xA0 SHL SUB AND PUSH1 0x0 DUP2 DUP2 MSTORE PUSH32 0x6D5257204EBE7D88FD91AE87941CB2DD9D8062B64AE5A2BD2D28EC40B9FBF6DF PUSH1 0x20 MSTORE PUSH1 0x40 DUP2 KECCAK256 SLOAD SWAP1 SWAP2 SWAP1 PUSH1 0xFF AND PUSH3 0x3C8 JUMPI DUP2 DUP1 MSTORE PUSH1 0x7 PUSH1 0x20 MSTORE PUSH1 0x40 DUP3 KECCAK256 DUP2 DUP4 MSTORE PUSH1 0x20 MSTORE PUSH1 0x40 DUP3 KECCAK256 PUSH1 0x1 PUSH1 0xFF NOT DUP3 SLOAD AND OR SWAP1 SSTORE CALLER SWAP2 PUSH1 0x0 DUP1 MLOAD PUSH1 0x20 PUSH3 0x326C DUP4 CODECOPY DUP2 MLOAD SWAP2 MSTORE DUP2 DUP1 LOG4 PUSH1 0x1 SWAP1 JUMP JUMPDEST POP SWAP1 JUMP JUMPDEST PUSH1 0x1 PUSH1 0x1 PUSH1 0xA0 SHL SUB AND PUSH1 0x0 DUP2 DUP2 MSTORE PUSH32 0xA70365933F78520EF41D6645BA61E509916296603327302D41466C063E8E2608 PUSH1 0x20 MSTORE PUSH1 0x40 DUP2 KECCAK256 SLOAD SWAP1 SWAP2 SWAP1 PUSH32 0xA49807205CE4D355092EF5A8A18F56E8913CF4A201FBE287825B095693C21775 SWAP1 PUSH1 0xFF AND PUSH3 0x46A JUMPI DUP1 DUP4 MSTORE PUSH1 0x7 PUSH1 0x20 MSTORE PUSH1 0x40 DUP4 KECCAK256 DUP3 DUP5 MSTORE PUSH1 0x20 MSTORE PUSH1 0x40 DUP4 KECCAK256 PUSH1 0x1 PUSH1 0xFF NOT DUP3 SLOAD AND OR SWAP1 SSTORE PUSH1 0x0 DUP1 MLOAD PUSH1 0x20 PUSH3 0x326C DUP4 CODECOPY DUP2 MLOAD SWAP2 MSTORE CALLER SWAP4 DUP1 LOG4 PUSH1 0x1 SWAP1 JUMP JUMPDEST POP POP SWAP1 JUMP JUMPDEST PUSH1 0x1 PUSH1 0x1 PUSH1 0xA0 SHL SUB AND PUSH1 0x0 DUP2 DUP2 MSTORE PUSH32 0xA4BFD7AFE708E2E87E7F0E2AD9B4D545417E0F795F57B5C5AB5D799C565A04F4 PUSH1 0x20 MSTORE PUSH1 0x40 DUP2 KECCAK256 SLOAD SWAP1 SWAP2 SWAP1 PUSH32 0x9F2DF0FED2C77648DE5860A4CC508CD0818C85B8B8A1AB4CEEEF8D981C8956A6 SWAP1 PUSH1 0xFF AND PUSH3 0x46A JUMPI DUP1 DUP4 MSTORE PUSH1 0x7 PUSH1 0x20 MSTORE PUSH1 0x40 DUP4 KECCAK256 DUP3 DUP5 MSTORE PUSH1 0x20 MSTORE PUSH1 0x40 DUP4 KECCAK256 PUSH1 0x1 PUSH1 0xFF NOT DUP3 SLOAD AND OR SWAP1 SSTORE PUSH1 0x0 DUP1 MLOAD PUSH1 0x20 PUSH3 0x326C DUP4 CODECOPY DUP2 MLOAD SWAP2 MSTORE CALLER SWAP4 DUP1 LOG4 PUSH1 0x1 SWAP1 JUMP INVALID PUSH1 0x80 DUP1 PUSH1 0x40 MSTORE PUSH1 0x4 CALLDATASIZE LT ISZERO PUSH2 0x13 JUMPI PUSH1 0x0 DUP1 REVERT JUMPDEST PUSH1 0x0 CALLDATALOAD PUSH1 0xE0 SHR SWAP1 DUP2 PUSH4 0x1FFC9A7 EQ PUSH2 0x1D70 JUMPI POP DUP1 PUSH4 0x6F5497E EQ PUSH2 0x1CB3 JUMPI DUP1 PUSH4 0x6FDDE03 EQ PUSH2 0x1C10 JUMPI DUP1 PUSH4 0x81812FC EQ PUSH2 0x1BD2 JUMPI DUP1 PUSH4 0x95EA7B3 EQ PUSH2 0x1AEB JUMPI DUP1 PUSH4 0x1692A942 EQ PUSH2 0x1AA0 JUMPI DUP1 PUSH4 0x23B872DD EQ PUSH2 0x1A89 JUMPI DUP1 PUSH4 0x248A9CA3 EQ PUSH2 0x1A5A JUMPI DUP1 PUSH4 0x2F2FF15D EQ PUSH2 0x1A1B JUMPI DUP1 PUSH4 0x36568ABE EQ PUSH2 0x19D4 JUMPI DUP1 PUSH4 0x3F4BA83A EQ PUSH2 0x196A JUMPI DUP1 PUSH4 0x42842E0E EQ PUSH2 0x193C JUMPI DUP1 PUSH4 0x4615BFE1 EQ PUSH2 0x17D3 JUMPI DUP1 PUSH4 0x55F804B3 EQ PUSH2 0x1692 JUMPI DUP1 PUSH4 0x5C975ABB EQ PUSH2 0x166F JUMPI DUP1 PUSH4 0x6352211E EQ PUSH2 0x163F JUMPI DUP1 PUSH4 0x6D343DA1 EQ PUSH2 0x15DD JUMPI DUP1 PUSH4 0x70A08231 EQ PUSH2 0x1584 JUMPI DUP1 PUSH4 0x75B238FC EQ PUSH2 0x155B JUMPI DUP1 PUSH4 0x7AC2A300 EQ PUSH2 0x152F JUMPI DUP1 PUSH4 0x8456CB59 EQ PUSH2 0x14D5 JUMPI DUP1 PUSH4 0x91D14854 EQ PUSH2 0x1488 JUMPI DUP1 PUSH4 0x929C01FD EQ PUSH2 0x13DE JUMPI DUP1 PUSH4 0x95D89B41 EQ PUSH2 0x132D JUMPI DUP1 PUSH4 0x98182274 EQ PUSH2 0xEB2 JUMPI DUP1 PUSH4 0x9D952CD1 EQ PUSH2 0xD30 JUMPI DUP1 PUSH4 0xA217FDDF EQ PUSH2 0xD14 JUMPI DUP1 PUSH4 0xA22CB465 EQ PUSH2 0xC6F JUMPI DUP1 PUSH4 0xA85E9A7C EQ PUSH2 0x8DE JUMPI DUP1 PUSH4 0xB88D4FDE EQ PUSH2 0x873 JUMPI DUP1 PUSH4 0xBD1F5F31 EQ PUSH2 0x834 JUMPI DUP1 PUSH4 0xC3934F0E EQ PUSH2 0x7DC JUMPI DUP1 PUSH4 0xC87B56DD EQ PUSH2 0x7A5 JUMPI DUP1 PUSH4 0xCFDBF254 EQ PUSH2 0x789 JUMPI DUP1 PUSH4 0xD5391393 EQ PUSH2 0x760 JUMPI DUP1 PUSH4 0xD547741F EQ PUSH2 0x71F JUMPI DUP1 PUSH4 0xE39AE76D EQ PUSH2 0x30F JUMPI DUP1 PUSH4 0xE7705DB6 EQ PUSH2 0x2E6 JUMPI DUP1 PUSH4 0xE985E9C5 EQ PUSH2 0x290 JUMPI PUSH4 0xEBC63BC0 EQ PUSH2 0x1D7 JUMPI PUSH1 0x0 DUP1 REVERT JUMPDEST CALLVALUE PUSH2 0x28B JUMPI PUSH1 0x20 DUP1 PUSH1 0x3 NOT CALLDATASIZE ADD SLT PUSH2 0x28B JUMPI PUSH1 0x1 PUSH1 0x1 PUSH1 0xA0 SHL SUB PUSH2 0x1F9 PUSH2 0x1E57 JUMP JUMPDEST AND PUSH1 0x0 MSTORE PUSH1 0xC DUP2 MSTORE PUSH1 0x40 PUSH1 0x0 KECCAK256 PUSH1 0x40 MLOAD SWAP1 DUP2 DUP4 DUP3 SLOAD SWAP2 DUP3 DUP2 MSTORE ADD SWAP1 DUP2 SWAP3 PUSH1 0x0 MSTORE DUP5 PUSH1 0x0 KECCAK256 SWAP1 PUSH1 0x0 JUMPDEST DUP7 DUP3 DUP3 LT PUSH2 0x277 JUMPI DUP7 DUP7 PUSH2 0x237 DUP3 DUP9 SUB DUP4 PUSH2 0x1F2B JUMP JUMPDEST PUSH1 0x40 MLOAD SWAP3 DUP4 SWAP3 DUP2 DUP5 ADD SWAP1 DUP3 DUP6 MSTORE MLOAD DUP1 SWAP2 MSTORE PUSH1 0x40 DUP5 ADD SWAP3 SWAP2 PUSH1 0x0 JUMPDEST DUP3 DUP2 LT PUSH2 0x260 JUMPI POP POP POP POP SUB SWAP1 RETURN JUMPDEST DUP4 MLOAD DUP6 MSTORE DUP7 SWAP6 POP SWAP4 DUP2 ADD SWAP4 SWAP3 DUP2 ADD SWAP3 PUSH1 0x1 ADD PUSH2 0x251 JUMP JUMPDEST DUP4 SLOAD DUP6 MSTORE SWAP1 SWAP4 ADD SWAP3 PUSH1 0x1 SWAP3 DUP4 ADD SWAP3 ADD PUSH2 0x221 JUMP JUMPDEST PUSH1 0x0 DUP1 REVERT JUMPDEST CALLVALUE PUSH2 0x28B JUMPI PUSH1 0x40 CALLDATASIZE PUSH1 0x3 NOT ADD SLT PUSH2 0x28B JUMPI PUSH2 0x2A9 PUSH2 0x1E57 JUMP JUMPDEST PUSH2 0x2B1 PUSH2 0x1E6D JUMP JUMPDEST SWAP1 PUSH1 0x1 DUP1 PUSH1 0xA0 SHL SUB DUP1 SWAP2 AND PUSH1 0x0 MSTORE PUSH1 0x5 PUSH1 0x20 MSTORE PUSH1 0x40 PUSH1 0x0 KECCAK256 SWAP2 AND PUSH1 0x0 MSTORE PUSH1 0x20 MSTORE PUSH1 0x20 PUSH1 0xFF PUSH1 0x40 PUSH1 0x0 KECCAK256 SLOAD AND PUSH1 0x40 MLOAD SWAP1 ISZERO ISZERO DUP2 MSTORE RETURN JUMPDEST CALLVALUE PUSH2 0x28B JUMPI PUSH1 0x0 CALLDATASIZE PUSH1 0x3 NOT ADD SLT PUSH2 0x28B JUMPI PUSH1 0x20 PUSH1 0x40 MLOAD PUSH1 0x0 DUP1 MLOAD PUSH1 0x20 PUSH2 0x2CE9 DUP4 CODECOPY DUP2 MLOAD SWAP2 MSTORE DUP2 MSTORE RETURN JUMPDEST CALLVALUE PUSH2 0x28B JUMPI PUSH1 0xA0 CALLDATASIZE PUSH1 0x3 NOT ADD SLT PUSH2 0x28B JUMPI PUSH2 0x328 PUSH2 0x1E57 JUMP JUMPDEST PUSH1 0x1 PUSH1 0x1 PUSH1 0x40 SHL SUB PUSH1 0x24 CALLDATALOAD DUP2 DUP2 GT PUSH2 0x28B JUMPI PUSH2 0x348 SWAP1 CALLDATASIZE SWAP1 PUSH1 0x4 ADD PUSH2 0x1FDE JUMP JUMPDEST PUSH1 0x44 CALLDATALOAD DUP4 DUP2 GT PUSH2 0x28B JUMPI PUSH2 0x360 SWAP1 CALLDATASIZE SWAP1 PUSH1 0x4 ADD PUSH2 0x1EC5 JUMP JUMPDEST POP POP PUSH1 0x64 CALLDATALOAD DUP4 DUP2 GT PUSH2 0x28B JUMPI PUSH2 0x37A SWAP1 CALLDATASIZE SWAP1 PUSH1 0x4 ADD PUSH2 0x1EC5 JUMP JUMPDEST POP POP PUSH1 0x84 CALLDATALOAD DUP4 DUP2 GT PUSH2 0x28B JUMPI PUSH2 0x394 SWAP1 CALLDATASIZE SWAP1 PUSH1 0x4 ADD PUSH2 0x1FDE JUMP JUMPDEST SWAP3 SWAP1 SWAP2 PUSH2 0x39F PUSH2 0x2083 JUMP JUMPDEST PUSH2 0x3A7 PUSH2 0x2762 JUMP JUMPDEST PUSH1 0x1 PUSH1 0x1 PUSH1 0xA0 SHL SUB SWAP5 DUP7 DUP7 AND SWAP1 DUP2 ISZERO PUSH2 0x70D JUMPI DUP6 ISZERO PUSH2 0x70D JUMPI PUSH1 0x40 MLOAD SWAP8 DUP7 DUP7 DUP11 CALLDATACOPY PUSH1 0xFF DUP10 DUP9 DUP2 ADD PUSH1 0xD DUP2 MSTORE PUSH1 0x20 SWAP12 DUP13 SWAP2 SUB ADD SWAP1 KECCAK256 SLOAD AND PUSH2 0x6FB JUMPI PUSH2 0x3EC PUSH1 0x9 SLOAD PUSH2 0x26A8 JUMP JUMPDEST SWAP8 DUP9 PUSH1 0x9 SSTORE PUSH1 0x40 MLOAD SWAP1 PUSH2 0x3FE DUP3 PUSH2 0x1F10 JUMP JUMPDEST PUSH1 0x0 DUP3 MSTORE PUSH2 0x40C DUP11 DUP5 PUSH2 0x239E JUMP JUMPDEST AND PUSH2 0x6E2 JUMPI DUP9 PUSH2 0x41B SWAP3 PUSH2 0x248E JUMP JUMPDEST PUSH2 0x426 CALLDATASIZE DUP8 DUP8 PUSH2 0x1F69 JUMP JUMPDEST SWAP1 DUP8 PUSH1 0x0 MSTORE PUSH1 0x6 DUP10 MSTORE PUSH1 0x40 PUSH1 0x0 KECCAK256 SWAP2 DUP1 MLOAD SWAP2 DUP3 GT PUSH2 0x5F5 JUMPI DUP2 SWAP1 PUSH2 0x44A DUP5 SLOAD PUSH2 0x21EA JUMP JUMPDEST PUSH1 0x1F DUP2 GT PUSH2 0x691 JUMPI JUMPDEST POP DUP11 SWAP1 PUSH1 0x1F DUP4 GT PUSH1 0x1 EQ PUSH2 0x62C JUMPI PUSH1 0x0 SWAP3 PUSH2 0x621 JUMPI JUMPDEST POP POP DUP2 PUSH1 0x1 SHL SWAP2 PUSH1 0x0 NOT SWAP1 PUSH1 0x3 SHL SHR NOT AND OR SWAP1 SSTORE JUMPDEST PUSH1 0x0 DUP1 MLOAD PUSH1 0x20 PUSH2 0x2D09 DUP4 CODECOPY DUP2 MLOAD SWAP2 MSTORE DUP8 PUSH1 0x40 MLOAD DUP9 DUP2 MSTORE LOG1 PUSH1 0x40 MLOAD SWAP4 PUSH2 0x4A2 DUP6 PUSH2 0x1EF5 JUMP JUMPDEST PUSH1 0x3 DUP6 MSTORE DUP8 DUP6 ADD SWAP5 PUSH1 0x0 DUP7 MSTORE PUSH1 0x40 DUP2 ADD SWAP6 CALLER DUP8 MSTORE PUSH1 0x60 DUP3 ADD TIMESTAMP DUP2 MSTORE DUP10 PUSH1 0x0 MSTORE PUSH1 0xB DUP12 MSTORE PUSH1 0x40 PUSH1 0x0 KECCAK256 SWAP3 MLOAD SWAP8 PUSH1 0x4 DUP10 LT ISZERO PUSH2 0x60B JUMPI PUSH2 0x4F4 PUSH1 0x1 SWAP4 PUSH1 0xFF NOT SWAP11 PUSH1 0xFF DUP13 DUP9 SLOAD AND SWAP2 AND OR DUP7 SSTORE MLOAD ISZERO ISZERO DUP6 PUSH2 0x2780 JUMP JUMPDEST MLOAD DUP4 SLOAD PUSH2 0xFFFF NOT PUSH1 0xB0 DUP6 SWAP1 SHL ADD DUP1 NOT SWAP1 SWAP2 AND PUSH1 0x10 SWAP3 SWAP1 SWAP3 SHL AND OR DUP4 SSTORE MLOAD SWAP2 ADD SSTORE PUSH1 0x0 DUP3 DUP2 MSTORE PUSH1 0xC DUP10 MSTORE PUSH1 0x40 SWAP1 KECCAK256 DUP1 SLOAD SWAP1 SWAP2 PUSH1 0x1 PUSH1 0x40 SHL DUP3 LT ISZERO PUSH2 0x5F5 JUMPI DUP9 SWAP8 PUSH32 0xE2B824529F30971393CA403CF982A1C34EEA2DCC4E03BC330E8A4E42D532EF3A SWAP8 PUSH2 0x592 DUP11 PUSH2 0x579 DUP7 DUP3 SWAP9 PUSH1 0x1 PUSH1 0x0 DUP1 MLOAD PUSH1 0x20 PUSH2 0x2C69 DUP4 CODECOPY DUP2 MLOAD SWAP2 MSTORE SWAP10 ADD DUP2 SSTORE PUSH2 0x200B JUMP JUMPDEST SWAP1 SWAP2 SWAP1 DUP3 SLOAD SWAP1 PUSH1 0x3 SHL SWAP2 DUP3 SHL SWAP2 PUSH1 0x0 NOT SWAP1 SHL NOT AND OR SWAP1 SSTORE JUMP JUMPDEST PUSH1 0x1 PUSH1 0x40 MLOAD DUP4 DUP6 DUP3 CALLDATACOPY DUP14 DUP2 DUP6 DUP2 ADD PUSH1 0xD DUP2 MSTORE SUB ADD SWAP1 KECCAK256 SWAP2 DUP3 SLOAD AND OR SWAP1 SSTORE PUSH2 0x5C6 PUSH1 0x40 MLOAD SWAP3 DUP4 SWAP3 PUSH1 0x60 DUP5 MSTORE PUSH1 0x60 DUP5 ADD SWAP2 PUSH2 0x271A JUMP JUMPDEST PUSH1 0x3 DUP13 DUP4 ADD MSTORE TIMESTAMP PUSH1 0x40 DUP4 ADD MSTORE SUB SWAP1 LOG3 PUSH2 0x5EA PUSH1 0x40 MLOAD SWAP3 DUP4 SWAP3 DUP9 DUP5 MSTORE DUP9 DUP5 ADD SWAP2 PUSH2 0x271A JUMP JUMPDEST SUB SWAP1 LOG2 PUSH1 0x40 MLOAD SWAP1 DUP2 MSTORE RETURN JUMPDEST PUSH4 0x4E487B71 PUSH1 0xE0 SHL PUSH1 0x0 MSTORE PUSH1 0x41 PUSH1 0x4 MSTORE PUSH1 0x24 PUSH1 0x0 REVERT JUMPDEST PUSH4 0x4E487B71 PUSH1 0xE0 SHL PUSH1 0x0 MSTORE PUSH1 0x21 PUSH1 0x4 MSTORE PUSH1 0x24 PUSH1 0x0 REVERT JUMPDEST ADD MLOAD SWAP1 POP DUP11 DUP1 PUSH2 0x469 JUMP JUMPDEST PUSH1 0x0 DUP6 DUP2 MSTORE DUP13 DUP2 KECCAK256 SWAP4 POP PUSH1 0x1F NOT DUP6 AND SWAP1 JUMPDEST DUP14 DUP3 DUP3 LT PUSH2 0x67B JUMPI POP POP SWAP1 DUP5 PUSH1 0x1 SWAP6 SWAP5 SWAP4 SWAP3 LT PUSH2 0x662 JUMPI JUMPDEST POP POP POP DUP2 SHL ADD SWAP1 SSTORE PUSH2 0x47E JUMP JUMPDEST ADD MLOAD PUSH1 0x0 NOT PUSH1 0xF8 DUP5 PUSH1 0x3 SHL AND SHR NOT AND SWAP1 SSTORE DUP11 DUP1 DUP1 PUSH2 0x655 JUMP JUMPDEST PUSH1 0x1 DUP6 SWAP7 DUP3 SWAP4 SWAP7 DUP7 ADD MLOAD DUP2 SSTORE ADD SWAP6 ADD SWAP4 ADD PUSH2 0x63D JUMP JUMPDEST SWAP1 SWAP2 POP DUP4 PUSH1 0x0 MSTORE DUP11 PUSH1 0x0 KECCAK256 PUSH1 0x1F DUP5 ADD PUSH1 0x5 SHR DUP2 ADD SWAP2 DUP13 DUP6 LT PUSH2 0x6D8 JUMPI JUMPDEST SWAP1 PUSH1 0x1F DUP6 SWAP5 SWAP4 SWAP3 ADD PUSH1 0x5 SHR ADD SWAP1 JUMPDEST DUP2 DUP2 LT PUSH2 0x6C9 JUMPI POP PUSH2 0x453 JUMP JUMPDEST PUSH1 0x0 DUP2 SSTORE DUP5 SWAP4 POP PUSH1 0x1 ADD PUSH2 0x6BC JUMP JUMPDEST SWAP1 SWAP2 POP DUP2 SWAP1 PUSH2 0x6AE JUMP JUMPDEST PUSH1 0x40 MLOAD PUSH4 0x39E35637 PUSH1 0xE1 SHL DUP2 MSTORE PUSH1 0x0 PUSH1 0x4 DUP3 ADD MSTORE PUSH1 0x24 SWAP1 REVERT JUMPDEST PUSH1 0x40 MLOAD PUSH4 0x119B4FD3 PUSH1 0xE1 SHL DUP2 MSTORE PUSH1 0x4 SWAP1 REVERT JUMPDEST PUSH1 0x40 MLOAD PUSH4 0xB4FA3FB3 PUSH1 0xE0 SHL DUP2 MSTORE PUSH1 0x4 SWAP1 REVERT JUMPDEST CALLVALUE PUSH2 0x28B JUMPI PUSH1 0x40 CALLDATASIZE PUSH1 0x3 NOT ADD SLT PUSH2 0x28B JUMPI PUSH2 0x75E PUSH1 0x4 CALLDATALOAD PUSH2 0x73E PUSH2 0x1E6D JUMP JUMPDEST SWAP1 DUP1 PUSH1 0x0 MSTORE PUSH1 0x7 PUSH1 0x20 MSTORE PUSH2 0x759 PUSH1 0x1 PUSH1 0x40 PUSH1 0x0 KECCAK256 ADD SLOAD PUSH2 0x20CD JUMP JUMPDEST PUSH2 0x2173 JUMP JUMPDEST STOP JUMPDEST CALLVALUE PUSH2 0x28B JUMPI PUSH1 0x0 CALLDATASIZE PUSH1 0x3 NOT ADD SLT PUSH2 0x28B JUMPI PUSH1 0x20 PUSH1 0x40 MLOAD PUSH1 0x0 DUP1 MLOAD PUSH1 0x20 PUSH2 0x2C89 DUP4 CODECOPY DUP2 MLOAD SWAP2 MSTORE DUP2 MSTORE RETURN JUMPDEST CALLVALUE PUSH2 0x28B JUMPI PUSH1 0x0 CALLDATASIZE PUSH1 0x3 NOT ADD SLT PUSH2 0x28B JUMPI PUSH1 0x20 PUSH1 0x40 MLOAD PUSH1 0x32 DUP2 MSTORE RETURN JUMPDEST CALLVALUE PUSH2 0x28B JUMPI PUSH1 0x20 CALLDATASIZE PUSH1 0x3 NOT ADD SLT PUSH2 0x28B JUMPI PUSH2 0x7D8 PUSH2 0x7C4 PUSH1 0x4 CALLDATALOAD PUSH2 0x2B83 JUMP JUMPDEST PUSH1 0x40 MLOAD SWAP2 DUP3 SWAP2 PUSH1 0x20 DUP4 MSTORE PUSH1 0x20 DUP4 ADD SWAP1 PUSH2 0x1E32 JUMP JUMPDEST SUB SWAP1 RETURN JUMPDEST CALLVALUE PUSH2 0x28B JUMPI PUSH1 0x40 CALLDATASIZE PUSH1 0x3 NOT ADD SLT PUSH2 0x28B JUMPI PUSH2 0x7F5 PUSH2 0x1E57 JUMP JUMPDEST PUSH1 0x1 PUSH1 0x1 PUSH1 0xA0 SHL SUB AND PUSH1 0x0 SWAP1 DUP2 MSTORE PUSH1 0xC PUSH1 0x20 MSTORE PUSH1 0x40 SWAP1 KECCAK256 DUP1 SLOAD PUSH1 0x24 CALLDATALOAD SWAP2 SWAP1 DUP3 LT ISZERO PUSH2 0x28B JUMPI PUSH1 0x20 SWAP2 PUSH2 0x826 SWAP2 PUSH2 0x200B JUMP JUMPDEST SWAP1 SLOAD PUSH1 0x40 MLOAD SWAP2 PUSH1 0x3 SHL SHR DUP2 MSTORE RETURN JUMPDEST CALLVALUE PUSH2 0x28B JUMPI PUSH1 0x20 PUSH1 0xFF PUSH2 0x85D DUP3 PUSH2 0x84A CALLDATASIZE PUSH2 0x1FA0 JUMP JUMPDEST DUP2 PUSH1 0x40 MLOAD SWAP4 DUP3 DUP6 DUP1 SWAP5 MLOAD SWAP4 DUP5 SWAP3 ADD PUSH2 0x1E0F JUMP JUMPDEST DUP2 ADD PUSH1 0xD DUP2 MSTORE SUB ADD SWAP1 KECCAK256 SLOAD AND PUSH1 0x40 MLOAD SWAP1 ISZERO ISZERO DUP2 MSTORE RETURN JUMPDEST CALLVALUE PUSH2 0x28B JUMPI PUSH1 0x80 CALLDATASIZE PUSH1 0x3 NOT ADD SLT PUSH2 0x28B JUMPI PUSH2 0x88C PUSH2 0x1E57 JUMP JUMPDEST PUSH2 0x894 PUSH2 0x1E6D JUMP JUMPDEST PUSH1 0x64 CALLDATALOAD SWAP2 SWAP1 PUSH1 0x44 CALLDATALOAD SWAP1 PUSH1 0x1 PUSH1 0x1 PUSH1 0x40 SHL SUB DUP5 GT PUSH2 0x28B JUMPI CALLDATASIZE PUSH1 0x23 DUP6 ADD SLT ISZERO PUSH2 0x28B JUMPI PUSH2 0x8CD PUSH2 0x75E SWAP5 CALLDATASIZE SWAP1 PUSH1 0x24 DUP2 PUSH1 0x4 ADD CALLDATALOAD SWAP2 ADD PUSH2 0x1F69 JUMP JUMPDEST SWAP3 PUSH2 0x8D9 DUP4 DUP4 DUP4 PUSH2 0x2224 JUMP JUMPDEST PUSH2 0x25C2 JUMP JUMPDEST CALLVALUE PUSH2 0x28B JUMPI PUSH1 0xA0 CALLDATASIZE PUSH1 0x3 NOT ADD SLT PUSH2 0x28B JUMPI PUSH2 0x8F7 PUSH2 0x1E57 JUMP JUMPDEST PUSH1 0x1 PUSH1 0x1 PUSH1 0x40 SHL SUB PUSH1 0x24 CALLDATALOAD DUP2 DUP2 GT PUSH2 0x28B JUMPI PUSH2 0x917 SWAP1 CALLDATASIZE SWAP1 PUSH1 0x4 ADD PUSH2 0x1FDE JUMP JUMPDEST SWAP3 SWAP1 PUSH1 0x44 CALLDATALOAD DUP4 DUP2 GT PUSH2 0x28B JUMPI PUSH2 0x931 SWAP1 CALLDATASIZE SWAP1 PUSH1 0x4 ADD PUSH2 0x1FDE JUMP JUMPDEST SWAP5 SWAP1 SWAP2 PUSH1 0x64 CALLDATALOAD DUP6 DUP2 GT PUSH2 0x28B JUMPI PUSH2 0x94C SWAP1 CALLDATASIZE SWAP1 PUSH1 0x4 ADD PUSH2 0x1FDE JUMP JUMPDEST SWAP5 SWAP1 SWAP7 PUSH1 0x84 CALLDATALOAD DUP8 DUP2 GT PUSH2 0x28B JUMPI PUSH2 0x967 SWAP1 CALLDATASIZE SWAP1 PUSH1 0x4 ADD PUSH2 0x1EC5 JUMP JUMPDEST POP POP PUSH2 0x971 PUSH2 0x2083 JUMP JUMPDEST PUSH2 0x979 PUSH2 0x2762 JUMP JUMPDEST PUSH1 0x1 PUSH1 0x1 PUSH1 0xA0 SHL SUB SWAP5 DUP3 DUP7 AND ISZERO PUSH2 0x70D JUMPI DUP7 ISZERO PUSH2 0x70D JUMPI PUSH1 0xFF PUSH1 0x40 MLOAD DUP9 DUP12 DUP3 CALLDATACOPY PUSH1 0x20 DUP2 DUP11 DUP2 ADD PUSH1 0xD DUP2 MSTORE SUB ADD SWAP1 KECCAK256 SLOAD AND PUSH2 0x6FB JUMPI PUSH2 0x9B8 PUSH1 0x9 SLOAD PUSH2 0x26A8 JUMP JUMPDEST SWAP8 DUP9 PUSH1 0x9 SSTORE PUSH1 0x40 MLOAD PUSH2 0x9C9 DUP2 PUSH2 0x1F10 JUMP JUMPDEST PUSH1 0x0 DUP2 MSTORE DUP8 PUSH2 0x9D8 DUP12 DUP8 PUSH2 0x239E JUMP JUMPDEST AND PUSH2 0x6E2 JUMPI PUSH2 0x9E8 SWAP1 DUP11 DUP7 PUSH2 0x248E JUMP JUMPDEST PUSH2 0x9F3 CALLDATASIZE DUP10 DUP13 PUSH2 0x1F69 JUMP JUMPDEST SWAP1 DUP10 PUSH1 0x0 MSTORE PUSH1 0x6 PUSH1 0x20 MSTORE PUSH1 0x40 PUSH1 0x0 KECCAK256 SWAP2 DUP1 MLOAD SWAP2 DUP3 GT PUSH2 0x5F5 JUMPI DUP2 SWAP1 PUSH2 0xA18 DUP5 SLOAD PUSH2 0x21EA JUMP JUMPDEST PUSH1 0x1F DUP2 GT PUSH2 0xC1F JUMPI JUMPDEST POP PUSH1 0x20 SWAP1 PUSH1 0x1F DUP4 GT PUSH1 0x1 EQ PUSH2 0xBB3 JUMPI PUSH1 0x0 SWAP3 PUSH2 0xBA8 JUMPI JUMPDEST POP POP DUP2 PUSH1 0x1 SHL SWAP2 PUSH1 0x0 NOT SWAP1 PUSH1 0x3 SHL SHR NOT AND OR SWAP1 SSTORE JUMPDEST PUSH1 0x0 DUP1 MLOAD PUSH1 0x20 PUSH2 0x2D09 DUP4 CODECOPY DUP2 MLOAD SWAP2 MSTORE PUSH1 0x20 PUSH1 0x40 MLOAD DUP11 DUP2 MSTORE LOG1 PUSH1 0x40 MLOAD SWAP3 PUSH2 0xA72 DUP5 PUSH2 0x1EF5 JUMP JUMPDEST PUSH1 0x2 DUP5 MSTORE PUSH1 0x20 DUP5 ADD SWAP4 PUSH1 0x0 DUP6 MSTORE PUSH1 0x40 DUP2 ADD SWAP5 CALLER DUP7 MSTORE PUSH1 0x60 DUP3 ADD TIMESTAMP DUP2 MSTORE DUP12 PUSH1 0x0 MSTORE PUSH1 0xB PUSH1 0x20 MSTORE PUSH1 0x40 PUSH1 0x0 KECCAK256 SWAP3 MLOAD SWAP7 PUSH1 0x4 DUP9 LT ISZERO PUSH2 0x60B JUMPI PUSH2 0xAC6 PUSH1 0x1 SWAP4 PUSH1 0xFF NOT SWAP10 PUSH1 0xFF DUP12 DUP9 SLOAD AND SWAP2 AND OR DUP7 SSTORE MLOAD ISZERO ISZERO DUP6 PUSH2 0x2780 JUMP JUMPDEST MLOAD DUP4 SLOAD PUSH2 0xFFFF NOT PUSH1 0xB0 DUP6 SWAP1 SHL ADD DUP1 NOT SWAP1 SWAP2 AND PUSH1 0x10 SWAP3 SWAP1 SWAP3 SHL AND OR DUP4 SSTORE MLOAD SWAP2 ADD SSTORE DUP1 DUP8 AND PUSH1 0x0 SWAP1 DUP2 MSTORE PUSH1 0xC PUSH1 0x20 MSTORE PUSH1 0x40 SWAP1 KECCAK256 DUP1 SLOAD PUSH1 0x1 PUSH1 0x40 SHL DUP2 LT ISZERO PUSH2 0x5F5 JUMPI PUSH1 0x20 SWAP12 DUP12 SWAP11 PUSH32 0x1603CF70C43FEFC5DA4CE8F81DD75514200996955D71930085DF72741AC05B6F SWAP11 PUSH2 0x5EA SWAP9 PUSH2 0xB54 DUP15 PUSH2 0x579 DUP8 DUP3 SWAP10 PUSH1 0x1 PUSH1 0x0 DUP1 MLOAD PUSH1 0x20 PUSH2 0x2C69 DUP4 CODECOPY DUP2 MLOAD SWAP2 MSTORE SWAP11 ADD DUP2 SSTORE PUSH2 0x200B JUMP JUMPDEST PUSH1 0x1 PUSH1 0x40 MLOAD DUP5 DUP7 DUP3 CALLDATACOPY PUSH1 0x20 DUP2 DUP7 DUP2 ADD PUSH1 0xD DUP2 MSTORE SUB ADD SWAP1 KECCAK256 SWAP2 DUP3 SLOAD AND OR SWAP1 SSTORE PUSH2 0xB89 PUSH1 0x40 MLOAD SWAP4 DUP5 SWAP4 PUSH1 0x60 DUP6 MSTORE PUSH1 0x60 DUP6 ADD SWAP2 PUSH2 0x271A JUMP JUMPDEST SWAP6 DUP16 PUSH1 0x2 SWAP1 DUP5 ADD MSTORE TIMESTAMP PUSH1 0x40 DUP5 ADD MSTORE AND SWAP5 SUB SWAP1 LOG3 PUSH1 0x40 MLOAD SWAP5 DUP6 SWAP5 DUP6 PUSH2 0x273B JUMP JUMPDEST ADD MLOAD SWAP1 POP DUP13 DUP1 PUSH2 0xA38 JUMP JUMPDEST SWAP3 POP DUP4 PUSH1 0x0 MSTORE PUSH1 0x20 PUSH1 0x0 KECCAK256 SWAP1 PUSH1 0x0 SWAP4 JUMPDEST PUSH1 0x1F NOT DUP5 AND DUP6 LT PUSH2 0xC04 JUMPI PUSH1 0x1 SWAP5 POP DUP4 PUSH1 0x1F NOT DUP2 AND LT PUSH2 0xBEB JUMPI JUMPDEST POP POP POP DUP2 SHL ADD SWAP1 SSTORE PUSH2 0xA4D JUMP JUMPDEST ADD MLOAD PUSH1 0x0 NOT PUSH1 0xF8 DUP5 PUSH1 0x3 SHL AND SHR NOT AND SWAP1 SSTORE DUP13 DUP1 DUP1 PUSH2 0xBDE JUMP JUMPDEST DUP2 DUP2 ADD MLOAD DUP4 SSTORE PUSH1 0x20 SWAP5 DUP6 ADD SWAP5 PUSH1 0x1 SWAP1 SWAP4 ADD SWAP3 SWAP1 SWAP2 ADD SWAP1 PUSH2 0xBC3 JUMP JUMPDEST SWAP1 SWAP2 POP DUP4 PUSH1 0x0 MSTORE PUSH1 0x20 PUSH1 0x0 KECCAK256 PUSH1 0x1F DUP5 ADD PUSH1 0x5 SHR DUP2 ADD PUSH1 0x20 DUP6 LT PUSH2 0xC68 JUMPI JUMPDEST SWAP1 DUP5 SWAP4 SWAP3 SWAP2 JUMPDEST PUSH1 0x1F DUP4 ADD PUSH1 0x5 SHR DUP3 ADD DUP2 LT PUSH2 0xC59 JUMPI POP POP PUSH2 0xA21 JUMP JUMPDEST PUSH1 0x0 DUP2 SSTORE DUP6 SWAP5 POP PUSH1 0x1 ADD PUSH2 0xC43 JUMP JUMPDEST POP DUP1 PUSH2 0xC3D JUMP JUMPDEST CALLVALUE PUSH2 0x28B JUMPI PUSH1 0x40 CALLDATASIZE PUSH1 0x3 NOT ADD SLT PUSH2 0x28B JUMPI PUSH2 0xC88 PUSH2 0x1E57 JUMP JUMPDEST PUSH1 0x24 CALLDATALOAD SWAP1 DUP2 ISZERO ISZERO DUP1 SWAP3 SUB PUSH2 0x28B JUMPI PUSH1 0x1 PUSH1 0x1 PUSH1 0xA0 SHL SUB AND SWAP1 DUP2 ISZERO PUSH2 0xCFB JUMPI CALLER PUSH1 0x0 MSTORE PUSH1 0x5 PUSH1 0x20 MSTORE PUSH1 0x40 PUSH1 0x0 KECCAK256 DUP3 PUSH1 0x0 MSTORE PUSH1 0x20 MSTORE PUSH1 0x40 PUSH1 0x0 KECCAK256 PUSH1 0xFF NOT DUP2 SLOAD AND PUSH1 0xFF DUP4 AND OR SWAP1 SSTORE PUSH1 0x40 MLOAD SWAP1 DUP2 MSTORE PUSH32 0x17307EAB39AB6107E8899845AD3D59BD9653F200F220920489CA2B5937696C31 PUSH1 0x20 CALLER SWAP3 LOG3 STOP JUMPDEST PUSH1 0x40 MLOAD PUSH4 0xB611743 PUSH1 0xE3 SHL DUP2 MSTORE PUSH1 0x4 DUP2 ADD DUP4 SWAP1 MSTORE PUSH1 0x24 SWAP1 REVERT JUMPDEST CALLVALUE PUSH2 0x28B JUMPI PUSH1 0x0 CALLDATASIZE PUSH1 0x3 NOT ADD SLT PUSH2 0x28B JUMPI PUSH1 0x20 PUSH1 0x40 MLOAD PUSH1 0x0 DUP2 MSTORE RETURN JUMPDEST CALLVALUE PUSH2 0x28B JUMPI PUSH1 0x20 DUP1 PUSH1 0x3 NOT CALLDATASIZE ADD SLT PUSH2 0x28B JUMPI PUSH1 0x4 CALLDATALOAD PUSH1 0x0 DUP1 MLOAD PUSH1 0x20 PUSH2 0x2CE9 DUP4 CODECOPY DUP2 MLOAD SWAP2 MSTORE DUP1 PUSH1 0x0 MSTORE PUSH1 0x7 DUP4 MSTORE PUSH1 0x40 PUSH1 0x0 KECCAK256 CALLER PUSH1 0x0 MSTORE DUP4 MSTORE PUSH1 0xFF PUSH1 0x40 PUSH1 0x0 KECCAK256 SLOAD AND ISZERO PUSH2 0xE94 JUMPI POP PUSH1 0x40 MLOAD PUSH4 0xB4954A1 PUSH1 0xE1 SHL DUP2 MSTORE PUSH1 0x4 DUP2 ADD DUP3 SWAP1 MSTORE SWAP1 PUSH1 0x0 DUP3 PUSH1 0x24 DUP2 ADDRESS GAS STATICCALL SWAP1 DUP2 ISZERO PUSH2 0xE88 JUMPI PUSH1 0x0 SWAP3 PUSH1 0x0 SWAP3 PUSH2 0xDEF JUMPI JUMPDEST POP SWAP1 PUSH1 0x40 SWAP4 PUSH2 0xDED SWAP3 PUSH32 0xB8078F2598A937C51F8393AD55850919CF7FCDE693B1401241932F3ECDFD158D DUP7 DUP1 MLOAD SWAP7 CALLER DUP9 MSTORE ISZERO ISZERO SWAP7 DUP8 DUP6 DUP3 ADD MSTORE LOG2 DUP5 MLOAD SWAP4 DUP5 MSTORE DUP4 ADD SWAP1 PUSH2 0x1E83 JUMP JUMPDEST RETURN JUMPDEST SWAP2 POP SWAP2 POP RETURNDATASIZE DUP1 PUSH1 0x0 DUP4 RETURNDATACOPY PUSH2 0xE03 DUP2 DUP4 PUSH2 0x1F2B JUMP JUMPDEST DUP2 ADD PUSH1 0x60 DUP3 DUP3 SUB SLT PUSH2 0x28B JUMPI DUP2 MLOAD SWAP2 DUP3 ISZERO ISZERO DUP4 SUB PUSH2 0x28B JUMPI DUP1 DUP6 ADD MLOAD PUSH1 0x1 PUSH1 0x1 PUSH1 0x40 SHL SUB DUP2 GT PUSH2 0x28B JUMPI DUP2 ADD SWAP2 DUP1 PUSH1 0x1F DUP5 ADD SLT ISZERO PUSH2 0x28B JUMPI DUP3 MLOAD PUSH2 0xE46 DUP2 PUSH2 0x1F4E JUMP JUMPDEST SWAP2 PUSH2 0xE54 PUSH1 0x40 MLOAD SWAP4 DUP5 PUSH2 0x1F2B JUMP JUMPDEST DUP2 DUP4 MSTORE DUP8 DUP3 DUP7 ADD ADD GT PUSH2 0x28B JUMPI PUSH1 0x40 SWAP4 DUP8 DUP1 PUSH2 0xE72 SWAP5 ADD SWAP2 ADD PUSH2 0x1E0F JUMP JUMPDEST ADD MLOAD SWAP2 PUSH1 0x4 DUP4 LT ISZERO PUSH2 0x28B JUMPI SWAP1 SWAP2 SWAP1 PUSH1 0x40 PUSH2 0xDA6 JUMP JUMPDEST PUSH1 0x40 MLOAD RETURNDATASIZE PUSH1 0x0 DUP3 RETURNDATACOPY RETURNDATASIZE SWAP1 REVERT JUMPDEST PUSH1 0x44 SWAP1 PUSH1 0x40 MLOAD SWAP1 PUSH4 0xE2517D3F PUSH1 0xE0 SHL DUP3 MSTORE CALLER PUSH1 0x4 DUP4 ADD MSTORE PUSH1 0x24 DUP3 ADD MSTORE REVERT JUMPDEST CALLVALUE PUSH2 0x28B JUMPI PUSH1 0x3 NOT PUSH1 0x60 CALLDATASIZE DUP3 ADD SLT PUSH2 0x28B JUMPI PUSH2 0xECC PUSH2 0x1E57 JUMP JUMPDEST SWAP1 PUSH1 0x1 PUSH1 0x1 PUSH1 0x40 SHL SUB SWAP1 PUSH1 0x24 CALLDATALOAD DUP3 LT PUSH2 0x28B JUMPI PUSH1 0xC0 SWAP1 PUSH1 0x24 CALLDATALOAD CALLDATASIZE SUB ADD SLT PUSH2 0x28B JUMPI PUSH1 0x44 CALLDATALOAD DUP2 DUP2 GT PUSH2 0x28B JUMPI PUSH2 0xF05 SWAP1 CALLDATASIZE SWAP1 PUSH1 0x4 ADD PUSH2 0x1FDE JUMP JUMPDEST SWAP1 SWAP3 PUSH2 0xF0F PUSH2 0x2083 JUMP JUMPDEST PUSH2 0xF17 PUSH2 0x2762 JUMP JUMPDEST PUSH1 0xFF PUSH1 0x20 PUSH2 0xF2A PUSH1 0x4 PUSH1 0x24 CALLDATALOAD ADD DUP1 PUSH2 0x26CD JUMP JUMPDEST SWAP2 SWAP1 DUP3 PUSH1 0x40 MLOAD SWAP4 DUP5 SWAP3 DUP4 CALLDATACOPY DUP2 ADD PUSH1 0xE DUP2 MSTORE SUB ADD SWAP1 KECCAK256 SLOAD AND DUP1 ISZERO PUSH2 0x12F9 JUMPI JUMPDEST PUSH2 0x6FB JUMPI PUSH1 0x1 PUSH1 0x1 PUSH1 0xA0 SHL SUB SWAP1 DUP1 DUP3 AND ISZERO PUSH2 0x70D JUMPI DUP3 ISZERO PUSH2 0x70D JUMPI PUSH1 0xFF PUSH1 0x40 MLOAD DUP5 DUP8 DUP3 CALLDATACOPY PUSH1 0x20 DUP2 DUP7 DUP2 ADD PUSH1 0xD DUP2 MSTORE SUB ADD SWAP1 KECCAK256 SLOAD AND PUSH2 0x6FB JUMPI PUSH2 0xF8B PUSH1 0x9 SLOAD PUSH2 0x26A8 JUMP JUMPDEST SWAP4 DUP5 PUSH1 0x9 SSTORE PUSH1 0x40 MLOAD PUSH2 0xF9C DUP2 PUSH2 0x1F10 JUMP JUMPDEST PUSH1 0x0 DUP2 MSTORE DUP4 PUSH2 0xFAB DUP8 DUP6 PUSH2 0x239E JUMP JUMPDEST AND PUSH2 0x6E2 JUMPI PUSH2 0xFBB SWAP1 DUP7 DUP5 PUSH2 0x248E JUMP JUMPDEST PUSH2 0xFC6 CALLDATASIZE DUP6 DUP9 PUSH2 0x1F69 JUMP JUMPDEST SWAP1 DUP6 PUSH1 0x0 MSTORE PUSH1 0x6 PUSH1 0x20 MSTORE PUSH1 0x40 PUSH1 0x0 KECCAK256 SWAP2 DUP1 MLOAD SWAP2 DUP3 GT PUSH2 0x5F5 JUMPI DUP2 SWAP1 PUSH2 0xFEB DUP5 SLOAD PUSH2 0x21EA JUMP JUMPDEST PUSH1 0x1F DUP2 GT PUSH2 0x12A6 JUMPI JUMPDEST POP PUSH1 0x20 SWAP1 PUSH1 0x1F DUP4 GT PUSH1 0x1 EQ PUSH2 0x123A JUMPI PUSH1 0x0 SWAP3 PUSH2 0x122F JUMPI JUMPDEST POP POP DUP2 PUSH1 0x1 SHL SWAP2 PUSH1 0x0 NOT SWAP1 PUSH1 0x3 SHL SHR NOT AND OR SWAP1 SSTORE JUMPDEST PUSH1 0x0 DUP1 MLOAD PUSH1 0x20 PUSH2 0x2D09 DUP4 CODECOPY DUP2 MLOAD SWAP2 MSTORE PUSH1 0x20 PUSH1 0x40 MLOAD DUP7 DUP2 MSTORE LOG1 PUSH1 0x40 MLOAD PUSH2 0x1044 DUP2 PUSH2 0x1EF5 JUMP JUMPDEST PUSH1 0x1 SWAP2 DUP3 DUP3 MSTORE PUSH1 0x20 DUP3 ADD SWAP2 PUSH1 0x0 DUP4 MSTORE PUSH1 0x40 DUP2 ADD SWAP3 CALLER DUP5 MSTORE PUSH1 0x60 DUP3 ADD TIMESTAMP DUP2 MSTORE DUP9 PUSH1 0x0 MSTORE PUSH1 0xB PUSH1 0x20 MSTORE PUSH1 0x40 PUSH1 0x0 KECCAK256 SWAP3 MLOAD SWAP5 PUSH1 0x4 DUP7 LT ISZERO PUSH2 0x60B JUMPI PUSH2 0x1099 DUP8 SWAP4 PUSH1 0xFF NOT SWAP8 PUSH1 0xFF DUP10 DUP9 SLOAD AND SWAP2 AND OR DUP7 SSTORE MLOAD ISZERO ISZERO DUP6 PUSH2 0x2780 JUMP JUMPDEST MLOAD DUP4 SLOAD PUSH3 0x10000 PUSH1 0x1 PUSH1 0xB0 SHL SUB NOT AND PUSH1 0x10 SWAP2 SWAP1 SWAP2 SHL PUSH3 0x10000 PUSH1 0x1 PUSH1 0xB0 SHL SUB AND OR DUP4 SSTORE MLOAD SWAP2 ADD SSTORE DUP1 DUP5 AND PUSH1 0x0 SWAP1 DUP2 MSTORE PUSH1 0xC PUSH1 0x20 MSTORE PUSH1 0x40 SWAP1 KECCAK256 DUP1 SLOAD PUSH1 0x1 PUSH1 0x40 SHL DUP2 LT ISZERO PUSH2 0x5F5 JUMPI PUSH1 0x20 SWAP9 DUP9 SWAP8 PUSH32 0xAE746DE94C016183E7B8107B39746D4C9E3A9F9928E763D1002147C11CA457E4 SWAP8 PUSH2 0x1129 DUP11 PUSH2 0x579 DUP7 DUP3 SWAP9 DUP13 PUSH1 0x0 DUP1 MLOAD PUSH1 0x20 PUSH2 0x2C69 DUP4 CODECOPY DUP2 MLOAD SWAP2 MSTORE SWAP10 ADD DUP2 SSTORE PUSH2 0x200B JUMP JUMPDEST PUSH1 0x40 MLOAD DUP3 DUP5 DUP3 CALLDATACOPY DUP13 DUP2 DUP5 DUP2 ADD PUSH1 0xD DUP2 MSTORE SUB ADD SWAP1 KECCAK256 DUP9 DUP9 DUP3 SLOAD AND OR SWAP1 SSTORE PUSH2 0x115C PUSH1 0x40 MLOAD SWAP4 DUP5 SWAP4 PUSH1 0x60 DUP6 MSTORE PUSH1 0x60 DUP6 ADD SWAP2 PUSH2 0x271A JUMP JUMPDEST SWAP6 DUP9 DUP14 DUP5 ADD MSTORE TIMESTAMP PUSH1 0x40 DUP5 ADD MSTORE AND SWAP5 SUB SWAP1 LOG3 DUP6 PUSH2 0x117D PUSH1 0x4 PUSH1 0x24 CALLDATALOAD ADD DUP1 PUSH2 0x26CD JUMP JUMPDEST SWAP2 SWAP1 DUP3 PUSH1 0x40 MLOAD SWAP4 DUP5 SWAP3 DUP4 CALLDATACOPY DUP2 ADD PUSH1 0xE DUP2 MSTORE SUB ADD SWAP1 KECCAK256 DUP3 DUP3 DUP3 SLOAD AND OR SWAP1 SSTORE PUSH1 0x24 DUP1 CALLDATALOAD ADD SWAP2 DUP7 PUSH2 0x11B0 DUP5 PUSH1 0x24 CALLDATALOAD PUSH1 0x4 ADD PUSH2 0x26CD JUMP JUMPDEST SWAP2 SWAP1 DUP3 PUSH1 0x40 MLOAD SWAP4 DUP5 SWAP3 DUP4 CALLDATACOPY DUP2 ADD PUSH1 0xE DUP2 MSTORE SUB ADD SWAP1 KECCAK256 SWAP2 DUP3 SLOAD AND OR SWAP1 SSTORE PUSH2 0x11F4 PUSH2 0x1218 PUSH2 0x11E6 PUSH1 0x24 CALLDATALOAD PUSH1 0x4 ADD PUSH1 0x24 CALLDATALOAD PUSH1 0x4 ADD PUSH2 0x26CD JUMP JUMPDEST SWAP3 SWAP1 SWAP4 PUSH1 0x24 CALLDATALOAD PUSH1 0x4 ADD PUSH2 0x26CD JUMP JUMPDEST PUSH2 0x120B PUSH1 0x40 MLOAD SWAP6 DUP7 SWAP6 PUSH1 0x60 DUP8 MSTORE PUSH1 0x60 DUP8 ADD SWAP2 PUSH2 0x271A JUMP JUMPDEST SWAP2 DUP5 DUP4 SUB DUP11 DUP7 ADD MSTORE PUSH2 0x271A JUMP JUMPDEST PUSH1 0xA4 PUSH1 0x24 CALLDATALOAD ADD CALLDATALOAD PUSH1 0x40 DUP4 ADD MSTORE SUB SWAP1 LOG2 PUSH1 0x40 MLOAD SWAP1 DUP2 MSTORE RETURN JUMPDEST ADD MLOAD SWAP1 POP DUP9 DUP1 PUSH2 0x100B JUMP JUMPDEST SWAP3 POP DUP4 PUSH1 0x0 MSTORE PUSH1 0x20 PUSH1 0x0 KECCAK256 SWAP1 PUSH1 0x0 SWAP4 JUMPDEST PUSH1 0x1F NOT DUP5 AND DUP6 LT PUSH2 0x128B JUMPI PUSH1 0x1 SWAP5 POP DUP4 PUSH1 0x1F NOT DUP2 AND LT PUSH2 0x1272 JUMPI JUMPDEST POP POP POP DUP2 SHL ADD SWAP1 SSTORE PUSH2 0x1020 JUMP JUMPDEST ADD MLOAD PUSH1 0x0 NOT PUSH1 0xF8 DUP5 PUSH1 0x3 SHL AND SHR NOT AND SWAP1 SSTORE DUP9 DUP1 DUP1 PUSH2 0x1265 JUMP JUMPDEST DUP2 DUP2 ADD MLOAD DUP4 SSTORE PUSH1 0x20 SWAP5 DUP6 ADD SWAP5 PUSH1 0x1 SWAP1 SWAP4 ADD SWAP3 SWAP1 SWAP2 ADD SWAP1 PUSH2 0x124A JUMP JUMPDEST SWAP1 SWAP2 POP DUP4 PUSH1 0x0 MSTORE PUSH1 0x20 PUSH1 0x0 KECCAK256 PUSH1 0x1F DUP5 ADD PUSH1 0x5 SHR DUP2 ADD SWAP2 PUSH1 0x20 DUP6 LT PUSH2 0x12EF JUMPI JUMPDEST SWAP1 PUSH1 0x1F DUP6 SWAP5 SWAP4 SWAP3 ADD PUSH1 0x5 SHR ADD SWAP1 JUMPDEST DUP2 DUP2 LT PUSH2 0x12E0 JUMPI POP PUSH2 0xFF4 JUMP JUMPDEST PUSH1 0x0 DUP2 SSTORE DUP5 SWAP4 POP PUSH1 0x1 ADD PUSH2 0x12D3 JUMP JUMPDEST SWAP1 SWAP2 POP DUP2 SWAP1 PUSH2 0x12C5 JUMP JUMPDEST POP PUSH1 0xFF PUSH1 0x20 PUSH2 0x1311 PUSH1 0x24 DUP1 CALLDATALOAD ADD PUSH1 0x24 CALLDATALOAD PUSH1 0x4 ADD PUSH2 0x26CD JUMP JUMPDEST SWAP2 SWAP1 DUP3 PUSH1 0x40 MLOAD SWAP4 DUP5 SWAP3 DUP4 CALLDATACOPY DUP2 ADD PUSH1 0xE DUP2 MSTORE SUB ADD SWAP1 KECCAK256 SLOAD AND PUSH2 0xF48 JUMP JUMPDEST CALLVALUE PUSH2 0x28B JUMPI PUSH1 0x0 CALLDATASIZE PUSH1 0x3 NOT ADD SLT PUSH2 0x28B JUMPI PUSH1 0x40 MLOAD PUSH1 0x0 SWAP1 PUSH1 0x1 DUP1 SLOAD PUSH2 0x1351 DUP2 PUSH2 0x21EA JUMP JUMPDEST DUP1 DUP5 MSTORE SWAP1 DUP3 DUP2 AND SWAP1 DUP2 ISZERO PUSH2 0x13B6 JUMPI POP PUSH1 0x1 EQ PUSH2 0x1378 JUMPI JUMPDEST PUSH2 0x7D8 DUP4 PUSH2 0x7C4 DUP2 DUP8 SUB DUP3 PUSH2 0x1F2B JUMP JUMPDEST SWAP3 POP DUP1 PUSH1 0x0 MSTORE PUSH1 0x20 SWAP3 DUP4 PUSH1 0x0 KECCAK256 SWAP2 PUSH1 0x0 SWAP3 JUMPDEST DUP3 DUP5 LT PUSH2 0x13A3 JUMPI POP POP POP DUP2 ADD SWAP1 SWAP2 ADD SWAP1 PUSH2 0x7C4 DUP2 PUSH2 0x1368 JUMP JUMPDEST DUP1 SLOAD DUP6 DUP6 ADD DUP8 ADD MSTORE SWAP3 DUP6 ADD SWAP3 DUP2 ADD PUSH2 0x138A JUMP JUMPDEST PUSH2 0x7D8 SWAP6 POP PUSH2 0x7C4 SWAP4 POP PUSH1 0x20 SWAP2 POP SWAP2 DUP5 SWAP3 PUSH1 0xFF NOT AND DUP3 DUP5 ADD MSTORE ISZERO ISZERO PUSH1 0x5 SHL DUP3 ADD ADD SWAP4 POP PUSH2 0x1368 JUMP JUMPDEST CALLVALUE PUSH2 0x28B JUMPI PUSH1 0x80 CALLDATASIZE PUSH1 0x3 NOT ADD SLT PUSH2 0x28B JUMPI PUSH2 0x13F7 PUSH2 0x1E57 JUMP JUMPDEST PUSH1 0x1 PUSH1 0x1 PUSH1 0x40 SHL SUB PUSH1 0x24 CALLDATALOAD DUP2 DUP2 GT PUSH2 0x28B JUMPI PUSH2 0x1417 SWAP1 CALLDATASIZE SWAP1 PUSH1 0x4 ADD PUSH2 0x1FDE JUMP JUMPDEST SWAP2 PUSH1 0x44 CALLDATALOAD DUP2 DUP2 GT PUSH2 0x28B JUMPI PUSH2 0x1430 SWAP1 CALLDATASIZE SWAP1 PUSH1 0x4 ADD PUSH2 0x1FDE JUMP JUMPDEST SWAP4 SWAP1 SWAP3 PUSH1 0x64 CALLDATALOAD SWAP3 DUP4 GT PUSH2 0x28B JUMPI PUSH2 0x5EA PUSH2 0x1479 PUSH1 0x20 SWAP8 PUSH2 0x1463 PUSH1 0x0 DUP1 MLOAD PUSH1 0x20 PUSH2 0x2C49 DUP4 CODECOPY DUP2 MLOAD SWAP2 MSTORE SWAP7 CALLDATASIZE SWAP1 PUSH1 0x4 ADD PUSH2 0x1FDE JUMP JUMPDEST SWAP2 PUSH2 0x146C PUSH2 0x2083 JUMP JUMPDEST PUSH2 0x1474 PUSH2 0x2762 JUMP JUMPDEST PUSH2 0x2798 JUMP JUMPDEST SWAP6 DUP7 SWAP6 PUSH1 0x40 MLOAD SWAP5 DUP6 SWAP5 DUP6 PUSH2 0x273B JUMP JUMPDEST CALLVALUE PUSH2 0x28B JUMPI PUSH1 0x40 CALLDATASIZE PUSH1 0x3 NOT ADD SLT PUSH2 0x28B JUMPI PUSH2 0x14A1 PUSH2 0x1E6D JUMP JUMPDEST PUSH1 0x4 CALLDATALOAD PUSH1 0x0 MSTORE PUSH1 0x7 PUSH1 0x20 MSTORE PUSH1 0x40 PUSH1 0x0 KECCAK256 SWAP1 PUSH1 0x1 DUP1 PUSH1 0xA0 SHL SUB AND PUSH1 0x0 MSTORE PUSH1 0x20 MSTORE PUSH1 0x20 PUSH1 0xFF PUSH1 0x40 PUSH1 0x0 KECCAK256 SLOAD AND PUSH1 0x40 MLOAD SWAP1 ISZERO ISZERO DUP2 MSTORE RETURN JUMPDEST CALLVALUE PUSH2 0x28B JUMPI PUSH1 0x0 CALLDATASIZE PUSH1 0x3 NOT ADD SLT PUSH2 0x28B JUMPI PUSH2 0x14EE PUSH2 0x2039 JUMP JUMPDEST PUSH2 0x14F6 PUSH2 0x2762 JUMP JUMPDEST PUSH1 0x1 PUSH1 0xFF NOT PUSH1 0x8 SLOAD AND OR PUSH1 0x8 SSTORE PUSH32 0x62E78CEA01BEE320CD4E420270B5EA74000D11B0C9F74754EBDBFC544B05A258 PUSH1 0x20 PUSH1 0x40 MLOAD CALLER DUP2 MSTORE LOG1 STOP JUMPDEST CALLVALUE PUSH2 0x28B JUMPI PUSH1 0x20 PUSH1 0xFF PUSH2 0x1545 DUP3 PUSH2 0x84A CALLDATASIZE PUSH2 0x1FA0 JUMP JUMPDEST DUP2 ADD PUSH1 0xE DUP2 MSTORE SUB ADD SWAP1 KECCAK256 SLOAD AND PUSH1 0x40 MLOAD SWAP1 ISZERO ISZERO DUP2 MSTORE RETURN JUMPDEST CALLVALUE PUSH2 0x28B JUMPI PUSH1 0x0 CALLDATASIZE PUSH1 0x3 NOT ADD SLT PUSH2 0x28B JUMPI PUSH1 0x20 PUSH1 0x40 MLOAD PUSH1 0x0 DUP1 MLOAD PUSH1 0x20 PUSH2 0x2CC9 DUP4 CODECOPY DUP2 MLOAD SWAP2 MSTORE DUP2 MSTORE RETURN JUMPDEST CALLVALUE PUSH2 0x28B JUMPI PUSH1 0x20 CALLDATASIZE PUSH1 0x3 NOT ADD SLT PUSH2 0x28B JUMPI PUSH1 0x1 PUSH1 0x1 PUSH1 0xA0 SHL SUB PUSH2 0x15A5 PUSH2 0x1E57 JUMP JUMPDEST AND DUP1 ISZERO PUSH2 0x15C4 JUMPI PUSH1 0x0 MSTORE PUSH1 0x3 PUSH1 0x20 MSTORE PUSH1 0x20 PUSH1 0x40 PUSH1 0x0 KECCAK256 SLOAD PUSH1 0x40 MLOAD SWAP1 DUP2 MSTORE RETURN JUMPDEST PUSH1 0x40 MLOAD PUSH4 0x22718AD9 PUSH1 0xE2 SHL DUP2 MSTORE PUSH1 0x0 PUSH1 0x4 DUP3 ADD MSTORE PUSH1 0x24 SWAP1 REVERT JUMPDEST CALLVALUE PUSH2 0x28B JUMPI PUSH1 0x20 CALLDATASIZE PUSH1 0x3 NOT ADD SLT PUSH2 0x28B JUMPI PUSH1 0x4 CALLDATALOAD PUSH1 0x0 MSTORE PUSH1 0xB PUSH1 0x20 MSTORE PUSH1 0x80 PUSH1 0x40 PUSH1 0x0 KECCAK256 PUSH1 0x1 DUP2 SLOAD SWAP2 ADD SLOAD PUSH1 0x40 MLOAD SWAP2 PUSH2 0x1618 DUP4 PUSH1 0xFF DUP4 AND PUSH2 0x1E83 JUMP JUMPDEST PUSH1 0x8 DUP2 SWAP1 SHR PUSH1 0xFF AND ISZERO ISZERO PUSH1 0x20 DUP5 ADD MSTORE PUSH1 0x10 SHR PUSH1 0x1 PUSH1 0x1 PUSH1 0xA0 SHL SUB AND PUSH1 0x40 DUP4 ADD MSTORE PUSH1 0x60 DUP3 ADD MSTORE RETURN JUMPDEST CALLVALUE PUSH2 0x28B JUMPI PUSH1 0x20 CALLDATASIZE PUSH1 0x3 NOT ADD SLT PUSH2 0x28B JUMPI PUSH1 0x20 PUSH2 0x165D PUSH1 0x4 CALLDATALOAD PUSH2 0x2453 JUMP JUMPDEST PUSH1 0x40 MLOAD PUSH1 0x1 PUSH1 0x1 PUSH1 0xA0 SHL SUB SWAP1 SWAP2 AND DUP2 MSTORE RETURN JUMPDEST CALLVALUE PUSH2 0x28B JUMPI PUSH1 0x0 CALLDATASIZE PUSH1 0x3 NOT ADD SLT PUSH2 0x28B JUMPI PUSH1 0x20 PUSH1 0xFF PUSH1 0x8 SLOAD AND PUSH1 0x40 MLOAD SWAP1 ISZERO ISZERO DUP2 MSTORE RETURN JUMPDEST CALLVALUE PUSH2 0x28B JUMPI PUSH2 0x16A0 CALLDATASIZE PUSH2 0x1FA0 JUMP JUMPDEST PUSH2 0x16A8 PUSH2 0x2039 JUMP JUMPDEST DUP1 MLOAD PUSH1 0x1 PUSH1 0x1 PUSH1 0x40 SHL SUB DUP2 GT PUSH2 0x5F5 JUMPI PUSH2 0x16C3 PUSH1 0xA SLOAD PUSH2 0x21EA JUMP JUMPDEST PUSH1 0x1F DUP2 GT PUSH2 0x176E JUMPI JUMPDEST POP PUSH1 0x20 DUP1 PUSH1 0x1F DUP4 GT PUSH1 0x1 EQ PUSH2 0x170A JUMPI POP DUP2 SWAP3 PUSH1 0x0 SWAP3 PUSH2 0x16FF JUMPI JUMPDEST POP POP PUSH1 0x0 NOT PUSH1 0x3 DUP4 SWAP1 SHL SHR NOT AND PUSH1 0x1 SWAP2 SWAP1 SWAP2 SHL OR PUSH1 0xA SSTORE STOP JUMPDEST ADD MLOAD SWAP1 POP DUP3 DUP1 PUSH2 0x16E6 JUMP JUMPDEST SWAP1 PUSH1 0x1F NOT DUP4 AND SWAP4 PUSH1 0xA PUSH1 0x0 MSTORE DUP3 PUSH1 0x0 KECCAK256 SWAP3 PUSH1 0x0 SWAP1 JUMPDEST DUP7 DUP3 LT PUSH2 0x1756 JUMPI POP POP DUP4 PUSH1 0x1 SWAP6 LT PUSH2 0x173D JUMPI JUMPDEST POP POP POP DUP2 SHL ADD PUSH1 0xA SSTORE STOP JUMPDEST ADD MLOAD PUSH1 0x0 NOT PUSH1 0xF8 DUP5 PUSH1 0x3 SHL AND SHR NOT AND SWAP1 SSTORE DUP3 DUP1 DUP1 PUSH2 0x1732 JUMP JUMPDEST DUP1 PUSH1 0x1 DUP6 SWAP7 DUP3 SWAP5 SWAP7 DUP7 ADD MLOAD DUP2 SSTORE ADD SWAP6 ADD SWAP4 ADD SWAP1 PUSH2 0x171F JUMP JUMPDEST PUSH1 0xA PUSH1 0x0 MSTORE PUSH32 0xC65A7BB8D6351C1CF70C95A316CC6A92839C986682D98BC35F958F4883F9D2A8 PUSH1 0x1F DUP4 ADD PUSH1 0x5 SHR DUP2 ADD SWAP2 PUSH1 0x20 DUP5 LT PUSH2 0x17C9 JUMPI JUMPDEST PUSH1 0x1F ADD PUSH1 0x5 SHR ADD SWAP1 JUMPDEST DUP2 DUP2 LT PUSH2 0x17BD JUMPI POP PUSH2 0x16CC JUMP JUMPDEST PUSH1 0x0 DUP2 SSTORE PUSH1 0x1 ADD PUSH2 0x17B0 JUMP JUMPDEST SWAP1 SWAP2 POP DUP2 SWAP1 PUSH2 0x17A7 JUMP JUMPDEST CALLVALUE PUSH2 0x28B JUMPI PUSH1 0x80 CALLDATASIZE PUSH1 0x3 NOT ADD SLT PUSH2 0x28B JUMPI PUSH1 0x1 PUSH1 0x1 PUSH1 0x40 SHL SUB PUSH1 0x4 CALLDATALOAD DUP2 DUP2 GT PUSH2 0x28B JUMPI PUSH2 0x1804 SWAP1 CALLDATASIZE SWAP1 PUSH1 0x4 ADD PUSH2 0x1EC5 JUMP JUMPDEST SWAP1 SWAP2 PUSH1 0x24 CALLDATALOAD DUP2 DUP2 GT PUSH2 0x28B JUMPI PUSH2 0x181E SWAP1 CALLDATASIZE SWAP1 PUSH1 0x4 ADD PUSH2 0x1EC5 JUMP JUMPDEST SWAP1 SWAP2 PUSH1 0x44 CALLDATALOAD DUP2 DUP2 GT PUSH2 0x28B JUMPI PUSH2 0x1838 SWAP1 CALLDATASIZE SWAP1 PUSH1 0x4 ADD PUSH2 0x1EC5 JUMP JUMPDEST SWAP2 PUSH1 0x64 CALLDATALOAD SWAP1 DUP2 GT PUSH2 0x28B JUMPI PUSH2 0x1851 SWAP1 CALLDATASIZE SWAP1 PUSH1 0x4 ADD PUSH2 0x1EC5 JUMP JUMPDEST SWAP1 SWAP7 PUSH2 0x185B PUSH2 0x2083 JUMP JUMPDEST PUSH2 0x1863 PUSH2 0x2762 JUMP JUMPDEST PUSH1 0x32 DUP8 GT PUSH2 0x192A JUMPI DUP7 DUP6 EQ DUP1 ISZERO SWAP1 PUSH2 0x1920 JUMPI JUMPDEST DUP1 ISZERO PUSH2 0x1916 JUMPI JUMPDEST PUSH2 0x1901 JUMPI PUSH1 0x0 JUMPDEST DUP8 DUP2 LT PUSH2 0x188D JUMPI STOP JUMPDEST PUSH1 0x5 DUP2 SWAP1 SHL DUP3 ADD CALLDATALOAD SWAP1 PUSH1 0x1 PUSH1 0x1 PUSH1 0xA0 SHL SUB DUP3 AND DUP3 SUB PUSH2 0x28B JUMPI PUSH2 0x18BE PUSH2 0x18FC SWAP3 PUSH2 0x18B8 DUP4 DUP8 DUP15 PUSH2 0x26FF JUMP JUMPDEST SWAP2 PUSH2 0x2798 JUMP JUMPDEST PUSH1 0x0 DUP1 MLOAD PUSH1 0x20 PUSH2 0x2C49 DUP4 CODECOPY DUP2 MLOAD SWAP2 MSTORE PUSH2 0x18D8 DUP4 DUP11 DUP13 PUSH2 0x26FF JUMP JUMPDEST SWAP1 PUSH2 0x18F4 PUSH2 0x18E7 DUP7 DUP13 DUP13 PUSH2 0x26FF JUMP JUMPDEST SWAP1 PUSH1 0x40 MLOAD SWAP5 DUP6 SWAP5 DUP6 PUSH2 0x273B JUMP JUMPDEST SUB SWAP1 LOG2 PUSH2 0x26A8 JUMP JUMPDEST PUSH2 0x1884 JUMP JUMPDEST PUSH1 0x40 MLOAD PUSH1 0x1 PUSH3 0x1398B9 PUSH1 0xE3 SHL SUB NOT DUP2 MSTORE PUSH1 0x4 SWAP1 REVERT JUMPDEST POP DUP7 DUP3 EQ ISZERO PUSH2 0x187D JUMP JUMPDEST POP DUP7 DUP5 EQ ISZERO PUSH2 0x1876 JUMP JUMPDEST PUSH1 0x40 MLOAD PUSH4 0x3E4D1359 PUSH1 0xE2 SHL DUP2 MSTORE PUSH1 0x4 SWAP1 REVERT JUMPDEST CALLVALUE PUSH2 0x28B JUMPI PUSH2 0x75E PUSH2 0x194D CALLDATASIZE PUSH2 0x1E90 JUMP JUMPDEST SWAP1 PUSH1 0x40 MLOAD SWAP3 PUSH2 0x195B DUP5 PUSH2 0x1F10 JUMP JUMPDEST PUSH1 0x0 DUP5 MSTORE PUSH2 0x8D9 DUP4 DUP4 DUP4 PUSH2 0x2224 JUMP JUMPDEST CALLVALUE PUSH2 0x28B JUMPI PUSH1 0x0 CALLDATASIZE PUSH1 0x3 NOT ADD SLT PUSH2 0x28B JUMPI PUSH2 0x1983 PUSH2 0x2039 JUMP JUMPDEST PUSH1 0x8 SLOAD PUSH1 0xFF DUP2 AND ISZERO PUSH2 0x19C2 JUMPI PUSH1 0xFF NOT AND PUSH1 0x8 SSTORE PUSH32 0x5DB9EE0A495BF2E6FF9C91A7834C1BA4FDD244A5E8AA4E537BD38AEAE4B073AA PUSH1 0x20 PUSH1 0x40 MLOAD CALLER DUP2 MSTORE LOG1 STOP JUMPDEST PUSH1 0x40 MLOAD PUSH4 0x8DFC202B PUSH1 0xE0 SHL DUP2 MSTORE PUSH1 0x4 SWAP1 REVERT JUMPDEST CALLVALUE PUSH2 0x28B JUMPI PUSH1 0x40 CALLDATASIZE PUSH1 0x3 NOT ADD SLT PUSH2 0x28B JUMPI PUSH2 0x19ED PUSH2 0x1E6D JUMP JUMPDEST CALLER PUSH1 0x1 PUSH1 0x1 PUSH1 0xA0 SHL SUB DUP3 AND SUB PUSH2 0x1A09 JUMPI PUSH2 0x75E SWAP1 PUSH1 0x4 CALLDATALOAD PUSH2 0x2173 JUMP JUMPDEST PUSH1 0x40 MLOAD PUSH4 0x334BD919 PUSH1 0xE1 SHL DUP2 MSTORE PUSH1 0x4 SWAP1 REVERT JUMPDEST CALLVALUE PUSH2 0x28B JUMPI PUSH1 0x40 CALLDATASIZE PUSH1 0x3 NOT ADD SLT PUSH2 0x28B JUMPI PUSH2 0x75E PUSH1 0x4 CALLDATALOAD PUSH2 0x1A3A PUSH2 0x1E6D JUMP JUMPDEST SWAP1 DUP1 PUSH1 0x0 MSTORE PUSH1 0x7 PUSH1 0x20 MSTORE PUSH2 0x1A55 PUSH1 0x1 PUSH1 0x40 PUSH1 0x0 KECCAK256 ADD SLOAD PUSH2 0x20CD JUMP JUMPDEST PUSH2 0x20F3 JUMP JUMPDEST CALLVALUE PUSH2 0x28B JUMPI PUSH1 0x20 CALLDATASIZE PUSH1 0x3 NOT ADD SLT PUSH2 0x28B JUMPI PUSH1 0x4 CALLDATALOAD PUSH1 0x0 MSTORE PUSH1 0x7 PUSH1 0x20 MSTORE PUSH1 0x20 PUSH1 0x1 PUSH1 0x40 PUSH1 0x0 KECCAK256 ADD SLOAD PUSH1 0x40 MLOAD SWAP1 DUP2 MSTORE RETURN JUMPDEST CALLVALUE PUSH2 0x28B JUMPI PUSH2 0x75E PUSH2 0x1A9A CALLDATASIZE PUSH2 0x1E90 JUMP JUMPDEST SWAP2 PUSH2 0x2224 JUMP JUMPDEST CALLVALUE PUSH2 0x28B JUMPI PUSH1 0x20 CALLDATASIZE PUSH1 0x3 NOT ADD SLT PUSH2 0x28B JUMPI PUSH2 0x1ABC PUSH1 0x4 CALLDATALOAD PUSH2 0x2A97 JUMP JUMPDEST PUSH2 0x7D8 PUSH2 0x1AE0 PUSH1 0x40 SWAP5 SWAP4 SWAP5 MLOAD SWAP5 DUP6 SWAP5 ISZERO ISZERO DUP6 MSTORE PUSH1 0x60 PUSH1 0x20 DUP7 ADD MSTORE PUSH1 0x60 DUP6 ADD SWAP1 PUSH2 0x1E32 JUMP JUMPDEST SWAP2 PUSH1 0x40 DUP5 ADD SWAP1 PUSH2 0x1E83 JUMP JUMPDEST CALLVALUE PUSH2 0x28B JUMPI PUSH1 0x40 CALLDATASIZE PUSH1 0x3 NOT ADD SLT PUSH2 0x28B JUMPI PUSH2 0x1B04 PUSH2 0x1E57 JUMP JUMPDEST PUSH1 0x24 CALLDATALOAD PUSH2 0x1B10 DUP2 PUSH2 0x2453 JUMP JUMPDEST CALLER ISZERO ISZERO DUP1 PUSH2 0x1BBF JUMPI JUMPDEST DUP1 PUSH2 0x1B92 JUMPI JUMPDEST PUSH2 0x1B7A JUMPI PUSH1 0x1 PUSH1 0x1 PUSH1 0xA0 SHL SUB SWAP3 DUP4 AND SWAP3 DUP3 SWAP2 DUP5 SWAP2 AND PUSH32 0x8C5BE1E5EBEC7D5BD14F71427D1E84F3DD0314C0F7B2291E5B200AC8C7C3B925 PUSH1 0x0 DUP1 LOG4 PUSH1 0x0 SWAP1 DUP2 MSTORE PUSH1 0x4 PUSH1 0x20 MSTORE PUSH1 0x40 SWAP1 KECCAK256 DUP1 SLOAD PUSH1 0x1 PUSH1 0x1 PUSH1 0xA0 SHL SUB NOT AND SWAP1 SWAP2 OR SWAP1 SSTORE STOP JUMPDEST PUSH1 0x40 MLOAD PUSH4 0xA9FBF51F PUSH1 0xE0 SHL DUP2 MSTORE CALLER PUSH1 0x4 DUP3 ADD MSTORE PUSH1 0x24 SWAP1 REVERT JUMPDEST POP PUSH1 0x1 DUP1 PUSH1 0xA0 SHL SUB DUP2 AND PUSH1 0x0 MSTORE PUSH1 0x5 PUSH1 0x20 MSTORE PUSH1 0x40 PUSH1 0x0 KECCAK256 CALLER PUSH1 0x0 MSTORE PUSH1 0x20 MSTORE PUSH1 0xFF PUSH1 0x40 PUSH1 0x0 KECCAK256 SLOAD AND ISZERO PUSH2 0x1B1F JUMP JUMPDEST POP PUSH1 0x1 PUSH1 0x1 PUSH1 0xA0 SHL SUB DUP2 AND CALLER EQ ISZERO PUSH2 0x1B19 JUMP JUMPDEST CALLVALUE PUSH2 0x28B JUMPI PUSH1 0x20 CALLDATASIZE PUSH1 0x3 NOT ADD SLT PUSH2 0x28B JUMPI PUSH1 0x4 CALLDATALOAD PUSH2 0x1BEF DUP2 PUSH2 0x2453 JUMP JUMPDEST POP PUSH1 0x0 MSTORE PUSH1 0x4 PUSH1 0x20 MSTORE PUSH1 0x20 PUSH1 0x1 DUP1 PUSH1 0xA0 SHL SUB PUSH1 0x40 PUSH1 0x0 KECCAK256 SLOAD AND PUSH1 0x40 MLOAD SWAP1 DUP2 MSTORE RETURN JUMPDEST CALLVALUE PUSH2 0x28B JUMPI PUSH1 0x0 CALLDATASIZE PUSH1 0x3 NOT ADD SLT PUSH2 0x28B JUMPI PUSH1 0x40 MLOAD PUSH1 0x0 SWAP1 PUSH1 0x0 SLOAD PUSH2 0x1C33 DUP2 PUSH2 0x21EA JUMP JUMPDEST DUP1 DUP4 MSTORE PUSH1 0x1 SWAP2 DUP1 DUP4 AND SWAP1 DUP2 ISZERO PUSH2 0x13B6 JUMPI POP PUSH1 0x1 EQ PUSH2 0x1C5B JUMPI PUSH2 0x7D8 DUP4 PUSH2 0x7C4 DUP2 DUP8 SUB DUP3 PUSH2 0x1F2B JUMP JUMPDEST PUSH1 0x0 DUP1 DUP1 MSTORE PUSH1 0x20 SWAP5 POP SWAP2 PUSH32 0x290DECD9548B62A8D60345A988386FC84BA6BC95484008F6362F93160EF3E563 JUMPDEST DUP3 DUP5 LT PUSH2 0x1CA0 JUMPI POP POP POP DUP2 ADD SWAP1 SWAP2 ADD SWAP1 PUSH2 0x7C4 DUP2 PUSH2 0x1368 JUMP JUMPDEST DUP1 SLOAD DUP6 DUP6 ADD DUP8 ADD MSTORE SWAP3 DUP6 ADD SWAP3 DUP2 ADD PUSH2 0x1C87 JUMP JUMPDEST CALLVALUE PUSH2 0x28B JUMPI PUSH1 0x20 CALLDATASIZE PUSH1 0x3 NOT ADD SLT PUSH2 0x28B JUMPI PUSH1 0x4 CALLDATALOAD PUSH2 0x1CCF PUSH2 0x2039 JUMP JUMPDEST PUSH1 0x0 DUP2 DUP2 MSTORE PUSH1 0x2 PUSH1 0x20 MSTORE PUSH1 0x40 SWAP1 KECCAK256 SLOAD PUSH1 0x1 PUSH1 0x1 PUSH1 0xA0 SHL SUB AND ISZERO PUSH2 0x1D5E JUMPI DUP1 PUSH1 0x0 MSTORE PUSH1 0xB PUSH1 0x20 MSTORE PUSH1 0xFF PUSH1 0x40 PUSH1 0x0 KECCAK256 SLOAD PUSH1 0x8 SHR AND PUSH2 0x1D4C JUMPI DUP1 PUSH1 0x0 MSTORE PUSH1 0xB PUSH1 0x20 MSTORE PUSH1 0x40 PUSH1 0x0 KECCAK256 PUSH2 0x100 PUSH2 0xFF00 NOT DUP3 SLOAD AND OR SWAP1 SSTORE PUSH32 0x8E273015173826F6FF8DA4951135109E9BC12B7956EDCE372559FF29CC961493 PUSH1 0x20 PUSH1 0x40 MLOAD CALLER DUP2 MSTORE LOG2 STOP JUMPDEST PUSH1 0x40 MLOAD PUSH4 0x44825A4B PUSH1 0xE0 SHL DUP2 MSTORE PUSH1 0x4 SWAP1 REVERT JUMPDEST PUSH1 0x40 MLOAD PUSH4 0xC5723B51 PUSH1 0xE0 SHL DUP2 MSTORE PUSH1 0x4 SWAP1 REVERT JUMPDEST CALLVALUE PUSH2 0x28B JUMPI PUSH1 0x20 CALLDATASIZE PUSH1 0x3 NOT ADD SLT PUSH2 0x28B JUMPI PUSH1 0x4 CALLDATALOAD SWAP1 PUSH4 0xFFFFFFFF PUSH1 0xE0 SHL DUP3 AND DUP1 SWAP3 SUB PUSH2 0x28B JUMPI PUSH1 0x20 SWAP2 PUSH4 0x7965DB0B PUSH1 0xE0 SHL DUP2 EQ SWAP1 DUP2 ISZERO PUSH2 0x1DB2 JUMPI JUMPDEST POP ISZERO ISZERO DUP2 MSTORE RETURN JUMPDEST PUSH4 0x24832483 PUSH1 0xE1 SHL DUP2 EQ SWAP2 POP DUP2 ISZERO PUSH2 0x1DCC JUMPI JUMPDEST POP DUP4 PUSH2 0x1DAB JUMP JUMPDEST PUSH4 0x80AC58CD PUSH1 0xE0 SHL DUP2 EQ SWAP2 POP DUP2 ISZERO PUSH2 0x1DFE JUMPI JUMPDEST DUP2 ISZERO PUSH2 0x1DED JUMPI JUMPDEST POP DUP4 PUSH2 0x1DC5 JUMP JUMPDEST PUSH4 0x1FFC9A7 PUSH1 0xE0 SHL EQ SWAP1 POP DUP4 PUSH2 0x1DE6 JUMP JUMPDEST PUSH4 0x5B5E139F PUSH1 0xE0 SHL DUP2 EQ SWAP2 POP PUSH2 0x1DDF JUMP JUMPDEST PUSH1 0x0 JUMPDEST DUP4 DUP2 LT PUSH2 0x1E22 JUMPI POP POP PUSH1 0x0 SWAP2 ADD MSTORE JUMP JUMPDEST DUP2 DUP2 ADD MLOAD DUP4 DUP3 ADD MSTORE PUSH1 0x20 ADD PUSH2 0x1E12 JUMP JUMPDEST SWAP1 PUSH1 0x20 SWAP2 PUSH2 0x1E4B DUP2 MLOAD DUP1 SWAP3 DUP2 DUP6 MSTORE DUP6 DUP1 DUP7 ADD SWAP2 ADD PUSH2 0x1E0F JUMP JUMPDEST PUSH1 0x1F ADD PUSH1 0x1F NOT AND ADD ADD SWAP1 JUMP JUMPDEST PUSH1 0x4 CALLDATALOAD SWAP1 PUSH1 0x1 PUSH1 0x1 PUSH1 0xA0 SHL SUB DUP3 AND DUP3 SUB PUSH2 0x28B JUMPI JUMP JUMPDEST PUSH1 0x24 CALLDATALOAD SWAP1 PUSH1 0x1 PUSH1 0x1 PUSH1 0xA0 SHL SUB DUP3 AND DUP3 SUB PUSH2 0x28B JUMPI JUMP JUMPDEST SWAP1 PUSH1 0x4 DUP3 LT ISZERO PUSH2 0x60B JUMPI MSTORE JUMP JUMPDEST PUSH1 0x60 SWAP1 PUSH1 0x3 NOT ADD SLT PUSH2 0x28B JUMPI PUSH1 0x1 PUSH1 0x1 PUSH1 0xA0 SHL SUB SWAP1 PUSH1 0x4 CALLDATALOAD DUP3 DUP2 AND DUP2 SUB PUSH2 0x28B JUMPI SWAP2 PUSH1 0x24 CALLDATALOAD SWAP1 DUP2 AND DUP2 SUB PUSH2 0x28B JUMPI SWAP1 PUSH1 0x44 CALLDATALOAD SWAP1 JUMP JUMPDEST SWAP2 DUP2 PUSH1 0x1F DUP5 ADD SLT ISZERO PUSH2 0x28B JUMPI DUP3 CALLDATALOAD SWAP2 PUSH1 0x1 PUSH1 0x1 PUSH1 0x40 SHL SUB DUP4 GT PUSH2 0x28B JUMPI PUSH1 0x20 DUP1 DUP6 ADD SWAP5 DUP5 PUSH1 0x5 SHL ADD ADD GT PUSH2 0x28B JUMPI JUMP JUMPDEST PUSH1 0x80 DUP2 ADD SWAP1 DUP2 LT PUSH1 0x1 PUSH1 0x1 PUSH1 0x40 SHL SUB DUP3 GT OR PUSH2 0x5F5 JUMPI PUSH1 0x40 MSTORE JUMP JUMPDEST PUSH1 0x20 DUP2 ADD SWAP1 DUP2 LT PUSH1 0x1 PUSH1 0x1 PUSH1 0x40 SHL SUB DUP3 GT OR PUSH2 0x5F5 JUMPI PUSH1 0x40 MSTORE JUMP JUMPDEST PUSH1 0x1F SWAP1 SWAP2 ADD PUSH1 0x1F NOT AND DUP2 ADD SWAP1 PUSH1 0x1 PUSH1 0x1 PUSH1 0x40 SHL SUB DUP3 GT SWAP1 DUP3 LT OR PUSH2 0x5F5 JUMPI PUSH1 0x40 MSTORE JUMP JUMPDEST PUSH1 0x1 PUSH1 0x1 PUSH1 0x40 SHL SUB DUP2 GT PUSH2 0x5F5 JUMPI PUSH1 0x1F ADD PUSH1 0x1F NOT AND PUSH1 0x20 ADD SWAP1 JUMP JUMPDEST SWAP3 SWAP2 SWAP3 PUSH2 0x1F75 DUP3 PUSH2 0x1F4E JUMP JUMPDEST SWAP2 PUSH2 0x1F83 PUSH1 0x40 MLOAD SWAP4 DUP5 PUSH2 0x1F2B JUMP JUMPDEST DUP3 SWAP5 DUP2 DUP5 MSTORE DUP2 DUP4 ADD GT PUSH2 0x28B JUMPI DUP3 DUP2 PUSH1 0x20 SWAP4 DUP5 PUSH1 0x0 SWAP7 ADD CALLDATACOPY ADD ADD MSTORE JUMP JUMPDEST PUSH1 0x20 PUSH1 0x3 NOT DUP3 ADD SLT PUSH2 0x28B JUMPI PUSH1 0x4 CALLDATALOAD SWAP1 PUSH1 0x1 PUSH1 0x1 PUSH1 0x40 SHL SUB DUP3 GT PUSH2 0x28B JUMPI DUP1 PUSH1 0x23 DUP4 ADD SLT ISZERO PUSH2 0x28B JUMPI DUP2 PUSH1 0x24 PUSH2 0x1FDB SWAP4 PUSH1 0x4 ADD CALLDATALOAD SWAP2 ADD PUSH2 0x1F69 JUMP JUMPDEST SWAP1 JUMP JUMPDEST SWAP2 DUP2 PUSH1 0x1F DUP5 ADD SLT ISZERO PUSH2 0x28B JUMPI DUP3 CALLDATALOAD SWAP2 PUSH1 0x1 PUSH1 0x1 PUSH1 0x40 SHL SUB DUP4 GT PUSH2 0x28B JUMPI PUSH1 0x20 DUP4 DUP2 DUP7 ADD SWAP6 ADD ADD GT PUSH2 0x28B JUMPI JUMP JUMPDEST DUP1 SLOAD DUP3 LT ISZERO PUSH2 0x2023 JUMPI PUSH1 0x0 MSTORE PUSH1 0x20 PUSH1 0x0 KECCAK256 ADD SWAP1 PUSH1 0x0 SWAP1 JUMP JUMPDEST PUSH4 0x4E487B71 PUSH1 0xE0 SHL PUSH1 0x0 MSTORE PUSH1 0x32 PUSH1 0x4 MSTORE PUSH1 0x24 PUSH1 0x0 REVERT JUMPDEST CALLER PUSH1 0x0 SWAP1 DUP2 MSTORE PUSH32 0xA70365933F78520EF41D6645BA61E509916296603327302D41466C063E8E2608 PUSH1 0x20 MSTORE PUSH1 0x40 SWAP1 KECCAK256 SLOAD PUSH1 0x0 DUP1 MLOAD PUSH1 0x20 PUSH2 0x2CC9 DUP4 CODECOPY DUP2 MLOAD SWAP2 MSTORE SWAP1 PUSH1 0xFF AND ISZERO PUSH2 0xE94 JUMPI POP JUMP JUMPDEST CALLER PUSH1 0x0 SWAP1 DUP2 MSTORE PUSH32 0xA4BFD7AFE708E2E87E7F0E2AD9B4D545417E0F795F57B5C5AB5D799C565A04F4 PUSH1 0x20 MSTORE PUSH1 0x40 SWAP1 KECCAK256 SLOAD PUSH1 0x0 DUP1 MLOAD PUSH1 0x20 PUSH2 0x2C89 DUP4 CODECOPY DUP2 MLOAD SWAP2 MSTORE SWAP1 PUSH1 0xFF AND ISZERO PUSH2 0xE94 JUMPI POP JUMP JUMPDEST DUP1 PUSH1 0x0 MSTORE PUSH1 0x7 PUSH1 0x20 MSTORE PUSH1 0x40 PUSH1 0x0 KECCAK256 CALLER PUSH1 0x0 MSTORE PUSH1 0x20 MSTORE PUSH1 0xFF PUSH1 0x40 PUSH1 0x0 KECCAK256 SLOAD AND ISZERO PUSH2 0xE94 JUMPI POP JUMP JUMPDEST SWAP1 PUSH1 0x0 SWAP2 DUP1 DUP4 MSTORE PUSH1 0x7 PUSH1 0x20 MSTORE PUSH1 0x40 DUP4 KECCAK256 SWAP2 PUSH1 0x1 DUP1 PUSH1 0xA0 SHL SUB AND SWAP2 DUP3 DUP5 MSTORE PUSH1 0x20 MSTORE PUSH1 0xFF PUSH1 0x40 DUP5 KECCAK256 SLOAD AND ISZERO PUSH1 0x0 EQ PUSH2 0x216E JUMPI DUP1 DUP4 MSTORE PUSH1 0x7 PUSH1 0x20 MSTORE PUSH1 0x40 DUP4 KECCAK256 DUP3 DUP5 MSTORE PUSH1 0x20 MSTORE PUSH1 0x40 DUP4 KECCAK256 PUSH1 0x1 PUSH1 0xFF NOT DUP3 SLOAD AND OR SWAP1 SSTORE PUSH32 0x2F8788117E7EFF1D82E926EC794901D17C78024A50270940304540A733656F0D CALLER SWAP4 DUP1 LOG4 PUSH1 0x1 SWAP1 JUMP JUMPDEST POP POP SWAP1 JUMP JUMPDEST SWAP1 PUSH1 0x0 SWAP2 DUP1 DUP4 MSTORE PUSH1 0x7 PUSH1 0x20 MSTORE PUSH1 0x40 DUP4 KECCAK256 SWAP2 PUSH1 0x1 DUP1 PUSH1 0xA0 SHL SUB AND SWAP2 DUP3 DUP5 MSTORE PUSH1 0x20 MSTORE PUSH1 0xFF PUSH1 0x40 DUP5 KECCAK256 SLOAD AND PUSH1 0x0 EQ PUSH2 0x216E JUMPI DUP1 DUP4 MSTORE PUSH1 0x7 PUSH1 0x20 MSTORE PUSH1 0x40 DUP4 KECCAK256 DUP3 DUP5 MSTORE PUSH1 0x20 MSTORE PUSH1 0x40 DUP4 KECCAK256 PUSH1 0xFF NOT DUP2 SLOAD AND SWAP1 SSTORE PUSH32 0xF6391F5C32D9C69D2A47EA670B442974B53935D1EDC7FD64EB21E047A839171B CALLER SWAP4 DUP1 LOG4 PUSH1 0x1 SWAP1 JUMP JUMPDEST SWAP1 PUSH1 0x1 DUP3 DUP2 SHR SWAP3 AND DUP1 ISZERO PUSH2 0x221A JUMPI JUMPDEST PUSH1 0x20 DUP4 LT EQ PUSH2 0x2204 JUMPI JUMP JUMPDEST PUSH4 0x4E487B71 PUSH1 0xE0 SHL PUSH1 0x0 MSTORE PUSH1 0x22 PUSH1 0x4 MSTORE PUSH1 0x24 PUSH1 0x0 REVERT JUMPDEST SWAP2 PUSH1 0x7F AND SWAP2 PUSH2 0x21F9 JUMP JUMPDEST PUSH1 0x1 PUSH1 0x1 PUSH1 0xA0 SHL SUB SWAP2 DUP3 AND SWAP3 SWAP1 SWAP2 DUP4 ISZERO PUSH2 0x2385 JUMPI PUSH1 0x0 SWAP3 DUP3 DUP5 MSTORE DUP3 PUSH1 0x20 SWAP6 PUSH1 0x2 DUP8 MSTORE PUSH1 0x40 SWAP7 DUP5 DUP9 DUP9 KECCAK256 SLOAD AND SWAP7 DUP8 SWAP2 CALLER ISZERO ISZERO DUP1 PUSH2 0x22EF JUMPI JUMPDEST POP SWAP1 PUSH1 0x2 PUSH1 0x0 DUP1 MLOAD PUSH1 0x20 PUSH2 0x2CA9 DUP4 CODECOPY DUP2 MLOAD SWAP2 MSTORE SWAP3 DUP5 PUSH2 0x22CF JUMPI JUMPDEST DUP6 DUP4 MSTORE PUSH1 0x3 DUP2 MSTORE DUP12 DUP4 KECCAK256 DUP1 SLOAD PUSH1 0x1 ADD SWAP1 SSTORE DUP7 DUP4 MSTORE MSTORE DUP10 DUP2 KECCAK256 DUP1 SLOAD PUSH1 0x1 PUSH1 0x1 PUSH1 0xA0 SHL SUB NOT AND DUP6 OR SWAP1 SSTORE DUP1 LOG4 AND SWAP3 DUP4 DUP4 SUB PUSH2 0x22AE JUMPI POP POP POP POP JUMP JUMPDEST PUSH1 0x64 SWAP5 POP MLOAD SWAP3 PUSH4 0x64283D7B PUSH1 0xE0 SHL DUP5 MSTORE PUSH1 0x4 DUP5 ADD MSTORE PUSH1 0x24 DUP4 ADD MSTORE PUSH1 0x44 DUP3 ADD MSTORE REVERT JUMPDEST PUSH2 0x22D8 DUP8 PUSH2 0x2435 JUMP JUMPDEST DUP5 DUP4 MSTORE PUSH1 0x3 DUP2 MSTORE DUP12 DUP4 KECCAK256 DUP1 SLOAD PUSH1 0x0 NOT ADD SWAP1 SSTORE PUSH2 0x2275 JUMP JUMPDEST SWAP2 SWAP4 SWAP5 POP SWAP2 POP DUP1 PUSH2 0x2344 JUMPI JUMPDEST ISZERO PUSH2 0x230B JUMPI DUP6 SWAP3 SWAP2 DUP8 SWAP2 CODESIZE PUSH2 0x225B JUMP JUMPDEST DUP8 DUP7 DUP9 PUSH2 0x2328 JUMPI PUSH1 0x24 SWAP2 MLOAD SWAP1 PUSH4 0x7E273289 PUSH1 0xE0 SHL DUP3 MSTORE PUSH1 0x4 DUP3 ADD MSTORE REVERT JUMPDEST PUSH1 0x44 SWAP2 MLOAD SWAP1 PUSH4 0x177E802F PUSH1 0xE0 SHL DUP3 MSTORE CALLER PUSH1 0x4 DUP4 ADD MSTORE PUSH1 0x24 DUP3 ADD MSTORE REVERT JUMPDEST POP CALLER DUP8 EQ DUP1 ISZERO PUSH2 0x2369 JUMPI JUMPDEST DUP1 PUSH2 0x22FB JUMPI POP DUP6 DUP3 MSTORE PUSH1 0x4 DUP2 MSTORE CALLER DUP6 DUP10 DUP5 KECCAK256 SLOAD AND EQ PUSH2 0x22FB JUMP JUMPDEST POP DUP7 DUP3 MSTORE PUSH1 0x5 DUP2 MSTORE DUP8 DUP3 KECCAK256 CALLER DUP4 MSTORE DUP2 MSTORE PUSH1 0xFF DUP9 DUP4 KECCAK256 SLOAD AND PUSH2 0x234F JUMP JUMPDEST PUSH1 0x40 MLOAD PUSH4 0x32505749 PUSH1 0xE1 SHL DUP2 MSTORE PUSH1 0x0 PUSH1 0x4 DUP3 ADD MSTORE PUSH1 0x24 SWAP1 REVERT JUMPDEST PUSH1 0x0 DUP3 DUP2 MSTORE PUSH1 0x2 PUSH1 0x20 MSTORE PUSH1 0x40 DUP2 KECCAK256 SLOAD PUSH1 0x1 PUSH1 0x1 PUSH1 0xA0 SHL SUB SWAP1 DUP2 AND SWAP4 SWAP3 DUP5 SWAP2 PUSH1 0x0 DUP1 MLOAD PUSH1 0x20 PUSH2 0x2CA9 DUP4 CODECOPY DUP2 MLOAD SWAP2 MSTORE SWAP2 DUP4 PUSH2 0x2413 JUMPI JUMPDEST AND SWAP3 DUP4 PUSH2 0x23FB JUMPI JUMPDEST DUP5 DUP2 MSTORE PUSH1 0x2 PUSH1 0x20 MSTORE PUSH1 0x40 DUP2 KECCAK256 DUP1 SLOAD PUSH1 0x1 PUSH1 0x1 PUSH1 0xA0 SHL SUB NOT AND DUP6 OR SWAP1 SSTORE DUP1 LOG4 SWAP1 JUMP JUMPDEST DUP4 DUP2 MSTORE PUSH1 0x3 PUSH1 0x20 MSTORE PUSH1 0x40 DUP2 KECCAK256 PUSH1 0x1 DUP2 SLOAD ADD SWAP1 SSTORE PUSH2 0x23DA JUMP JUMPDEST PUSH2 0x241C DUP7 PUSH2 0x2435 JUMP JUMPDEST DUP4 DUP6 MSTORE PUSH1 0x3 PUSH1 0x20 MSTORE PUSH1 0x40 DUP6 KECCAK256 DUP1 SLOAD PUSH1 0x0 NOT ADD SWAP1 SSTORE PUSH2 0x23D2 JUMP JUMPDEST PUSH1 0x0 SWAP1 DUP2 MSTORE PUSH1 0x4 PUSH1 0x20 MSTORE PUSH1 0x40 SWAP1 KECCAK256 DUP1 SLOAD PUSH1 0x1 PUSH1 0x1 PUSH1 0xA0 SHL SUB NOT AND SWAP1 SSTORE JUMP JUMPDEST PUSH1 0x0 DUP2 DUP2 MSTORE PUSH1 0x2 PUSH1 0x20 MSTORE PUSH1 0x40 SWAP1 KECCAK256 SLOAD PUSH1 0x1 PUSH1 0x1 PUSH1 0xA0 SHL SUB AND SWAP1 DUP2 ISZERO PUSH2 0x2476 JUMPI POP SWAP1 JUMP JUMPDEST PUSH1 0x24 SWAP1 PUSH1 0x40 MLOAD SWAP1 PUSH4 0x7E273289 PUSH1 0xE0 SHL DUP3 MSTORE PUSH1 0x4 DUP3 ADD MSTORE REVERT JUMPDEST DUP1 EXTCODESIZE PUSH2 0x2499 JUMPI POP POP POP JUMP JUMPDEST SWAP3 PUSH2 0x24E2 SWAP4 PUSH1 0x1 DUP1 PUSH1 0xA0 SHL SUB AND SWAP3 PUSH1 0x40 MLOAD PUSH4 0xA85BD01 PUSH1 0xE1 SHL SWAP2 DUP3 DUP3 MSTORE CALLER PUSH1 0x4 DUP4 ADD MSTORE PUSH1 0x0 SWAP5 DUP6 PUSH1 0x24 DUP5 ADD MSTORE PUSH1 0x44 DUP4 ADD MSTORE PUSH1 0x80 PUSH1 0x64 DUP4 ADD MSTORE DUP2 DUP1 PUSH1 0x20 SWAP9 DUP10 SWAP4 PUSH1 0x84 DUP4 ADD SWAP1 PUSH2 0x1E32 JUMP JUMPDEST SUB DUP2 DUP8 DUP10 GAS CALL DUP5 SWAP2 DUP2 PUSH2 0x257E JUMPI JUMPDEST POP PUSH2 0x2550 JUMPI POP POP POP RETURNDATASIZE PUSH1 0x0 EQ PUSH2 0x2548 JUMPI RETURNDATASIZE PUSH2 0x250A DUP2 PUSH2 0x1F4E JUMP JUMPDEST SWAP1 PUSH2 0x2518 PUSH1 0x40 MLOAD SWAP3 DUP4 PUSH2 0x1F2B JUMP JUMPDEST DUP2 MSTORE DUP1 SWAP2 DUP5 RETURNDATASIZE SWAP3 ADD RETURNDATACOPY JUMPDEST DUP1 MLOAD SWAP3 DUP4 PUSH2 0x2543 JUMPI PUSH1 0x40 MLOAD PUSH4 0x32505749 PUSH1 0xE1 SHL DUP2 MSTORE PUSH1 0x4 DUP2 ADD DUP5 SWAP1 MSTORE PUSH1 0x24 SWAP1 REVERT JUMPDEST ADD SWAP1 POP REVERT JUMPDEST POP PUSH1 0x60 PUSH2 0x2522 JUMP JUMPDEST SWAP2 SWAP5 POP SWAP2 POP PUSH4 0xFFFFFFFF PUSH1 0xE0 SHL AND SUB PUSH2 0x2566 JUMPI POP JUMP JUMPDEST PUSH1 0x24 SWAP1 PUSH1 0x40 MLOAD SWAP1 PUSH4 0x32505749 PUSH1 0xE1 SHL DUP3 MSTORE PUSH1 0x4 DUP3 ADD MSTORE REVERT JUMPDEST SWAP1 SWAP2 POP DUP7 DUP2 DUP2 RETURNDATASIZE DUP4 GT PUSH2 0x25BB JUMPI JUMPDEST PUSH2 0x2596 DUP2 DUP4 PUSH2 0x1F2B JUMP JUMPDEST DUP2 ADD SUB SLT PUSH2 0x25B7 JUMPI MLOAD PUSH1 0x1 PUSH1 0x1 PUSH1 0xE0 SHL SUB NOT DUP2 AND DUP2 SUB PUSH2 0x25B7 JUMPI SWAP1 CODESIZE PUSH2 0x24F0 JUMP JUMPDEST DUP5 DUP1 REVERT JUMPDEST POP RETURNDATASIZE PUSH2 0x258C JUMP JUMPDEST DUP2 EXTCODESIZE PUSH2 0x25CF JUMPI JUMPDEST POP POP POP POP JUMP JUMPDEST PUSH1 0x40 MLOAD PUSH4 0xA85BD01 PUSH1 0xE1 SHL DUP1 DUP3 MSTORE CALLER PUSH1 0x4 DUP4 ADD MSTORE PUSH1 0x1 PUSH1 0x1 PUSH1 0xA0 SHL SUB SWAP3 DUP4 AND PUSH1 0x24 DUP4 ADD MSTORE PUSH1 0x44 DUP3 ADD SWAP5 SWAP1 SWAP5 MSTORE PUSH1 0x80 PUSH1 0x64 DUP3 ADD MSTORE PUSH1 0x20 SWAP6 SWAP3 SWAP1 SWAP2 AND SWAP4 SWAP1 SWAP3 SWAP1 DUP4 SWAP1 PUSH2 0x261D SWAP1 PUSH1 0x84 DUP4 ADD SWAP1 PUSH2 0x1E32 JUMP JUMPDEST SUB SWAP3 DUP6 DUP2 PUSH1 0x0 SWAP6 DUP2 DUP8 DUP10 GAS CALL DUP5 SWAP2 DUP2 PUSH2 0x2668 JUMPI JUMPDEST POP PUSH2 0x264B JUMPI POP POP POP RETURNDATASIZE PUSH1 0x0 EQ PUSH2 0x2548 JUMPI RETURNDATASIZE PUSH2 0x250A DUP2 PUSH2 0x1F4E JUMP JUMPDEST SWAP2 SWAP5 POP SWAP2 POP PUSH4 0xFFFFFFFF PUSH1 0xE0 SHL AND SUB PUSH2 0x2566 JUMPI POP CODESIZE DUP1 DUP1 DUP1 PUSH2 0x25C9 JUMP JUMPDEST SWAP1 SWAP2 POP DUP7 DUP2 DUP2 RETURNDATASIZE DUP4 GT PUSH2 0x26A1 JUMPI JUMPDEST PUSH2 0x2680 DUP2 DUP4 PUSH2 0x1F2B JUMP JUMPDEST DUP2 ADD SUB SLT PUSH2 0x25B7 JUMPI MLOAD PUSH1 0x1 PUSH1 0x1 PUSH1 0xE0 SHL SUB NOT DUP2 AND DUP2 SUB PUSH2 0x25B7 JUMPI SWAP1 CODESIZE PUSH2 0x2631 JUMP JUMPDEST POP RETURNDATASIZE PUSH2 0x2676 JUMP JUMPDEST PUSH1 0x0 NOT DUP2 EQ PUSH2 0x26B7 JUMPI PUSH1 0x1 ADD SWAP1 JUMP JUMPDEST PUSH4 0x4E487B71 PUSH1 0xE0 SHL PUSH1 0x0 MSTORE PUSH1 0x11 PUSH1 0x4 MSTORE PUSH1 0x24 PUSH1 0x0 REVERT JUMPDEST SWAP1 CALLDATALOAD SWAP1 PUSH1 0x1E NOT DUP2 CALLDATASIZE SUB ADD DUP3 SLT ISZERO PUSH2 0x28B JUMPI ADD DUP1 CALLDATALOAD SWAP1 PUSH1 0x1 PUSH1 0x1 PUSH1 0x40 SHL SUB DUP3 GT PUSH2 0x28B JUMPI PUSH1 0x20 ADD SWAP2 DUP2 CALLDATASIZE SUB DUP4 SGT PUSH2 0x28B JUMPI JUMP JUMPDEST SWAP1 DUP3 LT ISZERO PUSH2 0x2023 JUMPI PUSH2 0x2716 SWAP2 PUSH1 0x5 SHL DUP2 ADD SWAP1 PUSH2 0x26CD JUMP JUMPDEST SWAP1 SWAP2 JUMP JUMPDEST SWAP1 DUP1 PUSH1 0x20 SWAP4 SWAP3 DUP2 DUP5 MSTORE DUP5 DUP5 ADD CALLDATACOPY PUSH1 0x0 DUP3 DUP3 ADD DUP5 ADD MSTORE PUSH1 0x1F ADD PUSH1 0x1F NOT AND ADD ADD SWAP1 JUMP JUMPDEST SWAP3 SWAP1 PUSH2 0x2754 SWAP1 PUSH2 0x1FDB SWAP6 SWAP4 PUSH1 0x40 DUP7 MSTORE PUSH1 0x40 DUP7 ADD SWAP2 PUSH2 0x271A JUMP JUMPDEST SWAP3 PUSH1 0x20 DUP2 DUP6 SUB SWAP2 ADD MSTORE PUSH2 0x271A JUMP JUMPDEST PUSH1 0xFF PUSH1 0x8 SLOAD AND PUSH2 0x276E JUMPI JUMP JUMPDEST PUSH1 0x40 MLOAD PUSH4 0xD93C0665 PUSH1 0xE0 SHL DUP2 MSTORE PUSH1 0x4 SWAP1 REVERT JUMPDEST SWAP1 PUSH2 0xFF00 DUP3 SLOAD SWAP2 ISZERO ISZERO PUSH1 0x8 SHL AND SWAP1 PUSH2 0xFF00 NOT AND OR SWAP1 SSTORE JUMP JUMPDEST SWAP2 PUSH1 0x1 PUSH1 0x1 PUSH1 0xA0 SHL SUB DUP1 DUP5 AND SWAP3 SWAP2 SWAP1 DUP4 ISZERO PUSH2 0x70D JUMPI DUP2 ISZERO PUSH2 0x70D JUMPI PUSH1 0x40 DUP1 MLOAD SWAP2 DUP4 DUP6 DUP5 CALLDATACOPY PUSH1 0xFF DUP4 DUP6 DUP2 ADD PUSH1 0xD DUP2 MSTORE PUSH1 0x20 SWAP6 DUP7 SWAP2 SUB ADD SWAP1 KECCAK256 SLOAD AND PUSH2 0x2A86 JUMPI PUSH2 0x27E0 PUSH1 0x9 SLOAD PUSH2 0x26A8 JUMP JUMPDEST SWAP7 DUP8 PUSH1 0x9 SSTORE DUP3 MLOAD SWAP1 PUSH2 0x27F1 DUP3 PUSH2 0x1F10 JUMP JUMPDEST PUSH1 0x0 SWAP3 DUP4 DUP4 MSTORE PUSH2 0x2801 DUP11 DUP4 PUSH2 0x239E JUMP JUMPDEST AND PUSH2 0x2A6E JUMPI SWAP1 DUP9 PUSH2 0x2811 SWAP3 PUSH2 0x248E JUMP JUMPDEST PUSH2 0x281C CALLDATASIZE DUP6 DUP8 PUSH2 0x1F69 JUMP JUMPDEST DUP8 DUP3 MSTORE PUSH1 0x6 DUP5 MSTORE DUP3 DUP3 KECCAK256 DUP2 MLOAD SWAP1 SWAP2 PUSH1 0x1 PUSH1 0x1 PUSH1 0x40 SHL SUB DUP3 GT PUSH2 0x298A JUMPI DUP2 SWAP1 PUSH2 0x2844 DUP5 SLOAD PUSH2 0x21EA JUMP JUMPDEST PUSH1 0x1F DUP2 GT PUSH2 0x2A20 JUMPI JUMPDEST POP DUP7 SWAP1 PUSH1 0x1F DUP4 GT PUSH1 0x1 EQ PUSH2 0x29BD JUMPI DUP6 SWAP3 PUSH2 0x29B2 JUMPI JUMPDEST POP POP DUP2 PUSH1 0x1 SHL SWAP2 PUSH1 0x0 NOT SWAP1 PUSH1 0x3 SHL SHR NOT AND OR SWAP1 SSTORE JUMPDEST PUSH1 0x0 DUP1 MLOAD PUSH1 0x20 PUSH2 0x2D09 DUP4 CODECOPY DUP2 MLOAD SWAP2 MSTORE DUP4 DUP4 MLOAD DUP10 DUP2 MSTORE LOG1 DUP2 MLOAD PUSH2 0x2898 DUP2 PUSH2 0x1EF5 JUMP JUMPDEST DUP2 DUP2 MSTORE DUP4 DUP2 ADD SWAP1 DUP3 DUP3 MSTORE DUP4 DUP2 ADD CALLER DUP2 MSTORE PUSH1 0x60 DUP3 ADD SWAP1 TIMESTAMP DUP3 MSTORE DUP11 DUP6 MSTORE PUSH1 0xB DUP8 MSTORE DUP6 DUP6 KECCAK256 SWAP3 MLOAD SWAP4 PUSH1 0x4 DUP6 LT ISZERO PUSH2 0x299E JUMPI SWAP1 PUSH2 0x28E6 PUSH1 0x1 SWAP4 SWAP3 PUSH1 0xFF NOT SWAP7 PUSH1 0xFF DUP9 DUP9 SLOAD AND SWAP2 AND OR DUP7 SSTORE MLOAD ISZERO ISZERO DUP6 PUSH2 0x2780 JUMP JUMPDEST MLOAD DUP4 SLOAD PUSH2 0xFFFF NOT PUSH1 0xB0 DUP6 SWAP1 SHL ADD DUP1 NOT SWAP1 SWAP2 AND PUSH1 0x10 SWAP3 SWAP1 SWAP3 SHL AND OR DUP4 SSTORE MLOAD SWAP2 ADD SSTORE DUP7 DUP3 MSTORE PUSH1 0xC DUP5 MSTORE DUP3 DUP3 KECCAK256 DUP1 SLOAD SWAP1 PUSH1 0x1 PUSH1 0x40 SHL DUP3 LT ISZERO PUSH2 0x298A JUMPI SWAP2 PUSH2 0x2949 DUP11 PUSH2 0x579 DUP5 PUSH1 0x0 DUP1 MLOAD PUSH1 0x20 PUSH2 0x2C69 DUP4 CODECOPY DUP2 MLOAD SWAP2 MSTORE SWAP11 SWAP9 SWAP7 PUSH1 0x1 DUP5 SWAP14 SWAP12 SWAP10 SWAP8 ADD DUP2 SSTORE PUSH2 0x200B JUMP JUMPDEST PUSH1 0x1 DUP4 MLOAD DUP7 DUP9 DUP3 CALLDATACOPY DUP6 DUP2 DUP9 DUP2 ADD PUSH1 0xD DUP2 MSTORE SUB ADD SWAP1 KECCAK256 SWAP2 DUP3 SLOAD AND OR SWAP1 SSTORE PUSH2 0x297B DUP3 MLOAD SWAP6 DUP7 SWAP6 PUSH1 0x60 DUP8 MSTORE PUSH1 0x60 DUP8 ADD SWAP2 PUSH2 0x271A JUMP JUMPDEST SWAP3 DUP5 ADD MSTORE TIMESTAMP SWAP1 DUP4 ADD MSTORE SUB SWAP1 LOG3 SWAP1 JUMP JUMPDEST PUSH4 0x4E487B71 PUSH1 0xE0 SHL DUP5 MSTORE PUSH1 0x41 PUSH1 0x4 MSTORE PUSH1 0x24 DUP5 REVERT JUMPDEST PUSH4 0x4E487B71 PUSH1 0xE0 SHL DUP7 MSTORE PUSH1 0x21 PUSH1 0x4 MSTORE PUSH1 0x24 DUP7 REVERT JUMPDEST ADD MLOAD SWAP1 POP CODESIZE DUP1 PUSH2 0x2862 JUMP JUMPDEST DUP5 DUP7 MSTORE DUP8 DUP7 KECCAK256 SWAP3 POP PUSH1 0x1F NOT DUP5 AND DUP7 JUMPDEST DUP10 DUP3 DUP3 LT PUSH2 0x2A0A JUMPI POP POP SWAP1 DUP5 PUSH1 0x1 SWAP6 SWAP5 SWAP4 SWAP3 LT PUSH2 0x29F1 JUMPI JUMPDEST POP POP POP DUP2 SHL ADD SWAP1 SSTORE PUSH2 0x2877 JUMP JUMPDEST ADD MLOAD PUSH1 0x0 NOT PUSH1 0xF8 DUP5 PUSH1 0x3 SHL AND SHR NOT AND SWAP1 SSTORE CODESIZE DUP1 DUP1 PUSH2 0x29E4 JUMP JUMPDEST PUSH1 0x1 DUP6 SWAP7 DUP3 SWAP4 SWAP7 DUP7 ADD MLOAD DUP2 SSTORE ADD SWAP6 ADD SWAP4 ADD PUSH2 0x29CC JUMP JUMPDEST SWAP1 SWAP2 POP DUP4 DUP6 MSTORE DUP7 DUP6 KECCAK256 PUSH1 0x1F DUP5 ADD PUSH1 0x5 SHR DUP2 ADD SWAP2 DUP9 DUP6 LT PUSH2 0x2A64 JUMPI JUMPDEST SWAP1 PUSH1 0x1F DUP6 SWAP5 SWAP4 SWAP3 ADD PUSH1 0x5 SHR ADD SWAP1 JUMPDEST DUP2 DUP2 LT PUSH2 0x2A56 JUMPI POP PUSH2 0x284D JUMP JUMPDEST DUP7 DUP2 SSTORE DUP5 SWAP4 POP PUSH1 0x1 ADD PUSH2 0x2A49 JUMP JUMPDEST SWAP1 SWAP2 POP DUP2 SWAP1 PUSH2 0x2A3B JUMP JUMPDEST DUP4 MLOAD PUSH4 0x39E35637 PUSH1 0xE1 SHL DUP2 MSTORE PUSH1 0x4 DUP2 ADD DUP5 SWAP1 MSTORE PUSH1 0x24 SWAP1 REVERT JUMPDEST DUP2 MLOAD PUSH4 0x119B4FD3 PUSH1 0xE1 SHL DUP2 MSTORE PUSH1 0x4 SWAP1 REVERT JUMPDEST PUSH1 0x0 DUP2 DUP2 MSTORE PUSH1 0x2 PUSH1 0x20 MSTORE PUSH1 0x40 DUP1 DUP3 KECCAK256 SLOAD PUSH1 0x1 PUSH1 0x1 PUSH1 0xA0 SHL SUB SWAP5 SWAP3 SWAP4 SWAP2 SWAP1 DUP6 AND ISZERO PUSH2 0x2B6D JUMPI DUP2 DUP5 MSTORE PUSH1 0xB PUSH1 0x20 MSTORE DUP1 DUP5 KECCAK256 SWAP5 DUP2 MLOAD SWAP6 PUSH2 0x2AD3 DUP8 PUSH2 0x1EF5 JUMP JUMPDEST DUP1 SLOAD SWAP1 PUSH1 0xFF DUP3 AND SWAP3 PUSH1 0x4 DUP5 LT ISZERO PUSH2 0x2B59 JUMPI SWAP1 PUSH1 0x1 SWAP2 DUP5 DUP11 MSTORE PUSH1 0xFF DUP5 PUSH1 0x8 SHR AND ISZERO ISZERO SWAP4 DUP5 PUSH1 0x20 DUP13 ADD MSTORE PUSH1 0x10 SHR AND DUP6 DUP11 ADD MSTORE ADD SLOAD PUSH1 0x60 DUP9 ADD MSTORE PUSH2 0x2B41 JUMPI POP POP PUSH2 0x2B19 SWAP1 PUSH2 0x2B83 JUMP JUMPDEST SWAP3 MLOAD SWAP2 PUSH1 0x4 DUP4 LT ISZERO PUSH2 0x2B2D JUMPI POP PUSH1 0x1 SWAP3 SWAP2 SWAP1 JUMP JUMPDEST PUSH4 0x4E487B71 PUSH1 0xE0 SHL DUP2 MSTORE PUSH1 0x21 PUSH1 0x4 MSTORE PUSH1 0x24 SWAP1 REVERT JUMPDEST SWAP4 SWAP2 POP SWAP4 POP DUP1 SWAP4 MLOAD SWAP1 PUSH2 0x2B53 DUP3 PUSH2 0x1F10 JUMP JUMPDEST DUP2 MSTORE SWAP2 SWAP1 JUMP JUMPDEST PUSH4 0x4E487B71 PUSH1 0xE0 SHL DUP9 MSTORE PUSH1 0x21 PUSH1 0x4 MSTORE PUSH1 0x24 DUP9 REVERT JUMPDEST SWAP4 POP POP DUP2 SWAP3 MLOAD PUSH2 0x2B7C DUP2 PUSH2 0x1F10 JUMP JUMPDEST DUP3 DUP2 MSTORE SWAP2 SWAP1 JUMP JUMPDEST PUSH2 0x2B8C DUP2 PUSH2 0x2453 JUMP JUMPDEST POP PUSH1 0x0 SWAP1 DUP2 MSTORE PUSH1 0x20 SWAP1 PUSH1 0x6 DUP3 MSTORE PUSH1 0x40 DUP2 KECCAK256 SWAP2 PUSH1 0x40 MLOAD DUP1 SWAP4 DUP4 SWAP1 DUP1 SLOAD PUSH2 0x2BB0 DUP2 PUSH2 0x21EA JUMP JUMPDEST DUP1 DUP6 MSTORE SWAP2 PUSH1 0x1 SWAP2 DUP1 DUP4 AND SWAP1 DUP2 ISZERO PUSH2 0x2C26 JUMPI POP PUSH1 0x1 EQ PUSH2 0x2BE9 JUMPI JUMPDEST POP POP POP PUSH2 0x2BD9 SWAP3 POP SUB DUP4 PUSH2 0x1F2B JUMP JUMPDEST PUSH1 0x40 MLOAD PUSH2 0x2BE5 DUP2 PUSH2 0x1F10 JUMP JUMPDEST MSTORE SWAP1 JUMP JUMPDEST DUP7 MSTORE DUP5 DUP7 KECCAK256 SWAP5 SWAP3 POP DUP6 SWAP2 SWAP1 JUMPDEST DUP2 DUP4 LT PUSH2 0x2C0E JUMPI POP POP PUSH2 0x2BD9 SWAP4 POP DUP3 ADD ADD CODESIZE DUP1 DUP1 PUSH2 0x2BCA JUMP JUMPDEST DUP6 SLOAD DUP9 DUP5 ADD DUP6 ADD MSTORE SWAP5 DUP6 ADD SWAP5 DUP8 SWAP5 POP SWAP2 DUP4 ADD SWAP2 PUSH2 0x2BF5 JUMP JUMPDEST SWAP3 POP POP POP PUSH2 0x2BD9 SWAP5 SWAP3 POP PUSH1 0xFF NOT AND DUP3 DUP5 ADD MSTORE ISZERO ISZERO PUSH1 0x5 SHL DUP3 ADD ADD CODESIZE DUP1 DUP1 PUSH2 0x2BCA JUMP INVALID SWAP13 0xCB 0xD4 COINBASE 0xC7 BALANCE PUSH8 0xA447461688A5AE3C SLOAD DUP7 0xE1 DUP1 SWAP9 CALLCODE 0xED SAR 0xD2 0xC5 0xF8 0xE1 0xD8 0xBE SIGNEXTEND SUB SUB REVERT SHR 0xB6 SWAP5 DUP11 SLT 0xDF 0xC0 PUSH23 0x53035746FEB8336175F3E393445293A0602EC47CE27549 SWAP16 0x2D CREATE INVALID 0xD2 0xC7 PUSH23 0x48DE5860A4CC508CD0818C85B8B8A1AB4CEEEF8D981C89 JUMP 0xA6 0xDD CALLCODE MSTORE 0xAD SHL 0xE2 0xC8 SWAP12 PUSH10 0xC2B068FC378DAA952BA7 CALL PUSH4 0xC4A11628 CREATE2 GAS 0x4D CREATE2 0x23 0xB3 0xEF LOG4 SWAP9 SMOD KECCAK256 0x5C 0xE4 0xD3 SSTORE MULMOD 0x2E CREATE2 0xA8 LOG1 DUP16 JUMP 0xE8 SWAP2 EXTCODECOPY DELEGATECALL LOG2 ADD 0xFB 0xE2 DUP8 DUP3 JUMPDEST MULMOD JUMP SWAP4 0xC2 OR PUSH22 0xCE23C3E399818CFEE81A7AB0880F714E53D7672B08D CREATE STATICCALL PUSH3 0xF28434 AND 0xE1 0xEA MULMOD 0xF8 0xE1 LOG1 GAS 0xBA SWAP4 SWAP9 0xE0 NOT CREATE 0xB4 SWAP14 CALL LOG4 REVERT 0xE9 DUP15 0xE1 PUSH27 0xE345CB5F6B5E2C27F5033E8CE7A264697066735822122096EC629E SSTORE 0xA9 PUSH4 0xF201E6B0 0xE9 LT STOP DUP9 SIGNEXTEND 0x5E 0xCF SHL EXP 0x26 0xC SWAP16 PUSH0 BYTE NOT SHR 0xF9 SHL 0xCD 0xC3 0x23 PUSH5 0x736F6C6343 STOP ADDMOD EQ STOP CALLER 0x2F DUP8 DUP9 GT PUSH31 0x7EFF1D82E926EC794901D17C78024A50270940304540A733656F0D00000000 "},"methodIdentifiers":{"ADMIN_ROLE()":"75b238fc","DEFAULT_ADMIN_ROLE()":"a217fddf","MAX_BATCH_SIZE()":"cfdbf254","MINTER_ROLE()":"d5391393","VERIFIER_ROLE()":"e7705db6","approve(address,uint256)":"095ea7b3","balanceOf(address)":"70a08231","certConfigs(uint256)":"6d343da1","getApproved(uint256)":"081812fc","getRoleAdmin(bytes32)":"248a9ca3","getStudentCertificates(address)":"ebc63bc0","grantRole(bytes32,address)":"2f2ff15d","hasRole(bytes32,address)":"91d14854","isApprovedForAll(address,address)":"e985e9c5","mintAchievementCertificate(address,string,string,string,address[])":"a85e9a7c","mintCertificate(address,string,string,string)":"929c01fd","mintCertificatesBatch(address[],string[],string[],string[])":"4615bfe1","mintCustomCertificate(address,string,string[],string[],string)":"e39ae76d","mintSemesterCertificate(address,(string,string,string,string,string,uint256),string)":"98182274","name()":"06fdde03","ownerOf(uint256)":"6352211e","pause()":"8456cb59","paused()":"5c975abb","renounceRole(bytes32,address)":"36568abe","revokeCertificate(uint256)":"06f5497e","revokeRole(bytes32,address)":"d547741f","safeTransferFrom(address,address,uint256)":"42842e0e","safeTransferFrom(address,address,uint256,bytes)":"b88d4fde","setApprovalForAll(address,bool)":"a22cb465","setBaseURI(string)":"55f804b3","studentCertificates(address,uint256)":"c3934f0e","supportsInterface(bytes4)":"01ffc9a7","symbol()":"95d89b41","tokenURI(uint256)":"c87b56dd","transferFrom(address,address,uint256)":"23b872dd","unpause()":"3f4ba83a","usedHashes(string)":"bd1f5f31","usedUniqueIdentifiers(string)":"7ac2a300","verifyCertificate(uint256)":"1692a942","verifyCertificateByVerifier(uint256)":"9d952cd1"}}}}}