{
  "_format": "hh-sol-artifact-1",
  "contractName": "ScholarshipEscrow",
  "sourceName": "contracts/ScholarshipEscrow.sol",
  "abi": [
    {
      "inputs": [
        {
          "internalType": "address",
          "name": "_certificateNFT",
          "type": "address"
        }
      ],
      "stateMutability": "nonpayable",
      "type": "constructor"
    },
    {
      "inputs": [],
      "name": "AccessControlBadConfirmation",
      "type": "error"
    },
    {
      "inputs": [
        {
          "internalType": "address",
          "name": "account",
          "type": "address"
        },
        {
          "internalType": "bytes32",
          "name": "neededRole",
          "type": "bytes32"
        }
      ],
      "name": "AccessControlUnauthorizedAccount",
      "type": "error"
    },
    {
      "inputs": [],
      "name": "EnforcedPause",
      "type": "error"
    },
    {
      "inputs": [],
      "name": "ExpectedPause",
      "type": "error"
    },
    {
      "inputs": [],
      "name": "ReentrancyGuardReentrantCall",
      "type": "error"
    },
    {
      "anonymous": false,
      "inputs": [
        {
          "indexed": true,
          "internalType": "address",
          "name": "depositor",
          "type": "address"
        },
        {
          "indexed": false,
          "internalType": "uint256",
          "name": "amount",
          "type": "uint256"
        },
        {
          "indexed": false,
          "internalType": "uint256",
          "name": "timestamp",
          "type": "uint256"
        }
      ],
      "name": "FundsDeposited",
      "type": "event"
    },
    {
      "anonymous": false,
      "inputs": [
        {
          "indexed": true,
          "internalType": "address",
          "name": "admin",
          "type": "address"
        },
        {
          "indexed": false,
          "internalType": "uint256",
          "name": "amount",
          "type": "uint256"
        },
        {
          "indexed": false,
          "internalType": "uint256",
          "name": "timestamp",
          "type": "uint256"
        }
      ],
      "name": "FundsWithdrawn",
      "type": "event"
    },
    {
      "anonymous": false,
      "inputs": [
        {
          "indexed": false,
          "internalType": "address",
          "name": "account",
          "type": "address"
        }
      ],
      "name": "Paused",
      "type": "event"
    },
    {
      "anonymous": false,
      "inputs": [
        {
          "indexed": true,
          "internalType": "bytes32",
          "name": "role",
          "type": "bytes32"
        },
        {
          "indexed": true,
          "internalType": "bytes32",
          "name": "previousAdminRole",
          "type": "bytes32"
        },
        {
          "indexed": true,
          "internalType": "bytes32",
          "name": "newAdminRole",
          "type": "bytes32"
        }
      ],
      "name": "RoleAdminChanged",
      "type": "event"
    },
    {
      "anonymous": false,
      "inputs": [
        {
          "indexed": true,
          "internalType": "bytes32",
          "name": "role",
          "type": "bytes32"
        },
        {
          "indexed": true,
          "internalType": "address",
          "name": "account",
          "type": "address"
        },
        {
          "indexed": true,
          "internalType": "address",
          "name": "sender",
          "type": "address"
        }
      ],
      "name": "RoleGranted",
      "type": "event"
    },
    {
      "anonymous": false,
      "inputs": [
        {
          "indexed": true,
          "internalType": "bytes32",
          "name": "role",
          "type": "bytes32"
        },
        {
          "indexed": true,
          "internalType": "address",
          "name": "account",
          "type": "address"
        },
        {
          "indexed": true,
          "internalType": "address",
          "name": "sender",
          "type": "address"
        }
      ],
      "name": "RoleRevoked",
      "type": "event"
    },
    {
      "anonymous": false,
      "inputs": [
        {
          "indexed": true,
          "internalType": "uint256",
          "name": "scholarshipId",
          "type": "uint256"
        },
        {
          "indexed": true,
          "internalType": "address",
          "name": "student",
          "type": "address"
        },
        {
          "indexed": false,
          "internalType": "uint256",
          "name": "amount",
          "type": "uint256"
        },
        {
          "indexed": false,
          "internalType": "uint256",
          "name": "timestamp",
          "type": "uint256"
        }
      ],
      "name": "ScholarshipClaimed",
      "type": "event"
    },
    {
      "anonymous": false,
      "inputs": [
        {
          "indexed": true,
          "internalType": "uint256",
          "name": "scholarshipId",
          "type": "uint256"
        },
        {
          "indexed": false,
          "internalType": "string",
          "name": "name",
          "type": "string"
        },
        {
          "indexed": false,
          "internalType": "uint256",
          "name": "totalAmount",
          "type": "uint256"
        },
        {
          "indexed": false,
          "internalType": "uint256",
          "name": "maxRecipients",
          "type": "uint256"
        },
        {
          "indexed": false,
          "internalType": "uint256",
          "name": "deadline",
          "type": "uint256"
        },
        {
          "indexed": false,
          "internalType": "uint256",
          "name": "timestamp",
          "type": "uint256"
        }
      ],
      "name": "ScholarshipCreated",
      "type": "event"
    },
    {
      "anonymous": false,
      "inputs": [
        {
          "indexed": true,
          "internalType": "uint256",
          "name": "scholarshipId",
          "type": "uint256"
        },
        {
          "indexed": true,
          "internalType": "address",
          "name": "admin",
          "type": "address"
        },
        {
          "indexed": false,
          "internalType": "uint256",
          "name": "timestamp",
          "type": "uint256"
        }
      ],
      "name": "ScholarshipRevoked",
      "type": "event"
    },
    {
      "anonymous": false,
      "inputs": [
        {
          "indexed": false,
          "internalType": "address",
          "name": "account",
          "type": "address"
        }
      ],
      "name": "Unpaused",
      "type": "event"
    },
    {
      "inputs": [],
      "name": "ADMIN_ROLE",
      "outputs": [
        {
          "internalType": "bytes32",
          "name": "",
          "type": "bytes32"
        }
      ],
      "stateMutability": "view",
      "type": "function"
    },
    {
      "inputs": [],
      "name": "DEFAULT_ADMIN_ROLE",
      "outputs": [
        {
          "internalType": "bytes32",
          "name": "",
          "type": "bytes32"
        }
      ],
      "stateMutability": "view",
      "type": "function"
    },
    {
      "inputs": [],
      "name": "SCHOLARSHIP_MANAGER_ROLE",
      "outputs": [
        {
          "internalType": "bytes32",
          "name": "",
          "type": "bytes32"
        }
      ],
      "stateMutability": "view",
      "type": "function"
    },
    {
      "inputs": [],
      "name": "certificateNFT",
      "outputs": [
        {
          "internalType": "contract CertificateNFT",
          "name": "",
          "type": "address"
        }
      ],
      "stateMutability": "view",
      "type": "function"
    },
    {
      "inputs": [
        {
          "internalType": "uint256",
          "name": "scholarshipId",
          "type": "uint256"
        }
      ],
      "name": "claimScholarship",
      "outputs": [],
      "stateMutability": "nonpayable",
      "type": "function"
    },
    {
      "inputs": [
        {
          "internalType": "string",
          "name": "name",
          "type": "string"
        },
        {
          "internalType": "string",
          "name": "description",
          "type": "string"
        },
        {
          "internalType": "uint256",
          "name": "totalAmount",
          "type": "uint256"
        },
        {
          "internalType": "uint256",
          "name": "maxRecipients",
          "type": "uint256"
        },
        {
          "internalType": "uint256",
          "name": "deadline",
          "type": "uint256"
        },
        {
          "internalType": "address",
          "name": "tokenAddress",
          "type": "address"
        },
        {
          "internalType": "string",
          "name": "tokenSymbol",
          "type": "string"
        },
        {
          "components": [
            {
              "internalType": "uint256",
              "name": "minGPA",
              "type": "uint256"
            },
            {
              "internalType": "string[]",
              "name": "requiredCourses",
              "type": "string[]"
            },
            {
              "internalType": "string[]",
              "name": "allowedDepartments",
              "type": "string[]"
            },
            {
              "internalType": "uint256",
              "name": "minCertificates",
              "type": "uint256"
            },
            {
              "internalType": "uint256",
              "name": "enrollmentAfter",
              "type": "uint256"
            },
            {
              "internalType": "uint256",
              "name": "enrollmentBefore",
              "type": "uint256"
            },
            {
              "internalType": "bool",
              "name": "requiresAllCourses",
              "type": "bool"
            }
          ],
          "internalType": "struct ScholarshipEscrow.EligibilityCriteria",
          "name": "criteria",
          "type": "tuple"
        }
      ],
      "name": "createScholarship",
      "outputs": [
        {
          "internalType": "uint256",
          "name": "",
          "type": "uint256"
        }
      ],
      "stateMutability": "payable",
      "type": "function"
    },
    {
      "inputs": [],
      "name": "depositFunds",
      "outputs": [],
      "stateMutability": "payable",
      "type": "function"
    },
    {
      "inputs": [],
      "name": "getContractBalance",
      "outputs": [
        {
          "internalType": "uint256",
          "name": "",
          "type": "uint256"
        }
      ],
      "stateMutability": "view",
      "type": "function"
    },
    {
      "inputs": [
        {
          "internalType": "bytes32",
          "name": "role",
          "type": "bytes32"
        }
      ],
      "name": "getRoleAdmin",
      "outputs": [
        {
          "internalType": "bytes32",
          "name": "",
          "type": "bytes32"
        }
      ],
      "stateMutability": "view",
      "type": "function"
    },
    {
      "inputs": [
        {
          "internalType": "uint256",
          "name": "scholarshipId",
          "type": "uint256"
        }
      ],
      "name": "getScholarship",
      "outputs": [
        {
          "components": [
            {
              "internalType": "string",
              "name": "name",
              "type": "string"
            },
            {
              "internalType": "string",
              "name": "description",
              "type": "string"
            },
            {
              "internalType": "uint256",
              "name": "totalAmount",
              "type": "uint256"
            },
            {
              "internalType": "uint256",
              "name": "claimedAmount",
              "type": "uint256"
            },
            {
              "internalType": "uint256",
              "name": "remainingAmount",
              "type": "uint256"
            },
            {
              "internalType": "uint256",
              "name": "maxRecipients",
              "type": "uint256"
            },
            {
              "internalType": "uint256",
              "name": "amountPerRecipient",
              "type": "uint256"
            },
            {
              "internalType": "uint256",
              "name": "createdAt",
              "type": "uint256"
            },
            {
              "internalType": "uint256",
              "name": "deadline",
              "type": "uint256"
            },
            {
              "internalType": "bool",
              "name": "isActive",
              "type": "bool"
            },
            {
              "internalType": "address",
              "name": "createdBy",
              "type": "address"
            },
            {
              "internalType": "address",
              "name": "tokenAddress",
              "type": "address"
            },
            {
              "internalType": "string",
              "name": "tokenSymbol",
              "type": "string"
            }
          ],
          "internalType": "struct ScholarshipEscrow.Scholarship",
          "name": "",
          "type": "tuple"
        }
      ],
      "stateMutability": "view",
      "type": "function"
    },
    {
      "inputs": [
        {
          "internalType": "address",
          "name": "student",
          "type": "address"
        }
      ],
      "name": "getStudentScholarships",
      "outputs": [
        {
          "internalType": "uint256[]",
          "name": "",
          "type": "uint256[]"
        }
      ],
      "stateMutability": "view",
      "type": "function"
    },
    {
      "inputs": [
        {
          "internalType": "address",
          "name": "student",
          "type": "address"
        }
      ],
      "name": "getTotalClaimed",
      "outputs": [
        {
          "internalType": "uint256",
          "name": "",
          "type": "uint256"
        }
      ],
      "stateMutability": "view",
      "type": "function"
    },
    {
      "inputs": [
        {
          "internalType": "bytes32",
          "name": "role",
          "type": "bytes32"
        },
        {
          "internalType": "address",
          "name": "account",
          "type": "address"
        }
      ],
      "name": "grantRole",
      "outputs": [],
      "stateMutability": "nonpayable",
      "type": "function"
    },
    {
      "inputs": [
        {
          "internalType": "address",
          "name": "student",
          "type": "address"
        }
      ],
      "name": "hasRequiredCertificates",
      "outputs": [
        {
          "internalType": "bool",
          "name": "",
          "type": "bool"
        }
      ],
      "stateMutability": "view",
      "type": "function"
    },
    {
      "inputs": [
        {
          "internalType": "bytes32",
          "name": "role",
          "type": "bytes32"
        },
        {
          "internalType": "address",
          "name": "account",
          "type": "address"
        }
      ],
      "name": "hasRole",
      "outputs": [
        {
          "internalType": "bool",
          "name": "",
          "type": "bool"
        }
      ],
      "stateMutability": "view",
      "type": "function"
    },
    {
      "inputs": [
        {
          "internalType": "uint256",
          "name": "scholarshipId",
          "type": "uint256"
        },
        {
          "internalType": "address",
          "name": "student",
          "type": "address"
        }
      ],
      "name": "isEligibleForScholarship",
      "outputs": [
        {
          "internalType": "bool",
          "name": "",
          "type": "bool"
        }
      ],
      "stateMutability": "view",
      "type": "function"
    },
    {
      "inputs": [],
      "name": "pause",
      "outputs": [],
      "stateMutability": "nonpayable",
      "type": "function"
    },
    {
      "inputs": [],
      "name": "paused",
      "outputs": [
        {
          "internalType": "bool",
          "name": "",
          "type": "bool"
        }
      ],
      "stateMutability": "view",
      "type": "function"
    },
    {
      "inputs": [
        {
          "internalType": "bytes32",
          "name": "role",
          "type": "bytes32"
        },
        {
          "internalType": "address",
          "name": "callerConfirmation",
          "type": "address"
        }
      ],
      "name": "renounceRole",
      "outputs": [],
      "stateMutability": "nonpayable",
      "type": "function"
    },
    {
      "inputs": [
        {
          "internalType": "bytes32",
          "name": "role",
          "type": "bytes32"
        },
        {
          "internalType": "address",
          "name": "account",
          "type": "address"
        }
      ],
      "name": "revokeRole",
      "outputs": [],
      "stateMutability": "nonpayable",
      "type": "function"
    },
    {
      "inputs": [
        {
          "internalType": "uint256",
          "name": "scholarshipId",
          "type": "uint256"
        }
      ],
      "name": "revokeScholarship",
      "outputs": [],
      "stateMutability": "nonpayable",
      "type": "function"
    },
    {
      "inputs": [
        {
          "internalType": "uint256",
          "name": "",
          "type": "uint256"
        },
        {
          "internalType": "address",
          "name": "",
          "type": "address"
        }
      ],
      "name": "scholarshipClaims",
      "outputs": [
        {
          "internalType": "bool",
          "name": "",
          "type": "bool"
        }
      ],
      "stateMutability": "view",
      "type": "function"
    },
    {
      "inputs": [
        {
          "internalType": "uint256",
          "name": "",
          "type": "uint256"
        }
      ],
      "name": "scholarshipCriteria",
      "outputs": [
        {
          "internalType": "uint256",
          "name": "minGPA",
          "type": "uint256"
        },
        {
          "internalType": "uint256",
          "name": "minCertificates",
          "type": "uint256"
        },
        {
          "internalType": "uint256",
          "name": "enrollmentAfter",
          "type": "uint256"
        },
        {
          "internalType": "uint256",
          "name": "enrollmentBefore",
          "type": "uint256"
        },
        {
          "internalType": "bool",
          "name": "requiresAllCourses",
          "type": "bool"
        }
      ],
      "stateMutability": "view",
      "type": "function"
    },
    {
      "inputs": [
        {
          "internalType": "uint256",
          "name": "",
          "type": "uint256"
        }
      ],
      "name": "scholarships",
      "outputs": [
        {
          "internalType": "string",
          "name": "name",
          "type": "string"
        },
        {
          "internalType": "string",
          "name": "description",
          "type": "string"
        },
        {
          "internalType": "uint256",
          "name": "totalAmount",
          "type": "uint256"
        },
        {
          "internalType": "uint256",
          "name": "claimedAmount",
          "type": "uint256"
        },
        {
          "internalType": "uint256",
          "name": "remainingAmount",
          "type": "uint256"
        },
        {
          "internalType": "uint256",
          "name": "maxRecipients",
          "type": "uint256"
        },
        {
          "internalType": "uint256",
          "name": "amountPerRecipient",
          "type": "uint256"
        },
        {
          "internalType": "uint256",
          "name": "createdAt",
          "type": "uint256"
        },
        {
          "internalType": "uint256",
          "name": "deadline",
          "type": "uint256"
        },
        {
          "internalType": "bool",
          "name": "isActive",
          "type": "bool"
        },
        {
          "internalType": "address",
          "name": "createdBy",
          "type": "address"
        },
        {
          "internalType": "address",
          "name": "tokenAddress",
          "type": "address"
        },
        {
          "internalType": "string",
          "name": "tokenSymbol",
          "type": "string"
        }
      ],
      "stateMutability": "view",
      "type": "function"
    },
    {
      "inputs": [
        {
          "internalType": "address",
          "name": "",
          "type": "address"
        },
        {
          "internalType": "uint256",
          "name": "",
          "type": "uint256"
        }
      ],
      "name": "studentScholarships",
      "outputs": [
        {
          "internalType": "uint256",
          "name": "",
          "type": "uint256"
        }
      ],
      "stateMutability": "view",
      "type": "function"
    },
    {
      "inputs": [
        {
          "internalType": "bytes4",
          "name": "interfaceId",
          "type": "bytes4"
        }
      ],
      "name": "supportsInterface",
      "outputs": [
        {
          "internalType": "bool",
          "name": "",
          "type": "bool"
        }
      ],
      "stateMutability": "view",
      "type": "function"
    },
    {
      "inputs": [
        {
          "internalType": "address",
          "name": "",
          "type": "address"
        }
      ],
      "name": "totalClaimed",
      "outputs": [
        {
          "internalType": "uint256",
          "name": "",
          "type": "uint256"
        }
      ],
      "stateMutability": "view",
      "type": "function"
    },
    {
      "inputs": [],
      "name": "unpause",
      "outputs": [],
      "stateMutability": "nonpayable",
      "type": "function"
    },
    {
      "inputs": [
        {
          "internalType": "uint256",
          "name": "amount",
          "type": "uint256"
        }
      ],
      "name": "withdrawFunds",
      "outputs": [],
      "stateMutability": "nonpayable",
      "type": "function"
    },
    {
      "stateMutability": "payable",
      "type": "receive"
    }
  ],
  "bytecode": "0x608034620000ab57601f6200268838819003918201601f19168301916001600160401b03831184841017620000b057808492602094604052833981010312620000ab57516001600160a01b03811690819003620000ab576001805460ff191681556002556200006e33620000c6565b506200007a3362000146565b506200008633620001e8565b50600980546001600160a01b0319169190911790556040516123e29081620002868239f35b600080fd5b634e487b7160e01b600052604160045260246000fd5b6001600160a01b031660008181527fad3228b676f7d3cd4284a5443f17f1962b36e491b30a40b2405849e597ba5fb5602052604081205490919060ff166200014257818052816020526040822081835260205260408220600160ff198254161790553391600080516020620026688339815191528180a4600190565b5090565b6001600160a01b031660008181527f7d7ffb7a348e1c6a02869081a26547b49160dd3df72d1d75a570eb9b698292ec60205260408120549091907fa49807205ce4d355092ef5a8a18f56e8913cf4a201fbe287825b095693c217759060ff16620001e357808352826020526040832082845260205260408320600160ff1982541617905560008051602062002668833981519152339380a4600190565b505090565b6001600160a01b031660008181527f2be4733a403b4fa43fe419b79f643ea84b696c2296fa963fa7ae1e04f197984460205260408120549091907f10611feacf75d15e8cdab75bab566e5fa2cfa0efaea1e2ce4eddab65ac96f5a29060ff16620001e357808352826020526040832082845260205260408320600160ff1982541617905560008051602062002668833981519152339380a460019056fe608080604052600436101561004f575b50361561001b57600080fd5b6040513481524260208201527fbee4fe3675934fca827426c793623996a3079255089bda3a717019ffc5db276560403392a2005b60003560e01c90816301ffc9a714611c14575080630d7bd1d814611be4578063155dd5ee14611aeb578063248a9ca314611abc5780632f2ff15d14611a7d57806334e617a11461163757806336568abe146115f057806339dc58c6146114f35780633b71498a146114ca5780633f4ba83a14611460578063522bf1d41461019b5780635243a69e146108545780635c975abb146108315780636f9fb98a146108155780637322333c146107bd57806375b238fc1461079457806381336d0c146106e05780638456cb591461068757806391aec72a1461065e57806391d14854146106115780639e1d1d02146105c4578063a217fddf146105a8578063a23158a314610515578063a3bf4f4c14610307578063a703178f146102aa578063d547741f14610269578063dd518750146101f9578063e2c41dbc146101da5763ef5d9ae81461019b573861000f565b346101d55760203660031901126101d5576001600160a01b036101bc611c7d565b1660005260066020526020604060002054604051908152f35b600080fd5b60003660031901126101d5576101ee6120fa565b61001b341515612097565b346101d55760203660031901126101d557600435610215611f34565b8060005260046020526009604060002001805461023460ff8216612118565b60ff19169055604051904282527ff26427fe718f7a208b96aa3006e1f4bfb0ae8ab9934ec808c98fd863ff47d99560203393a3005b346101d55760403660031901126101d5576102a8600435610288611c67565b908060005260006020526102a3600160406000200154611f7e565b612022565b005b346101d55760203660031901126101d557600435600052600860205260a06040600020805490600381015490600481015460ff60066005840154930154169260405194855260208501526040840152606083015215156080820152f35b346101d55760203660031901126101d557606061018060405161032981611ce8565b8281528260208201526000604082015260008382015260006080820152600060a0820152600060c0820152600060e0820152600061010082015260006101208201526000610140820152600061016082015201526004356000526004602052610511604060002061043b600b604051926103a284611ce8565b6103ab81611d27565b84526103b960018201611d27565b6020850152600281015460408501526003810154606085015260048101546080850152600581015460a0850152600681015460c0850152600781015460e0850152600880820154610100860152600982015460ff811615156101208701526001600160a01b03911c8116610140860152600a8201541661016085015201611d27565b6101808201526040519182916020835261018061047f61046983516101a060208801526101c0870190611dcd565b6020840151868203601f19016040880152611dcd565b916040810151606086015260608101516080860152608081015160a086015260a081015160c086015260c081015160e086015260e0810151610100860152610100810151610120860152610120810151151561014086015260018060a01b036101408201511661016086015260018060a01b0361016082015116828601520151601f19848303016101a0850152611dcd565b0390f35b346101d55760203660031901126101d55761052e611c7d565b6009546040516303af18ef60e61b81526001600160a01b0392831660048201529160009183916024918391165afa801561059c57602091600091610579575b50511515604051908152f35b61059691503d806000833e61058e8183611d04565b810190612213565b8261056d565b6040513d6000823e3d90fd5b346101d55760003660031901126101d557602060405160008152f35b346101d55760403660031901126101d5576105dd611c67565b600435600052600760205260406000209060018060a01b0316600052602052602060ff604060002054166040519015158152f35b346101d55760403660031901126101d55761062a611c67565b600435600052600060205260406000209060018060a01b0316600052602052602060ff604060002054166040519015158152f35b346101d55760003660031901126101d5576009546040516001600160a01b039091168152602090f35b346101d55760003660031901126101d5576106a0611f34565b6106a86120fa565b600160ff19815416176001557f62e78cea01bee320cd4e420270b5ea74000d11b0c9f74754ebdbfc544b05a2586020604051338152a1005b346101d5576020806003193601126101d5576001600160a01b03610702611c7d565b1660005260058152604060002060405190818382549182815201908192600052846000209060005b8682821061078057868661074082880383611d04565b604051928392818401908285525180915260408401929160005b82811061076957505050500390f35b83518552869550938101939281019260010161075a565b83548552909301926001928301920161072a565b346101d55760003660031901126101d557602060405160008051602061238d8339815191528152f35b346101d55760403660031901126101d5576107d6611c7d565b6001600160a01b03166000908152600560205260409020805460243591908210156101d55760209161080791611f06565b90546040519160031b1c8152f35b346101d55760003660031901126101d557602047604051908152f35b346101d55760003660031901126101d557602060ff600154166040519015158152f35b600319610100368201126101d5576004356001600160401b0381116101d557610881903690600401611e28565b6024356001600160401b0381116101d5576108a0903690600401611e28565b60a43591906001600160a01b03831683036101d55760c4356001600160401b0381116101d5576108d4903690600401611e28565b936001600160401b0360e435116101d55760e09060e435360301126101d5576040519361090085611ccd565b60e43560048101358652602401356001600160401b0381116101d55761092e906004369160e4350101611e86565b60208601526001600160401b0360e43560440135116101d55761095c3660e435604481013501600401611e86565b604086015260e435606481013560608701526084810135608087015260a481013560a087015260c4013580151590036101d55760e43560c4013560c08601523360009081527f2be4733a403b4fa43fe419b79f643ea84b696c2296fa963fa7ae1e04f1979844602052604090205460008051602061236d8339815191529060ff161561144257506109eb6120fa565b6109f86044351515612097565b606435156113ef574260843511156113aa5782511561136e576001600160a01b03841615611327575b600354936000198514611311576001850160035560405192610a4284611ce8565b8484526020840152604435604084015260006060840152604435608084015260643560a08401526064356044350460c08401524260e084015260843561010084015260016101208401523361014084015260018060a01b0316610160830152610180820152600183016000526004602052604060002090805180519060018060401b038211610ee9578190610ad78554611c93565b601f81116112df575b50602090601f831160011461127357600092611268575b50508160011b916000199060031b1c19161782555b60208101518051906001600160401b038211610ee957610b2f6001850154611c93565b601f8111611233575b50602090601f83116001146111bf57610180939291600091836111b4575b50508160011b916000199060031b1c19161760018401555b60408101516002840155606081015160038401556080810151600484015560a0810151600584015560c0810151600684015560e08101516007840155610100810151600884015560098301610bd66101208301511515829060ff801983541691151516179055565b6101408201518154610100600160a81b03191660089190911b610100600160a81b0316179055610160810151600a840180546001600160a01b0319166001600160a01b039290921691909117905501518051906001600160401b038211610ee957610c44600b840154611c93565b601f811161117f575b50602090601f831160011461110f57600b929160009183611104575b50508160011b916000199060031b1c1916179101555b600182016000526008602052604060002092805184556020810151805190600160401b8211610ee957600186015482600188015580831061108c575b5060200190600186016000526020600020916000905b828210610f7757505050506040810151805190600160401b8211610ee9576002860154826002880155808310610eff575b5060200190600286016000526020600020916000905b828210610dc95760208787610d618b600660c08b606081015160038501556080810151600485015560a081015160058501550151151591019060ff801983541691151516179055565b7ffb7d30f4038456fa76a49e3e268621c565e0e045b6e0f73e0b82d5914f82115a610d976040519260a0845260a0840190611dcd565b9160443585820152606435604082015260843560608201524260808201528060018501930390a2600160405191018152f35b80518051906001600160401b038211610ee957610de68654611c93565b601f8111610eac575b50602090601f8311600114610e3c579282600194936020938695600092610e31575b5050600019600383901b1c191690841b1787555b01940191019092610d18565b015190508d80610e11565b908660005260206000209160005b601f1985168110610e94575083602093600196938796938794601f19811610610e7b575b505050811b018755610e25565b015160001960f88460031b161c191690558d8080610e6e565b91926020600181928685015181550194019201610e4a565b610ed990876000526020600020601f850160051c81019160208610610edf575b601f0160051c01906120e3565b8a610def565b9091508190610ecc565b634e487b7160e01b600052604160045260246000fd5b600287016000526020600020908382015b8183018110610f20575050610d02565b80610f2d60019254611c93565b80610f3a575b5001610f10565b601f81118314610f505750600081555b8a610f33565b600090828252610f6e601f60208420920160051c82018583016120e3565b81835555610f4a565b80518051906001600160401b038211610ee957610f948654611c93565b601f811161105a575b50602090601f8311600114610fea579282600194936020938695600092610fdf575b5050600019600383901b1c191690841b1787555b01940191019092610cd1565b015190508d80610fbf565b908660005260206000209160005b601f1985168110611042575083602093600196938796938794601f19811610611029575b505050811b018755610fd3565b015160001960f88460031b161c191690558d808061101c565b91926020600181928685015181550194019201610ff8565b61108690876000526020600020601f850160051c81019160208610610edf57601f0160051c01906120e3565b8a610f9d565b600187016000526020600020908382015b81830181106110ad575050610cbb565b806110ba60019254611c93565b806110c7575b500161109d565b601f811183146110dd5750600081555b8a6110c0565b6000908282526110fb601f60208420920160051c82018583016120e3565b818355556110d7565b015190508780610c69565b90600b840160005260206000209160005b601f19851681106111675750918391600193600b95601f1981161061114e575b505050811b01910155610c7f565b015160001960f88460031b161c19169055878080611140565b91926020600181928685015181550194019201611120565b6111ae90600b85016000526020600020601f850160051c81019160208610610edf57601f0160051c01906120e3565b86610c4d565b015190508880610b56565b906001850160005260206000209160005b601f198516811061121b57509183916001936101809695601f19811610611202575b505050811b016001840155610b6e565b015160001960f88460031b161c191690558880806111f2565b919260206001819286850151815501940192016111d0565b61126290600186016000526020600020601f850160051c81019160208610610edf57601f0160051c01906120e3565b87610b38565b015190508780610af7565b9250846000526020600020906000935b601f19841685106112c4576001945083601f198116106112ab575b505050811b018255610b0c565b015160001960f88460031b161c1916905587808061129e565b81810151835560209485019460019093019290910190611283565b61130b90866000526020600020601f850160051c81019160208610610edf57601f0160051c01906120e3565b88610ae0565b634e487b7160e01b600052601160045260246000fd5b604435341015610a215760405162461bcd60e51b8152602060048201526015602482015274125b9cdd59999a58da595b9d08115512081cd95b9d605a1b6044820152606490fd5b60405162461bcd60e51b81526020600482015260146024820152734e616d652063616e6e6f7420626520656d70747960601b6044820152606490fd5b60405162461bcd60e51b815260206004820152601e60248201527f446561646c696e65206d75737420626520696e207468652066757475726500006044820152606490fd5b60405162461bcd60e51b815260206004820152602560248201527f4d617820726563697069656e7473206d75737420626520677265617465722074604482015264068616e20360dc1b6064820152608490fd5b6044906040519063e2517d3f60e01b82523360048301526024820152fd5b346101d55760003660031901126101d557611479611f34565b60015460ff8116156114b85760ff19166001557f5db9ee0a495bf2e6ff9c91a7834c1ba4fdd244a5e8aa4e537bd38aeae4b073aa6020604051338152a1005b604051638dfc202b60e01b8152600490fd5b346101d55760003660031901126101d557602060405160008051602061236d8339815191528152f35b346101d55760203660031901126101d5576004356000526004602052604060002061151d81611d27565b61152960018301611d27565b9160028101546003820154916004810154600582015460068301546007840154600885015491600986015493600160a01b600190039586600a8901541697600b0161157390611d27565b996040519c8d9c8d6101a0908181520161158c91611dcd565b8d810360208f015261159d91611dcd565b9960408d015260608c015260808b015260a08a015260c089015260e088015261010087015260ff8116151561012087015260081c1661014085015261016084015282810361018084015261051191611dcd565b346101d55760403660031901126101d557611609611c67565b336001600160a01b03821603611625576102a890600435612022565b60405163334bd91960e11b8152600490fd5b346101d5576020806003193601126101d5576004356116546120fa565b61165c61219d565b8060005260048252604060002091600983019261167c60ff855416612118565b60088101544211611a38578260005260078252604060002033600052825260ff604060002054166119f557600481019384549485156119bb576003830180549060028501918254111561197a576116d3338861228c565b156119235760068501549788116118df578660005260078652604060002033600052865260406000209260ff1993600185825416179055611715898354612160565b8092558054898103818111611311578a9255149182156118d3575b50506118c7575b5050600a01546001600160a01b03166118775782471061183357600080808086335af161176261216d565b50156117f95733600052600681526040600020611780848254612160565b9055336000526005815260406000208054600160401b811015610ee9576117ac91600182018155611f06565b81549060031b9084821b91600019901b191617905560405192835242908301527fe42aa83ab8ca2f75461639b0a68d5ff14dfc3af23e4bc1a67a945c7c16b620dd60403393a36001600255005b6064906040519062461bcd60e51b825260048201526013602482015272115512081d1c985b9cd9995c8819985a5b1959606a1b6044820152fd5b6064906040519062461bcd60e51b82526004820152601d60248201527f496e73756666696369656e7420636f6e74726163742062616c616e63650000006044820152fd5b6084906040519062461bcd60e51b82526004820152602360248201527f4552433230207472616e7366657273206e6f742079657420696d706c656d656e6044820152621d195960ea1b6064820152fd5b81541690558480611737565b54111590508780611730565b60405162461bcd60e51b815260048101879052601c60248201527b496e73756666696369656e742066756e647320666f7220636c61696d60201b6044820152606490fd5b60405162461bcd60e51b815260048101879052602960248201527f53747564656e74206e6f7420656c696769626c6520666f7220746869732073636044820152680686f6c6172736869760bc1b6064820152608490fd5b60405162461bcd60e51b815260048101879052601960248201527814d8da1bdb185c9cda1a5c08199d5b1b1e4818db185a5b5959603a1b6044820152606490fd5b60405162461bcd60e51b81526004810185905260126024820152714e6f2066756e64732072656d61696e696e6760701b6044820152606490fd5b6064826040519062461bcd60e51b825280600483015260248201527f416c726561647920636c61696d65642074686973207363686f6c6172736869706044820152fd5b60405162461bcd60e51b815260048101839052601f60248201527f5363686f6c61727368697020646561646c696e652068617320706173736564006044820152606490fd5b346101d55760403660031901126101d5576102a8600435611a9c611c67565b90806000526000602052611ab7600160406000200154611f7e565b611fa4565b346101d55760203660031901126101d55760043560005260006020526020600160406000200154604051908152f35b346101d55760203660031901126101d557600435611b07611f34565b611b0f61219d565b478111611ba857611b21811515612097565b600080808084335af1611b3261216d565b5015611b71576040519081524260208201527ffbc3a599b784fe88772fc5abcc07223f64ca0b13acc341f4fb1e46bef0510eb460403392a26001600255005b60405162461bcd60e51b815260206004820152600f60248201526e151c985b9cd9995c8819985a5b1959608a1b6044820152606490fd5b60405162461bcd60e51b8152602060048201526014602482015273496e73756666696369656e742062616c616e636560601b6044820152606490fd5b346101d55760403660031901126101d5576020611c0a611c02611c67565b60043561228c565b6040519015158152f35b346101d55760203660031901126101d5576004359063ffffffff60e01b82168092036101d557602091637965db0b60e01b8114908115611c56575b5015158152f35b6301ffc9a760e01b14905083611c4f565b602435906001600160a01b03821682036101d557565b600435906001600160a01b03821682036101d557565b90600182811c92168015611cc3575b6020831014611cad57565b634e487b7160e01b600052602260045260246000fd5b91607f1691611ca2565b60e081019081106001600160401b03821117610ee957604052565b6101a081019081106001600160401b03821117610ee957604052565b601f909101601f19168101906001600160401b03821190821017610ee957604052565b9060405191826000825492611d3b84611c93565b908184526001948581169081600014611daa5750600114611d67575b5050611d6592500383611d04565b565b9093915060005260209081600020936000915b818310611d92575050611d6593508201013880611d57565b85548884018501529485019487945091830191611d7a565b915050611d6594506020925060ff191682840152151560051b8201013880611d57565b919082519283825260005b848110611df9575050826000602080949584010152601f8019910116010190565b602081830181015184830182015201611dd8565b6001600160401b038111610ee957601f01601f191660200190565b81601f820112156101d557803590611e3f82611e0d565b92611e4d6040519485611d04565b828452602083830101116101d557816000926020809301838601378301015290565b6001600160401b038111610ee95760051b60200190565b9080601f830112156101d557813590611e9e82611e6f565b92611eac6040519485611d04565b828452602092838086019160051b830101928084116101d557848301915b848310611eda5750505050505090565b82356001600160401b0381116101d5578691611efb84848094890101611e28565b815201920191611eca565b8054821015611f1e5760005260206000200190600090565b634e487b7160e01b600052603260045260246000fd5b3360009081527f7d7ffb7a348e1c6a02869081a26547b49160dd3df72d1d75a570eb9b698292ec602052604090205460008051602061238d8339815191529060ff16156114425750565b80600052600060205260406000203360005260205260ff60406000205416156114425750565b9060009180835282602052604083209160018060a01b03169182845260205260ff6040842054161560001461201d57808352826020526040832082845260205260408320600160ff198254161790557f2f8788117e7eff1d82e926ec794901d17c78024a50270940304540a733656f0d339380a4600190565b505090565b9060009180835282602052604083209160018060a01b03169182845260205260ff60408420541660001461201d5780835282602052604083208284526020526040832060ff1981541690557ff6391f5c32d9c69d2a47ea670b442974b53935d1edc7fd64eb21e047a839171b339380a4600190565b1561209e57565b60405162461bcd60e51b815260206004820152601d60248201527f416d6f756e74206d7573742062652067726561746572207468616e20300000006044820152606490fd5b8181106120ee575050565b600081556001016120e3565b60ff6001541661210657565b60405163d93c066560e01b8152600490fd5b1561211f57565b60405162461bcd60e51b81526020600482015260196024820152785363686f6c617273686970206973206e6f742061637469766560381b6044820152606490fd5b9190820180921161131157565b3d15612198573d9061217e82611e0d565b9161218c6040519384611d04565b82523d6000602084013e565b606090565b60028054146121ac5760028055565b604051633ee5aeb560e01b8152600490fd5b9081546121ca81611e6f565b926121d86040519485611d04565b818452600090815260208082208186015b8484106121f7575050505050565b600183819261220585611d27565b8152019201930192906121e9565b60209081818403126101d5578051906001600160401b0382116101d557019180601f840112156101d557825161224881611e6f565b936122566040519586611d04565b818552838086019260051b8201019283116101d5578301905b82821061227d575050505090565b8151815290830190830161226f565b906000918252600860205260408220906040516122a881611ccd565b825481526122b8600184016121be565b60208201526122c9600284016121be565b604082015260c060ff60066003860154956060850196875260048101546080860152600581015460a086015201541615159101528260018060a01b03602481600954169360405194859384926303af18ef60e61b84521660048301525afa908115612361578391612347575b50519051116123445750600190565b90565b61235b91503d8085833e61058e8183611d04565b38612335565b6040513d85823e3d90fdfe10611feacf75d15e8cdab75bab566e5fa2cfa0efaea1e2ce4eddab65ac96f5a2a49807205ce4d355092ef5a8a18f56e8913cf4a201fbe287825b095693c21775a2646970667358221220981922c78b1280e4c8014291dfc5f1023dd5acde3b0503d35c5d921bc4e8678b64736f6c634300081400332f8788117e7eff1d82e926ec794901d17c78024a50270940304540a733656f0d",
  "linkReferences": {},
  "deployedLinkReferences": {}
}